{"contracts/core/PixBrlaExchange.sol":{"PixBrlaExchange":{"abi":[{"inputs":[{"internalType":"address","name":"_brlaToken","type":"address"},{"internalType":"address","name":"_pixOracle","type":"address"},{"internalType":"address","name":"_treasury","type":"address"},{"internalType":"address","name":"_feeCollector","type":"address"},{"internalType":"address","name":"initialOwner","type":"address"}],"stateMutability":"nonpayable","type":"constructor"},{"inputs":[],"name":"EnforcedPause","type":"error"},{"inputs":[],"name":"ExpectedPause","type":"error"},{"inputs":[{"internalType":"address","name":"owner","type":"address"}],"name":"OwnableInvalidOwner","type":"error"},{"inputs":[{"internalType":"address","name":"account","type":"address"}],"name":"OwnableUnauthorizedAccount","type":"error"},{"inputs":[],"name":"ReentrancyGuardReentrantCall","type":"error"},{"anonymous":false,"inputs":[{"indexed":false,"internalType":"address","name":"treasury","type":"address"},{"indexed":false,"internalType":"address","name":"feeCollector","type":"address"},{"indexed":false,"internalType":"address","name":"pixOracle","type":"address"}],"name":"AddressesUpdated","type":"event"},{"anonymous":false,"inputs":[{"indexed":true,"internalType":"address","name":"user","type":"address"},{"indexed":false,"internalType":"uint256","name":"brlaAmount","type":"uint256"},{"indexed":false,"internalType":"uint256","name":"pixAmount","type":"uint256"},{"indexed":false,"internalType":"uint256","name":"fee","type":"uint256"},{"indexed":false,"internalType":"string","name":"pixKey","type":"string"}],"name":"BrlaToPixCompleted","type":"event"},{"anonymous":false,"inputs":[{"indexed":true,"internalType":"address","name":"user","type":"address"},{"indexed":false,"internalType":"uint256","name":"brlaAmount","type":"uint256"},{"indexed":false,"internalType":"uint256","name":"expectedPixAmount","type":"uint256"},{"indexed":false,"internalType":"string","name":"pixKey","type":"string"},{"indexed":false,"internalType":"uint256","name":"nonce","type":"uint256"}],"name":"BrlaToPixInitiated","type":"event"},{"anonymous":false,"inputs":[{"indexed":false,"internalType":"uint256","name":"feePercentage","type":"uint256"},{"indexed":false,"internalType":"uint256","name":"minPixAmount","type":"uint256"},{"indexed":false,"internalType":"uint256","name":"maxPixAmount","type":"uint256"},{"indexed":false,"internalType":"uint256","name":"dailyLimit","type":"uint256"}],"name":"ConfigurationUpdated","type":"event"},{"anonymous":false,"inputs":[{"indexed":true,"internalType":"address","name":"previousOwner","type":"address"},{"indexed":true,"internalType":"address","name":"newOwner","type":"address"}],"name":"OwnershipTransferred","type":"event"},{"anonymous":false,"inputs":[{"indexed":false,"internalType":"address","name":"account","type":"address"}],"name":"Paused","type":"event"},{"anonymous":false,"inputs":[{"indexed":true,"internalType":"string","name":"pixId","type":"string"},{"indexed":true,"internalType":"address","name":"user","type":"address"},{"indexed":false,"internalType":"uint256","name":"pixAmount","type":"uint256"},{"indexed":false,"internalType":"uint256","name":"brlaAmount","type":"uint256"},{"indexed":false,"internalType":"uint256","name":"fee","type":"uint256"}],"name":"PixToBrlaCompleted","type":"event"},{"anonymous":false,"inputs":[{"indexed":true,"internalType":"string","name":"pixId","type":"string"},{"indexed":true,"internalType":"address","name":"user","type":"address"},{"indexed":false,"internalType":"uint256","name":"pixAmount","type":"uint256"},{"indexed":false,"internalType":"uint256","name":"expectedBrlaAmount","type":"uint256"},{"indexed":false,"internalType":"uint256","name":"nonce","type":"uint256"}],"name":"PixToBrlaInitiated","type":"event"},{"anonymous":false,"inputs":[{"indexed":false,"internalType":"address","name":"account","type":"address"}],"name":"Unpaused","type":"event"},{"inputs":[],"name":"CONVERSION_RATE","outputs":[{"internalType":"uint256","name":"","type":"uint256"}],"stateMutability":"view","type":"function"},{"inputs":[],"name":"FEE_DENOMINATOR","outputs":[{"internalType":"uint256","name":"","type":"uint256"}],"stateMutability":"view","type":"function"},{"inputs":[],"name":"brlaToken","outputs":[{"internalType":"contract BRLAToken","name":"","type":"address"}],"stateMutability":"view","type":"function"},{"inputs":[{"internalType":"uint256","name":"amount","type":"uint256"}],"name":"calculateFee","outputs":[{"internalType":"uint256","name":"","type":"uint256"}],"stateMutability":"view","type":"function"},{"inputs":[{"internalType":"string","name":"pixId","type":"string"}],"name":"completePixToBrla","outputs":[],"stateMutability":"nonpayable","type":"function"},{"inputs":[{"internalType":"address","name":"","type":"address"}],"name":"dailyBrlaToPixVolume","outputs":[{"internalType":"uint256","name":"","type":"uint256"}],"stateMutability":"view","type":"function"},{"inputs":[],"name":"dailyLimit","outputs":[{"internalType":"uint256","name":"","type":"uint256"}],"stateMutability":"view","type":"function"},{"inputs":[{"internalType":"address","name":"","type":"address"}],"name":"dailyPixTobrlaVolume","outputs":[{"internalType":"uint256","name":"","type":"uint256"}],"stateMutability":"view","type":"function"},{"inputs":[],"name":"feeCollector","outputs":[{"internalType":"address","name":"","type":"address"}],"stateMutability":"view","type":"function"},{"inputs":[],"name":"feePercentage","outputs":[{"internalType":"uint256","name":"","type":"uint256"}],"stateMutability":"view","type":"function"},{"inputs":[],"name":"getConversionRate","outputs":[{"internalType":"uint256","name":"","type":"uint256"}],"stateMutability":"pure","type":"function"},{"inputs":[{"internalType":"address","name":"user","type":"address"}],"name":"getUserDailyLimits","outputs":[{"internalType":"uint256","name":"pixToBrlaUsed","type":"uint256"},{"internalType":"uint256","name":"brlaToPixUsed","type":"uint256"},{"internalType":"uint256","name":"remainingLimit","type":"uint256"}],"stateMutability":"view","type":"function"},{"inputs":[{"internalType":"address","name":"user","type":"address"}],"name":"getUserNonce","outputs":[{"internalType":"uint256","name":"","type":"uint256"}],"stateMutability":"view","type":"function"},{"inputs":[{"internalType":"uint256","name":"brlaAmount","type":"uint256"},{"internalType":"string","name":"pixKey","type":"string"}],"name":"initiateBrlaToPixConversion","outputs":[],"stateMutability":"nonpayable","type":"function"},{"inputs":[{"internalType":"string","name":"pixId","type":"string"},{"internalType":"uint256","name":"expectedAmount","type":"uint256"}],"name":"initiatePixToBrla","outputs":[],"stateMutability":"nonpayable","type":"function"},{"inputs":[{"internalType":"address","name":"","type":"address"}],"name":"lastTransactionDay","outputs":[{"internalType":"uint256","name":"","type":"uint256"}],"stateMutability":"view","type":"function"},{"inputs":[],"name":"maxPixAmount","outputs":[{"internalType":"uint256","name":"","type":"uint256"}],"stateMutability":"view","type":"function"},{"inputs":[],"name":"minPixAmount","outputs":[{"internalType":"uint256","name":"","type":"uint256"}],"stateMutability":"view","type":"function"},{"inputs":[],"name":"owner","outputs":[{"internalType":"address","name":"","type":"address"}],"stateMutability":"view","type":"function"},{"inputs":[],"name":"pause","outputs":[],"stateMutability":"nonpayable","type":"function"},{"inputs":[],"name":"paused","outputs":[{"internalType":"bool","name":"","type":"bool"}],"stateMutability":"view","type":"function"},{"inputs":[],"name":"pixOracle","outputs":[{"internalType":"contract PixOracle","name":"","type":"address"}],"stateMutability":"view","type":"function"},{"inputs":[{"internalType":"string","name":"","type":"string"}],"name":"processedPixIds","outputs":[{"internalType":"bool","name":"","type":"bool"}],"stateMutability":"view","type":"function"},{"inputs":[],"name":"renounceOwnership","outputs":[],"stateMutability":"nonpayable","type":"function"},{"inputs":[{"internalType":"address","name":"newOwner","type":"address"}],"name":"transferOwnership","outputs":[],"stateMutability":"nonpayable","type":"function"},{"inputs":[],"name":"treasury","outputs":[{"internalType":"address","name":"","type":"address"}],"stateMutability":"view","type":"function"},{"inputs":[],"name":"unpause","outputs":[],"stateMutability":"nonpayable","type":"function"},{"inputs":[{"internalType":"address","name":"_treasury","type":"address"},{"internalType":"address","name":"_feeCollector","type":"address"},{"internalType":"address","name":"_pixOracle","type":"address"}],"name":"updateAddresses","outputs":[],"stateMutability":"nonpayable","type":"function"},{"inputs":[{"internalType":"uint256","name":"_feePercentage","type":"uint256"},{"internalType":"uint256","name":"_minPixAmount","type":"uint256"},{"internalType":"uint256","name":"_maxPixAmount","type":"uint256"},{"internalType":"uint256","name":"_dailyLimit","type":"uint256"}],"name":"updateConfiguration","outputs":[],"stateMutability":"nonpayable","type":"function"},{"inputs":[{"internalType":"address","name":"","type":"address"}],"name":"userNonce","outputs":[{"internalType":"uint256","name":"","type":"uint256"}],"stateMutability":"view","type":"function"}],"evm":{"bytecode":{"linkReferences":{},"object":"60a034620002b857601f62001c8238819003918201601f191683019291906001600160401b03841183851017620002bd578160a09284926040968752833981010312620002b8576200005181620002d3565b906200006060208201620002d3565b906200006e848201620002d3565b9160806200007f60608401620002d3565b926001600160a01b03918291620000979101620002d3565b16938415620002a057816000549660018060a01b03199680888a1617600055828a5199167f8be0079c531659141344cd1fd0a4f28419497f9722a3daafe3b4186f6b6457e0600080a3600180556032600355670de0b6b3a764000060045569021e19e0c9bab2400000600555690a968163f0a57b400000600655169586156200025e5750818316156200021a578116928315620001d65716938415620001925760805260025490610100600160a81b039060081b1690610100600160a81b031916176002558160075416176007556008541617600855516119999081620002e9823960805181818161040e01528181610e9801526112ce0152f35b855162461bcd60e51b815260206004820152601d60248201527f496e76616c69642066656520636f6c6c6563746f7220616464726573730000006044820152606490fd5b865162461bcd60e51b815260206004820152601860248201527f496e76616c6964207472656173757279206164647265737300000000000000006044820152606490fd5b865162461bcd60e51b815260206004820152601a60248201527f496e76616c696420504958206f7261636c6520616464726573730000000000006044820152606490fd5b62461bcd60e51b815260206004820152601a60248201527f496e76616c69642042524c4120746f6b656e20616464726573730000000000006044820152606490fd5b8651631e4fbdf760e01b815260006004820152602490fd5b600080fd5b634e487b7160e01b600052604160045260246000fd5b51906001600160a01b0382168203620002b85756fe6040608081526004908136101561001557600080fd5b600091823560e01c80632b89a6561461125d5780632c8bff311461020f5780632e04b8e714610d3a5780632f1416bc14611230578063334c14391461108b5780633718e10414610ec75780633939bfac14610e835780633f4ba83a14610e1a578063563dcbd314610dfd5780635a14fcbe14610dde5780635c975abb14610dba57806361d027b314610d9157806367eeba0c14610d725780636834e3a814610d3a5780636f3a8ef914610d025780636f5082e014610a82578063715018a614610a285780638456cb59146109cd5780638da5cb5b146109a5578063996467001461096d57806399a5d7471461093e578063a001ecdd1461091f578063af59c95f146108e7578063bc76920014610843578063c415b95c1461081a578063d73792a9146107fd578063f00e7121146102c6578063f2fde38b14610236578063f36089ec1461020f5763f95acca31461016b57600080fd5b3461020b57602036600319011261020b5780359067ffffffffffffffff82116102075736602383011215610207578101356101a58161176a565b906101b284519283611748565b8082526020820192366024838301011161020357926101ee9260209687848195602460ff99018637830101528551938492839251928391611786565b8101600c815203019020541690519015158152f35b8580fd5b8380fd5b8280fd5b50503461023257816003193601126102325760209051670de0b6b3a76400008152f35b5080fd5b503461020b57602036600319011261020b57610250611708565b906102596117a9565b6001600160a01b039182169283156102b0575050600054826bffffffffffffffffffffffff60a01b821617600055167f8be0079c531659141344cd1fd0a4f28419497f9722a3daafe3b4186f6b6457e0600080a380f35b51631e4fbdf760e01b8152908101849052602490fd5b50903461020b57602091826003193601126102075767ffffffffffffffff8135818111610203576102fa90369084016116da565b92906103046118b3565b60018060a01b03908160025460081c16928651946302256bdf60e11b8652338287015260249589818881895afa90811561076d578b916107c8575b50156107775787516347de8ec760e11b81528281018a90528981806103678a82018c896118e3565b0381895afa90811561076d578b91610738575b50156106f657898851809663f7679ae960e01b82528b8583015281806103a38b82018d8a6118e3565b03915afa80156106ec578a958b928c92610669575b50501561062f5784156105f8578381169889156105c357506127106103df60035487611882565b04936103eb8587611949565b90670de0b6b3a764000091828102908082048414901517156105b15782900497817f000000000000000000000000000000000000000000000000000000000000000016918d833b156105ae578c516340c10f1960e01b8082526001600160a01b03909716888201908152602081018d9052829082908190604001038183895af180156105a45761058c575b505087159182156104e7575b5050505050505090846104dd927fa5976d810d1ea83f34cc3eb6dbbbbb12af641221347e0bb4b71ca764149c302f96885192839283378101600081520390209551938493846040919493926060820195825260208201520152565b0390a36001805580f35b848902928984048614171561057b5750908d95949392916008541694823b15610577578c519485526001600160a01b0390951694840194855291909104602084015290918391839182908490829060400103925af1801561056d57610551575b8080808080610482565b61055d9093929361171e565b61056957908738610547565b8780fd5b88513d84823e3d90fd5b8680fd5b634e487b7160e01b8f52601187528efd5b6105959061171e565b6105a0578d38610476565b8d80fd5b8e513d84823e3d90fd5b80fd5b634e487b7160e01b8d5260118552888dfd5b826011886064938c519362461bcd60e51b855284015282015270125b9d985b1a59081c9958da5c1a595b9d607a1b6044820152fd5b875162461bcd60e51b81528083018a905260128188015271125b9d985b1a590814125608185b5bdd5b9d60721b6044820152606490fd5b875162461bcd60e51b81528083018a90526015818801527414185e5b595b9d081b9bdd0818dbdb999a5c9b5959605a1b6044820152606490fd5b92509550503d808b873e61067d8187611748565b85019460c0818703126106e8578051908a8101519686881688036106e4576106a68b83016118d6565b9360808301518181116106e057826106bf918501611904565b5060a08301519081116105a0576106d69201611904565b50949038806103b8565b8e80fd5b8c80fd5b8a80fd5b88513d8c823e3d90fd5b875162461bcd60e51b81528083018a90526019818801527f504958207061796d656e74206e6f7420636f6e6669726d6564000000000000006044820152606490fd5b90508981813d8311610766575b61074f8183611748565b810103126106e857610760906118d6565b3861037a565b503d610745565b89513d8d823e3d90fd5b875162461bcd60e51b81528083018a90526026818801527f4f6e6c7920617574686f72697a6564207265706f72746572732063616e20636f6044820152656d706c65746560d01b6064820152608490fd5b90508981813d83116107f6575b6107df8183611748565b810103126106e8576107f0906118d6565b3861033f565b503d6107d5565b505034610232578160031936011261023257602090516127108152f35b50503461023257816003193601126102325760085490516001600160a01b039091168152602090f35b5050346102325760203660031901126102325761085e611708565b6001600160a01b03168252600b60205280822054620151804204036108dc5760096020526108c88183205491600a60205280842054935b61089f8585611956565b6006548082106108cc575050905b51938493846040919493926060820195825260208201520152565b0390f35b6108d69250611949565b906108ad565b6108c8829183610895565b5050346102325760203660031901126102325760209181906001600160a01b0361090f611708565b168152600b845220549051908152f35b5050346102325781600319360112610232576020906003549051908152f35b5091346105ae5760203660031901126105ae57506127106109656020936003549035611882565b049051908152f35b5050346102325760203660031901126102325760209181906001600160a01b03610995611708565b1681526009845220549051908152f35b505034610232578160031936011261023257905490516001600160a01b039091168152602090f35b50503461023257816003193601126102325760207f62e78cea01bee320cd4e420270b5ea74000d11b0c9f74754ebdbfc544b05a25891610a0b6117a9565b610a13611895565b600160ff19600254161760025551338152a180f35b83346105ae57806003193601126105ae57610a416117a9565b600080546001600160a01b0319811682556001600160a01b03167f8be0079c531659141344cd1fd0a4f28419497f9722a3daafe3b4186f6b6457e08280a380f35b50919034610232578060031936011261023257823567ffffffffffffffff811161020b57610ab390369085016116da565b60249291923590610ac26118b3565b610aca611895565b8015610cc6578251938181863760ff85838101600c81526020978891030190205416610c8357610afd87548410156117d5565b610b0b600554841115611818565b62015180420433600052600b865280856000205403610c60575b5060098552610b38838560002054611956565b60065410610c1f57336000526009855283600020610b57848254611956565b90558351828282378581848101600c815203019020600160ff19825416179055338652600d8552838620610b8b815461185d565b9055670de0b6b3a76400009182840295848704841485151715610c0c57338852600d90528487205485517fb9b8354f21df9b98f03e2f0ac5e08179a0e3c7df6ef3522635af47479d859d259594936104dd93829181908337810160008152039020955193849333980490846040919493926060820195825260208201520152565b634e487b7160e01b885260118952602488fd5b606487868087519262461bcd60e51b845283015260248201527f4461696c792050495820746f2042524c41206c696d69742065786365656465646044820152fd5b60098652600085812055600a8652600085812055600b8652846000205538610b25565b835162461bcd60e51b8152808801869052601860248201527f50495820494420616c72656164792070726f63657373656400000000000000006044820152606490fd5b825162461bcd60e51b815260208188015260166024820152755049582049442063616e6e6f7420626520656d70747960501b6044820152606490fd5b5050346102325760203660031901126102325760209181906001600160a01b03610d2a611708565b168152600a845220549051908152f35b5050346102325760203660031901126102325760209181906001600160a01b03610d62611708565b168152600d845220549051908152f35b5050346102325781600319360112610232576020906006549051908152f35b50503461023257816003193601126102325760075490516001600160a01b039091168152602090f35b50503461023257816003193601126102325760209060ff6002541690519015158152f35b5050346102325781600319360112610232576020906005549051908152f35b503461020b578260031936011261020b5760209250549051908152f35b503461020b578260031936011261020b57610e336117a9565b6002549060ff821615610e75575060ff1916600255513381527f5db9ee0a495bf2e6ff9c91a7834c1ba4fdd244a5e8aa4e537bd38aeae4b073aa90602090a180f35b8251638dfc202b60e01b8152fd5b505034610232578160031936011261023257517f00000000000000000000000000000000000000000000000000000000000000006001600160a01b03168152602090f35b50829034610232576080366003190112610232578035906024356044359060643592610ef16117a9565b6103e885116110505781156110035781831115610fb45782841115610f5d579186826080959387957fb332ff846a7f7e49c967d592cb8ecccd56f3693ab85af2f484aa5bfabcd2a57a98600355558260055583600655815194855260208501528301526060820152a180f35b608490602088519162461bcd60e51b8352820152602b60248201527f4461696c79206c696d6974206d7573742062652067726561746572207468616e60448201526a081b585e08185b5bdd5b9d60aa1b6064820152fd5b608490602088519162461bcd60e51b8352820152602360248201527f4d617820616d6f756e74206d7573742062652067726561746572207468616e2060448201526236b4b760e91b6064820152fd5b608490602088519162461bcd60e51b8352820152602160248201527f4d696e20616d6f756e74206d7573742062652067726561746572207468616e206044820152600360fc1b6064820152fd5b606490602088519162461bcd60e51b835282015260156024820152744665652063616e6e6f74206578636565642031302560581b6044820152fd5b50903461020b57606036600319011261020b576110a6611708565b906024356001600160a01b038181169182900361122b57604435908082169485830361122b576110d46117a9565b169485156111e85782156111a55784156111625750600780546001600160a01b03199081168717909155600880549091168317815560028054610100600160a81b0319169290911b610100600160a81b0316919091179055815193845260208401528201527f97a48c4be738bdf3e84e8f3927df6d4e52ccc94c58e96a666faca603e456d49090606090a180f35b606490602085519162461bcd60e51b8352820152601a60248201527f496e76616c696420504958206f7261636c6520616464726573730000000000006044820152fd5b606490602085519162461bcd60e51b8352820152601d60248201527f496e76616c69642066656520636f6c6c6563746f7220616464726573730000006044820152fd5b606490602085519162461bcd60e51b8352820152601860248201527f496e76616c6964207472656173757279206164647265737300000000000000006044820152fd5b600080fd5b505034610232578160031936011261023257600254905160089190911c6001600160a01b03168152602090f35b50903461020b578060031936011261020b5760248235813567ffffffffffffffff81116102035761129190369086016116da565b9461129a6118b3565b6112a2611895565b82156116985785156116565784516370a0823160e01b815233818301526020946001600160a01b0392917f000000000000000000000000000000000000000000000000000000000000000084169087818481855afa90811561076d579087918c91611625575b50106115e357670de0b6b3a76400009081870287810483036115d157906113758c848c98979695940497889161134188548410156117d5565b61134f600554841115611818565b8c600b62015180420491338452528d8184842054036115b0575b600a9150522054611956565b6006541061157057338c52600a8952898c20611392878254611956565b90556113ae6127106113a660035489611882565b048097611949565b94813b156106e4578a5163079cc67960e41b815233868201908152602081018b90528e9082908190604001038183875af1801561156457611551575b5086159384156114b9575b505050505050907f95d5bfd23732ba553aaaedb83177aa6ad3cc7e125ea9e898b684ad3c5ae69856956114af9392338a52600d8752818a20611437815461185d565b9055338a52600d8752818a20547f02ab06b404dfd7911fa7df1e5d7410e68bd409b453e8bc4aefd22bfed78dfb658351888152838a820152608085820152611483608082018d896118e3565b9260608201528033930390a28151968796875286015284015260806060840152339560808401916118e3565b0390a26001805580f35b83880294888604851417156115405750908c949392916008541691813b15610203578b516340c10f1960e01b81526001600160a01b039093169483019485529092046020840152918391839182908490829060400103925af1801561056d57611526575b808080806113f5565b611533909493929461171e565b610569579091873861151d565b634e487b7160e01b8e52601186528dfd5b61155d909d919d61171e565b9b386113ea565b8e8d51903d90823e3d90fd5b6064848a85818e519362461bcd60e51b85528401528201527f4461696c792042524c4120746f20504958206c696d69742065786365656465646044820152fd5b806009600b92528385812055600a815283858120555282822055388d611369565b634e487b7160e01b8c5260118552838cfd5b875162461bcd60e51b81528084018890526019818401527f496e73756666696369656e742042524c412062616c616e6365000000000000006044820152606490fd5b809250898092503d831161164f575b61163e8183611748565b810103126106e85786905138611308565b503d611634565b606490601785602088519362461bcd60e51b85528401528201527f504958206b65792063616e6e6f7420626520656d7074790000000000000000006044820152fd5b606490601d85602088519362461bcd60e51b85528401528201527f416d6f756e74206d7573742062652067726561746572207468616e20300000006044820152fd5b9181601f8401121561122b5782359167ffffffffffffffff831161122b576020838186019501011161122b57565b600435906001600160a01b038216820361122b57565b67ffffffffffffffff811161173257604052565b634e487b7160e01b600052604160045260246000fd5b90601f8019910116810190811067ffffffffffffffff82111761173257604052565b67ffffffffffffffff811161173257601f01601f191660200190565b60005b8381106117995750506000910152565b8181015183820152602001611789565b6000546001600160a01b031633036117bd57565b60405163118cdaa760e01b8152336004820152602490fd5b156117dc57565b60405162461bcd60e51b8152602060048201526014602482015273416d6f756e742062656c6f77206d696e696d756d60601b6044820152606490fd5b1561181f57565b60405162461bcd60e51b8152602060048201526016602482015275416d6f756e742065786365656473206d6178696d756d60501b6044820152606490fd5b600019811461186c5760010190565b634e487b7160e01b600052601160045260246000fd5b8181029291811591840414171561186c57565b60ff600254166118a157565b60405163d93c066560e01b8152600490fd5b6002600154146118c4576002600155565b604051633ee5aeb560e01b8152600490fd5b5190811515820361122b57565b908060209392818452848401376000828201840152601f01601f1916010190565b81601f8201121561122b57805161191a8161176a565b926119286040519485611748565b8184526020828401011161122b576119469160208085019101611786565b90565b9190820391821161186c57565b9190820180921161186c5756fea2646970667358221220dc870baadfe928c249cf43b44a7bbf227107390bce34f4869e9b316cd90a765964736f6c63430008140033","opcodes":"PUSH1 0xA0 CALLVALUE PUSH3 0x2B8 JUMPI PUSH1 0x1F PUSH3 0x1C82 CODESIZE DUP2 SWAP1 SUB SWAP2 DUP3 ADD PUSH1 0x1F NOT AND DUP4 ADD SWAP3 SWAP2 SWAP1 PUSH1 0x1 PUSH1 0x1 PUSH1 0x40 SHL SUB DUP5 GT DUP4 DUP6 LT OR PUSH3 0x2BD JUMPI DUP2 PUSH1 0xA0 SWAP3 DUP5 SWAP3 PUSH1 0x40 SWAP7 DUP8 MSTORE DUP4 CODECOPY DUP2 ADD SUB SLT PUSH3 0x2B8 JUMPI PUSH3 0x51 DUP2 PUSH3 0x2D3 JUMP JUMPDEST SWAP1 PUSH3 0x60 PUSH1 0x20 DUP3 ADD PUSH3 0x2D3 JUMP JUMPDEST SWAP1 PUSH3 0x6E DUP5 DUP3 ADD PUSH3 0x2D3 JUMP JUMPDEST SWAP2 PUSH1 0x80 PUSH3 0x7F PUSH1 0x60 DUP5 ADD PUSH3 0x2D3 JUMP JUMPDEST SWAP3 PUSH1 0x1 PUSH1 0x1 PUSH1 0xA0 SHL SUB SWAP2 DUP3 SWAP2 PUSH3 0x97 SWAP2 ADD PUSH3 0x2D3 JUMP JUMPDEST AND SWAP4 DUP5 ISZERO PUSH3 0x2A0 JUMPI DUP2 PUSH1 0x0 SLOAD SWAP7 PUSH1 0x1 DUP1 PUSH1 0xA0 SHL SUB NOT SWAP7 DUP1 DUP9 DUP11 AND OR PUSH1 0x0 SSTORE DUP3 DUP11 MLOAD SWAP10 AND PUSH32 0x8BE0079C531659141344CD1FD0A4F28419497F9722A3DAAFE3B4186F6B6457E0 PUSH1 0x0 DUP1 LOG3 PUSH1 0x1 DUP1 SSTORE PUSH1 0x32 PUSH1 0x3 SSTORE PUSH8 0xDE0B6B3A7640000 PUSH1 0x4 SSTORE PUSH10 0x21E19E0C9BAB2400000 PUSH1 0x5 SSTORE PUSH10 0xA968163F0A57B400000 PUSH1 0x6 SSTORE AND SWAP6 DUP7 ISZERO PUSH3 0x25E JUMPI POP DUP2 DUP4 AND ISZERO PUSH3 0x21A JUMPI DUP2 AND SWAP3 DUP4 ISZERO PUSH3 0x1D6 JUMPI AND SWAP4 DUP5 ISZERO PUSH3 0x192 JUMPI PUSH1 0x80 MSTORE PUSH1 0x2 SLOAD SWAP1 PUSH2 0x100 PUSH1 0x1 PUSH1 0xA8 SHL SUB SWAP1 PUSH1 0x8 SHL AND SWAP1 PUSH2 0x100 PUSH1 0x1 PUSH1 0xA8 SHL SUB NOT AND OR PUSH1 0x2 SSTORE DUP2 PUSH1 0x7 SLOAD AND OR PUSH1 0x7 SSTORE PUSH1 0x8 SLOAD AND OR PUSH1 0x8 SSTORE MLOAD PUSH2 0x1999 SWAP1 DUP2 PUSH3 0x2E9 DUP3 CODECOPY PUSH1 0x80 MLOAD DUP2 DUP2 DUP2 PUSH2 0x40E ADD MSTORE DUP2 DUP2 PUSH2 0xE98 ADD MSTORE PUSH2 0x12CE ADD MSTORE RETURN JUMPDEST DUP6 MLOAD PUSH3 0x461BCD PUSH1 0xE5 SHL DUP2 MSTORE PUSH1 0x20 PUSH1 0x4 DUP3 ADD MSTORE PUSH1 0x1D PUSH1 0x24 DUP3 ADD MSTORE PUSH32 0x496E76616C69642066656520636F6C6C6563746F722061646472657373000000 PUSH1 0x44 DUP3 ADD MSTORE PUSH1 0x64 SWAP1 REVERT JUMPDEST DUP7 MLOAD PUSH3 0x461BCD PUSH1 0xE5 SHL DUP2 MSTORE PUSH1 0x20 PUSH1 0x4 DUP3 ADD MSTORE PUSH1 0x18 PUSH1 0x24 DUP3 ADD MSTORE PUSH32 0x496E76616C696420747265617375727920616464726573730000000000000000 PUSH1 0x44 DUP3 ADD MSTORE PUSH1 0x64 SWAP1 REVERT JUMPDEST DUP7 MLOAD PUSH3 0x461BCD PUSH1 0xE5 SHL DUP2 MSTORE PUSH1 0x20 PUSH1 0x4 DUP3 ADD MSTORE PUSH1 0x1A PUSH1 0x24 DUP3 ADD MSTORE PUSH32 0x496E76616C696420504958206F7261636C652061646472657373000000000000 PUSH1 0x44 DUP3 ADD MSTORE PUSH1 0x64 SWAP1 REVERT JUMPDEST PUSH3 0x461BCD PUSH1 0xE5 SHL DUP2 MSTORE PUSH1 0x20 PUSH1 0x4 DUP3 ADD MSTORE PUSH1 0x1A PUSH1 0x24 DUP3 ADD MSTORE PUSH32 0x496E76616C69642042524C4120746F6B656E2061646472657373000000000000 PUSH1 0x44 DUP3 ADD MSTORE PUSH1 0x64 SWAP1 REVERT JUMPDEST DUP7 MLOAD PUSH4 0x1E4FBDF7 PUSH1 0xE0 SHL DUP2 MSTORE PUSH1 0x0 PUSH1 0x4 DUP3 ADD MSTORE PUSH1 0x24 SWAP1 REVERT JUMPDEST PUSH1 0x0 DUP1 REVERT JUMPDEST PUSH4 0x4E487B71 PUSH1 0xE0 SHL PUSH1 0x0 MSTORE PUSH1 0x41 PUSH1 0x4 MSTORE PUSH1 0x24 PUSH1 0x0 REVERT JUMPDEST MLOAD SWAP1 PUSH1 0x1 PUSH1 0x1 PUSH1 0xA0 SHL SUB DUP3 AND DUP3 SUB PUSH3 0x2B8 JUMPI JUMP INVALID PUSH1 0x40 PUSH1 0x80 DUP2 MSTORE PUSH1 0x4 SWAP1 DUP2 CALLDATASIZE LT ISZERO PUSH2 0x15 JUMPI PUSH1 0x0 DUP1 REVERT JUMPDEST PUSH1 0x0 SWAP2 DUP3 CALLDATALOAD PUSH1 0xE0 SHR DUP1 PUSH4 0x2B89A656 EQ PUSH2 0x125D JUMPI DUP1 PUSH4 0x2C8BFF31 EQ PUSH2 0x20F JUMPI DUP1 PUSH4 0x2E04B8E7 EQ PUSH2 0xD3A JUMPI DUP1 PUSH4 0x2F1416BC EQ PUSH2 0x1230 JUMPI DUP1 PUSH4 0x334C1439 EQ PUSH2 0x108B JUMPI DUP1 PUSH4 0x3718E104 EQ PUSH2 0xEC7 JUMPI DUP1 PUSH4 0x3939BFAC EQ PUSH2 0xE83 JUMPI DUP1 PUSH4 0x3F4BA83A EQ PUSH2 0xE1A JUMPI DUP1 PUSH4 0x563DCBD3 EQ PUSH2 0xDFD JUMPI DUP1 PUSH4 0x5A14FCBE EQ PUSH2 0xDDE JUMPI DUP1 PUSH4 0x5C975ABB EQ PUSH2 0xDBA JUMPI DUP1 PUSH4 0x61D027B3 EQ PUSH2 0xD91 JUMPI DUP1 PUSH4 0x67EEBA0C EQ PUSH2 0xD72 JUMPI DUP1 PUSH4 0x6834E3A8 EQ PUSH2 0xD3A JUMPI DUP1 PUSH4 0x6F3A8EF9 EQ PUSH2 0xD02 JUMPI DUP1 PUSH4 0x6F5082E0 EQ PUSH2 0xA82 JUMPI DUP1 PUSH4 0x715018A6 EQ PUSH2 0xA28 JUMPI DUP1 PUSH4 0x8456CB59 EQ PUSH2 0x9CD JUMPI DUP1 PUSH4 0x8DA5CB5B EQ PUSH2 0x9A5 JUMPI DUP1 PUSH4 0x99646700 EQ PUSH2 0x96D JUMPI DUP1 PUSH4 0x99A5D747 EQ PUSH2 0x93E JUMPI DUP1 PUSH4 0xA001ECDD EQ PUSH2 0x91F JUMPI DUP1 PUSH4 0xAF59C95F EQ PUSH2 0x8E7 JUMPI DUP1 PUSH4 0xBC769200 EQ PUSH2 0x843 JUMPI DUP1 PUSH4 0xC415B95C EQ PUSH2 0x81A JUMPI DUP1 PUSH4 0xD73792A9 EQ PUSH2 0x7FD JUMPI DUP1 PUSH4 0xF00E7121 EQ PUSH2 0x2C6 JUMPI DUP1 PUSH4 0xF2FDE38B EQ PUSH2 0x236 JUMPI DUP1 PUSH4 0xF36089EC EQ PUSH2 0x20F JUMPI PUSH4 0xF95ACCA3 EQ PUSH2 0x16B JUMPI PUSH1 0x0 DUP1 REVERT JUMPDEST CALLVALUE PUSH2 0x20B JUMPI PUSH1 0x20 CALLDATASIZE PUSH1 0x3 NOT ADD SLT PUSH2 0x20B JUMPI DUP1 CALLDATALOAD SWAP1 PUSH8 0xFFFFFFFFFFFFFFFF DUP3 GT PUSH2 0x207 JUMPI CALLDATASIZE PUSH1 0x23 DUP4 ADD SLT ISZERO PUSH2 0x207 JUMPI DUP2 ADD CALLDATALOAD PUSH2 0x1A5 DUP2 PUSH2 0x176A JUMP JUMPDEST SWAP1 PUSH2 0x1B2 DUP5 MLOAD SWAP3 DUP4 PUSH2 0x1748 JUMP JUMPDEST DUP1 DUP3 MSTORE PUSH1 0x20 DUP3 ADD SWAP3 CALLDATASIZE PUSH1 0x24 DUP4 DUP4 ADD ADD GT PUSH2 0x203 JUMPI SWAP3 PUSH2 0x1EE SWAP3 PUSH1 0x20 SWAP7 DUP8 DUP5 DUP2 SWAP6 PUSH1 0x24 PUSH1 0xFF SWAP10 ADD DUP7 CALLDATACOPY DUP4 ADD ADD MSTORE DUP6 MLOAD SWAP4 DUP5 SWAP3 DUP4 SWAP3 MLOAD SWAP3 DUP4 SWAP2 PUSH2 0x1786 JUMP JUMPDEST DUP2 ADD PUSH1 0xC DUP2 MSTORE SUB ADD SWAP1 KECCAK256 SLOAD AND SWAP1 MLOAD SWAP1 ISZERO ISZERO DUP2 MSTORE RETURN JUMPDEST DUP6 DUP1 REVERT JUMPDEST DUP4 DUP1 REVERT JUMPDEST DUP3 DUP1 REVERT JUMPDEST POP POP CALLVALUE PUSH2 0x232 JUMPI DUP2 PUSH1 0x3 NOT CALLDATASIZE ADD SLT PUSH2 0x232 JUMPI PUSH1 0x20 SWAP1 MLOAD PUSH8 0xDE0B6B3A7640000 DUP2 MSTORE RETURN JUMPDEST POP DUP1 REVERT JUMPDEST POP CALLVALUE PUSH2 0x20B JUMPI PUSH1 0x20 CALLDATASIZE PUSH1 0x3 NOT ADD SLT PUSH2 0x20B JUMPI PUSH2 0x250 PUSH2 0x1708 JUMP JUMPDEST SWAP1 PUSH2 0x259 PUSH2 0x17A9 JUMP JUMPDEST PUSH1 0x1 PUSH1 0x1 PUSH1 0xA0 SHL SUB SWAP2 DUP3 AND SWAP3 DUP4 ISZERO PUSH2 0x2B0 JUMPI POP POP PUSH1 0x0 SLOAD DUP3 PUSH12 0xFFFFFFFFFFFFFFFFFFFFFFFF PUSH1 0xA0 SHL DUP3 AND OR PUSH1 0x0 SSTORE AND PUSH32 0x8BE0079C531659141344CD1FD0A4F28419497F9722A3DAAFE3B4186F6B6457E0 PUSH1 0x0 DUP1 LOG3 DUP1 RETURN JUMPDEST MLOAD PUSH4 0x1E4FBDF7 PUSH1 0xE0 SHL DUP2 MSTORE SWAP1 DUP2 ADD DUP5 SWAP1 MSTORE PUSH1 0x24 SWAP1 REVERT JUMPDEST POP SWAP1 CALLVALUE PUSH2 0x20B JUMPI PUSH1 0x20 SWAP2 DUP3 PUSH1 0x3 NOT CALLDATASIZE ADD SLT PUSH2 0x207 JUMPI PUSH8 0xFFFFFFFFFFFFFFFF DUP2 CALLDATALOAD DUP2 DUP2 GT PUSH2 0x203 JUMPI PUSH2 0x2FA SWAP1 CALLDATASIZE SWAP1 DUP5 ADD PUSH2 0x16DA JUMP JUMPDEST SWAP3 SWAP1 PUSH2 0x304 PUSH2 0x18B3 JUMP JUMPDEST PUSH1 0x1 DUP1 PUSH1 0xA0 SHL SUB SWAP1 DUP2 PUSH1 0x2 SLOAD PUSH1 0x8 SHR AND SWAP3 DUP7 MLOAD SWAP5 PUSH4 0x2256BDF PUSH1 0xE1 SHL DUP7 MSTORE CALLER DUP3 DUP8 ADD MSTORE PUSH1 0x24 SWAP6 DUP10 DUP2 DUP9 DUP2 DUP10 GAS STATICCALL SWAP1 DUP2 ISZERO PUSH2 0x76D JUMPI DUP12 SWAP2 PUSH2 0x7C8 JUMPI JUMPDEST POP ISZERO PUSH2 0x777 JUMPI DUP8 MLOAD PUSH4 0x47DE8EC7 PUSH1 0xE1 SHL DUP2 MSTORE DUP3 DUP2 ADD DUP11 SWAP1 MSTORE DUP10 DUP2 DUP1 PUSH2 0x367 DUP11 DUP3 ADD DUP13 DUP10 PUSH2 0x18E3 JUMP JUMPDEST SUB DUP2 DUP10 GAS STATICCALL SWAP1 DUP2 ISZERO PUSH2 0x76D JUMPI DUP12 SWAP2 PUSH2 0x738 JUMPI JUMPDEST POP ISZERO PUSH2 0x6F6 JUMPI DUP10 DUP9 MLOAD DUP1 SWAP7 PUSH4 0xF7679AE9 PUSH1 0xE0 SHL DUP3 MSTORE DUP12 DUP6 DUP4 ADD MSTORE DUP2 DUP1 PUSH2 0x3A3 DUP12 DUP3 ADD DUP14 DUP11 PUSH2 0x18E3 JUMP JUMPDEST SUB SWAP2 GAS STATICCALL DUP1 ISZERO PUSH2 0x6EC JUMPI DUP11 SWAP6 DUP12 SWAP3 DUP13 SWAP3 PUSH2 0x669 JUMPI JUMPDEST POP POP ISZERO PUSH2 0x62F JUMPI DUP5 ISZERO PUSH2 0x5F8 JUMPI DUP4 DUP2 AND SWAP9 DUP10 ISZERO PUSH2 0x5C3 JUMPI POP PUSH2 0x2710 PUSH2 0x3DF PUSH1 0x3 SLOAD DUP8 PUSH2 0x1882 JUMP JUMPDEST DIV SWAP4 PUSH2 0x3EB DUP6 DUP8 PUSH2 0x1949 JUMP JUMPDEST SWAP1 PUSH8 0xDE0B6B3A7640000 SWAP2 DUP3 DUP2 MUL SWAP1 DUP1 DUP3 DIV DUP5 EQ SWAP1 ISZERO OR ISZERO PUSH2 0x5B1 JUMPI DUP3 SWAP1 DIV SWAP8 DUP2 PUSH32 0x0 AND SWAP2 DUP14 DUP4 EXTCODESIZE ISZERO PUSH2 0x5AE JUMPI DUP13 MLOAD PUSH4 0x40C10F19 PUSH1 0xE0 SHL DUP1 DUP3 MSTORE PUSH1 0x1 PUSH1 0x1 PUSH1 0xA0 SHL SUB SWAP1 SWAP8 AND DUP9 DUP3 ADD SWAP1 DUP2 MSTORE PUSH1 0x20 DUP2 ADD DUP14 SWAP1 MSTORE DUP3 SWAP1 DUP3 SWAP1 DUP2 SWAP1 PUSH1 0x40 ADD SUB DUP2 DUP4 DUP10 GAS CALL DUP1 ISZERO PUSH2 0x5A4 JUMPI PUSH2 0x58C JUMPI JUMPDEST POP POP DUP8 ISZERO SWAP2 DUP3 ISZERO PUSH2 0x4E7 JUMPI JUMPDEST POP POP POP POP POP POP POP SWAP1 DUP5 PUSH2 0x4DD SWAP3 PUSH32 0xA5976D810D1EA83F34CC3EB6DBBBBB12AF641221347E0BB4B71CA764149C302F SWAP7 DUP9 MLOAD SWAP3 DUP4 SWAP3 DUP4 CALLDATACOPY DUP2 ADD PUSH1 0x0 DUP2 MSTORE SUB SWAP1 KECCAK256 SWAP6 MLOAD SWAP4 DUP5 SWAP4 DUP5 PUSH1 0x40 SWAP2 SWAP5 SWAP4 SWAP3 PUSH1 0x60 DUP3 ADD SWAP6 DUP3 MSTORE PUSH1 0x20 DUP3 ADD MSTORE ADD MSTORE JUMP JUMPDEST SUB SWAP1 LOG3 PUSH1 0x1 DUP1 SSTORE DUP1 RETURN JUMPDEST DUP5 DUP10 MUL SWAP3 DUP10 DUP5 DIV DUP7 EQ OR ISZERO PUSH2 0x57B JUMPI POP SWAP1 DUP14 SWAP6 SWAP5 SWAP4 SWAP3 SWAP2 PUSH1 0x8 SLOAD AND SWAP5 DUP3 EXTCODESIZE ISZERO PUSH2 0x577 JUMPI DUP13 MLOAD SWAP5 DUP6 MSTORE PUSH1 0x1 PUSH1 0x1 PUSH1 0xA0 SHL SUB SWAP1 SWAP6 AND SWAP5 DUP5 ADD SWAP5 DUP6 MSTORE SWAP2 SWAP1 SWAP2 DIV PUSH1 0x20 DUP5 ADD MSTORE SWAP1 SWAP2 DUP4 SWAP2 DUP4 SWAP2 DUP3 SWAP1 DUP5 SWAP1 DUP3 SWAP1 PUSH1 0x40 ADD SUB SWAP3 GAS CALL DUP1 ISZERO PUSH2 0x56D JUMPI PUSH2 0x551 JUMPI JUMPDEST DUP1 DUP1 DUP1 DUP1 DUP1 PUSH2 0x482 JUMP JUMPDEST PUSH2 0x55D SWAP1 SWAP4 SWAP3 SWAP4 PUSH2 0x171E JUMP JUMPDEST PUSH2 0x569 JUMPI SWAP1 DUP8 CODESIZE PUSH2 0x547 JUMP JUMPDEST DUP8 DUP1 REVERT JUMPDEST DUP9 MLOAD RETURNDATASIZE DUP5 DUP3 RETURNDATACOPY RETURNDATASIZE SWAP1 REVERT JUMPDEST DUP7 DUP1 REVERT JUMPDEST PUSH4 0x4E487B71 PUSH1 0xE0 SHL DUP16 MSTORE PUSH1 0x11 DUP8 MSTORE DUP15 REVERT JUMPDEST PUSH2 0x595 SWAP1 PUSH2 0x171E JUMP JUMPDEST PUSH2 0x5A0 JUMPI DUP14 CODESIZE PUSH2 0x476 JUMP JUMPDEST DUP14 DUP1 REVERT JUMPDEST DUP15 MLOAD RETURNDATASIZE DUP5 DUP3 RETURNDATACOPY RETURNDATASIZE SWAP1 REVERT JUMPDEST DUP1 REVERT JUMPDEST PUSH4 0x4E487B71 PUSH1 0xE0 SHL DUP14 MSTORE PUSH1 0x11 DUP6 MSTORE DUP9 DUP14 REVERT JUMPDEST DUP3 PUSH1 0x11 DUP9 PUSH1 0x64 SWAP4 DUP13 MLOAD SWAP4 PUSH3 0x461BCD PUSH1 0xE5 SHL DUP6 MSTORE DUP5 ADD MSTORE DUP3 ADD MSTORE PUSH17 0x125B9D985B1A59081C9958DA5C1A595B9D PUSH1 0x7A SHL PUSH1 0x44 DUP3 ADD MSTORE REVERT JUMPDEST DUP8 MLOAD PUSH3 0x461BCD PUSH1 0xE5 SHL DUP2 MSTORE DUP1 DUP4 ADD DUP11 SWAP1 MSTORE PUSH1 0x12 DUP2 DUP9 ADD MSTORE PUSH18 0x125B9D985B1A590814125608185B5BDD5B9D PUSH1 0x72 SHL PUSH1 0x44 DUP3 ADD MSTORE PUSH1 0x64 SWAP1 REVERT JUMPDEST DUP8 MLOAD PUSH3 0x461BCD PUSH1 0xE5 SHL DUP2 MSTORE DUP1 DUP4 ADD DUP11 SWAP1 MSTORE PUSH1 0x15 DUP2 DUP9 ADD MSTORE PUSH21 0x14185E5B595B9D081B9BDD0818DBDB999A5C9B5959 PUSH1 0x5A SHL PUSH1 0x44 DUP3 ADD MSTORE PUSH1 0x64 SWAP1 REVERT JUMPDEST SWAP3 POP SWAP6 POP POP RETURNDATASIZE DUP1 DUP12 DUP8 RETURNDATACOPY PUSH2 0x67D DUP2 DUP8 PUSH2 0x1748 JUMP JUMPDEST DUP6 ADD SWAP5 PUSH1 0xC0 DUP2 DUP8 SUB SLT PUSH2 0x6E8 JUMPI DUP1 MLOAD SWAP1 DUP11 DUP2 ADD MLOAD SWAP7 DUP7 DUP9 AND DUP9 SUB PUSH2 0x6E4 JUMPI PUSH2 0x6A6 DUP12 DUP4 ADD PUSH2 0x18D6 JUMP JUMPDEST SWAP4 PUSH1 0x80 DUP4 ADD MLOAD DUP2 DUP2 GT PUSH2 0x6E0 JUMPI DUP3 PUSH2 0x6BF SWAP2 DUP6 ADD PUSH2 0x1904 JUMP JUMPDEST POP PUSH1 0xA0 DUP4 ADD MLOAD SWAP1 DUP2 GT PUSH2 0x5A0 JUMPI PUSH2 0x6D6 SWAP3 ADD PUSH2 0x1904 JUMP JUMPDEST POP SWAP5 SWAP1 CODESIZE DUP1 PUSH2 0x3B8 JUMP JUMPDEST DUP15 DUP1 REVERT JUMPDEST DUP13 DUP1 REVERT JUMPDEST DUP11 DUP1 REVERT JUMPDEST DUP9 MLOAD RETURNDATASIZE DUP13 DUP3 RETURNDATACOPY RETURNDATASIZE SWAP1 REVERT JUMPDEST DUP8 MLOAD PUSH3 0x461BCD PUSH1 0xE5 SHL DUP2 MSTORE DUP1 DUP4 ADD DUP11 SWAP1 MSTORE PUSH1 0x19 DUP2 DUP9 ADD MSTORE PUSH32 0x504958207061796D656E74206E6F7420636F6E6669726D656400000000000000 PUSH1 0x44 DUP3 ADD MSTORE PUSH1 0x64 SWAP1 REVERT JUMPDEST SWAP1 POP DUP10 DUP2 DUP2 RETURNDATASIZE DUP4 GT PUSH2 0x766 JUMPI JUMPDEST PUSH2 0x74F DUP2 DUP4 PUSH2 0x1748 JUMP JUMPDEST DUP2 ADD SUB SLT PUSH2 0x6E8 JUMPI PUSH2 0x760 SWAP1 PUSH2 0x18D6 JUMP JUMPDEST CODESIZE PUSH2 0x37A JUMP JUMPDEST POP RETURNDATASIZE PUSH2 0x745 JUMP JUMPDEST DUP10 MLOAD RETURNDATASIZE DUP14 DUP3 RETURNDATACOPY RETURNDATASIZE SWAP1 REVERT JUMPDEST DUP8 MLOAD PUSH3 0x461BCD PUSH1 0xE5 SHL DUP2 MSTORE DUP1 DUP4 ADD DUP11 SWAP1 MSTORE PUSH1 0x26 DUP2 DUP9 ADD MSTORE PUSH32 0x4F6E6C7920617574686F72697A6564207265706F72746572732063616E20636F PUSH1 0x44 DUP3 ADD MSTORE PUSH6 0x6D706C657465 PUSH1 0xD0 SHL PUSH1 0x64 DUP3 ADD MSTORE PUSH1 0x84 SWAP1 REVERT JUMPDEST SWAP1 POP DUP10 DUP2 DUP2 RETURNDATASIZE DUP4 GT PUSH2 0x7F6 JUMPI JUMPDEST PUSH2 0x7DF DUP2 DUP4 PUSH2 0x1748 JUMP JUMPDEST DUP2 ADD SUB SLT PUSH2 0x6E8 JUMPI PUSH2 0x7F0 SWAP1 PUSH2 0x18D6 JUMP JUMPDEST CODESIZE PUSH2 0x33F JUMP JUMPDEST POP RETURNDATASIZE PUSH2 0x7D5 JUMP JUMPDEST POP POP CALLVALUE PUSH2 0x232 JUMPI DUP2 PUSH1 0x3 NOT CALLDATASIZE ADD SLT PUSH2 0x232 JUMPI PUSH1 0x20 SWAP1 MLOAD PUSH2 0x2710 DUP2 MSTORE RETURN JUMPDEST POP POP CALLVALUE PUSH2 0x232 JUMPI DUP2 PUSH1 0x3 NOT CALLDATASIZE ADD SLT PUSH2 0x232 JUMPI PUSH1 0x8 SLOAD SWAP1 MLOAD PUSH1 0x1 PUSH1 0x1 PUSH1 0xA0 SHL SUB SWAP1 SWAP2 AND DUP2 MSTORE PUSH1 0x20 SWAP1 RETURN JUMPDEST POP POP CALLVALUE PUSH2 0x232 JUMPI PUSH1 0x20 CALLDATASIZE PUSH1 0x3 NOT ADD SLT PUSH2 0x232 JUMPI PUSH2 0x85E PUSH2 0x1708 JUMP JUMPDEST PUSH1 0x1 PUSH1 0x1 PUSH1 0xA0 SHL SUB AND DUP3 MSTORE PUSH1 0xB PUSH1 0x20 MSTORE DUP1 DUP3 KECCAK256 SLOAD PUSH3 0x15180 TIMESTAMP DIV SUB PUSH2 0x8DC JUMPI PUSH1 0x9 PUSH1 0x20 MSTORE PUSH2 0x8C8 DUP2 DUP4 KECCAK256 SLOAD SWAP2 PUSH1 0xA PUSH1 0x20 MSTORE DUP1 DUP5 KECCAK256 SLOAD SWAP4 JUMPDEST PUSH2 0x89F DUP6 DUP6 PUSH2 0x1956 JUMP JUMPDEST PUSH1 0x6 SLOAD DUP1 DUP3 LT PUSH2 0x8CC JUMPI POP POP SWAP1 JUMPDEST MLOAD SWAP4 DUP5 SWAP4 DUP5 PUSH1 0x40 SWAP2 SWAP5 SWAP4 SWAP3 PUSH1 0x60 DUP3 ADD SWAP6 DUP3 MSTORE PUSH1 0x20 DUP3 ADD MSTORE ADD MSTORE JUMP JUMPDEST SUB SWAP1 RETURN JUMPDEST PUSH2 0x8D6 SWAP3 POP PUSH2 0x1949 JUMP JUMPDEST SWAP1 PUSH2 0x8AD JUMP JUMPDEST PUSH2 0x8C8 DUP3 SWAP2 DUP4 PUSH2 0x895 JUMP JUMPDEST POP POP CALLVALUE PUSH2 0x232 JUMPI PUSH1 0x20 CALLDATASIZE PUSH1 0x3 NOT ADD SLT PUSH2 0x232 JUMPI PUSH1 0x20 SWAP2 DUP2 SWAP1 PUSH1 0x1 PUSH1 0x1 PUSH1 0xA0 SHL SUB PUSH2 0x90F PUSH2 0x1708 JUMP JUMPDEST AND DUP2 MSTORE PUSH1 0xB DUP5 MSTORE KECCAK256 SLOAD SWAP1 MLOAD SWAP1 DUP2 MSTORE RETURN JUMPDEST POP POP CALLVALUE PUSH2 0x232 JUMPI DUP2 PUSH1 0x3 NOT CALLDATASIZE ADD SLT PUSH2 0x232 JUMPI PUSH1 0x20 SWAP1 PUSH1 0x3 SLOAD SWAP1 MLOAD SWAP1 DUP2 MSTORE RETURN JUMPDEST POP SWAP2 CALLVALUE PUSH2 0x5AE JUMPI PUSH1 0x20 CALLDATASIZE PUSH1 0x3 NOT ADD SLT PUSH2 0x5AE JUMPI POP PUSH2 0x2710 PUSH2 0x965 PUSH1 0x20 SWAP4 PUSH1 0x3 SLOAD SWAP1 CALLDATALOAD PUSH2 0x1882 JUMP JUMPDEST DIV SWAP1 MLOAD SWAP1 DUP2 MSTORE RETURN JUMPDEST POP POP CALLVALUE PUSH2 0x232 JUMPI PUSH1 0x20 CALLDATASIZE PUSH1 0x3 NOT ADD SLT PUSH2 0x232 JUMPI PUSH1 0x20 SWAP2 DUP2 SWAP1 PUSH1 0x1 PUSH1 0x1 PUSH1 0xA0 SHL SUB PUSH2 0x995 PUSH2 0x1708 JUMP JUMPDEST AND DUP2 MSTORE PUSH1 0x9 DUP5 MSTORE KECCAK256 SLOAD SWAP1 MLOAD SWAP1 DUP2 MSTORE RETURN JUMPDEST POP POP CALLVALUE PUSH2 0x232 JUMPI DUP2 PUSH1 0x3 NOT CALLDATASIZE ADD SLT PUSH2 0x232 JUMPI SWAP1 SLOAD SWAP1 MLOAD PUSH1 0x1 PUSH1 0x1 PUSH1 0xA0 SHL SUB SWAP1 SWAP2 AND DUP2 MSTORE PUSH1 0x20 SWAP1 RETURN JUMPDEST POP POP CALLVALUE PUSH2 0x232 JUMPI DUP2 PUSH1 0x3 NOT CALLDATASIZE ADD SLT PUSH2 0x232 JUMPI PUSH1 0x20 PUSH32 0x62E78CEA01BEE320CD4E420270B5EA74000D11B0C9F74754EBDBFC544B05A258 SWAP2 PUSH2 0xA0B PUSH2 0x17A9 JUMP JUMPDEST PUSH2 0xA13 PUSH2 0x1895 JUMP JUMPDEST PUSH1 0x1 PUSH1 0xFF NOT PUSH1 0x2 SLOAD AND OR PUSH1 0x2 SSTORE MLOAD CALLER DUP2 MSTORE LOG1 DUP1 RETURN JUMPDEST DUP4 CALLVALUE PUSH2 0x5AE JUMPI DUP1 PUSH1 0x3 NOT CALLDATASIZE ADD SLT PUSH2 0x5AE JUMPI PUSH2 0xA41 PUSH2 0x17A9 JUMP JUMPDEST PUSH1 0x0 DUP1 SLOAD PUSH1 0x1 PUSH1 0x1 PUSH1 0xA0 SHL SUB NOT DUP2 AND DUP3 SSTORE PUSH1 0x1 PUSH1 0x1 PUSH1 0xA0 SHL SUB AND PUSH32 0x8BE0079C531659141344CD1FD0A4F28419497F9722A3DAAFE3B4186F6B6457E0 DUP3 DUP1 LOG3 DUP1 RETURN JUMPDEST POP SWAP2 SWAP1 CALLVALUE PUSH2 0x232 JUMPI DUP1 PUSH1 0x3 NOT CALLDATASIZE ADD SLT PUSH2 0x232 JUMPI DUP3 CALLDATALOAD PUSH8 0xFFFFFFFFFFFFFFFF DUP2 GT PUSH2 0x20B JUMPI PUSH2 0xAB3 SWAP1 CALLDATASIZE SWAP1 DUP6 ADD PUSH2 0x16DA JUMP JUMPDEST PUSH1 0x24 SWAP3 SWAP2 SWAP3 CALLDATALOAD SWAP1 PUSH2 0xAC2 PUSH2 0x18B3 JUMP JUMPDEST PUSH2 0xACA PUSH2 0x1895 JUMP JUMPDEST DUP1 ISZERO PUSH2 0xCC6 JUMPI DUP3 MLOAD SWAP4 DUP2 DUP2 DUP7 CALLDATACOPY PUSH1 0xFF DUP6 DUP4 DUP2 ADD PUSH1 0xC DUP2 MSTORE PUSH1 0x20 SWAP8 DUP9 SWAP2 SUB ADD SWAP1 KECCAK256 SLOAD AND PUSH2 0xC83 JUMPI PUSH2 0xAFD DUP8 SLOAD DUP5 LT ISZERO PUSH2 0x17D5 JUMP JUMPDEST PUSH2 0xB0B PUSH1 0x5 SLOAD DUP5 GT ISZERO PUSH2 0x1818 JUMP JUMPDEST PUSH3 0x15180 TIMESTAMP DIV CALLER PUSH1 0x0 MSTORE PUSH1 0xB DUP7 MSTORE DUP1 DUP6 PUSH1 0x0 KECCAK256 SLOAD SUB PUSH2 0xC60 JUMPI JUMPDEST POP PUSH1 0x9 DUP6 MSTORE PUSH2 0xB38 DUP4 DUP6 PUSH1 0x0 KECCAK256 SLOAD PUSH2 0x1956 JUMP JUMPDEST PUSH1 0x6 SLOAD LT PUSH2 0xC1F JUMPI CALLER PUSH1 0x0 MSTORE PUSH1 0x9 DUP6 MSTORE DUP4 PUSH1 0x0 KECCAK256 PUSH2 0xB57 DUP5 DUP3 SLOAD PUSH2 0x1956 JUMP JUMPDEST SWAP1 SSTORE DUP4 MLOAD DUP3 DUP3 DUP3 CALLDATACOPY DUP6 DUP2 DUP5 DUP2 ADD PUSH1 0xC DUP2 MSTORE SUB ADD SWAP1 KECCAK256 PUSH1 0x1 PUSH1 0xFF NOT DUP3 SLOAD AND OR SWAP1 SSTORE CALLER DUP7 MSTORE PUSH1 0xD DUP6 MSTORE DUP4 DUP7 KECCAK256 PUSH2 0xB8B DUP2 SLOAD PUSH2 0x185D JUMP JUMPDEST SWAP1 SSTORE PUSH8 0xDE0B6B3A7640000 SWAP2 DUP3 DUP5 MUL SWAP6 DUP5 DUP8 DIV DUP5 EQ DUP6 ISZERO OR ISZERO PUSH2 0xC0C JUMPI CALLER DUP9 MSTORE PUSH1 0xD SWAP1 MSTORE DUP5 DUP8 KECCAK256 SLOAD DUP6 MLOAD PUSH32 0xB9B8354F21DF9B98F03E2F0AC5E08179A0E3C7DF6EF3522635AF47479D859D25 SWAP6 SWAP5 SWAP4 PUSH2 0x4DD SWAP4 DUP3 SWAP2 DUP2 SWAP1 DUP4 CALLDATACOPY DUP2 ADD PUSH1 0x0 DUP2 MSTORE SUB SWAP1 KECCAK256 SWAP6 MLOAD SWAP4 DUP5 SWAP4 CALLER SWAP9 DIV SWAP1 DUP5 PUSH1 0x40 SWAP2 SWAP5 SWAP4 SWAP3 PUSH1 0x60 DUP3 ADD SWAP6 DUP3 MSTORE PUSH1 0x20 DUP3 ADD MSTORE ADD MSTORE JUMP JUMPDEST PUSH4 0x4E487B71 PUSH1 0xE0 SHL DUP9 MSTORE PUSH1 0x11 DUP10 MSTORE PUSH1 0x24 DUP9 REVERT JUMPDEST PUSH1 0x64 DUP8 DUP7 DUP1 DUP8 MLOAD SWAP3 PUSH3 0x461BCD PUSH1 0xE5 SHL DUP5 MSTORE DUP4 ADD MSTORE PUSH1 0x24 DUP3 ADD MSTORE PUSH32 0x4461696C792050495820746F2042524C41206C696D6974206578636565646564 PUSH1 0x44 DUP3 ADD MSTORE REVERT JUMPDEST PUSH1 0x9 DUP7 MSTORE PUSH1 0x0 DUP6 DUP2 KECCAK256 SSTORE PUSH1 0xA DUP7 MSTORE PUSH1 0x0 DUP6 DUP2 KECCAK256 SSTORE PUSH1 0xB DUP7 MSTORE DUP5 PUSH1 0x0 KECCAK256 SSTORE CODESIZE PUSH2 0xB25 JUMP JUMPDEST DUP4 MLOAD PUSH3 0x461BCD PUSH1 0xE5 SHL DUP2 MSTORE DUP1 DUP9 ADD DUP7 SWAP1 MSTORE PUSH1 0x18 PUSH1 0x24 DUP3 ADD MSTORE PUSH32 0x50495820494420616C72656164792070726F6365737365640000000000000000 PUSH1 0x44 DUP3 ADD MSTORE PUSH1 0x64 SWAP1 REVERT JUMPDEST DUP3 MLOAD PUSH3 0x461BCD PUSH1 0xE5 SHL DUP2 MSTORE PUSH1 0x20 DUP2 DUP9 ADD MSTORE PUSH1 0x16 PUSH1 0x24 DUP3 ADD MSTORE PUSH22 0x5049582049442063616E6E6F7420626520656D707479 PUSH1 0x50 SHL PUSH1 0x44 DUP3 ADD MSTORE PUSH1 0x64 SWAP1 REVERT JUMPDEST POP POP CALLVALUE PUSH2 0x232 JUMPI PUSH1 0x20 CALLDATASIZE PUSH1 0x3 NOT ADD SLT PUSH2 0x232 JUMPI PUSH1 0x20 SWAP2 DUP2 SWAP1 PUSH1 0x1 PUSH1 0x1 PUSH1 0xA0 SHL SUB PUSH2 0xD2A PUSH2 0x1708 JUMP JUMPDEST AND DUP2 MSTORE PUSH1 0xA DUP5 MSTORE KECCAK256 SLOAD SWAP1 MLOAD SWAP1 DUP2 MSTORE RETURN JUMPDEST POP POP CALLVALUE PUSH2 0x232 JUMPI PUSH1 0x20 CALLDATASIZE PUSH1 0x3 NOT ADD SLT PUSH2 0x232 JUMPI PUSH1 0x20 SWAP2 DUP2 SWAP1 PUSH1 0x1 PUSH1 0x1 PUSH1 0xA0 SHL SUB PUSH2 0xD62 PUSH2 0x1708 JUMP JUMPDEST AND DUP2 MSTORE PUSH1 0xD DUP5 MSTORE KECCAK256 SLOAD SWAP1 MLOAD SWAP1 DUP2 MSTORE RETURN JUMPDEST POP POP CALLVALUE PUSH2 0x232 JUMPI DUP2 PUSH1 0x3 NOT CALLDATASIZE ADD SLT PUSH2 0x232 JUMPI PUSH1 0x20 SWAP1 PUSH1 0x6 SLOAD SWAP1 MLOAD SWAP1 DUP2 MSTORE RETURN JUMPDEST POP POP CALLVALUE PUSH2 0x232 JUMPI DUP2 PUSH1 0x3 NOT CALLDATASIZE ADD SLT PUSH2 0x232 JUMPI PUSH1 0x7 SLOAD SWAP1 MLOAD PUSH1 0x1 PUSH1 0x1 PUSH1 0xA0 SHL SUB SWAP1 SWAP2 AND DUP2 MSTORE PUSH1 0x20 SWAP1 RETURN JUMPDEST POP POP CALLVALUE PUSH2 0x232 JUMPI DUP2 PUSH1 0x3 NOT CALLDATASIZE ADD SLT PUSH2 0x232 JUMPI PUSH1 0x20 SWAP1 PUSH1 0xFF PUSH1 0x2 SLOAD AND SWAP1 MLOAD SWAP1 ISZERO ISZERO DUP2 MSTORE RETURN JUMPDEST POP POP CALLVALUE PUSH2 0x232 JUMPI DUP2 PUSH1 0x3 NOT CALLDATASIZE ADD SLT PUSH2 0x232 JUMPI PUSH1 0x20 SWAP1 PUSH1 0x5 SLOAD SWAP1 MLOAD SWAP1 DUP2 MSTORE RETURN JUMPDEST POP CALLVALUE PUSH2 0x20B JUMPI DUP3 PUSH1 0x3 NOT CALLDATASIZE ADD SLT PUSH2 0x20B JUMPI PUSH1 0x20 SWAP3 POP SLOAD SWAP1 MLOAD SWAP1 DUP2 MSTORE RETURN JUMPDEST POP CALLVALUE PUSH2 0x20B JUMPI DUP3 PUSH1 0x3 NOT CALLDATASIZE ADD SLT PUSH2 0x20B JUMPI PUSH2 0xE33 PUSH2 0x17A9 JUMP JUMPDEST PUSH1 0x2 SLOAD SWAP1 PUSH1 0xFF DUP3 AND ISZERO PUSH2 0xE75 JUMPI POP PUSH1 0xFF NOT AND PUSH1 0x2 SSTORE MLOAD CALLER DUP2 MSTORE PUSH32 0x5DB9EE0A495BF2E6FF9C91A7834C1BA4FDD244A5E8AA4E537BD38AEAE4B073AA SWAP1 PUSH1 0x20 SWAP1 LOG1 DUP1 RETURN JUMPDEST DUP3 MLOAD PUSH4 0x8DFC202B PUSH1 0xE0 SHL DUP2 MSTORE REVERT JUMPDEST POP POP CALLVALUE PUSH2 0x232 JUMPI DUP2 PUSH1 0x3 NOT CALLDATASIZE ADD SLT PUSH2 0x232 JUMPI MLOAD PUSH32 0x0 PUSH1 0x1 PUSH1 0x1 PUSH1 0xA0 SHL SUB AND DUP2 MSTORE PUSH1 0x20 SWAP1 RETURN JUMPDEST POP DUP3 SWAP1 CALLVALUE PUSH2 0x232 JUMPI PUSH1 0x80 CALLDATASIZE PUSH1 0x3 NOT ADD SLT PUSH2 0x232 JUMPI DUP1 CALLDATALOAD SWAP1 PUSH1 0x24 CALLDATALOAD PUSH1 0x44 CALLDATALOAD SWAP1 PUSH1 0x64 CALLDATALOAD SWAP3 PUSH2 0xEF1 PUSH2 0x17A9 JUMP JUMPDEST PUSH2 0x3E8 DUP6 GT PUSH2 0x1050 JUMPI DUP2 ISZERO PUSH2 0x1003 JUMPI DUP2 DUP4 GT ISZERO PUSH2 0xFB4 JUMPI DUP3 DUP5 GT ISZERO PUSH2 0xF5D JUMPI SWAP2 DUP7 DUP3 PUSH1 0x80 SWAP6 SWAP4 DUP8 SWAP6 PUSH32 0xB332FF846A7F7E49C967D592CB8ECCCD56F3693AB85AF2F484AA5BFABCD2A57A SWAP9 PUSH1 0x3 SSTORE SSTORE DUP3 PUSH1 0x5 SSTORE DUP4 PUSH1 0x6 SSTORE DUP2 MLOAD SWAP5 DUP6 MSTORE PUSH1 0x20 DUP6 ADD MSTORE DUP4 ADD MSTORE PUSH1 0x60 DUP3 ADD MSTORE LOG1 DUP1 RETURN JUMPDEST PUSH1 0x84 SWAP1 PUSH1 0x20 DUP9 MLOAD SWAP2 PUSH3 0x461BCD PUSH1 0xE5 SHL DUP4 MSTORE DUP3 ADD MSTORE PUSH1 0x2B PUSH1 0x24 DUP3 ADD MSTORE PUSH32 0x4461696C79206C696D6974206D7573742062652067726561746572207468616E PUSH1 0x44 DUP3 ADD MSTORE PUSH11 0x81B585E08185B5BDD5B9D PUSH1 0xAA SHL PUSH1 0x64 DUP3 ADD MSTORE REVERT JUMPDEST PUSH1 0x84 SWAP1 PUSH1 0x20 DUP9 MLOAD SWAP2 PUSH3 0x461BCD PUSH1 0xE5 SHL DUP4 MSTORE DUP3 ADD MSTORE PUSH1 0x23 PUSH1 0x24 DUP3 ADD MSTORE PUSH32 0x4D617820616D6F756E74206D7573742062652067726561746572207468616E20 PUSH1 0x44 DUP3 ADD MSTORE PUSH3 0x36B4B7 PUSH1 0xE9 SHL PUSH1 0x64 DUP3 ADD MSTORE REVERT JUMPDEST PUSH1 0x84 SWAP1 PUSH1 0x20 DUP9 MLOAD SWAP2 PUSH3 0x461BCD PUSH1 0xE5 SHL DUP4 MSTORE DUP3 ADD MSTORE PUSH1 0x21 PUSH1 0x24 DUP3 ADD MSTORE PUSH32 0x4D696E20616D6F756E74206D7573742062652067726561746572207468616E20 PUSH1 0x44 DUP3 ADD MSTORE PUSH1 0x3 PUSH1 0xFC SHL PUSH1 0x64 DUP3 ADD MSTORE REVERT JUMPDEST PUSH1 0x64 SWAP1 PUSH1 0x20 DUP9 MLOAD SWAP2 PUSH3 0x461BCD PUSH1 0xE5 SHL DUP4 MSTORE DUP3 ADD MSTORE PUSH1 0x15 PUSH1 0x24 DUP3 ADD MSTORE PUSH21 0x4665652063616E6E6F742065786365656420313025 PUSH1 0x58 SHL PUSH1 0x44 DUP3 ADD MSTORE REVERT JUMPDEST POP SWAP1 CALLVALUE PUSH2 0x20B JUMPI PUSH1 0x60 CALLDATASIZE PUSH1 0x3 NOT ADD SLT PUSH2 0x20B JUMPI PUSH2 0x10A6 PUSH2 0x1708 JUMP JUMPDEST SWAP1 PUSH1 0x24 CALLDATALOAD PUSH1 0x1 PUSH1 0x1 PUSH1 0xA0 SHL SUB DUP2 DUP2 AND SWAP2 DUP3 SWAP1 SUB PUSH2 0x122B JUMPI PUSH1 0x44 CALLDATALOAD SWAP1 DUP1 DUP3 AND SWAP5 DUP6 DUP4 SUB PUSH2 0x122B JUMPI PUSH2 0x10D4 PUSH2 0x17A9 JUMP JUMPDEST AND SWAP5 DUP6 ISZERO PUSH2 0x11E8 JUMPI DUP3 ISZERO PUSH2 0x11A5 JUMPI DUP5 ISZERO PUSH2 0x1162 JUMPI POP PUSH1 0x7 DUP1 SLOAD PUSH1 0x1 PUSH1 0x1 PUSH1 0xA0 SHL SUB NOT SWAP1 DUP2 AND DUP8 OR SWAP1 SWAP2 SSTORE PUSH1 0x8 DUP1 SLOAD SWAP1 SWAP2 AND DUP4 OR DUP2 SSTORE PUSH1 0x2 DUP1 SLOAD PUSH2 0x100 PUSH1 0x1 PUSH1 0xA8 SHL SUB NOT AND SWAP3 SWAP1 SWAP2 SHL PUSH2 0x100 PUSH1 0x1 PUSH1 0xA8 SHL SUB AND SWAP2 SWAP1 SWAP2 OR SWAP1 SSTORE DUP2 MLOAD SWAP4 DUP5 MSTORE PUSH1 0x20 DUP5 ADD MSTORE DUP3 ADD MSTORE PUSH32 0x97A48C4BE738BDF3E84E8F3927DF6D4E52CCC94C58E96A666FACA603E456D490 SWAP1 PUSH1 0x60 SWAP1 LOG1 DUP1 RETURN JUMPDEST PUSH1 0x64 SWAP1 PUSH1 0x20 DUP6 MLOAD SWAP2 PUSH3 0x461BCD PUSH1 0xE5 SHL DUP4 MSTORE DUP3 ADD MSTORE PUSH1 0x1A PUSH1 0x24 DUP3 ADD MSTORE PUSH32 0x496E76616C696420504958206F7261636C652061646472657373000000000000 PUSH1 0x44 DUP3 ADD MSTORE REVERT JUMPDEST PUSH1 0x64 SWAP1 PUSH1 0x20 DUP6 MLOAD SWAP2 PUSH3 0x461BCD PUSH1 0xE5 SHL DUP4 MSTORE DUP3 ADD MSTORE PUSH1 0x1D PUSH1 0x24 DUP3 ADD MSTORE PUSH32 0x496E76616C69642066656520636F6C6C6563746F722061646472657373000000 PUSH1 0x44 DUP3 ADD MSTORE REVERT JUMPDEST PUSH1 0x64 SWAP1 PUSH1 0x20 DUP6 MLOAD SWAP2 PUSH3 0x461BCD PUSH1 0xE5 SHL DUP4 MSTORE DUP3 ADD MSTORE PUSH1 0x18 PUSH1 0x24 DUP3 ADD MSTORE PUSH32 0x496E76616C696420747265617375727920616464726573730000000000000000 PUSH1 0x44 DUP3 ADD MSTORE REVERT JUMPDEST PUSH1 0x0 DUP1 REVERT JUMPDEST POP POP CALLVALUE PUSH2 0x232 JUMPI DUP2 PUSH1 0x3 NOT CALLDATASIZE ADD SLT PUSH2 0x232 JUMPI PUSH1 0x2 SLOAD SWAP1 MLOAD PUSH1 0x8 SWAP2 SWAP1 SWAP2 SHR PUSH1 0x1 PUSH1 0x1 PUSH1 0xA0 SHL SUB AND DUP2 MSTORE PUSH1 0x20 SWAP1 RETURN JUMPDEST POP SWAP1 CALLVALUE PUSH2 0x20B JUMPI DUP1 PUSH1 0x3 NOT CALLDATASIZE ADD SLT PUSH2 0x20B JUMPI PUSH1 0x24 DUP3 CALLDATALOAD DUP2 CALLDATALOAD PUSH8 0xFFFFFFFFFFFFFFFF DUP2 GT PUSH2 0x203 JUMPI PUSH2 0x1291 SWAP1 CALLDATASIZE SWAP1 DUP7 ADD PUSH2 0x16DA JUMP JUMPDEST SWAP5 PUSH2 0x129A PUSH2 0x18B3 JUMP JUMPDEST PUSH2 0x12A2 PUSH2 0x1895 JUMP JUMPDEST DUP3 ISZERO PUSH2 0x1698 JUMPI DUP6 ISZERO PUSH2 0x1656 JUMPI DUP5 MLOAD PUSH4 0x70A08231 PUSH1 0xE0 SHL DUP2 MSTORE CALLER DUP2 DUP4 ADD MSTORE PUSH1 0x20 SWAP5 PUSH1 0x1 PUSH1 0x1 PUSH1 0xA0 SHL SUB SWAP3 SWAP2 PUSH32 0x0 DUP5 AND SWAP1 DUP8 DUP2 DUP5 DUP2 DUP6 GAS STATICCALL SWAP1 DUP2 ISZERO PUSH2 0x76D JUMPI SWAP1 DUP8 SWAP2 DUP13 SWAP2 PUSH2 0x1625 JUMPI JUMPDEST POP LT PUSH2 0x15E3 JUMPI PUSH8 0xDE0B6B3A7640000 SWAP1 DUP2 DUP8 MUL DUP8 DUP2 DIV DUP4 SUB PUSH2 0x15D1 JUMPI SWAP1 PUSH2 0x1375 DUP13 DUP5 DUP13 SWAP9 SWAP8 SWAP7 SWAP6 SWAP5 DIV SWAP8 DUP9 SWAP2 PUSH2 0x1341 DUP9 SLOAD DUP5 LT ISZERO PUSH2 0x17D5 JUMP JUMPDEST PUSH2 0x134F PUSH1 0x5 SLOAD DUP5 GT ISZERO PUSH2 0x1818 JUMP JUMPDEST DUP13 PUSH1 0xB PUSH3 0x15180 TIMESTAMP DIV SWAP2 CALLER DUP5 MSTORE MSTORE DUP14 DUP2 DUP5 DUP5 KECCAK256 SLOAD SUB PUSH2 0x15B0 JUMPI JUMPDEST PUSH1 0xA SWAP2 POP MSTORE KECCAK256 SLOAD PUSH2 0x1956 JUMP JUMPDEST PUSH1 0x6 SLOAD LT PUSH2 0x1570 JUMPI CALLER DUP13 MSTORE PUSH1 0xA DUP10 MSTORE DUP10 DUP13 KECCAK256 PUSH2 0x1392 DUP8 DUP3 SLOAD PUSH2 0x1956 JUMP JUMPDEST SWAP1 SSTORE PUSH2 0x13AE PUSH2 0x2710 PUSH2 0x13A6 PUSH1 0x3 SLOAD DUP10 PUSH2 0x1882 JUMP JUMPDEST DIV DUP1 SWAP8 PUSH2 0x1949 JUMP JUMPDEST SWAP5 DUP2 EXTCODESIZE ISZERO PUSH2 0x6E4 JUMPI DUP11 MLOAD PUSH4 0x79CC679 PUSH1 0xE4 SHL DUP2 MSTORE CALLER DUP7 DUP3 ADD SWAP1 DUP2 MSTORE PUSH1 0x20 DUP2 ADD DUP12 SWAP1 MSTORE DUP15 SWAP1 DUP3 SWAP1 DUP2 SWAP1 PUSH1 0x40 ADD SUB DUP2 DUP4 DUP8 GAS CALL DUP1 ISZERO PUSH2 0x1564 JUMPI PUSH2 0x1551 JUMPI JUMPDEST POP DUP7 ISZERO SWAP4 DUP5 ISZERO PUSH2 0x14B9 JUMPI JUMPDEST POP POP POP POP POP POP SWAP1 PUSH32 0x95D5BFD23732BA553AAAEDB83177AA6AD3CC7E125EA9E898B684AD3C5AE69856 SWAP6 PUSH2 0x14AF SWAP4 SWAP3 CALLER DUP11 MSTORE PUSH1 0xD DUP8 MSTORE DUP2 DUP11 KECCAK256 PUSH2 0x1437 DUP2 SLOAD PUSH2 0x185D JUMP JUMPDEST SWAP1 SSTORE CALLER DUP11 MSTORE PUSH1 0xD DUP8 MSTORE DUP2 DUP11 KECCAK256 SLOAD PUSH32 0x2AB06B404DFD7911FA7DF1E5D7410E68BD409B453E8BC4AEFD22BFED78DFB65 DUP4 MLOAD DUP9 DUP2 MSTORE DUP4 DUP11 DUP3 ADD MSTORE PUSH1 0x80 DUP6 DUP3 ADD MSTORE PUSH2 0x1483 PUSH1 0x80 DUP3 ADD DUP14 DUP10 PUSH2 0x18E3 JUMP JUMPDEST SWAP3 PUSH1 0x60 DUP3 ADD MSTORE DUP1 CALLER SWAP4 SUB SWAP1 LOG2 DUP2 MLOAD SWAP7 DUP8 SWAP7 DUP8 MSTORE DUP7 ADD MSTORE DUP5 ADD MSTORE PUSH1 0x80 PUSH1 0x60 DUP5 ADD MSTORE CALLER SWAP6 PUSH1 0x80 DUP5 ADD SWAP2 PUSH2 0x18E3 JUMP JUMPDEST SUB SWAP1 LOG2 PUSH1 0x1 DUP1 SSTORE DUP1 RETURN JUMPDEST DUP4 DUP9 MUL SWAP5 DUP9 DUP7 DIV DUP6 EQ OR ISZERO PUSH2 0x1540 JUMPI POP SWAP1 DUP13 SWAP5 SWAP4 SWAP3 SWAP2 PUSH1 0x8 SLOAD AND SWAP2 DUP2 EXTCODESIZE ISZERO PUSH2 0x203 JUMPI DUP12 MLOAD PUSH4 0x40C10F19 PUSH1 0xE0 SHL DUP2 MSTORE PUSH1 0x1 PUSH1 0x1 PUSH1 0xA0 SHL SUB SWAP1 SWAP4 AND SWAP5 DUP4 ADD SWAP5 DUP6 MSTORE SWAP1 SWAP3 DIV PUSH1 0x20 DUP5 ADD MSTORE SWAP2 DUP4 SWAP2 DUP4 SWAP2 DUP3 SWAP1 DUP5 SWAP1 DUP3 SWAP1 PUSH1 0x40 ADD SUB SWAP3 GAS CALL DUP1 ISZERO PUSH2 0x56D JUMPI PUSH2 0x1526 JUMPI JUMPDEST DUP1 DUP1 DUP1 DUP1 PUSH2 0x13F5 JUMP JUMPDEST PUSH2 0x1533 SWAP1 SWAP5 SWAP4 SWAP3 SWAP5 PUSH2 0x171E JUMP JUMPDEST PUSH2 0x569 JUMPI SWAP1 SWAP2 DUP8 CODESIZE PUSH2 0x151D JUMP JUMPDEST PUSH4 0x4E487B71 PUSH1 0xE0 SHL DUP15 MSTORE PUSH1 0x11 DUP7 MSTORE DUP14 REVERT JUMPDEST PUSH2 0x155D SWAP1 SWAP14 SWAP2 SWAP14 PUSH2 0x171E JUMP JUMPDEST SWAP12 CODESIZE PUSH2 0x13EA JUMP JUMPDEST DUP15 DUP14 MLOAD SWAP1 RETURNDATASIZE SWAP1 DUP3 RETURNDATACOPY RETURNDATASIZE SWAP1 REVERT JUMPDEST PUSH1 0x64 DUP5 DUP11 DUP6 DUP2 DUP15 MLOAD SWAP4 PUSH3 0x461BCD PUSH1 0xE5 SHL DUP6 MSTORE DUP5 ADD MSTORE DUP3 ADD MSTORE PUSH32 0x4461696C792042524C4120746F20504958206C696D6974206578636565646564 PUSH1 0x44 DUP3 ADD MSTORE REVERT JUMPDEST DUP1 PUSH1 0x9 PUSH1 0xB SWAP3 MSTORE DUP4 DUP6 DUP2 KECCAK256 SSTORE PUSH1 0xA DUP2 MSTORE DUP4 DUP6 DUP2 KECCAK256 SSTORE MSTORE DUP3 DUP3 KECCAK256 SSTORE CODESIZE DUP14 PUSH2 0x1369 JUMP JUMPDEST PUSH4 0x4E487B71 PUSH1 0xE0 SHL DUP13 MSTORE PUSH1 0x11 DUP6 MSTORE DUP4 DUP13 REVERT JUMPDEST DUP8 MLOAD PUSH3 0x461BCD PUSH1 0xE5 SHL DUP2 MSTORE DUP1 DUP5 ADD DUP9 SWAP1 MSTORE PUSH1 0x19 DUP2 DUP5 ADD MSTORE PUSH32 0x496E73756666696369656E742042524C412062616C616E636500000000000000 PUSH1 0x44 DUP3 ADD MSTORE PUSH1 0x64 SWAP1 REVERT JUMPDEST DUP1 SWAP3 POP DUP10 DUP1 SWAP3 POP RETURNDATASIZE DUP4 GT PUSH2 0x164F JUMPI JUMPDEST PUSH2 0x163E DUP2 DUP4 PUSH2 0x1748 JUMP JUMPDEST DUP2 ADD SUB SLT PUSH2 0x6E8 JUMPI DUP7 SWAP1 MLOAD CODESIZE PUSH2 0x1308 JUMP JUMPDEST POP RETURNDATASIZE PUSH2 0x1634 JUMP JUMPDEST PUSH1 0x64 SWAP1 PUSH1 0x17 DUP6 PUSH1 0x20 DUP9 MLOAD SWAP4 PUSH3 0x461BCD PUSH1 0xE5 SHL DUP6 MSTORE DUP5 ADD MSTORE DUP3 ADD MSTORE PUSH32 0x504958206B65792063616E6E6F7420626520656D707479000000000000000000 PUSH1 0x44 DUP3 ADD MSTORE REVERT JUMPDEST PUSH1 0x64 SWAP1 PUSH1 0x1D DUP6 PUSH1 0x20 DUP9 MLOAD SWAP4 PUSH3 0x461BCD PUSH1 0xE5 SHL DUP6 MSTORE DUP5 ADD MSTORE DUP3 ADD MSTORE PUSH32 0x416D6F756E74206D7573742062652067726561746572207468616E2030000000 PUSH1 0x44 DUP3 ADD MSTORE REVERT JUMPDEST SWAP2 DUP2 PUSH1 0x1F DUP5 ADD SLT ISZERO PUSH2 0x122B JUMPI DUP3 CALLDATALOAD SWAP2 PUSH8 0xFFFFFFFFFFFFFFFF DUP4 GT PUSH2 0x122B JUMPI PUSH1 0x20 DUP4 DUP2 DUP7 ADD SWAP6 ADD ADD GT PUSH2 0x122B JUMPI JUMP JUMPDEST PUSH1 0x4 CALLDATALOAD SWAP1 PUSH1 0x1 PUSH1 0x1 PUSH1 0xA0 SHL SUB DUP3 AND DUP3 SUB PUSH2 0x122B JUMPI JUMP JUMPDEST PUSH8 0xFFFFFFFFFFFFFFFF DUP2 GT PUSH2 0x1732 JUMPI PUSH1 0x40 MSTORE JUMP JUMPDEST PUSH4 0x4E487B71 PUSH1 0xE0 SHL PUSH1 0x0 MSTORE PUSH1 0x41 PUSH1 0x4 MSTORE PUSH1 0x24 PUSH1 0x0 REVERT JUMPDEST SWAP1 PUSH1 0x1F DUP1 NOT SWAP2 ADD AND DUP2 ADD SWAP1 DUP2 LT PUSH8 0xFFFFFFFFFFFFFFFF DUP3 GT OR PUSH2 0x1732 JUMPI PUSH1 0x40 MSTORE JUMP JUMPDEST PUSH8 0xFFFFFFFFFFFFFFFF DUP2 GT PUSH2 0x1732 JUMPI PUSH1 0x1F ADD PUSH1 0x1F NOT AND PUSH1 0x20 ADD SWAP1 JUMP JUMPDEST PUSH1 0x0 JUMPDEST DUP4 DUP2 LT PUSH2 0x1799 JUMPI POP POP PUSH1 0x0 SWAP2 ADD MSTORE JUMP JUMPDEST DUP2 DUP2 ADD MLOAD DUP4 DUP3 ADD MSTORE PUSH1 0x20 ADD PUSH2 0x1789 JUMP JUMPDEST PUSH1 0x0 SLOAD PUSH1 0x1 PUSH1 0x1 PUSH1 0xA0 SHL SUB AND CALLER SUB PUSH2 0x17BD JUMPI JUMP JUMPDEST PUSH1 0x40 MLOAD PUSH4 0x118CDAA7 PUSH1 0xE0 SHL DUP2 MSTORE CALLER PUSH1 0x4 DUP3 ADD MSTORE PUSH1 0x24 SWAP1 REVERT JUMPDEST ISZERO PUSH2 0x17DC JUMPI JUMP JUMPDEST PUSH1 0x40 MLOAD PUSH3 0x461BCD PUSH1 0xE5 SHL DUP2 MSTORE PUSH1 0x20 PUSH1 0x4 DUP3 ADD MSTORE PUSH1 0x14 PUSH1 0x24 DUP3 ADD MSTORE PUSH20 0x416D6F756E742062656C6F77206D696E696D756D PUSH1 0x60 SHL PUSH1 0x44 DUP3 ADD MSTORE PUSH1 0x64 SWAP1 REVERT JUMPDEST ISZERO PUSH2 0x181F JUMPI JUMP JUMPDEST PUSH1 0x40 MLOAD PUSH3 0x461BCD PUSH1 0xE5 SHL DUP2 MSTORE PUSH1 0x20 PUSH1 0x4 DUP3 ADD MSTORE PUSH1 0x16 PUSH1 0x24 DUP3 ADD MSTORE PUSH22 0x416D6F756E742065786365656473206D6178696D756D PUSH1 0x50 SHL PUSH1 0x44 DUP3 ADD MSTORE PUSH1 0x64 SWAP1 REVERT JUMPDEST PUSH1 0x0 NOT DUP2 EQ PUSH2 0x186C JUMPI PUSH1 0x1 ADD SWAP1 JUMP JUMPDEST PUSH4 0x4E487B71 PUSH1 0xE0 SHL PUSH1 0x0 MSTORE PUSH1 0x11 PUSH1 0x4 MSTORE PUSH1 0x24 PUSH1 0x0 REVERT JUMPDEST DUP2 DUP2 MUL SWAP3 SWAP2 DUP2 ISZERO SWAP2 DUP5 DIV EQ OR ISZERO PUSH2 0x186C JUMPI JUMP JUMPDEST PUSH1 0xFF PUSH1 0x2 SLOAD AND PUSH2 0x18A1 JUMPI JUMP JUMPDEST PUSH1 0x40 MLOAD PUSH4 0xD93C0665 PUSH1 0xE0 SHL DUP2 MSTORE PUSH1 0x4 SWAP1 REVERT JUMPDEST PUSH1 0x2 PUSH1 0x1 SLOAD EQ PUSH2 0x18C4 JUMPI PUSH1 0x2 PUSH1 0x1 SSTORE JUMP JUMPDEST PUSH1 0x40 MLOAD PUSH4 0x3EE5AEB5 PUSH1 0xE0 SHL DUP2 MSTORE PUSH1 0x4 SWAP1 REVERT JUMPDEST MLOAD SWAP1 DUP2 ISZERO ISZERO DUP3 SUB PUSH2 0x122B JUMPI JUMP JUMPDEST SWAP1 DUP1 PUSH1 0x20 SWAP4 SWAP3 DUP2 DUP5 MSTORE DUP5 DUP5 ADD CALLDATACOPY PUSH1 0x0 DUP3 DUP3 ADD DUP5 ADD MSTORE PUSH1 0x1F ADD PUSH1 0x1F NOT AND ADD ADD SWAP1 JUMP JUMPDEST DUP2 PUSH1 0x1F DUP3 ADD SLT ISZERO PUSH2 0x122B JUMPI DUP1 MLOAD PUSH2 0x191A DUP2 PUSH2 0x176A JUMP JUMPDEST SWAP3 PUSH2 0x1928 PUSH1 0x40 MLOAD SWAP5 DUP6 PUSH2 0x1748 JUMP JUMPDEST DUP2 DUP5 MSTORE PUSH1 0x20 DUP3 DUP5 ADD ADD GT PUSH2 0x122B JUMPI PUSH2 0x1946 SWAP2 PUSH1 0x20 DUP1 DUP6 ADD SWAP2 ADD PUSH2 0x1786 JUMP JUMPDEST SWAP1 JUMP JUMPDEST SWAP2 SWAP1 DUP3 SUB SWAP2 DUP3 GT PUSH2 0x186C JUMPI JUMP JUMPDEST SWAP2 SWAP1 DUP3 ADD DUP1 SWAP3 GT PUSH2 0x186C JUMPI JUMP INVALID LOG2 PUSH5 0x6970667358 0x22 SLT KECCAK256 0xDC DUP8 SIGNEXTEND 0xAA 0xDF 0xE9 0x28 0xC2 0x49 0xCF NUMBER 0xB4 0x4A PUSH28 0xBF227107390BCE34F4869E9B316CD90A765964736F6C634300081400 CALLER "},"methodIdentifiers":{"CONVERSION_RATE()":"2c8bff31","FEE_DENOMINATOR()":"d73792a9","brlaToken()":"3939bfac","calculateFee(uint256)":"99a5d747","completePixToBrla(string)":"f00e7121","dailyBrlaToPixVolume(address)":"6f3a8ef9","dailyLimit()":"67eeba0c","dailyPixTobrlaVolume(address)":"99646700","feeCollector()":"c415b95c","feePercentage()":"a001ecdd","getConversionRate()":"f36089ec","getUserDailyLimits(address)":"bc769200","getUserNonce(address)":"6834e3a8","initiateBrlaToPixConversion(uint256,string)":"2b89a656","initiatePixToBrla(string,uint256)":"6f5082e0","lastTransactionDay(address)":"af59c95f","maxPixAmount()":"5a14fcbe","minPixAmount()":"563dcbd3","owner()":"8da5cb5b","pause()":"8456cb59","paused()":"5c975abb","pixOracle()":"2f1416bc","processedPixIds(string)":"f95acca3","renounceOwnership()":"715018a6","transferOwnership(address)":"f2fde38b","treasury()":"61d027b3","unpause()":"3f4ba83a","updateAddresses(address,address,address)":"334c1439","updateConfiguration(uint256,uint256,uint256,uint256)":"3718e104","userNonce(address)":"2e04b8e7"}},"storageLayout":{"storage":[{"astId":387,"contract":"contracts/core/PixBrlaExchange.sol:PixBrlaExchange","label":"_owner","offset":0,"slot":"0","type":"t_address"},{"astId":2083,"contract":"contracts/core/PixBrlaExchange.sol:PixBrlaExchange","label":"_status","offset":0,"slot":"1","type":"t_uint256"},{"astId":1973,"contract":"contracts/core/PixBrlaExchange.sol:PixBrlaExchange","label":"_paused","offset":0,"slot":"2","type":"t_bool"},{"astId":7038,"contract":"contracts/core/PixBrlaExchange.sol:PixBrlaExchange","label":"pixOracle","offset":1,"slot":"2","type":"t_contract(PixOracle)8244"},{"astId":7044,"contract":"contracts/core/PixBrlaExchange.sol:PixBrlaExchange","label":"feePercentage","offset":0,"slot":"3","type":"t_uint256"},{"astId":7050,"contract":"contracts/core/PixBrlaExchange.sol:PixBrlaExchange","label":"minPixAmount","offset":0,"slot":"4","type":"t_uint256"},{"astId":7053,"contract":"contracts/core/PixBrlaExchange.sol:PixBrlaExchange","label":"maxPixAmount","offset":0,"slot":"5","type":"t_uint256"},{"astId":7056,"contract":"contracts/core/PixBrlaExchange.sol:PixBrlaExchange","label":"dailyLimit","offset":0,"slot":"6","type":"t_uint256"},{"astId":7058,"contract":"contracts/core/PixBrlaExchange.sol:PixBrlaExchange","label":"treasury","offset":0,"slot":"7","type":"t_address"},{"astId":7060,"contract":"contracts/core/PixBrlaExchange.sol:PixBrlaExchange","label":"feeCollector","offset":0,"slot":"8","type":"t_address"},{"astId":7064,"contract":"contracts/core/PixBrlaExchange.sol:PixBrlaExchange","label":"dailyPixTobrlaVolume","offset":0,"slot":"9","type":"t_mapping(t_address,t_uint256)"},{"astId":7068,"contract":"contracts/core/PixBrlaExchange.sol:PixBrlaExchange","label":"dailyBrlaToPixVolume","offset":0,"slot":"10","type":"t_mapping(t_address,t_uint256)"},{"astId":7072,"contract":"contracts/core/PixBrlaExchange.sol:PixBrlaExchange","label":"lastTransactionDay","offset":0,"slot":"11","type":"t_mapping(t_address,t_uint256)"},{"astId":7076,"contract":"contracts/core/PixBrlaExchange.sol:PixBrlaExchange","label":"processedPixIds","offset":0,"slot":"12","type":"t_mapping(t_string_memory_ptr,t_bool)"},{"astId":7080,"contract":"contracts/core/PixBrlaExchange.sol:PixBrlaExchange","label":"userNonce","offset":0,"slot":"13","type":"t_mapping(t_address,t_uint256)"}],"types":{"t_address":{"encoding":"inplace","label":"address","numberOfBytes":"20"},"t_bool":{"encoding":"inplace","label":"bool","numberOfBytes":"1"},"t_contract(PixOracle)8244":{"encoding":"inplace","label":"contract PixOracle","numberOfBytes":"20"},"t_mapping(t_address,t_uint256)":{"encoding":"mapping","key":"t_address","label":"mapping(address => uint256)","numberOfBytes":"32","value":"t_uint256"},"t_mapping(t_string_memory_ptr,t_bool)":{"encoding":"mapping","key":"t_string_memory_ptr","label":"mapping(string => bool)","numberOfBytes":"32","value":"t_bool"},"t_string_memory_ptr":{"encoding":"bytes","label":"string","numberOfBytes":"32"},"t_uint256":{"encoding":"inplace","label":"uint256","numberOfBytes":"32"}}}}}}