{"contracts/oracles/PixOracle.sol":{"PixOracle":{"abi":[{"inputs":[{"internalType":"address","name":"initialOwner","type":"address"}],"stateMutability":"nonpayable","type":"constructor"},{"inputs":[],"name":"AccessControlBadConfirmation","type":"error"},{"inputs":[{"internalType":"address","name":"account","type":"address"},{"internalType":"bytes32","name":"neededRole","type":"bytes32"}],"name":"AccessControlUnauthorizedAccount","type":"error"},{"inputs":[{"internalType":"address","name":"owner","type":"address"}],"name":"OwnableInvalidOwner","type":"error"},{"inputs":[{"internalType":"address","name":"account","type":"address"}],"name":"OwnableUnauthorizedAccount","type":"error"},{"inputs":[],"name":"ReentrancyGuardReentrantCall","type":"error"},{"anonymous":false,"inputs":[{"indexed":true,"internalType":"address","name":"previousOwner","type":"address"},{"indexed":true,"internalType":"address","name":"newOwner","type":"address"}],"name":"OwnershipTransferred","type":"event"},{"anonymous":false,"inputs":[{"indexed":true,"internalType":"string","name":"pixId","type":"string"},{"indexed":false,"internalType":"uint256","name":"amount","type":"uint256"},{"indexed":true,"internalType":"address","name":"recipient","type":"address"}],"name":"PixPaymentConfirmed","type":"event"},{"anonymous":false,"inputs":[{"indexed":true,"internalType":"string","name":"pixId","type":"string"},{"indexed":false,"internalType":"uint256","name":"amount","type":"uint256"},{"indexed":true,"internalType":"address","name":"recipient","type":"address"},{"indexed":false,"internalType":"string","name":"pixKey","type":"string"},{"indexed":false,"internalType":"string","name":"bankTransactionId","type":"string"}],"name":"PixPaymentReported","type":"event"},{"anonymous":false,"inputs":[{"indexed":true,"internalType":"address","name":"reporter","type":"address"}],"name":"ReporterAdded","type":"event"},{"anonymous":false,"inputs":[{"indexed":true,"internalType":"address","name":"reporter","type":"address"}],"name":"ReporterRemoved","type":"event"},{"anonymous":false,"inputs":[{"indexed":true,"internalType":"bytes32","name":"role","type":"bytes32"},{"indexed":true,"internalType":"bytes32","name":"previousAdminRole","type":"bytes32"},{"indexed":true,"internalType":"bytes32","name":"newAdminRole","type":"bytes32"}],"name":"RoleAdminChanged","type":"event"},{"anonymous":false,"inputs":[{"indexed":true,"internalType":"bytes32","name":"role","type":"bytes32"},{"indexed":true,"internalType":"address","name":"account","type":"address"},{"indexed":true,"internalType":"address","name":"sender","type":"address"}],"name":"RoleGranted","type":"event"},{"anonymous":false,"inputs":[{"indexed":true,"internalType":"bytes32","name":"role","type":"bytes32"},{"indexed":true,"internalType":"address","name":"account","type":"address"},{"indexed":true,"internalType":"address","name":"sender","type":"address"}],"name":"RoleRevoked","type":"event"},{"inputs":[],"name":"DEFAULT_ADMIN_ROLE","outputs":[{"internalType":"bytes32","name":"","type":"bytes32"}],"stateMutability":"view","type":"function"},{"inputs":[],"name":"REPORTER_ROLE","outputs":[{"internalType":"bytes32","name":"","type":"bytes32"}],"stateMutability":"view","type":"function"},{"inputs":[{"internalType":"address","name":"reporter","type":"address"}],"name":"addReporter","outputs":[],"stateMutability":"nonpayable","type":"function"},{"inputs":[{"internalType":"string","name":"pixId","type":"string"}],"name":"confirmPixPayment","outputs":[{"internalType":"bool","name":"","type":"bool"}],"stateMutability":"nonpayable","type":"function"},{"inputs":[{"internalType":"string","name":"pixId","type":"string"}],"name":"getPixPaymentInfo","outputs":[{"internalType":"uint256","name":"amount","type":"uint256"},{"internalType":"address","name":"recipient","type":"address"},{"internalType":"bool","name":"confirmed","type":"bool"},{"internalType":"uint256","name":"timestamp","type":"uint256"},{"internalType":"string","name":"pixKey","type":"string"},{"internalType":"string","name":"bankTransactionId","type":"string"}],"stateMutability":"view","type":"function"},{"inputs":[{"internalType":"bytes32","name":"role","type":"bytes32"}],"name":"getRoleAdmin","outputs":[{"internalType":"bytes32","name":"","type":"bytes32"}],"stateMutability":"view","type":"function"},{"inputs":[{"internalType":"bytes32","name":"role","type":"bytes32"},{"internalType":"address","name":"account","type":"address"}],"name":"grantRole","outputs":[],"stateMutability":"nonpayable","type":"function"},{"inputs":[{"internalType":"bytes32","name":"role","type":"bytes32"},{"internalType":"address","name":"account","type":"address"}],"name":"hasRole","outputs":[{"internalType":"bool","name":"","type":"bool"}],"stateMutability":"view","type":"function"},{"inputs":[{"internalType":"string","name":"pixId","type":"string"}],"name":"isPixPaymentConfirmed","outputs":[{"internalType":"bool","name":"","type":"bool"}],"stateMutability":"view","type":"function"},{"inputs":[{"internalType":"address","name":"account","type":"address"}],"name":"isReporter","outputs":[{"internalType":"bool","name":"","type":"bool"}],"stateMutability":"view","type":"function"},{"inputs":[],"name":"owner","outputs":[{"internalType":"address","name":"","type":"address"}],"stateMutability":"view","type":"function"},{"inputs":[{"internalType":"string","name":"","type":"string"}],"name":"pixPayments","outputs":[{"internalType":"uint256","name":"amount","type":"uint256"},{"internalType":"address","name":"recipient","type":"address"},{"internalType":"bool","name":"confirmed","type":"bool"},{"internalType":"uint256","name":"timestamp","type":"uint256"},{"internalType":"string","name":"pixKey","type":"string"},{"internalType":"string","name":"bankTransactionId","type":"string"}],"stateMutability":"view","type":"function"},{"inputs":[{"internalType":"string","name":"","type":"string"}],"name":"processedTransactions","outputs":[{"internalType":"bool","name":"","type":"bool"}],"stateMutability":"view","type":"function"},{"inputs":[{"internalType":"address","name":"reporter","type":"address"}],"name":"removeReporter","outputs":[],"stateMutability":"nonpayable","type":"function"},{"inputs":[],"name":"renounceOwnership","outputs":[],"stateMutability":"nonpayable","type":"function"},{"inputs":[{"internalType":"bytes32","name":"role","type":"bytes32"},{"internalType":"address","name":"callerConfirmation","type":"address"}],"name":"renounceRole","outputs":[],"stateMutability":"nonpayable","type":"function"},{"inputs":[{"internalType":"string","name":"pixId","type":"string"},{"internalType":"uint256","name":"amount","type":"uint256"},{"internalType":"address","name":"recipient","type":"address"},{"internalType":"string","name":"pixKey","type":"string"},{"internalType":"string","name":"bankTransactionId","type":"string"}],"name":"reportPixPayment","outputs":[],"stateMutability":"nonpayable","type":"function"},{"inputs":[{"internalType":"bytes32","name":"role","type":"bytes32"},{"internalType":"address","name":"account","type":"address"}],"name":"revokeRole","outputs":[],"stateMutability":"nonpayable","type":"function"},{"inputs":[{"internalType":"bytes4","name":"interfaceId","type":"bytes4"}],"name":"supportsInterface","outputs":[{"internalType":"bool","name":"","type":"bool"}],"stateMutability":"view","type":"function"},{"inputs":[{"internalType":"address","name":"newOwner","type":"address"}],"name":"transferOwnership","outputs":[],"stateMutability":"nonpayable","type":"function"}],"evm":{"bytecode":{"linkReferences":{},"object":"608034620000dc57601f6200173d38819003918201601f19168301916001600160401b03831184841017620000e157808492602094604052833981010312620000dc57516001600160a01b0390818116808203620000dc578015620000c357600080546001600160a01b0319811683178255620000b29416907f8be0079c531659141344cd1fd0a4f28419497f9722a3daafe3b4186f6b6457e09080a360018055620000ab81620000f7565b5062000178565b5060405161150190816200021c8239f35b604051631e4fbdf760e01b815260006004820152602490fd5b600080fd5b634e487b7160e01b600052604160045260246000fd5b6001600160a01b031660008181527fac33ff75c19e70fe83507db0d683fd3465c996598dc972688b7ace676c89077b602052604081205490919060ff16620001745781805260026020526040822081835260205260408220600160ff1982541617905533916000805160206200171d8339815191528180a4600190565b5090565b6001600160a01b031660008181527f49a2a326875358081ceba6b74a5b6498b680a1a94d2cf53a85c3b48b58e0391c60205260408120549091907f3204c940063673962b481a0395619b3dbbd137589c419e993978c1c71bcf68ec9060ff16620002165780835260026020526040832082845260205260408320600160ff198254161790556000805160206200171d833981519152339380a4600190565b50509056fe608080604052600436101561001357600080fd5b60003560e01c90816301ffc9a714610e7657508063044ad7be14610e26578063220e99f2146108b9578063248a9ca31461088a5780632f2ff15d1461084b57806335dd46ca1461068757806336568abe146106405780633f60d79914610617578063455893ce146105af5780635de5c21214610512578063715018a6146104b95780638da5cb5b146104905780638fbd1d8e1461043457806391d14854146103e75780639ea32844146103a8578063a217fddf1461038c578063d547741f1461034b578063dd8755f214610260578063f2fde38b146101d25763f7679ae9146100fb57600080fd5b346101cd5760203660031901126101cd576004356001600160401b0381116101cd5761012d6020913690600401610ef5565b9190826040519384928337810160038152030190206040519061014f82610f22565b805482526101c9600182015492602081019260018060a01b0390818616855260ff604084019660a01c1615158652600281015491606084019283526101a9600461019b6003850161103f565b93608087019485520161103f565b938460a0820152519551169551151591519051916040519687968761110a565b0390f35b600080fd5b346101cd5760203660031901126101cd576101eb610ec9565b6101f36113d6565b6001600160a01b0390811690811561024757600054826bffffffffffffffffffffffff60a01b821617600055167f8be0079c531659141344cd1fd0a4f28419497f9722a3daafe3b4186f6b6457e0600080a3005b604051631e4fbdf760e01b815260006004820152602490fd5b346101cd5760203660031901126101cd57610279610ec9565b6102816113d6565b6001600160a01b0381169081156103065760008051602061148c83398151915260005260026020527f49a2a326875358081ceba6b74a5b6498b680a1a94d2cf53a85c3b48b58e0391d546102de91906102d9906111a7565b6111cd565b507f52824c4a4d431c73d6d24a91f775d722860111c6d30da30b0b21e062fb4c7365600080a2005b60405162461bcd60e51b815260206004820152601860248201527f496e76616c6964207265706f72746572206164647265737300000000000000006044820152606490fd5b346101cd5760403660031901126101cd5761038a60043561036a610edf565b908060005260026020526103856001604060002001546111a7565b61135f565b005b346101cd5760003660031901126101cd57602060405160008152f35b346101cd57602060ff6103d1826103be36610fa4565b8160405193828580945193849201610fe2565b8101600481520301902054166040519015158152f35b346101cd5760403660031901126101cd57610400610edf565b600435600052600260205260406000209060018060a01b0316600052602052602060ff604060002054166040519015158152f35b346101cd5760203660031901126101cd576004356001600160401b0381116101cd5760ff6001602061046b81943690600401610ef5565b919082604051938492833781016003815203019020015460a01c166040519015158152f35b346101cd5760003660031901126101cd576000546040516001600160a01b039091168152602090f35b346101cd5760003660031901126101cd576104d26113d6565b600080546001600160a01b0319811682556001600160a01b03167f8be0079c531659141344cd1fd0a4f28419497f9722a3daafe3b4186f6b6457e08280a3005b346101cd5760203660031901126101cd5761052b610ec9565b6105336113d6565b60008051602061148c83398151915260005260026020527f49a2a326875358081ceba6b74a5b6498b680a1a94d2cf53a85c3b48b58e0391d54610575906111a7565b61057e816112d7565b506001600160a01b03167ff125aa5e6cb22c17ea0de4e1f86d2ff289ddd6a37e791b9ad29d0091cba06ac8600080a2005b346101cd576105c260206103be36610fa4565b8101600381520301902080546101c96001830154926002810154906105f560046105ee6003840161103f565b920161103f565b60405195869591939160a082901c60ff16916001600160a01b0316908761110a565b346101cd5760003660031901126101cd57602060405160008051602061148c8339815191528152f35b346101cd5760403660031901126101cd57610659610edf565b336001600160a01b038216036106755761038a9060043561135f565b60405163334bd91960e11b8152600490fd5b346101cd576020806003193601126101cd576004356001600160401b0381116101cd576106b8903690600401610ef5565b906106c1611151565b6106c9611468565b6106d4821515611402565b60ff604051838382378481858101600481520301902054161561080657604051918082843760ff818401600381528486600196879303019020015460a01c166107c157826040518284823760038382019081528190038601902001805460ff60a01b1916600160a01b1790556040517fafdc294884dbbf0a1d9b4bcd762639fba7306aa04b0ac0b23c26b3f47efffd559085908385823781818581016003815203019020549260405181868237868282019160038352848160018060a01b0394030190200154169481604051928392833781016000815203902092604051908152a3808055604051908152f35b60405162461bcd60e51b815260048101859052601960248201527f5061796d656e7420616c726561647920636f6e6669726d6564000000000000006044820152606490fd5b60405162461bcd60e51b815260048101849052601860248201527f5472616e73616374696f6e206e6f74207265706f7274656400000000000000006044820152606490fd5b346101cd5760403660031901126101cd5761038a60043561086a610edf565b908060005260026020526108856001604060002001546111a7565b61125c565b346101cd5760203660031901126101cd5760043560005260026020526020600160406000200154604051908152f35b346101cd5760a03660031901126101cd576004356001600160401b0381116101cd576108e9903690600401610ef5565b6044356001600160a01b03811681036101cd576064356001600160401b0381116101cd5761091b903690600401610ef5565b6084356001600160401b0381116101cd5761093a903690600401610ef5565b939094610945611151565b61094d611468565b610958811515611402565b60243515610de1576001600160a01b03821615610d9c5760ff6040518289823760208184810160048152030190205416610d57576040519661099988610f22565b60243588526001600160a01b0383166020890152600060408901524260608901526109c5368587610f5e565b60808901526109d5368789610f5e565b60a089015260405182828237602081848101600381520301902097805189556001890160018060a01b0360208301511681549060ff60a01b6040850151151560a01b16916affffffffffffffffffffff60a81b1617179055606081015160028a015560808101518051906001600160401b038211610c7c57610a5a60038c0154611005565b601f8111610d10575b50602090601f8311600114610c9d5760a093929160009183610c92575b50508160011b916000199060031b1c19161760038b01555b01519788516001600160401b038111610c7c57610ab86004830154611005565b601f8111610c35575b506020601f8211600114610b9c5781610b8896959493926004927f43fa1555f24cd7a15b3ff5cc41d5c7155868585c1765735a85122a641d4f36b69b9c9d600092610b91575b50508160011b916000199060031b1c1916179101555b604051828282376020818481016004815203019020600160ff1982541617905581604051928392833781016000815203902095610b6f6040519586956024358752606060208801526060870191611447565b84810360408601526001600160a01b0390921697611447565b0390a360018055005b015190508d80610b07565b6004830160005260206000209a60005b601f1984168110610c1d5750827f43fa1555f24cd7a15b3ff5cc41d5c7155868585c1765735a85122a641d4f36b69a9b9c600493600193610b889a99989796601f19811610610c04575b505050811b01910155610b1d565b015160001960f88460031b161c191690558d8080610bf6565b828201518d556001909c019b60209283019201610bac565b600483016000526020600020601f830160051c810160208410610c75575b601f830160051c82018110610c69575050610ac1565b60008155600101610c53565b5080610c53565b634e487b7160e01b600052604160045260246000fd5b015190508c80610a80565b9060038c0160005260206000209160005b601f1985168110610cf8575091839160019360a09695601f19811610610cdf575b505050811b0160038b0155610a98565b015160001960f88460031b161c191690558c8080610ccf565b91926020600181928685015181550194019201610cae565b60038c016000526020600020601f840160051c810160208510610d50575b601f830160051c82018110610d44575050610a63565b60008155600101610d2e565b5080610d2e565b60405162461bcd60e51b815260206004820152601d60248201527f5472616e73616374696f6e20616c72656164792070726f6365737365640000006044820152606490fd5b60405162461bcd60e51b815260206004820152601960248201527f496e76616c696420726563697069656e742061646472657373000000000000006044820152606490fd5b60405162461bcd60e51b815260206004820152601d60248201527f416d6f756e74206d7573742062652067726561746572207468616e20300000006044820152606490fd5b346101cd5760203660031901126101cd57610e3f610ec9565b6001600160a01b031660009081526000805160206114ac833981519152602090815260409182902054915160ff9092161515825290f35b346101cd5760203660031901126101cd576004359063ffffffff60e01b82168092036101cd57602091637965db0b60e01b8114908115610eb8575b5015158152f35b6301ffc9a760e01b14905083610eb1565b600435906001600160a01b03821682036101cd57565b602435906001600160a01b03821682036101cd57565b9181601f840112156101cd578235916001600160401b0383116101cd57602083818601950101116101cd57565b60c081019081106001600160401b03821117610c7c57604052565b90601f801991011681019081106001600160401b03821117610c7c57604052565b9291926001600160401b038211610c7c5760405191610f87601f8201601f191660200184610f3d565b8294818452818301116101cd578281602093846000960137010152565b60206003198201126101cd57600435906001600160401b0382116101cd57806023830112156101cd57816024610fdf93600401359101610f5e565b90565b60005b838110610ff55750506000910152565b8181015183820152602001610fe5565b90600182811c92168015611035575b602083101461101f57565b634e487b7160e01b600052602260045260246000fd5b91607f1691611014565b906040519182600082549261105384611005565b9081845260019485811690816000146110c2575060011461107f575b505061107d92500383610f3d565b565b9093915060005260209081600020936000915b8183106110aa57505061107d9350820101388061106f565b85548884018501529485019487945091830191611092565b91505061107d94506020925060ff191682840152151560051b820101388061106f565b906020916110fe81518092818552858086019101610fe2565b601f01601f1916010190565b94919261114393610fdf979592875260018060a01b0316602087015215156040860152606085015260c0608085015260c08401906110e5565b9160a08184039101526110e5565b3360009081526000805160206114ac833981519152602052604090205460008051602061148c8339815191529060ff16156111895750565b6044906040519063e2517d3f60e01b82523360048301526024820152fd5b80600052600260205260406000203360005260205260ff60406000205416156111895750565b6001600160a01b031660008181526000805160206114ac833981519152602052604081205490919060008051602061148c8339815191529060ff166112575780835260026020526040832082845260205260408320600160ff198254161790557f2f8788117e7eff1d82e926ec794901d17c78024a50270940304540a733656f0d339380a4600190565b505090565b906000918083526002602052604083209160018060a01b03169182845260205260ff604084205416156000146112575780835260026020526040832082845260205260408320600160ff198254161790557f2f8788117e7eff1d82e926ec794901d17c78024a50270940304540a733656f0d339380a4600190565b6001600160a01b031660008181526000805160206114ac833981519152602052604081205490919060008051602061148c8339815191529060ff1615611257578083526002602052604083208284526020526040832060ff1981541690557ff6391f5c32d9c69d2a47ea670b442974b53935d1edc7fd64eb21e047a839171b339380a4600190565b906000918083526002602052604083209160018060a01b03169182845260205260ff604084205416600014611257578083526002602052604083208284526020526040832060ff1981541690557ff6391f5c32d9c69d2a47ea670b442974b53935d1edc7fd64eb21e047a839171b339380a4600190565b6000546001600160a01b031633036113ea57565b60405163118cdaa760e01b8152336004820152602490fd5b1561140957565b60405162461bcd60e51b81526020600482015260166024820152755049582049442063616e6e6f7420626520656d70747960501b6044820152606490fd5b908060209392818452848401376000828201840152601f01601f1916010190565b600260015414611479576002600155565b604051633ee5aeb560e01b8152600490fdfe3204c940063673962b481a0395619b3dbbd137589c419e993978c1c71bcf68ec49a2a326875358081ceba6b74a5b6498b680a1a94d2cf53a85c3b48b58e0391ca2646970667358221220d8a65b6f8b0a43a3d9ea4b493731ab41c0290fcc026655cd28c0bbbc38ec998764736f6c634300081400332f8788117e7eff1d82e926ec794901d17c78024a50270940304540a733656f0d","opcodes":"PUSH1 0x80 CALLVALUE PUSH3 0xDC JUMPI PUSH1 0x1F PUSH3 0x173D CODESIZE DUP2 SWAP1 SUB SWAP2 DUP3 ADD PUSH1 0x1F NOT AND DUP4 ADD SWAP2 PUSH1 0x1 PUSH1 0x1 PUSH1 0x40 SHL SUB DUP4 GT DUP5 DUP5 LT OR PUSH3 0xE1 JUMPI DUP1 DUP5 SWAP3 PUSH1 0x20 SWAP5 PUSH1 0x40 MSTORE DUP4 CODECOPY DUP2 ADD SUB SLT PUSH3 0xDC JUMPI MLOAD PUSH1 0x1 PUSH1 0x1 PUSH1 0xA0 SHL SUB SWAP1 DUP2 DUP2 AND DUP1 DUP3 SUB PUSH3 0xDC JUMPI DUP1 ISZERO PUSH3 0xC3 JUMPI PUSH1 0x0 DUP1 SLOAD PUSH1 0x1 PUSH1 0x1 PUSH1 0xA0 SHL SUB NOT DUP2 AND DUP4 OR DUP3 SSTORE PUSH3 0xB2 SWAP5 AND SWAP1 PUSH32 0x8BE0079C531659141344CD1FD0A4F28419497F9722A3DAAFE3B4186F6B6457E0 SWAP1 DUP1 LOG3 PUSH1 0x1 DUP1 SSTORE PUSH3 0xAB DUP2 PUSH3 0xF7 JUMP JUMPDEST POP PUSH3 0x178 JUMP JUMPDEST POP PUSH1 0x40 MLOAD PUSH2 0x1501 SWAP1 DUP2 PUSH3 0x21C DUP3 CODECOPY RETURN JUMPDEST PUSH1 0x40 MLOAD PUSH4 0x1E4FBDF7 PUSH1 0xE0 SHL DUP2 MSTORE PUSH1 0x0 PUSH1 0x4 DUP3 ADD MSTORE PUSH1 0x24 SWAP1 REVERT JUMPDEST PUSH1 0x0 DUP1 REVERT JUMPDEST PUSH4 0x4E487B71 PUSH1 0xE0 SHL PUSH1 0x0 MSTORE PUSH1 0x41 PUSH1 0x4 MSTORE PUSH1 0x24 PUSH1 0x0 REVERT JUMPDEST PUSH1 0x1 PUSH1 0x1 PUSH1 0xA0 SHL SUB AND PUSH1 0x0 DUP2 DUP2 MSTORE PUSH32 0xAC33FF75C19E70FE83507DB0D683FD3465C996598DC972688B7ACE676C89077B PUSH1 0x20 MSTORE PUSH1 0x40 DUP2 KECCAK256 SLOAD SWAP1 SWAP2 SWAP1 PUSH1 0xFF AND PUSH3 0x174 JUMPI DUP2 DUP1 MSTORE PUSH1 0x2 PUSH1 0x20 MSTORE PUSH1 0x40 DUP3 KECCAK256 DUP2 DUP4 MSTORE PUSH1 0x20 MSTORE PUSH1 0x40 DUP3 KECCAK256 PUSH1 0x1 PUSH1 0xFF NOT DUP3 SLOAD AND OR SWAP1 SSTORE CALLER SWAP2 PUSH1 0x0 DUP1 MLOAD PUSH1 0x20 PUSH3 0x171D DUP4 CODECOPY DUP2 MLOAD SWAP2 MSTORE DUP2 DUP1 LOG4 PUSH1 0x1 SWAP1 JUMP JUMPDEST POP SWAP1 JUMP JUMPDEST PUSH1 0x1 PUSH1 0x1 PUSH1 0xA0 SHL SUB AND PUSH1 0x0 DUP2 DUP2 MSTORE PUSH32 0x49A2A326875358081CEBA6B74A5B6498B680A1A94D2CF53A85C3B48B58E0391C PUSH1 0x20 MSTORE PUSH1 0x40 DUP2 KECCAK256 SLOAD SWAP1 SWAP2 SWAP1 PUSH32 0x3204C940063673962B481A0395619B3DBBD137589C419E993978C1C71BCF68EC SWAP1 PUSH1 0xFF AND PUSH3 0x216 JUMPI DUP1 DUP4 MSTORE PUSH1 0x2 PUSH1 0x20 MSTORE PUSH1 0x40 DUP4 KECCAK256 DUP3 DUP5 MSTORE PUSH1 0x20 MSTORE PUSH1 0x40 DUP4 KECCAK256 PUSH1 0x1 PUSH1 0xFF NOT DUP3 SLOAD AND OR SWAP1 SSTORE PUSH1 0x0 DUP1 MLOAD PUSH1 0x20 PUSH3 0x171D DUP4 CODECOPY DUP2 MLOAD SWAP2 MSTORE CALLER SWAP4 DUP1 LOG4 PUSH1 0x1 SWAP1 JUMP JUMPDEST POP POP SWAP1 JUMP INVALID PUSH1 0x80 DUP1 PUSH1 0x40 MSTORE PUSH1 0x4 CALLDATASIZE LT ISZERO PUSH2 0x13 JUMPI PUSH1 0x0 DUP1 REVERT JUMPDEST PUSH1 0x0 CALLDATALOAD PUSH1 0xE0 SHR SWAP1 DUP2 PUSH4 0x1FFC9A7 EQ PUSH2 0xE76 JUMPI POP DUP1 PUSH4 0x44AD7BE EQ PUSH2 0xE26 JUMPI DUP1 PUSH4 0x220E99F2 EQ PUSH2 0x8B9 JUMPI DUP1 PUSH4 0x248A9CA3 EQ PUSH2 0x88A JUMPI DUP1 PUSH4 0x2F2FF15D EQ PUSH2 0x84B JUMPI DUP1 PUSH4 0x35DD46CA EQ PUSH2 0x687 JUMPI DUP1 PUSH4 0x36568ABE EQ PUSH2 0x640 JUMPI DUP1 PUSH4 0x3F60D799 EQ PUSH2 0x617 JUMPI DUP1 PUSH4 0x455893CE EQ PUSH2 0x5AF JUMPI DUP1 PUSH4 0x5DE5C212 EQ PUSH2 0x512 JUMPI DUP1 PUSH4 0x715018A6 EQ PUSH2 0x4B9 JUMPI DUP1 PUSH4 0x8DA5CB5B EQ PUSH2 0x490 JUMPI DUP1 PUSH4 0x8FBD1D8E EQ PUSH2 0x434 JUMPI DUP1 PUSH4 0x91D14854 EQ PUSH2 0x3E7 JUMPI DUP1 PUSH4 0x9EA32844 EQ PUSH2 0x3A8 JUMPI DUP1 PUSH4 0xA217FDDF EQ PUSH2 0x38C JUMPI DUP1 PUSH4 0xD547741F EQ PUSH2 0x34B JUMPI DUP1 PUSH4 0xDD8755F2 EQ PUSH2 0x260 JUMPI DUP1 PUSH4 0xF2FDE38B EQ PUSH2 0x1D2 JUMPI PUSH4 0xF7679AE9 EQ PUSH2 0xFB JUMPI PUSH1 0x0 DUP1 REVERT JUMPDEST CALLVALUE PUSH2 0x1CD JUMPI PUSH1 0x20 CALLDATASIZE PUSH1 0x3 NOT ADD SLT PUSH2 0x1CD JUMPI PUSH1 0x4 CALLDATALOAD PUSH1 0x1 PUSH1 0x1 PUSH1 0x40 SHL SUB DUP2 GT PUSH2 0x1CD JUMPI PUSH2 0x12D PUSH1 0x20 SWAP2 CALLDATASIZE SWAP1 PUSH1 0x4 ADD PUSH2 0xEF5 JUMP JUMPDEST SWAP2 SWAP1 DUP3 PUSH1 0x40 MLOAD SWAP4 DUP5 SWAP3 DUP4 CALLDATACOPY DUP2 ADD PUSH1 0x3 DUP2 MSTORE SUB ADD SWAP1 KECCAK256 PUSH1 0x40 MLOAD SWAP1 PUSH2 0x14F DUP3 PUSH2 0xF22 JUMP JUMPDEST DUP1 SLOAD DUP3 MSTORE PUSH2 0x1C9 PUSH1 0x1 DUP3 ADD SLOAD SWAP3 PUSH1 0x20 DUP2 ADD SWAP3 PUSH1 0x1 DUP1 PUSH1 0xA0 SHL SUB SWAP1 DUP2 DUP7 AND DUP6 MSTORE PUSH1 0xFF PUSH1 0x40 DUP5 ADD SWAP7 PUSH1 0xA0 SHR AND ISZERO ISZERO DUP7 MSTORE PUSH1 0x2 DUP2 ADD SLOAD SWAP2 PUSH1 0x60 DUP5 ADD SWAP3 DUP4 MSTORE PUSH2 0x1A9 PUSH1 0x4 PUSH2 0x19B PUSH1 0x3 DUP6 ADD PUSH2 0x103F JUMP JUMPDEST SWAP4 PUSH1 0x80 DUP8 ADD SWAP5 DUP6 MSTORE ADD PUSH2 0x103F JUMP JUMPDEST SWAP4 DUP5 PUSH1 0xA0 DUP3 ADD MSTORE MLOAD SWAP6 MLOAD AND SWAP6 MLOAD ISZERO ISZERO SWAP2 MLOAD SWAP1 MLOAD SWAP2 PUSH1 0x40 MLOAD SWAP7 DUP8 SWAP7 DUP8 PUSH2 0x110A JUMP JUMPDEST SUB SWAP1 RETURN JUMPDEST PUSH1 0x0 DUP1 REVERT JUMPDEST CALLVALUE PUSH2 0x1CD JUMPI PUSH1 0x20 CALLDATASIZE PUSH1 0x3 NOT ADD SLT PUSH2 0x1CD JUMPI PUSH2 0x1EB PUSH2 0xEC9 JUMP JUMPDEST PUSH2 0x1F3 PUSH2 0x13D6 JUMP JUMPDEST PUSH1 0x1 PUSH1 0x1 PUSH1 0xA0 SHL SUB SWAP1 DUP2 AND SWAP1 DUP2 ISZERO PUSH2 0x247 JUMPI PUSH1 0x0 SLOAD DUP3 PUSH12 0xFFFFFFFFFFFFFFFFFFFFFFFF PUSH1 0xA0 SHL DUP3 AND OR PUSH1 0x0 SSTORE AND PUSH32 0x8BE0079C531659141344CD1FD0A4F28419497F9722A3DAAFE3B4186F6B6457E0 PUSH1 0x0 DUP1 LOG3 STOP JUMPDEST PUSH1 0x40 MLOAD PUSH4 0x1E4FBDF7 PUSH1 0xE0 SHL DUP2 MSTORE PUSH1 0x0 PUSH1 0x4 DUP3 ADD MSTORE PUSH1 0x24 SWAP1 REVERT JUMPDEST CALLVALUE PUSH2 0x1CD JUMPI PUSH1 0x20 CALLDATASIZE PUSH1 0x3 NOT ADD SLT PUSH2 0x1CD JUMPI PUSH2 0x279 PUSH2 0xEC9 JUMP JUMPDEST PUSH2 0x281 PUSH2 0x13D6 JUMP JUMPDEST PUSH1 0x1 PUSH1 0x1 PUSH1 0xA0 SHL SUB DUP2 AND SWAP1 DUP2 ISZERO PUSH2 0x306 JUMPI PUSH1 0x0 DUP1 MLOAD PUSH1 0x20 PUSH2 0x148C DUP4 CODECOPY DUP2 MLOAD SWAP2 MSTORE PUSH1 0x0 MSTORE PUSH1 0x2 PUSH1 0x20 MSTORE PUSH32 0x49A2A326875358081CEBA6B74A5B6498B680A1A94D2CF53A85C3B48B58E0391D SLOAD PUSH2 0x2DE SWAP2 SWAP1 PUSH2 0x2D9 SWAP1 PUSH2 0x11A7 JUMP JUMPDEST PUSH2 0x11CD JUMP JUMPDEST POP PUSH32 0x52824C4A4D431C73D6D24A91F775D722860111C6D30DA30B0B21E062FB4C7365 PUSH1 0x0 DUP1 LOG2 STOP JUMPDEST PUSH1 0x40 MLOAD PUSH3 0x461BCD PUSH1 0xE5 SHL DUP2 MSTORE PUSH1 0x20 PUSH1 0x4 DUP3 ADD MSTORE PUSH1 0x18 PUSH1 0x24 DUP3 ADD MSTORE PUSH32 0x496E76616C6964207265706F7274657220616464726573730000000000000000 PUSH1 0x44 DUP3 ADD MSTORE PUSH1 0x64 SWAP1 REVERT JUMPDEST CALLVALUE PUSH2 0x1CD JUMPI PUSH1 0x40 CALLDATASIZE PUSH1 0x3 NOT ADD SLT PUSH2 0x1CD JUMPI PUSH2 0x38A PUSH1 0x4 CALLDATALOAD PUSH2 0x36A PUSH2 0xEDF JUMP JUMPDEST SWAP1 DUP1 PUSH1 0x0 MSTORE PUSH1 0x2 PUSH1 0x20 MSTORE PUSH2 0x385 PUSH1 0x1 PUSH1 0x40 PUSH1 0x0 KECCAK256 ADD SLOAD PUSH2 0x11A7 JUMP JUMPDEST PUSH2 0x135F JUMP JUMPDEST STOP JUMPDEST CALLVALUE PUSH2 0x1CD JUMPI PUSH1 0x0 CALLDATASIZE PUSH1 0x3 NOT ADD SLT PUSH2 0x1CD JUMPI PUSH1 0x20 PUSH1 0x40 MLOAD PUSH1 0x0 DUP2 MSTORE RETURN JUMPDEST CALLVALUE PUSH2 0x1CD JUMPI PUSH1 0x20 PUSH1 0xFF PUSH2 0x3D1 DUP3 PUSH2 0x3BE CALLDATASIZE PUSH2 0xFA4 JUMP JUMPDEST DUP2 PUSH1 0x40 MLOAD SWAP4 DUP3 DUP6 DUP1 SWAP5 MLOAD SWAP4 DUP5 SWAP3 ADD PUSH2 0xFE2 JUMP JUMPDEST DUP2 ADD PUSH1 0x4 DUP2 MSTORE SUB ADD SWAP1 KECCAK256 SLOAD AND PUSH1 0x40 MLOAD SWAP1 ISZERO ISZERO DUP2 MSTORE RETURN JUMPDEST CALLVALUE PUSH2 0x1CD JUMPI PUSH1 0x40 CALLDATASIZE PUSH1 0x3 NOT ADD SLT PUSH2 0x1CD JUMPI PUSH2 0x400 PUSH2 0xEDF JUMP JUMPDEST PUSH1 0x4 CALLDATALOAD PUSH1 0x0 MSTORE PUSH1 0x2 PUSH1 0x20 MSTORE PUSH1 0x40 PUSH1 0x0 KECCAK256 SWAP1 PUSH1 0x1 DUP1 PUSH1 0xA0 SHL SUB AND PUSH1 0x0 MSTORE PUSH1 0x20 MSTORE PUSH1 0x20 PUSH1 0xFF PUSH1 0x40 PUSH1 0x0 KECCAK256 SLOAD AND PUSH1 0x40 MLOAD SWAP1 ISZERO ISZERO DUP2 MSTORE RETURN JUMPDEST CALLVALUE PUSH2 0x1CD JUMPI PUSH1 0x20 CALLDATASIZE PUSH1 0x3 NOT ADD SLT PUSH2 0x1CD JUMPI PUSH1 0x4 CALLDATALOAD PUSH1 0x1 PUSH1 0x1 PUSH1 0x40 SHL SUB DUP2 GT PUSH2 0x1CD JUMPI PUSH1 0xFF PUSH1 0x1 PUSH1 0x20 PUSH2 0x46B DUP2 SWAP5 CALLDATASIZE SWAP1 PUSH1 0x4 ADD PUSH2 0xEF5 JUMP JUMPDEST SWAP2 SWAP1 DUP3 PUSH1 0x40 MLOAD SWAP4 DUP5 SWAP3 DUP4 CALLDATACOPY DUP2 ADD PUSH1 0x3 DUP2 MSTORE SUB ADD SWAP1 KECCAK256 ADD SLOAD PUSH1 0xA0 SHR AND PUSH1 0x40 MLOAD SWAP1 ISZERO ISZERO DUP2 MSTORE RETURN JUMPDEST CALLVALUE PUSH2 0x1CD JUMPI PUSH1 0x0 CALLDATASIZE PUSH1 0x3 NOT ADD SLT PUSH2 0x1CD JUMPI PUSH1 0x0 SLOAD PUSH1 0x40 MLOAD PUSH1 0x1 PUSH1 0x1 PUSH1 0xA0 SHL SUB SWAP1 SWAP2 AND DUP2 MSTORE PUSH1 0x20 SWAP1 RETURN JUMPDEST CALLVALUE PUSH2 0x1CD JUMPI PUSH1 0x0 CALLDATASIZE PUSH1 0x3 NOT ADD SLT PUSH2 0x1CD JUMPI PUSH2 0x4D2 PUSH2 0x13D6 JUMP JUMPDEST PUSH1 0x0 DUP1 SLOAD PUSH1 0x1 PUSH1 0x1 PUSH1 0xA0 SHL SUB NOT DUP2 AND DUP3 SSTORE PUSH1 0x1 PUSH1 0x1 PUSH1 0xA0 SHL SUB AND PUSH32 0x8BE0079C531659141344CD1FD0A4F28419497F9722A3DAAFE3B4186F6B6457E0 DUP3 DUP1 LOG3 STOP JUMPDEST CALLVALUE PUSH2 0x1CD JUMPI PUSH1 0x20 CALLDATASIZE PUSH1 0x3 NOT ADD SLT PUSH2 0x1CD JUMPI PUSH2 0x52B PUSH2 0xEC9 JUMP JUMPDEST PUSH2 0x533 PUSH2 0x13D6 JUMP JUMPDEST PUSH1 0x0 DUP1 MLOAD PUSH1 0x20 PUSH2 0x148C DUP4 CODECOPY DUP2 MLOAD SWAP2 MSTORE PUSH1 0x0 MSTORE PUSH1 0x2 PUSH1 0x20 MSTORE PUSH32 0x49A2A326875358081CEBA6B74A5B6498B680A1A94D2CF53A85C3B48B58E0391D SLOAD PUSH2 0x575 SWAP1 PUSH2 0x11A7 JUMP JUMPDEST PUSH2 0x57E DUP2 PUSH2 0x12D7 JUMP JUMPDEST POP PUSH1 0x1 PUSH1 0x1 PUSH1 0xA0 SHL SUB AND PUSH32 0xF125AA5E6CB22C17EA0DE4E1F86D2FF289DDD6A37E791B9AD29D0091CBA06AC8 PUSH1 0x0 DUP1 LOG2 STOP JUMPDEST CALLVALUE PUSH2 0x1CD JUMPI PUSH2 0x5C2 PUSH1 0x20 PUSH2 0x3BE CALLDATASIZE PUSH2 0xFA4 JUMP JUMPDEST DUP2 ADD PUSH1 0x3 DUP2 MSTORE SUB ADD SWAP1 KECCAK256 DUP1 SLOAD PUSH2 0x1C9 PUSH1 0x1 DUP4 ADD SLOAD SWAP3 PUSH1 0x2 DUP2 ADD SLOAD SWAP1 PUSH2 0x5F5 PUSH1 0x4 PUSH2 0x5EE PUSH1 0x3 DUP5 ADD PUSH2 0x103F JUMP JUMPDEST SWAP3 ADD PUSH2 0x103F JUMP JUMPDEST PUSH1 0x40 MLOAD SWAP6 DUP7 SWAP6 SWAP2 SWAP4 SWAP2 PUSH1 0xA0 DUP3 SWAP1 SHR PUSH1 0xFF AND SWAP2 PUSH1 0x1 PUSH1 0x1 PUSH1 0xA0 SHL SUB AND SWAP1 DUP8 PUSH2 0x110A JUMP JUMPDEST CALLVALUE PUSH2 0x1CD JUMPI PUSH1 0x0 CALLDATASIZE PUSH1 0x3 NOT ADD SLT PUSH2 0x1CD JUMPI PUSH1 0x20 PUSH1 0x40 MLOAD PUSH1 0x0 DUP1 MLOAD PUSH1 0x20 PUSH2 0x148C DUP4 CODECOPY DUP2 MLOAD SWAP2 MSTORE DUP2 MSTORE RETURN JUMPDEST CALLVALUE PUSH2 0x1CD JUMPI PUSH1 0x40 CALLDATASIZE PUSH1 0x3 NOT ADD SLT PUSH2 0x1CD JUMPI PUSH2 0x659 PUSH2 0xEDF JUMP JUMPDEST CALLER PUSH1 0x1 PUSH1 0x1 PUSH1 0xA0 SHL SUB DUP3 AND SUB PUSH2 0x675 JUMPI PUSH2 0x38A SWAP1 PUSH1 0x4 CALLDATALOAD PUSH2 0x135F JUMP JUMPDEST PUSH1 0x40 MLOAD PUSH4 0x334BD919 PUSH1 0xE1 SHL DUP2 MSTORE PUSH1 0x4 SWAP1 REVERT JUMPDEST CALLVALUE PUSH2 0x1CD JUMPI PUSH1 0x20 DUP1 PUSH1 0x3 NOT CALLDATASIZE ADD SLT PUSH2 0x1CD JUMPI PUSH1 0x4 CALLDATALOAD PUSH1 0x1 PUSH1 0x1 PUSH1 0x40 SHL SUB DUP2 GT PUSH2 0x1CD JUMPI PUSH2 0x6B8 SWAP1 CALLDATASIZE SWAP1 PUSH1 0x4 ADD PUSH2 0xEF5 JUMP JUMPDEST SWAP1 PUSH2 0x6C1 PUSH2 0x1151 JUMP JUMPDEST PUSH2 0x6C9 PUSH2 0x1468 JUMP JUMPDEST PUSH2 0x6D4 DUP3 ISZERO ISZERO PUSH2 0x1402 JUMP JUMPDEST PUSH1 0xFF PUSH1 0x40 MLOAD DUP4 DUP4 DUP3 CALLDATACOPY DUP5 DUP2 DUP6 DUP2 ADD PUSH1 0x4 DUP2 MSTORE SUB ADD SWAP1 KECCAK256 SLOAD AND ISZERO PUSH2 0x806 JUMPI PUSH1 0x40 MLOAD SWAP2 DUP1 DUP3 DUP5 CALLDATACOPY PUSH1 0xFF DUP2 DUP5 ADD PUSH1 0x3 DUP2 MSTORE DUP5 DUP7 PUSH1 0x1 SWAP7 DUP8 SWAP4 SUB ADD SWAP1 KECCAK256 ADD SLOAD PUSH1 0xA0 SHR AND PUSH2 0x7C1 JUMPI DUP3 PUSH1 0x40 MLOAD DUP3 DUP5 DUP3 CALLDATACOPY PUSH1 0x3 DUP4 DUP3 ADD SWAP1 DUP2 MSTORE DUP2 SWAP1 SUB DUP7 ADD SWAP1 KECCAK256 ADD DUP1 SLOAD PUSH1 0xFF PUSH1 0xA0 SHL NOT AND PUSH1 0x1 PUSH1 0xA0 SHL OR SWAP1 SSTORE PUSH1 0x40 MLOAD PUSH32 0xAFDC294884DBBF0A1D9B4BCD762639FBA7306AA04B0AC0B23C26B3F47EFFFD55 SWAP1 DUP6 SWAP1 DUP4 DUP6 DUP3 CALLDATACOPY DUP2 DUP2 DUP6 DUP2 ADD PUSH1 0x3 DUP2 MSTORE SUB ADD SWAP1 KECCAK256 SLOAD SWAP3 PUSH1 0x40 MLOAD DUP2 DUP7 DUP3 CALLDATACOPY DUP7 DUP3 DUP3 ADD SWAP2 PUSH1 0x3 DUP4 MSTORE DUP5 DUP2 PUSH1 0x1 DUP1 PUSH1 0xA0 SHL SUB SWAP5 SUB ADD SWAP1 KECCAK256 ADD SLOAD AND SWAP5 DUP2 PUSH1 0x40 MLOAD SWAP3 DUP4 SWAP3 DUP4 CALLDATACOPY DUP2 ADD PUSH1 0x0 DUP2 MSTORE SUB SWAP1 KECCAK256 SWAP3 PUSH1 0x40 MLOAD SWAP1 DUP2 MSTORE LOG3 DUP1 DUP1 SSTORE PUSH1 0x40 MLOAD SWAP1 DUP2 MSTORE RETURN JUMPDEST PUSH1 0x40 MLOAD PUSH3 0x461BCD PUSH1 0xE5 SHL DUP2 MSTORE PUSH1 0x4 DUP2 ADD DUP6 SWAP1 MSTORE PUSH1 0x19 PUSH1 0x24 DUP3 ADD MSTORE PUSH32 0x5061796D656E7420616C726561647920636F6E6669726D656400000000000000 PUSH1 0x44 DUP3 ADD MSTORE PUSH1 0x64 SWAP1 REVERT JUMPDEST PUSH1 0x40 MLOAD PUSH3 0x461BCD PUSH1 0xE5 SHL DUP2 MSTORE PUSH1 0x4 DUP2 ADD DUP5 SWAP1 MSTORE PUSH1 0x18 PUSH1 0x24 DUP3 ADD MSTORE PUSH32 0x5472616E73616374696F6E206E6F74207265706F727465640000000000000000 PUSH1 0x44 DUP3 ADD MSTORE PUSH1 0x64 SWAP1 REVERT JUMPDEST CALLVALUE PUSH2 0x1CD JUMPI PUSH1 0x40 CALLDATASIZE PUSH1 0x3 NOT ADD SLT PUSH2 0x1CD JUMPI PUSH2 0x38A PUSH1 0x4 CALLDATALOAD PUSH2 0x86A PUSH2 0xEDF JUMP JUMPDEST SWAP1 DUP1 PUSH1 0x0 MSTORE PUSH1 0x2 PUSH1 0x20 MSTORE PUSH2 0x885 PUSH1 0x1 PUSH1 0x40 PUSH1 0x0 KECCAK256 ADD SLOAD PUSH2 0x11A7 JUMP JUMPDEST PUSH2 0x125C JUMP JUMPDEST CALLVALUE PUSH2 0x1CD JUMPI PUSH1 0x20 CALLDATASIZE PUSH1 0x3 NOT ADD SLT PUSH2 0x1CD JUMPI PUSH1 0x4 CALLDATALOAD PUSH1 0x0 MSTORE PUSH1 0x2 PUSH1 0x20 MSTORE PUSH1 0x20 PUSH1 0x1 PUSH1 0x40 PUSH1 0x0 KECCAK256 ADD SLOAD PUSH1 0x40 MLOAD SWAP1 DUP2 MSTORE RETURN JUMPDEST CALLVALUE PUSH2 0x1CD JUMPI PUSH1 0xA0 CALLDATASIZE PUSH1 0x3 NOT ADD SLT PUSH2 0x1CD JUMPI PUSH1 0x4 CALLDATALOAD PUSH1 0x1 PUSH1 0x1 PUSH1 0x40 SHL SUB DUP2 GT PUSH2 0x1CD JUMPI PUSH2 0x8E9 SWAP1 CALLDATASIZE SWAP1 PUSH1 0x4 ADD PUSH2 0xEF5 JUMP JUMPDEST PUSH1 0x44 CALLDATALOAD PUSH1 0x1 PUSH1 0x1 PUSH1 0xA0 SHL SUB DUP2 AND DUP2 SUB PUSH2 0x1CD JUMPI PUSH1 0x64 CALLDATALOAD PUSH1 0x1 PUSH1 0x1 PUSH1 0x40 SHL SUB DUP2 GT PUSH2 0x1CD JUMPI PUSH2 0x91B SWAP1 CALLDATASIZE SWAP1 PUSH1 0x4 ADD PUSH2 0xEF5 JUMP JUMPDEST PUSH1 0x84 CALLDATALOAD PUSH1 0x1 PUSH1 0x1 PUSH1 0x40 SHL SUB DUP2 GT PUSH2 0x1CD JUMPI PUSH2 0x93A SWAP1 CALLDATASIZE SWAP1 PUSH1 0x4 ADD PUSH2 0xEF5 JUMP JUMPDEST SWAP4 SWAP1 SWAP5 PUSH2 0x945 PUSH2 0x1151 JUMP JUMPDEST PUSH2 0x94D PUSH2 0x1468 JUMP JUMPDEST PUSH2 0x958 DUP2 ISZERO ISZERO PUSH2 0x1402 JUMP JUMPDEST PUSH1 0x24 CALLDATALOAD ISZERO PUSH2 0xDE1 JUMPI PUSH1 0x1 PUSH1 0x1 PUSH1 0xA0 SHL SUB DUP3 AND ISZERO PUSH2 0xD9C JUMPI PUSH1 0xFF PUSH1 0x40 MLOAD DUP3 DUP10 DUP3 CALLDATACOPY PUSH1 0x20 DUP2 DUP5 DUP2 ADD PUSH1 0x4 DUP2 MSTORE SUB ADD SWAP1 KECCAK256 SLOAD AND PUSH2 0xD57 JUMPI PUSH1 0x40 MLOAD SWAP7 PUSH2 0x999 DUP9 PUSH2 0xF22 JUMP JUMPDEST PUSH1 0x24 CALLDATALOAD DUP9 MSTORE PUSH1 0x1 PUSH1 0x1 PUSH1 0xA0 SHL SUB DUP4 AND PUSH1 0x20 DUP10 ADD MSTORE PUSH1 0x0 PUSH1 0x40 DUP10 ADD MSTORE TIMESTAMP PUSH1 0x60 DUP10 ADD MSTORE PUSH2 0x9C5 CALLDATASIZE DUP6 DUP8 PUSH2 0xF5E JUMP JUMPDEST PUSH1 0x80 DUP10 ADD MSTORE PUSH2 0x9D5 CALLDATASIZE DUP8 DUP10 PUSH2 0xF5E JUMP JUMPDEST PUSH1 0xA0 DUP10 ADD MSTORE PUSH1 0x40 MLOAD DUP3 DUP3 DUP3 CALLDATACOPY PUSH1 0x20 DUP2 DUP5 DUP2 ADD PUSH1 0x3 DUP2 MSTORE SUB ADD SWAP1 KECCAK256 SWAP8 DUP1 MLOAD DUP10 SSTORE PUSH1 0x1 DUP10 ADD PUSH1 0x1 DUP1 PUSH1 0xA0 SHL SUB PUSH1 0x20 DUP4 ADD MLOAD AND DUP2 SLOAD SWAP1 PUSH1 0xFF PUSH1 0xA0 SHL PUSH1 0x40 DUP6 ADD MLOAD ISZERO ISZERO PUSH1 0xA0 SHL AND SWAP2 PUSH11 0xFFFFFFFFFFFFFFFFFFFFFF PUSH1 0xA8 SHL AND OR OR SWAP1 SSTORE PUSH1 0x60 DUP2 ADD MLOAD PUSH1 0x2 DUP11 ADD SSTORE PUSH1 0x80 DUP2 ADD MLOAD DUP1 MLOAD SWAP1 PUSH1 0x1 PUSH1 0x1 PUSH1 0x40 SHL SUB DUP3 GT PUSH2 0xC7C JUMPI PUSH2 0xA5A PUSH1 0x3 DUP13 ADD SLOAD PUSH2 0x1005 JUMP JUMPDEST PUSH1 0x1F DUP2 GT PUSH2 0xD10 JUMPI JUMPDEST POP PUSH1 0x20 SWAP1 PUSH1 0x1F DUP4 GT PUSH1 0x1 EQ PUSH2 0xC9D JUMPI PUSH1 0xA0 SWAP4 SWAP3 SWAP2 PUSH1 0x0 SWAP2 DUP4 PUSH2 0xC92 JUMPI JUMPDEST POP POP DUP2 PUSH1 0x1 SHL SWAP2 PUSH1 0x0 NOT SWAP1 PUSH1 0x3 SHL SHR NOT AND OR PUSH1 0x3 DUP12 ADD SSTORE JUMPDEST ADD MLOAD SWAP8 DUP9 MLOAD PUSH1 0x1 PUSH1 0x1 PUSH1 0x40 SHL SUB DUP2 GT PUSH2 0xC7C JUMPI PUSH2 0xAB8 PUSH1 0x4 DUP4 ADD SLOAD PUSH2 0x1005 JUMP JUMPDEST PUSH1 0x1F DUP2 GT PUSH2 0xC35 JUMPI JUMPDEST POP PUSH1 0x20 PUSH1 0x1F DUP3 GT PUSH1 0x1 EQ PUSH2 0xB9C JUMPI DUP2 PUSH2 0xB88 SWAP7 SWAP6 SWAP5 SWAP4 SWAP3 PUSH1 0x4 SWAP3 PUSH32 0x43FA1555F24CD7A15B3FF5CC41D5C7155868585C1765735A85122A641D4F36B6 SWAP12 SWAP13 SWAP14 PUSH1 0x0 SWAP3 PUSH2 0xB91 JUMPI JUMPDEST POP POP DUP2 PUSH1 0x1 SHL SWAP2 PUSH1 0x0 NOT SWAP1 PUSH1 0x3 SHL SHR NOT AND OR SWAP2 ADD SSTORE JUMPDEST PUSH1 0x40 MLOAD DUP3 DUP3 DUP3 CALLDATACOPY PUSH1 0x20 DUP2 DUP5 DUP2 ADD PUSH1 0x4 DUP2 MSTORE SUB ADD SWAP1 KECCAK256 PUSH1 0x1 PUSH1 0xFF NOT DUP3 SLOAD AND OR SWAP1 SSTORE DUP2 PUSH1 0x40 MLOAD SWAP3 DUP4 SWAP3 DUP4 CALLDATACOPY DUP2 ADD PUSH1 0x0 DUP2 MSTORE SUB SWAP1 KECCAK256 SWAP6 PUSH2 0xB6F PUSH1 0x40 MLOAD SWAP6 DUP7 SWAP6 PUSH1 0x24 CALLDATALOAD DUP8 MSTORE PUSH1 0x60 PUSH1 0x20 DUP9 ADD MSTORE PUSH1 0x60 DUP8 ADD SWAP2 PUSH2 0x1447 JUMP JUMPDEST DUP5 DUP2 SUB PUSH1 0x40 DUP7 ADD MSTORE PUSH1 0x1 PUSH1 0x1 PUSH1 0xA0 SHL SUB SWAP1 SWAP3 AND SWAP8 PUSH2 0x1447 JUMP JUMPDEST SUB SWAP1 LOG3 PUSH1 0x1 DUP1 SSTORE STOP JUMPDEST ADD MLOAD SWAP1 POP DUP14 DUP1 PUSH2 0xB07 JUMP JUMPDEST PUSH1 0x4 DUP4 ADD PUSH1 0x0 MSTORE PUSH1 0x20 PUSH1 0x0 KECCAK256 SWAP11 PUSH1 0x0 JUMPDEST PUSH1 0x1F NOT DUP5 AND DUP2 LT PUSH2 0xC1D JUMPI POP DUP3 PUSH32 0x43FA1555F24CD7A15B3FF5CC41D5C7155868585C1765735A85122A641D4F36B6 SWAP11 SWAP12 SWAP13 PUSH1 0x4 SWAP4 PUSH1 0x1 SWAP4 PUSH2 0xB88 SWAP11 SWAP10 SWAP9 SWAP8 SWAP7 PUSH1 0x1F NOT DUP2 AND LT PUSH2 0xC04 JUMPI JUMPDEST POP POP POP DUP2 SHL ADD SWAP2 ADD SSTORE PUSH2 0xB1D JUMP JUMPDEST ADD MLOAD PUSH1 0x0 NOT PUSH1 0xF8 DUP5 PUSH1 0x3 SHL AND SHR NOT AND SWAP1 SSTORE DUP14 DUP1 DUP1 PUSH2 0xBF6 JUMP JUMPDEST DUP3 DUP3 ADD MLOAD DUP14 SSTORE PUSH1 0x1 SWAP1 SWAP13 ADD SWAP12 PUSH1 0x20 SWAP3 DUP4 ADD SWAP3 ADD PUSH2 0xBAC JUMP JUMPDEST PUSH1 0x4 DUP4 ADD PUSH1 0x0 MSTORE PUSH1 0x20 PUSH1 0x0 KECCAK256 PUSH1 0x1F DUP4 ADD PUSH1 0x5 SHR DUP2 ADD PUSH1 0x20 DUP5 LT PUSH2 0xC75 JUMPI JUMPDEST PUSH1 0x1F DUP4 ADD PUSH1 0x5 SHR DUP3 ADD DUP2 LT PUSH2 0xC69 JUMPI POP POP PUSH2 0xAC1 JUMP JUMPDEST PUSH1 0x0 DUP2 SSTORE PUSH1 0x1 ADD PUSH2 0xC53 JUMP JUMPDEST POP DUP1 PUSH2 0xC53 JUMP JUMPDEST PUSH4 0x4E487B71 PUSH1 0xE0 SHL PUSH1 0x0 MSTORE PUSH1 0x41 PUSH1 0x4 MSTORE PUSH1 0x24 PUSH1 0x0 REVERT JUMPDEST ADD MLOAD SWAP1 POP DUP13 DUP1 PUSH2 0xA80 JUMP JUMPDEST SWAP1 PUSH1 0x3 DUP13 ADD PUSH1 0x0 MSTORE PUSH1 0x20 PUSH1 0x0 KECCAK256 SWAP2 PUSH1 0x0 JUMPDEST PUSH1 0x1F NOT DUP6 AND DUP2 LT PUSH2 0xCF8 JUMPI POP SWAP2 DUP4 SWAP2 PUSH1 0x1 SWAP4 PUSH1 0xA0 SWAP7 SWAP6 PUSH1 0x1F NOT DUP2 AND LT PUSH2 0xCDF JUMPI JUMPDEST POP POP POP DUP2 SHL ADD PUSH1 0x3 DUP12 ADD SSTORE PUSH2 0xA98 JUMP JUMPDEST ADD MLOAD PUSH1 0x0 NOT PUSH1 0xF8 DUP5 PUSH1 0x3 SHL AND SHR NOT AND SWAP1 SSTORE DUP13 DUP1 DUP1 PUSH2 0xCCF JUMP JUMPDEST SWAP2 SWAP3 PUSH1 0x20 PUSH1 0x1 DUP2 SWAP3 DUP7 DUP6 ADD MLOAD DUP2 SSTORE ADD SWAP5 ADD SWAP3 ADD PUSH2 0xCAE JUMP JUMPDEST PUSH1 0x3 DUP13 ADD PUSH1 0x0 MSTORE PUSH1 0x20 PUSH1 0x0 KECCAK256 PUSH1 0x1F DUP5 ADD PUSH1 0x5 SHR DUP2 ADD PUSH1 0x20 DUP6 LT PUSH2 0xD50 JUMPI JUMPDEST PUSH1 0x1F DUP4 ADD PUSH1 0x5 SHR DUP3 ADD DUP2 LT PUSH2 0xD44 JUMPI POP POP PUSH2 0xA63 JUMP JUMPDEST PUSH1 0x0 DUP2 SSTORE PUSH1 0x1 ADD PUSH2 0xD2E JUMP JUMPDEST POP DUP1 PUSH2 0xD2E JUMP JUMPDEST PUSH1 0x40 MLOAD PUSH3 0x461BCD PUSH1 0xE5 SHL DUP2 MSTORE PUSH1 0x20 PUSH1 0x4 DUP3 ADD MSTORE PUSH1 0x1D PUSH1 0x24 DUP3 ADD MSTORE PUSH32 0x5472616E73616374696F6E20616C72656164792070726F636573736564000000 PUSH1 0x44 DUP3 ADD MSTORE PUSH1 0x64 SWAP1 REVERT JUMPDEST PUSH1 0x40 MLOAD PUSH3 0x461BCD PUSH1 0xE5 SHL DUP2 MSTORE PUSH1 0x20 PUSH1 0x4 DUP3 ADD MSTORE PUSH1 0x19 PUSH1 0x24 DUP3 ADD MSTORE PUSH32 0x496E76616C696420726563697069656E74206164647265737300000000000000 PUSH1 0x44 DUP3 ADD MSTORE PUSH1 0x64 SWAP1 REVERT JUMPDEST PUSH1 0x40 MLOAD PUSH3 0x461BCD PUSH1 0xE5 SHL DUP2 MSTORE PUSH1 0x20 PUSH1 0x4 DUP3 ADD MSTORE PUSH1 0x1D PUSH1 0x24 DUP3 ADD MSTORE PUSH32 0x416D6F756E74206D7573742062652067726561746572207468616E2030000000 PUSH1 0x44 DUP3 ADD MSTORE PUSH1 0x64 SWAP1 REVERT JUMPDEST CALLVALUE PUSH2 0x1CD JUMPI PUSH1 0x20 CALLDATASIZE PUSH1 0x3 NOT ADD SLT PUSH2 0x1CD JUMPI PUSH2 0xE3F PUSH2 0xEC9 JUMP JUMPDEST PUSH1 0x1 PUSH1 0x1 PUSH1 0xA0 SHL SUB AND PUSH1 0x0 SWAP1 DUP2 MSTORE PUSH1 0x0 DUP1 MLOAD PUSH1 0x20 PUSH2 0x14AC DUP4 CODECOPY DUP2 MLOAD SWAP2 MSTORE PUSH1 0x20 SWAP1 DUP2 MSTORE PUSH1 0x40 SWAP2 DUP3 SWAP1 KECCAK256 SLOAD SWAP2 MLOAD PUSH1 0xFF SWAP1 SWAP3 AND ISZERO ISZERO DUP3 MSTORE SWAP1 RETURN JUMPDEST CALLVALUE PUSH2 0x1CD JUMPI PUSH1 0x20 CALLDATASIZE PUSH1 0x3 NOT ADD SLT PUSH2 0x1CD JUMPI PUSH1 0x4 CALLDATALOAD SWAP1 PUSH4 0xFFFFFFFF PUSH1 0xE0 SHL DUP3 AND DUP1 SWAP3 SUB PUSH2 0x1CD JUMPI PUSH1 0x20 SWAP2 PUSH4 0x7965DB0B PUSH1 0xE0 SHL DUP2 EQ SWAP1 DUP2 ISZERO PUSH2 0xEB8 JUMPI JUMPDEST POP ISZERO ISZERO DUP2 MSTORE RETURN JUMPDEST PUSH4 0x1FFC9A7 PUSH1 0xE0 SHL EQ SWAP1 POP DUP4 PUSH2 0xEB1 JUMP JUMPDEST PUSH1 0x4 CALLDATALOAD SWAP1 PUSH1 0x1 PUSH1 0x1 PUSH1 0xA0 SHL SUB DUP3 AND DUP3 SUB PUSH2 0x1CD JUMPI JUMP JUMPDEST PUSH1 0x24 CALLDATALOAD SWAP1 PUSH1 0x1 PUSH1 0x1 PUSH1 0xA0 SHL SUB DUP3 AND DUP3 SUB PUSH2 0x1CD JUMPI JUMP JUMPDEST SWAP2 DUP2 PUSH1 0x1F DUP5 ADD SLT ISZERO PUSH2 0x1CD JUMPI DUP3 CALLDATALOAD SWAP2 PUSH1 0x1 PUSH1 0x1 PUSH1 0x40 SHL SUB DUP4 GT PUSH2 0x1CD JUMPI PUSH1 0x20 DUP4 DUP2 DUP7 ADD SWAP6 ADD ADD GT PUSH2 0x1CD JUMPI JUMP JUMPDEST PUSH1 0xC0 DUP2 ADD SWAP1 DUP2 LT PUSH1 0x1 PUSH1 0x1 PUSH1 0x40 SHL SUB DUP3 GT OR PUSH2 0xC7C JUMPI PUSH1 0x40 MSTORE JUMP JUMPDEST SWAP1 PUSH1 0x1F DUP1 NOT SWAP2 ADD AND DUP2 ADD SWAP1 DUP2 LT PUSH1 0x1 PUSH1 0x1 PUSH1 0x40 SHL SUB DUP3 GT OR PUSH2 0xC7C JUMPI PUSH1 0x40 MSTORE JUMP JUMPDEST SWAP3 SWAP2 SWAP3 PUSH1 0x1 PUSH1 0x1 PUSH1 0x40 SHL SUB DUP3 GT PUSH2 0xC7C JUMPI PUSH1 0x40 MLOAD SWAP2 PUSH2 0xF87 PUSH1 0x1F DUP3 ADD PUSH1 0x1F NOT AND PUSH1 0x20 ADD DUP5 PUSH2 0xF3D JUMP JUMPDEST DUP3 SWAP5 DUP2 DUP5 MSTORE DUP2 DUP4 ADD GT PUSH2 0x1CD JUMPI DUP3 DUP2 PUSH1 0x20 SWAP4 DUP5 PUSH1 0x0 SWAP7 ADD CALLDATACOPY ADD ADD MSTORE JUMP JUMPDEST PUSH1 0x20 PUSH1 0x3 NOT DUP3 ADD SLT PUSH2 0x1CD JUMPI PUSH1 0x4 CALLDATALOAD SWAP1 PUSH1 0x1 PUSH1 0x1 PUSH1 0x40 SHL SUB DUP3 GT PUSH2 0x1CD JUMPI DUP1 PUSH1 0x23 DUP4 ADD SLT ISZERO PUSH2 0x1CD JUMPI DUP2 PUSH1 0x24 PUSH2 0xFDF SWAP4 PUSH1 0x4 ADD CALLDATALOAD SWAP2 ADD PUSH2 0xF5E JUMP JUMPDEST SWAP1 JUMP JUMPDEST PUSH1 0x0 JUMPDEST DUP4 DUP2 LT PUSH2 0xFF5 JUMPI POP POP PUSH1 0x0 SWAP2 ADD MSTORE JUMP JUMPDEST DUP2 DUP2 ADD MLOAD DUP4 DUP3 ADD MSTORE PUSH1 0x20 ADD PUSH2 0xFE5 JUMP JUMPDEST SWAP1 PUSH1 0x1 DUP3 DUP2 SHR SWAP3 AND DUP1 ISZERO PUSH2 0x1035 JUMPI JUMPDEST PUSH1 0x20 DUP4 LT EQ PUSH2 0x101F JUMPI JUMP JUMPDEST PUSH4 0x4E487B71 PUSH1 0xE0 SHL PUSH1 0x0 MSTORE PUSH1 0x22 PUSH1 0x4 MSTORE PUSH1 0x24 PUSH1 0x0 REVERT JUMPDEST SWAP2 PUSH1 0x7F AND SWAP2 PUSH2 0x1014 JUMP JUMPDEST SWAP1 PUSH1 0x40 MLOAD SWAP2 DUP3 PUSH1 0x0 DUP3 SLOAD SWAP3 PUSH2 0x1053 DUP5 PUSH2 0x1005 JUMP JUMPDEST SWAP1 DUP2 DUP5 MSTORE PUSH1 0x1 SWAP5 DUP6 DUP2 AND SWAP1 DUP2 PUSH1 0x0 EQ PUSH2 0x10C2 JUMPI POP PUSH1 0x1 EQ PUSH2 0x107F JUMPI JUMPDEST POP POP PUSH2 0x107D SWAP3 POP SUB DUP4 PUSH2 0xF3D JUMP JUMPDEST JUMP JUMPDEST SWAP1 SWAP4 SWAP2 POP PUSH1 0x0 MSTORE PUSH1 0x20 SWAP1 DUP2 PUSH1 0x0 KECCAK256 SWAP4 PUSH1 0x0 SWAP2 JUMPDEST DUP2 DUP4 LT PUSH2 0x10AA JUMPI POP POP PUSH2 0x107D SWAP4 POP DUP3 ADD ADD CODESIZE DUP1 PUSH2 0x106F JUMP JUMPDEST DUP6 SLOAD DUP9 DUP5 ADD DUP6 ADD MSTORE SWAP5 DUP6 ADD SWAP5 DUP8 SWAP5 POP SWAP2 DUP4 ADD SWAP2 PUSH2 0x1092 JUMP JUMPDEST SWAP2 POP POP PUSH2 0x107D SWAP5 POP PUSH1 0x20 SWAP3 POP PUSH1 0xFF NOT AND DUP3 DUP5 ADD MSTORE ISZERO ISZERO PUSH1 0x5 SHL DUP3 ADD ADD CODESIZE DUP1 PUSH2 0x106F JUMP JUMPDEST SWAP1 PUSH1 0x20 SWAP2 PUSH2 0x10FE DUP2 MLOAD DUP1 SWAP3 DUP2 DUP6 MSTORE DUP6 DUP1 DUP7 ADD SWAP2 ADD PUSH2 0xFE2 JUMP JUMPDEST PUSH1 0x1F ADD PUSH1 0x1F NOT AND ADD ADD SWAP1 JUMP JUMPDEST SWAP5 SWAP2 SWAP3 PUSH2 0x1143 SWAP4 PUSH2 0xFDF SWAP8 SWAP6 SWAP3 DUP8 MSTORE PUSH1 0x1 DUP1 PUSH1 0xA0 SHL SUB AND PUSH1 0x20 DUP8 ADD MSTORE ISZERO ISZERO PUSH1 0x40 DUP7 ADD MSTORE PUSH1 0x60 DUP6 ADD MSTORE PUSH1 0xC0 PUSH1 0x80 DUP6 ADD MSTORE PUSH1 0xC0 DUP5 ADD SWAP1 PUSH2 0x10E5 JUMP JUMPDEST SWAP2 PUSH1 0xA0 DUP2 DUP5 SUB SWAP2 ADD MSTORE PUSH2 0x10E5 JUMP JUMPDEST CALLER PUSH1 0x0 SWAP1 DUP2 MSTORE PUSH1 0x0 DUP1 MLOAD PUSH1 0x20 PUSH2 0x14AC DUP4 CODECOPY DUP2 MLOAD SWAP2 MSTORE PUSH1 0x20 MSTORE PUSH1 0x40 SWAP1 KECCAK256 SLOAD PUSH1 0x0 DUP1 MLOAD PUSH1 0x20 PUSH2 0x148C DUP4 CODECOPY DUP2 MLOAD SWAP2 MSTORE SWAP1 PUSH1 0xFF AND ISZERO PUSH2 0x1189 JUMPI POP JUMP JUMPDEST PUSH1 0x44 SWAP1 PUSH1 0x40 MLOAD SWAP1 PUSH4 0xE2517D3F PUSH1 0xE0 SHL DUP3 MSTORE CALLER PUSH1 0x4 DUP4 ADD MSTORE PUSH1 0x24 DUP3 ADD MSTORE REVERT JUMPDEST DUP1 PUSH1 0x0 MSTORE PUSH1 0x2 PUSH1 0x20 MSTORE PUSH1 0x40 PUSH1 0x0 KECCAK256 CALLER PUSH1 0x0 MSTORE PUSH1 0x20 MSTORE PUSH1 0xFF PUSH1 0x40 PUSH1 0x0 KECCAK256 SLOAD AND ISZERO PUSH2 0x1189 JUMPI POP JUMP JUMPDEST PUSH1 0x1 PUSH1 0x1 PUSH1 0xA0 SHL SUB AND PUSH1 0x0 DUP2 DUP2 MSTORE PUSH1 0x0 DUP1 MLOAD PUSH1 0x20 PUSH2 0x14AC DUP4 CODECOPY DUP2 MLOAD SWAP2 MSTORE PUSH1 0x20 MSTORE PUSH1 0x40 DUP2 KECCAK256 SLOAD SWAP1 SWAP2 SWAP1 PUSH1 0x0 DUP1 MLOAD PUSH1 0x20 PUSH2 0x148C DUP4 CODECOPY DUP2 MLOAD SWAP2 MSTORE SWAP1 PUSH1 0xFF AND PUSH2 0x1257 JUMPI DUP1 DUP4 MSTORE PUSH1 0x2 PUSH1 0x20 MSTORE PUSH1 0x40 DUP4 KECCAK256 DUP3 DUP5 MSTORE PUSH1 0x20 MSTORE PUSH1 0x40 DUP4 KECCAK256 PUSH1 0x1 PUSH1 0xFF NOT DUP3 SLOAD AND OR SWAP1 SSTORE PUSH32 0x2F8788117E7EFF1D82E926EC794901D17C78024A50270940304540A733656F0D CALLER SWAP4 DUP1 LOG4 PUSH1 0x1 SWAP1 JUMP JUMPDEST POP POP SWAP1 JUMP JUMPDEST SWAP1 PUSH1 0x0 SWAP2 DUP1 DUP4 MSTORE PUSH1 0x2 PUSH1 0x20 MSTORE PUSH1 0x40 DUP4 KECCAK256 SWAP2 PUSH1 0x1 DUP1 PUSH1 0xA0 SHL SUB AND SWAP2 DUP3 DUP5 MSTORE PUSH1 0x20 MSTORE PUSH1 0xFF PUSH1 0x40 DUP5 KECCAK256 SLOAD AND ISZERO PUSH1 0x0 EQ PUSH2 0x1257 JUMPI DUP1 DUP4 MSTORE PUSH1 0x2 PUSH1 0x20 MSTORE PUSH1 0x40 DUP4 KECCAK256 DUP3 DUP5 MSTORE PUSH1 0x20 MSTORE PUSH1 0x40 DUP4 KECCAK256 PUSH1 0x1 PUSH1 0xFF NOT DUP3 SLOAD AND OR SWAP1 SSTORE PUSH32 0x2F8788117E7EFF1D82E926EC794901D17C78024A50270940304540A733656F0D CALLER SWAP4 DUP1 LOG4 PUSH1 0x1 SWAP1 JUMP JUMPDEST PUSH1 0x1 PUSH1 0x1 PUSH1 0xA0 SHL SUB AND PUSH1 0x0 DUP2 DUP2 MSTORE PUSH1 0x0 DUP1 MLOAD PUSH1 0x20 PUSH2 0x14AC DUP4 CODECOPY DUP2 MLOAD SWAP2 MSTORE PUSH1 0x20 MSTORE PUSH1 0x40 DUP2 KECCAK256 SLOAD SWAP1 SWAP2 SWAP1 PUSH1 0x0 DUP1 MLOAD PUSH1 0x20 PUSH2 0x148C DUP4 CODECOPY DUP2 MLOAD SWAP2 MSTORE SWAP1 PUSH1 0xFF AND ISZERO PUSH2 0x1257 JUMPI DUP1 DUP4 MSTORE PUSH1 0x2 PUSH1 0x20 MSTORE PUSH1 0x40 DUP4 KECCAK256 DUP3 DUP5 MSTORE PUSH1 0x20 MSTORE PUSH1 0x40 DUP4 KECCAK256 PUSH1 0xFF NOT DUP2 SLOAD AND SWAP1 SSTORE PUSH32 0xF6391F5C32D9C69D2A47EA670B442974B53935D1EDC7FD64EB21E047A839171B CALLER SWAP4 DUP1 LOG4 PUSH1 0x1 SWAP1 JUMP JUMPDEST SWAP1 PUSH1 0x0 SWAP2 DUP1 DUP4 MSTORE PUSH1 0x2 PUSH1 0x20 MSTORE PUSH1 0x40 DUP4 KECCAK256 SWAP2 PUSH1 0x1 DUP1 PUSH1 0xA0 SHL SUB AND SWAP2 DUP3 DUP5 MSTORE PUSH1 0x20 MSTORE PUSH1 0xFF PUSH1 0x40 DUP5 KECCAK256 SLOAD AND PUSH1 0x0 EQ PUSH2 0x1257 JUMPI DUP1 DUP4 MSTORE PUSH1 0x2 PUSH1 0x20 MSTORE PUSH1 0x40 DUP4 KECCAK256 DUP3 DUP5 MSTORE PUSH1 0x20 MSTORE PUSH1 0x40 DUP4 KECCAK256 PUSH1 0xFF NOT DUP2 SLOAD AND SWAP1 SSTORE PUSH32 0xF6391F5C32D9C69D2A47EA670B442974B53935D1EDC7FD64EB21E047A839171B CALLER SWAP4 DUP1 LOG4 PUSH1 0x1 SWAP1 JUMP JUMPDEST PUSH1 0x0 SLOAD PUSH1 0x1 PUSH1 0x1 PUSH1 0xA0 SHL SUB AND CALLER SUB PUSH2 0x13EA JUMPI JUMP JUMPDEST PUSH1 0x40 MLOAD PUSH4 0x118CDAA7 PUSH1 0xE0 SHL DUP2 MSTORE CALLER PUSH1 0x4 DUP3 ADD MSTORE PUSH1 0x24 SWAP1 REVERT JUMPDEST ISZERO PUSH2 0x1409 JUMPI JUMP JUMPDEST PUSH1 0x40 MLOAD PUSH3 0x461BCD PUSH1 0xE5 SHL DUP2 MSTORE PUSH1 0x20 PUSH1 0x4 DUP3 ADD MSTORE PUSH1 0x16 PUSH1 0x24 DUP3 ADD MSTORE PUSH22 0x5049582049442063616E6E6F7420626520656D707479 PUSH1 0x50 SHL PUSH1 0x44 DUP3 ADD MSTORE PUSH1 0x64 SWAP1 REVERT JUMPDEST SWAP1 DUP1 PUSH1 0x20 SWAP4 SWAP3 DUP2 DUP5 MSTORE DUP5 DUP5 ADD CALLDATACOPY PUSH1 0x0 DUP3 DUP3 ADD DUP5 ADD MSTORE PUSH1 0x1F ADD PUSH1 0x1F NOT AND ADD ADD SWAP1 JUMP JUMPDEST PUSH1 0x2 PUSH1 0x1 SLOAD EQ PUSH2 0x1479 JUMPI PUSH1 0x2 PUSH1 0x1 SSTORE JUMP JUMPDEST PUSH1 0x40 MLOAD PUSH4 0x3EE5AEB5 PUSH1 0xE0 SHL DUP2 MSTORE PUSH1 0x4 SWAP1 REVERT INVALID ORIGIN DIV 0xC9 BLOCKHASH MOD CALLDATASIZE PUSH20 0x962B481A0395619B3DBBD137589C419E993978C1 0xC7 SHL 0xCF PUSH9 0xEC49A2A32687535808 SHR 0xEB 0xA6 0xB7 0x4A JUMPDEST PUSH5 0x98B680A1A9 0x4D 0x2C CREATE2 GASPRICE DUP6 0xC3 0xB4 DUP12 PC 0xE0 CODECOPY SHR LOG2 PUSH5 0x6970667358 0x22 SLT KECCAK256 0xD8 0xA6 JUMPDEST PUSH16 0x8B0A43A3D9EA4B493731AB41C0290FCC MUL PUSH7 0x55CD28C0BBBC38 0xEC SWAP10 DUP8 PUSH5 0x736F6C6343 STOP ADDMOD EQ STOP CALLER 0x2F DUP8 DUP9 GT PUSH31 0x7EFF1D82E926EC794901D17C78024A50270940304540A733656F0D00000000 "},"methodIdentifiers":{"DEFAULT_ADMIN_ROLE()":"a217fddf","REPORTER_ROLE()":"3f60d799","addReporter(address)":"dd8755f2","confirmPixPayment(string)":"35dd46ca","getPixPaymentInfo(string)":"f7679ae9","getRoleAdmin(bytes32)":"248a9ca3","grantRole(bytes32,address)":"2f2ff15d","hasRole(bytes32,address)":"91d14854","isPixPaymentConfirmed(string)":"8fbd1d8e","isReporter(address)":"044ad7be","owner()":"8da5cb5b","pixPayments(string)":"455893ce","processedTransactions(string)":"9ea32844","removeReporter(address)":"5de5c212","renounceOwnership()":"715018a6","renounceRole(bytes32,address)":"36568abe","reportPixPayment(string,uint256,address,string,string)":"220e99f2","revokeRole(bytes32,address)":"d547741f","supportsInterface(bytes4)":"01ffc9a7","transferOwnership(address)":"f2fde38b"}},"storageLayout":{"storage":[{"astId":387,"contract":"contracts/oracles/PixOracle.sol:PixOracle","label":"_owner","offset":0,"slot":"0","type":"t_address"},{"astId":2083,"contract":"contracts/oracles/PixOracle.sol:PixOracle","label":"_status","offset":0,"slot":"1","type":"t_uint256"},{"astId":26,"contract":"contracts/oracles/PixOracle.sol:PixOracle","label":"_roles","offset":0,"slot":"2","type":"t_mapping(t_bytes32,t_struct(RoleData)21_storage)"},{"astId":7932,"contract":"contracts/oracles/PixOracle.sol:PixOracle","label":"pixPayments","offset":0,"slot":"3","type":"t_mapping(t_string_memory_ptr,t_struct(PixPayment)7927_storage)"},{"astId":7936,"contract":"contracts/oracles/PixOracle.sol:PixOracle","label":"processedTransactions","offset":0,"slot":"4","type":"t_mapping(t_string_memory_ptr,t_bool)"}],"types":{"t_address":{"encoding":"inplace","label":"address","numberOfBytes":"20"},"t_bool":{"encoding":"inplace","label":"bool","numberOfBytes":"1"},"t_bytes32":{"encoding":"inplace","label":"bytes32","numberOfBytes":"32"},"t_mapping(t_address,t_bool)":{"encoding":"mapping","key":"t_address","label":"mapping(address => bool)","numberOfBytes":"32","value":"t_bool"},"t_mapping(t_bytes32,t_struct(RoleData)21_storage)":{"encoding":"mapping","key":"t_bytes32","label":"mapping(bytes32 => struct AccessControl.RoleData)","numberOfBytes":"32","value":"t_struct(RoleData)21_storage"},"t_mapping(t_string_memory_ptr,t_bool)":{"encoding":"mapping","key":"t_string_memory_ptr","label":"mapping(string => bool)","numberOfBytes":"32","value":"t_bool"},"t_mapping(t_string_memory_ptr,t_struct(PixPayment)7927_storage)":{"encoding":"mapping","key":"t_string_memory_ptr","label":"mapping(string => struct PixOracle.PixPayment)","numberOfBytes":"32","value":"t_struct(PixPayment)7927_storage"},"t_string_memory_ptr":{"encoding":"bytes","label":"string","numberOfBytes":"32"},"t_string_storage":{"encoding":"bytes","label":"string","numberOfBytes":"32"},"t_struct(PixPayment)7927_storage":{"encoding":"inplace","label":"struct PixOracle.PixPayment","members":[{"astId":7916,"contract":"contracts/oracles/PixOracle.sol:PixOracle","label":"amount","offset":0,"slot":"0","type":"t_uint256"},{"astId":7918,"contract":"contracts/oracles/PixOracle.sol:PixOracle","label":"recipient","offset":0,"slot":"1","type":"t_address"},{"astId":7920,"contract":"contracts/oracles/PixOracle.sol:PixOracle","label":"confirmed","offset":20,"slot":"1","type":"t_bool"},{"astId":7922,"contract":"contracts/oracles/PixOracle.sol:PixOracle","label":"timestamp","offset":0,"slot":"2","type":"t_uint256"},{"astId":7924,"contract":"contracts/oracles/PixOracle.sol:PixOracle","label":"pixKey","offset":0,"slot":"3","type":"t_string_storage"},{"astId":7926,"contract":"contracts/oracles/PixOracle.sol:PixOracle","label":"bankTransactionId","offset":0,"slot":"4","type":"t_string_storage"}],"numberOfBytes":"160"},"t_struct(RoleData)21_storage":{"encoding":"inplace","label":"struct AccessControl.RoleData","members":[{"astId":18,"contract":"contracts/oracles/PixOracle.sol:PixOracle","label":"hasRole","offset":0,"slot":"0","type":"t_mapping(t_address,t_bool)"},{"astId":20,"contract":"contracts/oracles/PixOracle.sol:PixOracle","label":"adminRole","offset":0,"slot":"1","type":"t_bytes32"}],"numberOfBytes":"64"},"t_uint256":{"encoding":"inplace","label":"uint256","numberOfBytes":"32"}}}}}}