{"contracts/PixStablecoinExchange.sol":{"PixStablecoinExchange":{"abi":[{"inputs":[{"internalType":"address","name":"_treasury","type":"address"},{"internalType":"address","name":"_feeCollector","type":"address"},{"internalType":"address","name":"_initialOwner","type":"address"}],"stateMutability":"nonpayable","type":"constructor"},{"inputs":[],"name":"AccessControlBadConfirmation","type":"error"},{"inputs":[{"internalType":"address","name":"account","type":"address"},{"internalType":"bytes32","name":"neededRole","type":"bytes32"}],"name":"AccessControlUnauthorizedAccount","type":"error"},{"inputs":[],"name":"EnforcedPause","type":"error"},{"inputs":[],"name":"ExpectedPause","type":"error"},{"inputs":[{"internalType":"address","name":"owner","type":"address"}],"name":"OwnableInvalidOwner","type":"error"},{"inputs":[{"internalType":"address","name":"account","type":"address"}],"name":"OwnableUnauthorizedAccount","type":"error"},{"inputs":[],"name":"ReentrancyGuardReentrantCall","type":"error"},{"inputs":[{"internalType":"address","name":"token","type":"address"}],"name":"SafeERC20FailedOperation","type":"error"},{"anonymous":false,"inputs":[{"indexed":true,"internalType":"address","name":"previousOwner","type":"address"},{"indexed":true,"internalType":"address","name":"newOwner","type":"address"}],"name":"OwnershipTransferred","type":"event"},{"anonymous":false,"inputs":[{"indexed":false,"internalType":"address","name":"account","type":"address"}],"name":"Paused","type":"event"},{"anonymous":false,"inputs":[{"indexed":true,"internalType":"string","name":"pixId","type":"string"},{"indexed":true,"internalType":"address","name":"user","type":"address"},{"indexed":false,"internalType":"uint256","name":"pixAmount","type":"uint256"},{"indexed":false,"internalType":"string","name":"bankTransactionId","type":"string"}],"name":"PixConfirmed","type":"event"},{"anonymous":false,"inputs":[{"indexed":true,"internalType":"string","name":"pixId","type":"string"},{"indexed":true,"internalType":"address","name":"user","type":"address"},{"indexed":false,"internalType":"uint256","name":"pixAmount","type":"uint256"},{"indexed":true,"internalType":"address","name":"stablecoin","type":"address"},{"indexed":false,"internalType":"uint256","name":"expectedStablecoinAmount","type":"uint256"},{"indexed":false,"internalType":"uint256","name":"nonce","type":"uint256"}],"name":"PixToStablecoinInitiated","type":"event"},{"anonymous":false,"inputs":[{"indexed":true,"internalType":"address","name":"stablecoin","type":"address"},{"indexed":false,"internalType":"uint256","name":"amount","type":"uint256"},{"indexed":true,"internalType":"address","name":"funder","type":"address"}],"name":"PoolFunded","type":"event"},{"anonymous":false,"inputs":[{"indexed":true,"internalType":"address","name":"stablecoin","type":"address"},{"indexed":false,"internalType":"uint256","name":"amount","type":"uint256"},{"indexed":true,"internalType":"address","name":"recipient","type":"address"}],"name":"PoolWithdrawn","type":"event"},{"anonymous":false,"inputs":[{"indexed":true,"internalType":"bytes32","name":"role","type":"bytes32"},{"indexed":true,"internalType":"bytes32","name":"previousAdminRole","type":"bytes32"},{"indexed":true,"internalType":"bytes32","name":"newAdminRole","type":"bytes32"}],"name":"RoleAdminChanged","type":"event"},{"anonymous":false,"inputs":[{"indexed":true,"internalType":"bytes32","name":"role","type":"bytes32"},{"indexed":true,"internalType":"address","name":"account","type":"address"},{"indexed":true,"internalType":"address","name":"sender","type":"address"}],"name":"RoleGranted","type":"event"},{"anonymous":false,"inputs":[{"indexed":true,"internalType":"bytes32","name":"role","type":"bytes32"},{"indexed":true,"internalType":"address","name":"account","type":"address"},{"indexed":true,"internalType":"address","name":"sender","type":"address"}],"name":"RoleRevoked","type":"event"},{"anonymous":false,"inputs":[{"indexed":true,"internalType":"address","name":"stablecoin","type":"address"},{"indexed":false,"internalType":"uint8","name":"decimals","type":"uint8"},{"indexed":false,"internalType":"uint256","name":"minAmount","type":"uint256"},{"indexed":false,"internalType":"uint256","name":"maxAmount","type":"uint256"},{"indexed":false,"internalType":"uint256","name":"dailyLimit","type":"uint256"}],"name":"StablecoinAdded","type":"event"},{"anonymous":false,"inputs":[{"indexed":true,"internalType":"address","name":"user","type":"address"},{"indexed":true,"internalType":"address","name":"stablecoin","type":"address"},{"indexed":false,"internalType":"uint256","name":"stablecoinAmount","type":"uint256"},{"indexed":false,"internalType":"uint256","name":"expectedPixAmount","type":"uint256"},{"indexed":false,"internalType":"string","name":"pixKey","type":"string"},{"indexed":false,"internalType":"uint256","name":"nonce","type":"uint256"}],"name":"StablecoinToPixInitiated","type":"event"},{"anonymous":false,"inputs":[{"indexed":true,"internalType":"string","name":"pixId","type":"string"},{"indexed":true,"internalType":"address","name":"user","type":"address"},{"indexed":true,"internalType":"address","name":"stablecoin","type":"address"},{"indexed":false,"internalType":"uint256","name":"stablecoinAmount","type":"uint256"},{"indexed":false,"internalType":"uint256","name":"fee","type":"uint256"}],"name":"StablecoinTransferred","type":"event"},{"anonymous":false,"inputs":[{"indexed":true,"internalType":"address","name":"stablecoin","type":"address"},{"indexed":false,"internalType":"uint256","name":"minAmount","type":"uint256"},{"indexed":false,"internalType":"uint256","name":"maxAmount","type":"uint256"},{"indexed":false,"internalType":"uint256","name":"dailyLimit","type":"uint256"},{"indexed":false,"internalType":"uint256","name":"exchangeRate","type":"uint256"}],"name":"StablecoinUpdated","type":"event"},{"anonymous":false,"inputs":[{"indexed":false,"internalType":"address","name":"account","type":"address"}],"name":"Unpaused","type":"event"},{"inputs":[],"name":"DEFAULT_ADMIN_ROLE","outputs":[{"internalType":"bytes32","name":"","type":"bytes32"}],"stateMutability":"view","type":"function"},{"inputs":[],"name":"FEE_DENOMINATOR","outputs":[{"internalType":"uint256","name":"","type":"uint256"}],"stateMutability":"view","type":"function"},{"inputs":[],"name":"MAX_FEE_PERCENTAGE","outputs":[{"internalType":"uint256","name":"","type":"uint256"}],"stateMutability":"view","type":"function"},{"inputs":[],"name":"OPERATOR_ROLE","outputs":[{"internalType":"bytes32","name":"","type":"bytes32"}],"stateMutability":"view","type":"function"},{"inputs":[],"name":"ORACLE_ROLE","outputs":[{"internalType":"bytes32","name":"","type":"bytes32"}],"stateMutability":"view","type":"function"},{"inputs":[],"name":"PAUSER_ROLE","outputs":[{"internalType":"bytes32","name":"","type":"bytes32"}],"stateMutability":"view","type":"function"},{"inputs":[{"internalType":"address","name":"_token","type":"address"},{"internalType":"uint8","name":"_decimals","type":"uint8"},{"internalType":"uint256","name":"_minAmount","type":"uint256"},{"internalType":"uint256","name":"_maxAmount","type":"uint256"},{"internalType":"uint256","name":"_dailyLimit","type":"uint256"},{"internalType":"uint256","name":"_exchangeRate","type":"uint256"}],"name":"addStablecoin","outputs":[],"stateMutability":"nonpayable","type":"function"},{"inputs":[{"internalType":"uint256","name":"_amount","type":"uint256"}],"name":"calculateFee","outputs":[{"internalType":"uint256","name":"","type":"uint256"}],"stateMutability":"view","type":"function"},{"inputs":[{"internalType":"uint256","name":"_stablecoinAmount","type":"uint256"},{"internalType":"address","name":"_stablecoin","type":"address"}],"name":"calculatePixAmount","outputs":[{"internalType":"uint256","name":"","type":"uint256"}],"stateMutability":"view","type":"function"},{"inputs":[{"internalType":"uint256","name":"_pixAmount","type":"uint256"},{"internalType":"address","name":"_stablecoin","type":"address"}],"name":"calculateStablecoinAmount","outputs":[{"internalType":"uint256","name":"","type":"uint256"}],"stateMutability":"view","type":"function"},{"inputs":[{"internalType":"string","name":"_pixId","type":"string"},{"internalType":"string","name":"_bankTransactionId","type":"string"},{"internalType":"string","name":"_pixKey","type":"string"}],"name":"confirmPixPayment","outputs":[],"stateMutability":"nonpayable","type":"function"},{"inputs":[{"internalType":"address","name":"","type":"address"},{"internalType":"uint256","name":"","type":"uint256"}],"name":"dailyVolume","outputs":[{"internalType":"uint256","name":"","type":"uint256"}],"stateMutability":"view","type":"function"},{"inputs":[],"name":"feeCollector","outputs":[{"internalType":"address","name":"","type":"address"}],"stateMutability":"view","type":"function"},{"inputs":[],"name":"feePercentage","outputs":[{"internalType":"uint256","name":"","type":"uint256"}],"stateMutability":"view","type":"function"},{"inputs":[{"internalType":"address","name":"_stablecoin","type":"address"},{"internalType":"uint256","name":"_amount","type":"uint256"}],"name":"fundPool","outputs":[],"stateMutability":"nonpayable","type":"function"},{"inputs":[{"internalType":"string","name":"_pixId","type":"string"}],"name":"getPixTransaction","outputs":[{"components":[{"internalType":"string","name":"pixId","type":"string"},{"internalType":"address","name":"user","type":"address"},{"internalType":"uint256","name":"pixAmount","type":"uint256"},{"internalType":"address","name":"stablecoin","type":"address"},{"internalType":"uint256","name":"stablecoinAmount","type":"uint256"},{"internalType":"uint256","name":"fee","type":"uint256"},{"internalType":"uint256","name":"timestamp","type":"uint256"},{"internalType":"enum PixStablecoinExchange.TransactionStatus","name":"status","type":"uint8"},{"internalType":"string","name":"pixKey","type":"string"},{"internalType":"string","name":"bankTransactionId","type":"string"}],"internalType":"struct PixStablecoinExchange.PixTransaction","name":"","type":"tuple"}],"stateMutability":"view","type":"function"},{"inputs":[{"internalType":"address","name":"_stablecoin","type":"address"}],"name":"getPoolBalance","outputs":[{"internalType":"uint256","name":"","type":"uint256"}],"stateMutability":"view","type":"function"},{"inputs":[{"internalType":"bytes32","name":"role","type":"bytes32"}],"name":"getRoleAdmin","outputs":[{"internalType":"bytes32","name":"","type":"bytes32"}],"stateMutability":"view","type":"function"},{"inputs":[{"internalType":"address","name":"_stablecoin","type":"address"}],"name":"getStablecoinInfo","outputs":[{"components":[{"internalType":"contract IERC20","name":"token","type":"address"},{"internalType":"uint8","name":"decimals","type":"uint8"},{"internalType":"bool","name":"isActive","type":"bool"},{"internalType":"uint256","name":"minAmount","type":"uint256"},{"internalType":"uint256","name":"maxAmount","type":"uint256"},{"internalType":"uint256","name":"dailyLimit","type":"uint256"},{"internalType":"uint256","name":"poolBalance","type":"uint256"},{"internalType":"uint256","name":"exchangeRate","type":"uint256"}],"internalType":"struct PixStablecoinExchange.StablecoinInfo","name":"","type":"tuple"}],"stateMutability":"view","type":"function"},{"inputs":[],"name":"getSupportedStablecoins","outputs":[{"internalType":"address[]","name":"","type":"address[]"}],"stateMutability":"view","type":"function"},{"inputs":[{"internalType":"address","name":"_user","type":"address"}],"name":"getUserDailyVolume","outputs":[{"internalType":"uint256","name":"","type":"uint256"}],"stateMutability":"view","type":"function"},{"inputs":[{"internalType":"bytes32","name":"role","type":"bytes32"},{"internalType":"address","name":"account","type":"address"}],"name":"grantRole","outputs":[],"stateMutability":"nonpayable","type":"function"},{"inputs":[{"internalType":"bytes32","name":"role","type":"bytes32"},{"internalType":"address","name":"account","type":"address"}],"name":"hasRole","outputs":[{"internalType":"bool","name":"","type":"bool"}],"stateMutability":"view","type":"function"},{"inputs":[{"internalType":"string","name":"_pixId","type":"string"},{"internalType":"uint256","name":"_pixAmount","type":"uint256"},{"internalType":"address","name":"_stablecoin","type":"address"}],"name":"initiatePixToStablecoin","outputs":[],"stateMutability":"nonpayable","type":"function"},{"inputs":[{"internalType":"address","name":"_stablecoin","type":"address"},{"internalType":"uint256","name":"_stablecoinAmount","type":"uint256"},{"internalType":"string","name":"_pixKey","type":"string"}],"name":"initiateStablecoinToPix","outputs":[],"stateMutability":"nonpayable","type":"function"},{"inputs":[],"name":"owner","outputs":[{"internalType":"address","name":"","type":"address"}],"stateMutability":"view","type":"function"},{"inputs":[],"name":"pause","outputs":[],"stateMutability":"nonpayable","type":"function"},{"inputs":[],"name":"paused","outputs":[{"internalType":"bool","name":"","type":"bool"}],"stateMutability":"view","type":"function"},{"inputs":[{"internalType":"string","name":"","type":"string"}],"name":"pixTransactions","outputs":[{"internalType":"string","name":"pixId","type":"string"},{"internalType":"address","name":"user","type":"address"},{"internalType":"uint256","name":"pixAmount","type":"uint256"},{"internalType":"address","name":"stablecoin","type":"address"},{"internalType":"uint256","name":"stablecoinAmount","type":"uint256"},{"internalType":"uint256","name":"fee","type":"uint256"},{"internalType":"uint256","name":"timestamp","type":"uint256"},{"internalType":"enum PixStablecoinExchange.TransactionStatus","name":"status","type":"uint8"},{"internalType":"string","name":"pixKey","type":"string"},{"internalType":"string","name":"bankTransactionId","type":"string"}],"stateMutability":"view","type":"function"},{"inputs":[],"name":"renounceOwnership","outputs":[],"stateMutability":"nonpayable","type":"function"},{"inputs":[{"internalType":"bytes32","name":"role","type":"bytes32"},{"internalType":"address","name":"callerConfirmation","type":"address"}],"name":"renounceRole","outputs":[],"stateMutability":"nonpayable","type":"function"},{"inputs":[{"internalType":"bytes32","name":"role","type":"bytes32"},{"internalType":"address","name":"account","type":"address"}],"name":"revokeRole","outputs":[],"stateMutability":"nonpayable","type":"function"},{"inputs":[{"internalType":"address","name":"","type":"address"}],"name":"stablecoins","outputs":[{"internalType":"contract IERC20","name":"token","type":"address"},{"internalType":"uint8","name":"decimals","type":"uint8"},{"internalType":"bool","name":"isActive","type":"bool"},{"internalType":"uint256","name":"minAmount","type":"uint256"},{"internalType":"uint256","name":"maxAmount","type":"uint256"},{"internalType":"uint256","name":"dailyLimit","type":"uint256"},{"internalType":"uint256","name":"poolBalance","type":"uint256"},{"internalType":"uint256","name":"exchangeRate","type":"uint256"}],"stateMutability":"view","type":"function"},{"inputs":[{"internalType":"uint256","name":"","type":"uint256"}],"name":"supportedStablecoins","outputs":[{"internalType":"address","name":"","type":"address"}],"stateMutability":"view","type":"function"},{"inputs":[{"internalType":"bytes4","name":"interfaceId","type":"bytes4"}],"name":"supportsInterface","outputs":[{"internalType":"bool","name":"","type":"bool"}],"stateMutability":"view","type":"function"},{"inputs":[{"internalType":"address","name":"newOwner","type":"address"}],"name":"transferOwnership","outputs":[],"stateMutability":"nonpayable","type":"function"},{"inputs":[],"name":"treasury","outputs":[{"internalType":"address","name":"","type":"address"}],"stateMutability":"view","type":"function"},{"inputs":[],"name":"unpause","outputs":[],"stateMutability":"nonpayable","type":"function"},{"inputs":[{"internalType":"address","name":"_treasury","type":"address"},{"internalType":"address","name":"_feeCollector","type":"address"}],"name":"updateAddresses","outputs":[],"stateMutability":"nonpayable","type":"function"},{"inputs":[{"internalType":"uint256","name":"_feePercentage","type":"uint256"}],"name":"updateFeePercentage","outputs":[],"stateMutability":"nonpayable","type":"function"},{"inputs":[{"internalType":"address","name":"_stablecoin","type":"address"},{"internalType":"uint256","name":"_minAmount","type":"uint256"},{"internalType":"uint256","name":"_maxAmount","type":"uint256"},{"internalType":"uint256","name":"_dailyLimit","type":"uint256"},{"internalType":"uint256","name":"_exchangeRate","type":"uint256"}],"name":"updateStablecoin","outputs":[],"stateMutability":"nonpayable","type":"function"},{"inputs":[{"internalType":"address","name":"","type":"address"}],"name":"userNonce","outputs":[{"internalType":"uint256","name":"","type":"uint256"}],"stateMutability":"view","type":"function"},{"inputs":[{"internalType":"address","name":"_stablecoin","type":"address"},{"internalType":"uint256","name":"_amount","type":"uint256"},{"internalType":"address","name":"_recipient","type":"address"}],"name":"withdrawFromPool","outputs":[],"stateMutability":"nonpayable","type":"function"}],"evm":{"bytecode":{"linkReferences":{},"object":"608034620001ca57601f6200338c38819003918201601f1916830191906001600160401b03831184841017620001cf578160609285926040958652833981010312620001ca576200005082620001e5565b916200006c826200006460208401620001e5565b9201620001e5565b906001600160a01b03808316918215620001b257816000549660018060a01b03199480868a161760005582885199167f8be0079c531659141344cd1fd0a4f28419497f9722a3daafe3b4186f6b6457e0600080a360018055603260095516958615620001705750169081156200012c576200011d939481600a541617600a55600b541617600b55620000fe81620001fa565b506200010a816200027b565b5062000116816200031e565b50620003bc565b5051612f1190816200045b8239f35b835162461bcd60e51b815260206004820152601d60248201527f496e76616c69642066656520636f6c6c6563746f7220616464726573730000006044820152606490fd5b62461bcd60e51b815260206004820152601860248201527f496e76616c6964207472656173757279206164647265737300000000000000006044820152606490fd5b8451631e4fbdf760e01b815260006004820152602490fd5b600080fd5b634e487b7160e01b600052604160045260246000fd5b51906001600160a01b0382168203620001ca57565b6001600160a01b031660008181527f3617319a054d772f909f7c479a2cebe5066e836a939412e32403c99029b92eff602052604081205490919060ff16620002775781805260036020526040822081835260205260408220600160ff1982541617905533916000805160206200336c8339815191528180a4600190565b5090565b6001600160a01b031660008181527ff89466c3aa8f23377c6aace9f611fcee97b80cbfca673b5d358db167957bd96060205260408120549091907f68e79a7bf1e0bc45d0a330c573bc367f9cf464fd326078812f301165fbda4ef19060ff16620003195780835260036020526040832082845260205260408320600160ff198254161790556000805160206200336c833981519152339380a4600190565b505090565b6001600160a01b031660008181527fc03103fc9c0ad7e4001ede1c469953fc46455d111e3d6da3b661469b87ece8d560205260408120549091907f97667070c54ef182b0f5858b034beac1b6f3089aa2d3188bb1e8929f4fa9b9299060ff16620003195780835260036020526040832082845260205260408320600160ff198254161790556000805160206200336c833981519152339380a4600190565b6001600160a01b031660008181527f30adeb818ef77f204f5a603c30fa5332397b6e28fb3b7f9d937ae6a6914716de60205260408120549091907f65d7a28e3265b37a6474929f336521b332c1681b933f6cb9f3376673440d862a9060ff16620003195780835260036020526040832082845260205260408320600160ff198254161790556000805160206200336c833981519152339380a460019056fe608080604052600436101561001357600080fd5b60003560e01c90816301ffc9a7146122fb5750806307e2cea5146122c057806321dc01241461229a578063248a9ca31461226b5780632bfd5146146121b85780632e04b8e71461217e5780632f2ff15d1461213f57806336568abe146120f857806339b70d4514611e525780633f4ba83a14611de85780634ec6a9fa14611d9d578063558e44d314611d80578063571951b914611d3e5780635c975abb14611d1b57806360e74f5614611c0757806361d027b314611bde5780636cad3fb014611b6f5780636e841b3c1461198b578063715018a61461193257806374c95081146118ea5780637c6f73eb146118225780638456cb59146117c8578063859a5aee146111d65780638d8aaf9c14610fae5780638da5cb5b14610f8557806391d1485414610f3857806399a5d74714610f0b578063a001ecdd14610eed578063a217fddf14610ed1578063a41d2dcf146108bc578063ae6d7154146107e6578063bb10bc33146106c0578063c1d11037146105cb578063c415b95c146105a2578063d28682ea14610565578063d547741f14610524578063d73792a914610507578063d876e982146104d9578063e63ab1e91461049e578063f2fde38b14610410578063f5b541a6146103d5578063fa847836146103495763fac95a9e146101f857600080fd5b3461034457606036600319011261034457610211612364565b6024359061021d61237a565b906102266125f9565b60018060a01b038091169182600052600460205261024e60ff60406000205460a81c1661293c565b610259841515612c18565b81811693841561030b578360005260046020526040600020926004840190828254106102c657826020946102b0927fff6847f88ecf9c1c2ab5dce1df3e75afd82057917dab181db5715f337ef07784975416612b71565b6102bb828254612b37565b9055604051908152a3005b60405162461bcd60e51b815260206004820152601960248201527f496e73756666696369656e7420706f6f6c2062616c616e6365000000000000006044820152606490fd5b60405162461bcd60e51b8152602060048201526011602482015270125b9d985b1a59081c9958da5c1a595b9d607a1b6044820152606490fd5b600080fd5b34610344576020366003190112610344576101006001600160a01b038061036e612364565b16600052600460205260406000208054906001810154600282015460038301549160ff60056004860154950154956040519781168852818160a01c16602089015260a81c16151560408701526060860152608085015260a084015260c083015260e0820152f35b346103445760003660031901126103445760206040517f97667070c54ef182b0f5858b034beac1b6f3089aa2d3188bb1e8929f4fa9b9298152f35b3461034457602036600319011261034457610429612364565b610431612808565b6001600160a01b0390811690811561048557600054826bffffffffffffffffffffffff60a01b821617600055167f8be0079c531659141344cd1fd0a4f28419497f9722a3daafe3b4186f6b6457e0600080a3005b604051631e4fbdf760e01b815260006004820152602490fd5b346103445760003660031901126103445760206040517f65d7a28e3265b37a6474929f336521b332c1681b933f6cb9f3376673440d862a8152f35b346103445760403660031901126103445760206104ff6104f761234e565b600435612ce0565b604051908152f35b346103445760003660031901126103445760206040516127108152f35b346103445760403660031901126103445761056360043561054361234e565b9080600052600360205261055e6001604060002001546126eb565b612791565b005b34610344576020366003190112610344576001600160a01b03610586612364565b1660005260046020526020600460406000200154604051908152f35b3461034457600036600319011261034457600b546040516001600160a01b039091168152602090f35b34610344576040366003190112610344576105e4612364565b6105ec61234e565b906105f56126b1565b6001600160a01b0390811691821561067b5716908115610636576bffffffffffffffffffffffff60a01b9081600a541617600a55600b541617600b55600080f35b60405162461bcd60e51b815260206004820152601d60248201527f496e76616c69642066656520636f6c6c6563746f7220616464726573730000006044820152606490fd5b60405162461bcd60e51b815260206004820152601860248201527f496e76616c6964207472656173757279206164647265737300000000000000006044820152606490fd5b34610344576020366003190112610344576004356001600160401b03811161034457366023820112156103445761079f6107e2610720602061070d819536906024816004013591016124d3565b816040519382858094519384920161240a565b810160058152030190206107d361073682612553565b60018060a01b03926107c58460018301541694600283015490600384015416600484015460058501549060068601549260ff60078801541694610787600961078060088b01612553565b9901612553565b9a6040519e8f9e8f9b8c6101408091528d019061242d565b9a015260408d015260608c015260808b015260a08a015260c089015260e0880190612452565b85820361010087015261242d565b9083820361012085015261242d565b0390f35b346103445760a0366003190112610344576107ff612364565b7f7b85fec0d325faaa2a277cef90302bbf159ed376fdc469c6aec904635a48c818608060243560443593606435608435916108386126b1565b60018060a01b03169586600052600460205261085e60ff60406000205460a81c1661293c565b610869848211612834565b61087481831161288c565b61087f8315156128e4565b86600052600460205282600560406000208660018201558360028201558460038201550155604051938452602084015260408301526060820152a2005b34610344576060366003190112610344576004356001600160401b038111610344576108ec903690600401612390565b906024356001600160401b0381116103445761090c903690600401612390565b92906044356001600160401b0381116103445761092d903690600401612390565b3360009081527ff89466c3aa8f23377c6aace9f611fcee97b80cbfca673b5d358db167957bd96060205260409020549192917f68e79a7bf1e0bc45d0a330c573bc367f9cf464fd326078812f301165fbda4ef19060ff1615610eb35750610992612af3565b6040518486823760208186810160058152030190209260018060a01b0360018501541615610e7657600784015460ff81166005811015610cec57610e315760ff191660011760078501556001600160401b038711610da257610a04876109fb6009870154612519565b60098701612a5c565b866000601f8211600114610dc357600091610db8575b508760011b906000198960031b1c19161760098501555b6001600160401b038211610da257610a5982610a506008870154612519565b60088701612a5c565b600090601f8311600114610d0d579180610afb98927f5514ef95c64d5dca6a23ff02071062c0465dfe587332297e08661fa4a616540694600092610d02575b50508160011b916000199060031b1c19161760088501555b600260018060a01b03600186015416940154610af1604051878982378088810160008152039020946040519384938452604060208501526040840191612b16565b0390a336916124d3565b6040516020818351610b10818385880161240a565b8101600581520301902060ff6007820154166005811015610cec57600103610cb35760018060a01b03600382015416600052600460205260406000207f4eda2d264e1d631f2dc69d156ddd1cb743d5fc8ef4942d54a794cf41d6e098156040600584015492600485015490610b8b8260048301541015612a10565b80546001870154610baa9184916001600160a01b039081169116612b71565b610bb8826004830154612b37565b80600483015585610c5b575b5050600285015460018060a01b03600187015416600052600660205282600020620151804204600052602052610bff83600020918254612b64565b905560078501805460ff191660021790556001850154600390950154825187516001600160a01b0392831698979092169690918291610c44908290849060200161240a565b81010390209382519182526020820152a460018055005b6003870154610c73906001600160a01b031687612ce0565b809110610bc4578154600b54600492610ca9929091610ca09183916001600160a01b039081169116612b71565b82840154612b37565b9101558680610bc4565b60405162461bcd60e51b8152602060048201526011602482015270141256081b9bdd0818dbdb999a5c9b5959607a1b6044820152606490fd5b634e487b7160e01b600052602160045260246000fd5b013590508980610a98565b6008850160005260206000209160005b601f1985168110610d8a575092610afb98926001927f5514ef95c64d5dca6a23ff02071062c0465dfe587332297e08661fa4a61654069583601f19811610610d70575b505050811b016008850155610ab0565b0135600019600384901b60f8161c19169055898080610d60565b90926020600181928686013581550194019101610d1d565b634e487b7160e01b600052604160045260246000fd5b905083013588610a1a565b90506009850160005260206000209060005b601f198a168110610e19575088601f19811610610dff575b5050600187811b016009850155610a31565b84013560001960038a901b60f8161c191690558780610ded565b90916020600181928589013581550193019101610dd5565b60405162461bcd60e51b815260206004820152601d60248201527f5472616e73616374696f6e20616c72656164792070726f6365737365640000006044820152606490fd5b60405162461bcd60e51b8152602060048201526015602482015274151c985b9cd858dd1a5bdb881b9bdd08199bdd5b99605a1b6044820152606490fd5b6044906040519063e2517d3f60e01b82523360048301526024820152fd5b3461034457600036600319011261034457602060405160008152f35b34610344576000366003190112610344576020600954604051908152f35b34610344576020366003190112610344576020612710610f2f600954600435612cbc565b04604051908152f35b3461034457604036600319011261034457610f5161234e565b600435600052600360205260406000209060018060a01b0316600052602052602060ff604060002054166040519015158152f35b34610344576000366003190112610344576000546040516001600160a01b039091168152602090f35b346103445760c036600319011261034457610fc7612364565b6024359060ff8216809203610344576044356064359260843560a43594610fec6126b1565b6001600160a01b0394851695861561119957611009858311612834565b61101482841161288c565b61101f8115156128e4565b86600052600460205260ff60406000205460a81c16611154576005604051916110478361245f565b8883528860208401878152604085019060018252606086018a8152608087019188835260a08801938a855260c08901956000875260e08a0197885260005260046020528d604060002099511689549260ff60a01b905160a01b169160ff60a81b9051151560a81b169269ffffffffffffffffffff60b01b161717178755516001870155516002860155516003850155516004840155519101556008549368010000000000000000851015610da2577f44815923ebf215741a602cf13538482db870148f418fed79e98195ec9b41d20a95611129866001608098016008556123bd565b819291549060031b918a831b921b1916179055604051938452602084015260408301526060820152a2005b60405162461bcd60e51b815260206004820152601960248201527f537461626c65636f696e20616c726561647920657869737473000000000000006044820152606490fd5b60405162461bcd60e51b8152602060048201526015602482015274496e76616c696420746f6b656e206164647265737360581b6044820152606490fd5b34610344576060366003190112610344576004356001600160401b03811161034457611206903690600401612390565b61120e61237a565b611216612af3565b61121e612ad5565b811561178a576024351561173b576001600160a01b0381166000908152600460205260409020546112549060a81c60ff1661293c565b6040518284823760058184019081528190036020019020600101546001600160a01b03166116fe5760049160018060a01b038216600052826020526112df60406000206112a960018201546024351015612988565b6112bb600282015460243511156129cb565b6112c760243533612df7565b6112d384602435612ce0565b94859101541015612a10565b6127106112f0600954602435612cbc565b04604051906112fe8261247b565b6113093684886124d3565b8252336020830152602435604083015260018060a01b038416606083015284608083015260a08201524260c0820152600060e082015260405161134b81612497565b6000815261010082015260405161136181612497565b6000815261012082015260405182868237602081848101600581520301902081518051906001600160401b038211610da25781906113a9826113a38654612519565b86612a5c565b602090601f831160011461169257600092611687575b50508160011b916000199060031b1c19161781555b60208201516001820180546001600160a01b039283166001600160a01b0319918216179091556040840151600284015560608401516003840180549190931691161790556080820151600482015560a082015160058083019190915560c0830151600683015560e08301516007830191811015610cec5760ff801983541691161790556101008201518051906001600160401b038211610da2576114888261147f6008860154612519565b60088601612a5c565b602090601f83116001146116115791806101209492600994600092611606575b50508160011b916000199060031b1c19161760088201555b019101518051906001600160401b038211610da25781906114e5826113a38654612519565b602090601f83116001146115a057600092611595575b50508160011b916000199060031b1c19161790555b33600052600760205260406000206115288154612ab0565b905533600052600760205260406000205493816040519283928337810160008152039020926040519260243584526020840152604083015260018060a01b0316917f6d1276400b00e109932b481f66f784018424206f44125f600584817b73c8204260603393a460018055005b0151905087806114fb565b6000858152602081209350601f198516905b8181106115ee57509084600195949392106115d5575b505050811b019055611510565b015160001960f88460031b161c191690558780806115c8565b929360206001819287860151815501950193016115b2565b015190508a806114a8565b906008840160005260206000209160005b601f198516811061166f575092610120949260019260099583601f19811610611656575b505050811b0160088201556114c0565b015160001960f88460031b161c191690558a8080611646565b91926020600181928685015181550194019201611622565b0151905088806113bf565b9250836000526020600020906000935b601f19841685106116e3576001945083601f198116106116ca575b505050811b0181556113d4565b015160001960f88460031b161c191690558880806116bd565b818101518355602094850194600190930192909101906116a2565b60405162461bcd60e51b815260206004820152601560248201527450495820494420616c72656164792065786973747360581b6044820152606490fd5b60405162461bcd60e51b815260206004820152602160248201527f50495820616d6f756e74206d7573742062652067726561746572207468616e206044820152600360fc1b6064820152608490fd5b60405162461bcd60e51b81526020600482015260166024820152755049582049442063616e6e6f7420626520656d70747960501b6044820152606490fd5b34610344576000366003190112610344576117e1612655565b6117e9612ad5565b600160ff1960025416176002557f62e78cea01bee320cd4e420270b5ea74000d11b0c9f74754ebdbfc544b05a2586020604051338152a1005b3461034457600036600319011261034457604051806008548083526020809301809160086000527ff3f7a9fe364faab93b216da50a3214154f22a0a2b415b23a84c8169e8b636ee39060005b868282106118cd578686611884828803836124b2565b604051928392818401908285525180915260408401929160005b8281106118ad57505050500390f35b83516001600160a01b03168552869550938101939281019260010161189e565b83546001600160a01b03168552909301926001928301920161186e565b34610344576040366003190112610344576001600160a01b0361190b612364565b16600052600660205260406000206024356000526020526020604060002054604051908152f35b346103445760003660031901126103445761194b612808565b600080546001600160a01b0319811682556001600160a01b03167f8be0079c531659141344cd1fd0a4f28419497f9722a3daafe3b4186f6b6457e08280a3005b34610344576020366003190112610344576004356001600160401b038111610344576119bd6020913690600401612390565b919060606101206040516119d08161247b565b8281526000858201526000604082015260008382015260006080820152600060a0820152600060c0820152600060e082015282610100820152015282604051938492833781016005815203019020604051611a2a8161247b565b611a3382612553565b815260018201546001600160a01b0390811660208301526002830154604083015260038301541660608201526004820154608082015260058083015460a0830152600683015460c0830152600783015460ff169290831015610cec576009611ab6916107e29460e0850152611aaa60088201612553565b61010085015201612553565b61012082015260405191829160208352611ade8151610140602086015261016085019061242d565b60018060a01b0360208301511660408501526040820151606085015260018060a01b036060830151166080850152608082015160a085015260a082015160c085015260c082015160e0850152611b3d60e0830151610100860190612452565b610120611b5c61010084015192601f199384888303018489015261242d565b920151908483030161014085015261242d565b3461034457602036600319011261034457600435611b8b6126b1565b6103e88111611b9957600955005b60405162461bcd60e51b815260206004820152601760248201527f4665652070657263656e7461676520746f6f20686967680000000000000000006044820152606490fd5b3461034457600036600319011261034457600a546040516001600160a01b039091168152602090f35b3461034457602036600319011261034457610100611c23612364565b600060e0604051611c338161245f565b8281528260208201528260408201528260608201528260808201528260a08201528260c0820152015260018060a01b038091166000526004602052604060002060405190611c808261245f565b805492831692838352602083019060ff8160a01c16825260ff604085019160a81c16151581526001830154606085019081526002840154916080860192835260ff60038601549460a0880195865260e0600560048901549860c08b01998a52015498019788526040519889525116602088015251151560408701525160608601525160808501525160a08401525160c08301525160e0820152f35b3461034457600036600319011261034457602060ff600254166040519015158152f35b346103445760203660031901126103445760043560085481101561034457611d676020916123bd565b905460405160039290921b1c6001600160a01b03168152f35b346103445760003660031901126103445760206040516103e88152f35b34610344576020366003190112610344576001600160a01b03611dbe612364565b16600052600660205260406000206201518042046000526020526020604060002054604051908152f35b3461034457600036600319011261034457611e01612655565b60025460ff811615611e405760ff19166002557f5db9ee0a495bf2e6ff9c91a7834c1ba4fdd244a5e8aa4e537bd38aeae4b073aa6020604051338152a1005b604051638dfc202b60e01b8152600490fd5b3461034457606036600319011261034457611e6b612364565b6024356044356001600160401b03811161034457611e8d903690600401612390565b9190611e97612af3565b611e9f612ad5565b60018060a01b0392838516948560005260209460048652611eca60ff60406000205460a81c1661293c565b611ed5851515612c18565b82156120b3578660005260048652604060002090815416916040516370a0823160e01b81523360048201528781602481875afa80156120a7578791600091612076575b50106120315791600461201f9492611f8b88611f578199977fa71c386f93f7cfa73e759a0f8f724bef69bc809ef69af8fc78014e03925b2ced9b612d3f565b94611f686001850154871015612988565b611f7860028501548711156129cb565b611f828633612df7565b30903390612c64565b01611f97868254612b64565b9055611fb2612710611fab60095484612cbc565b0482612b37565b9033600052600788526040600020611fca8154612ab0565b9055336000526006885260406000206201518042046000528852611ff46040600020918254612b64565b9055336000526007875260406000205496604051958652850152608060408501526080840191612b16565b9260608201528033930390a360018055005b60405162461bcd60e51b815260048101889052601f60248201527f496e73756666696369656e7420737461626c65636f696e2062616c616e6365006044820152606490fd5b809250898092503d83116120a0575b61208f81836124b2565b81010312610344578690518a611f18565b503d612085565b6040513d6000823e3d90fd5b60405162461bcd60e51b815260048101879052601760248201527f504958206b65792063616e6e6f7420626520656d7074790000000000000000006044820152606490fd5b346103445760403660031901126103445761211161234e565b336001600160a01b0382160361212d5761056390600435612791565b60405163334bd91960e11b8152600490fd5b346103445760403660031901126103445761056360043561215e61234e565b908060005260036020526121796001604060002001546126eb565b612711565b34610344576020366003190112610344576001600160a01b0361219f612364565b1660005260076020526020604060002054604051908152f35b34610344576040366003190112610344576121d1612364565b602435906121dd6125f9565b600460018060a01b0380921691826000528160205261220660ff60406000205460a81c1661293c565b612211841515612c18565b826000528160205261222f8460406000209283541630903390612c64565b0161223b838254612b64565b90556040519182527f50e73928be07b534e0beea032889bb051f54b4a046bb43c73625b53db520ab2660203393a3005b346103445760203660031901126103445760043560005260036020526020600160406000200154604051908152f35b346103445760403660031901126103445760206104ff6122b861234e565b600435612d3f565b346103445760003660031901126103445760206040517f68e79a7bf1e0bc45d0a330c573bc367f9cf464fd326078812f301165fbda4ef18152f35b34610344576020366003190112610344576004359063ffffffff60e01b821680920361034457602091637965db0b60e01b811490811561233d575b5015158152f35b6301ffc9a760e01b14905083612336565b602435906001600160a01b038216820361034457565b600435906001600160a01b038216820361034457565b604435906001600160a01b038216820361034457565b9181601f84011215610344578235916001600160401b038311610344576020838186019501011161034457565b6008548110156123f45760086000527ff3f7a9fe364faab93b216da50a3214154f22a0a2b415b23a84c8169e8b636ee30190600090565b634e487b7160e01b600052603260045260246000fd5b60005b83811061241d5750506000910152565b818101518382015260200161240d565b906020916124468151809281855285808601910161240a565b601f01601f1916010190565b906005821015610cec5752565b61010081019081106001600160401b03821117610da257604052565b61014081019081106001600160401b03821117610da257604052565b602081019081106001600160401b03821117610da257604052565b90601f801991011681019081106001600160401b03821117610da257604052565b9291926001600160401b038211610da257604051916124fc601f8201601f1916602001846124b2565b829481845281830111610344578281602093846000960137010152565b90600182811c92168015612549575b602083101461253357565b634e487b7160e01b600052602260045260246000fd5b91607f1691612528565b906040519182600082549261256784612519565b9081845260019485811690816000146125d65750600114612593575b5050612591925003836124b2565b565b9093915060005260209081600020936000915b8183106125be57505061259193508201013880612583565b855488840185015294850194879450918301916125a6565b91505061259194506020925060ff191682840152151560051b8201013880612583565b3360009081527fc03103fc9c0ad7e4001ede1c469953fc46455d111e3d6da3b661469b87ece8d560205260409020547f97667070c54ef182b0f5858b034beac1b6f3089aa2d3188bb1e8929f4fa9b9299060ff1615610eb35750565b3360009081527f30adeb818ef77f204f5a603c30fa5332397b6e28fb3b7f9d937ae6a6914716de60205260409020547f65d7a28e3265b37a6474929f336521b332c1681b933f6cb9f3376673440d862a9060ff1615610eb35750565b3360009081527f3617319a054d772f909f7c479a2cebe5066e836a939412e32403c99029b92eff602052604081205460ff1615610eb35750565b80600052600360205260406000203360005260205260ff6040600020541615610eb35750565b906000918083526003602052604083209160018060a01b03169182845260205260ff6040842054161560001461278c5780835260036020526040832082845260205260408320600160ff198254161790557f2f8788117e7eff1d82e926ec794901d17c78024a50270940304540a733656f0d339380a4600190565b505090565b906000918083526003602052604083209160018060a01b03169182845260205260ff60408420541660001461278c578083526003602052604083208284526020526040832060ff1981541690557ff6391f5c32d9c69d2a47ea670b442974b53935d1edc7fd64eb21e047a839171b339380a4600190565b6000546001600160a01b0316330361281c57565b60405163118cdaa760e01b8152336004820152602490fd5b1561283b57565b60405162461bcd60e51b815260206004820152602360248201527f4d617820616d6f756e74206d7573742062652067726561746572207468616e2060448201526236b4b760e91b6064820152608490fd5b1561289357565b60405162461bcd60e51b8152602060048201526024808201527f4461696c79206c696d6974206d7573742062652067726561746572207468616e604482015263040dac2f60e31b6064820152608490fd5b156128eb57565b60405162461bcd60e51b8152602060048201526024808201527f45786368616e67652072617465206d75737420626520677265617465722074686044820152630616e20360e41b6064820152608490fd5b1561294357565b60405162461bcd60e51b815260206004820152601860248201527f537461626c65636f696e206e6f7420737570706f7274656400000000000000006044820152606490fd5b1561298f57565b60405162461bcd60e51b8152602060048201526014602482015273416d6f756e742062656c6f77206d696e696d756d60601b6044820152606490fd5b156129d257565b60405162461bcd60e51b8152602060048201526016602482015275416d6f756e742065786365656473206d6178696d756d60501b6044820152606490fd5b15612a1757565b60405162461bcd60e51b815260206004820152601b60248201527f496e73756666696369656e7420706f6f6c206c697175696469747900000000006044820152606490fd5b90601f8111612a6a57505050565b600091825260208220906020601f850160051c83019410612aa6575b601f0160051c01915b828110612a9b57505050565b818155600101612a8f565b9092508290612a86565b6000198114612abf5760010190565b634e487b7160e01b600052601160045260246000fd5b60ff60025416612ae157565b60405163d93c066560e01b8152600490fd5b600260015414612b04576002600155565b604051633ee5aeb560e01b8152600490fd5b908060209392818452848401376000828201840152601f01601f1916010190565b91908203918211612abf57565b8115612b4e570490565b634e487b7160e01b600052601260045260246000fd5b91908201809211612abf57565b60405163a9059cbb60e01b60208201526001600160a01b03909216602483015260448083019390935291815260808101916001600160401b03831182841017610da257612591926040525b906000602091828151910182855af1156120a7576000513d612c0f57506001600160a01b0381163b155b612bed5750565b604051635274afe760e01b81526001600160a01b039091166004820152602490fd5b60011415612be6565b15612c1f57565b60405162461bcd60e51b815260206004820152601d60248201527f416d6f756e74206d7573742062652067726561746572207468616e20300000006044820152606490fd5b6040516323b872dd60e01b60208201526001600160a01b03928316602482015292909116604483015260648083019390935291815260a08101918183106001600160401b03841117610da25761259192604052612bbc565b81810292918115918404141715612abf57565b60ff16604d8111612abf57600a0a90565b9060018060a01b03166000526004602052612d1360ff604060002092670de0b6b3a7640000928391600586015490612cbc565b04925460a01c1660128103612d2757505090565b91612d35612d3b9293612ccf565b90612cbc565b0490565b9060009060018060a01b03168152600460205260408120908260ff835460a01c1660128103612daa575b5050670de0b6b3a764000092838102938185041490151715612d96575060050154612d9391612b44565b90565b634e487b7160e01b81526011600452602490fd5b90919350670de0b6b3a764000091828102928184041490151715612de35790612dd5612ddb92612ccf565b90612b44565b913880612d69565b634e487b7160e01b84526011600452602484fd5b9060018060a01b0390816000931683526020906006825260409081852062015180420486528352818520549385600854965b878110612e3b575b5050505050505050565b82612e45826123bd565b919054600392831b1c1680845260049182895260ff8886205460a81c16612e7757505050612e7290612ab0565b612e29565b95919950959697879450612e8b9250612b64565b93815286865220015410612ea3578080808080612e31565b5162461bcd60e51b815291820152601460248201527311185a5b1e481b1a5b5a5d08195e18d95959195960621b604482015260649150fdfea2646970667358221220a9333b14925224fda7ee895dcab2192cacc3b1597f2fa357ec517ff80b419b0c64736f6c634300081400332f8788117e7eff1d82e926ec794901d17c78024a50270940304540a733656f0d","opcodes":"PUSH1 0x80 CALLVALUE PUSH3 0x1CA JUMPI PUSH1 0x1F PUSH3 0x338C CODESIZE DUP2 SWAP1 SUB SWAP2 DUP3 ADD PUSH1 0x1F NOT AND DUP4 ADD SWAP2 SWAP1 PUSH1 0x1 PUSH1 0x1 PUSH1 0x40 SHL SUB DUP4 GT DUP5 DUP5 LT OR PUSH3 0x1CF JUMPI DUP2 PUSH1 0x60 SWAP3 DUP6 SWAP3 PUSH1 0x40 SWAP6 DUP7 MSTORE DUP4 CODECOPY DUP2 ADD SUB SLT PUSH3 0x1CA JUMPI PUSH3 0x50 DUP3 PUSH3 0x1E5 JUMP JUMPDEST SWAP2 PUSH3 0x6C DUP3 PUSH3 0x64 PUSH1 0x20 DUP5 ADD PUSH3 0x1E5 JUMP JUMPDEST SWAP3 ADD PUSH3 0x1E5 JUMP JUMPDEST SWAP1 PUSH1 0x1 PUSH1 0x1 PUSH1 0xA0 SHL SUB DUP1 DUP4 AND SWAP2 DUP3 ISZERO PUSH3 0x1B2 JUMPI DUP2 PUSH1 0x0 SLOAD SWAP7 PUSH1 0x1 DUP1 PUSH1 0xA0 SHL SUB NOT SWAP5 DUP1 DUP7 DUP11 AND OR PUSH1 0x0 SSTORE DUP3 DUP9 MLOAD SWAP10 AND PUSH32 0x8BE0079C531659141344CD1FD0A4F28419497F9722A3DAAFE3B4186F6B6457E0 PUSH1 0x0 DUP1 LOG3 PUSH1 0x1 DUP1 SSTORE PUSH1 0x32 PUSH1 0x9 SSTORE AND SWAP6 DUP7 ISZERO PUSH3 0x170 JUMPI POP AND SWAP1 DUP2 ISZERO PUSH3 0x12C JUMPI PUSH3 0x11D SWAP4 SWAP5 DUP2 PUSH1 0xA SLOAD AND OR PUSH1 0xA SSTORE PUSH1 0xB SLOAD AND OR PUSH1 0xB SSTORE PUSH3 0xFE DUP2 PUSH3 0x1FA JUMP JUMPDEST POP PUSH3 0x10A DUP2 PUSH3 0x27B JUMP JUMPDEST POP PUSH3 0x116 DUP2 PUSH3 0x31E JUMP JUMPDEST POP PUSH3 0x3BC JUMP JUMPDEST POP MLOAD PUSH2 0x2F11 SWAP1 DUP2 PUSH3 0x45B DUP3 CODECOPY RETURN JUMPDEST DUP4 MLOAD PUSH3 0x461BCD PUSH1 0xE5 SHL DUP2 MSTORE PUSH1 0x20 PUSH1 0x4 DUP3 ADD MSTORE PUSH1 0x1D PUSH1 0x24 DUP3 ADD MSTORE PUSH32 0x496E76616C69642066656520636F6C6C6563746F722061646472657373000000 PUSH1 0x44 DUP3 ADD MSTORE PUSH1 0x64 SWAP1 REVERT JUMPDEST PUSH3 0x461BCD PUSH1 0xE5 SHL DUP2 MSTORE PUSH1 0x20 PUSH1 0x4 DUP3 ADD MSTORE PUSH1 0x18 PUSH1 0x24 DUP3 ADD MSTORE PUSH32 0x496E76616C696420747265617375727920616464726573730000000000000000 PUSH1 0x44 DUP3 ADD MSTORE PUSH1 0x64 SWAP1 REVERT JUMPDEST DUP5 MLOAD PUSH4 0x1E4FBDF7 PUSH1 0xE0 SHL DUP2 MSTORE PUSH1 0x0 PUSH1 0x4 DUP3 ADD MSTORE PUSH1 0x24 SWAP1 REVERT JUMPDEST PUSH1 0x0 DUP1 REVERT JUMPDEST PUSH4 0x4E487B71 PUSH1 0xE0 SHL PUSH1 0x0 MSTORE PUSH1 0x41 PUSH1 0x4 MSTORE PUSH1 0x24 PUSH1 0x0 REVERT JUMPDEST MLOAD SWAP1 PUSH1 0x1 PUSH1 0x1 PUSH1 0xA0 SHL SUB DUP3 AND DUP3 SUB PUSH3 0x1CA JUMPI JUMP JUMPDEST PUSH1 0x1 PUSH1 0x1 PUSH1 0xA0 SHL SUB AND PUSH1 0x0 DUP2 DUP2 MSTORE PUSH32 0x3617319A054D772F909F7C479A2CEBE5066E836A939412E32403C99029B92EFF PUSH1 0x20 MSTORE PUSH1 0x40 DUP2 KECCAK256 SLOAD SWAP1 SWAP2 SWAP1 PUSH1 0xFF AND PUSH3 0x277 JUMPI DUP2 DUP1 MSTORE PUSH1 0x3 PUSH1 0x20 MSTORE PUSH1 0x40 DUP3 KECCAK256 DUP2 DUP4 MSTORE PUSH1 0x20 MSTORE PUSH1 0x40 DUP3 KECCAK256 PUSH1 0x1 PUSH1 0xFF NOT DUP3 SLOAD AND OR SWAP1 SSTORE CALLER SWAP2 PUSH1 0x0 DUP1 MLOAD PUSH1 0x20 PUSH3 0x336C DUP4 CODECOPY DUP2 MLOAD SWAP2 MSTORE DUP2 DUP1 LOG4 PUSH1 0x1 SWAP1 JUMP JUMPDEST POP SWAP1 JUMP JUMPDEST PUSH1 0x1 PUSH1 0x1 PUSH1 0xA0 SHL SUB AND PUSH1 0x0 DUP2 DUP2 MSTORE PUSH32 0xF89466C3AA8F23377C6AACE9F611FCEE97B80CBFCA673B5D358DB167957BD960 PUSH1 0x20 MSTORE PUSH1 0x40 DUP2 KECCAK256 SLOAD SWAP1 SWAP2 SWAP1 PUSH32 0x68E79A7BF1E0BC45D0A330C573BC367F9CF464FD326078812F301165FBDA4EF1 SWAP1 PUSH1 0xFF AND PUSH3 0x319 JUMPI DUP1 DUP4 MSTORE PUSH1 0x3 PUSH1 0x20 MSTORE PUSH1 0x40 DUP4 KECCAK256 DUP3 DUP5 MSTORE PUSH1 0x20 MSTORE PUSH1 0x40 DUP4 KECCAK256 PUSH1 0x1 PUSH1 0xFF NOT DUP3 SLOAD AND OR SWAP1 SSTORE PUSH1 0x0 DUP1 MLOAD PUSH1 0x20 PUSH3 0x336C DUP4 CODECOPY DUP2 MLOAD SWAP2 MSTORE CALLER SWAP4 DUP1 LOG4 PUSH1 0x1 SWAP1 JUMP JUMPDEST POP POP SWAP1 JUMP JUMPDEST PUSH1 0x1 PUSH1 0x1 PUSH1 0xA0 SHL SUB AND PUSH1 0x0 DUP2 DUP2 MSTORE PUSH32 0xC03103FC9C0AD7E4001EDE1C469953FC46455D111E3D6DA3B661469B87ECE8D5 PUSH1 0x20 MSTORE PUSH1 0x40 DUP2 KECCAK256 SLOAD SWAP1 SWAP2 SWAP1 PUSH32 0x97667070C54EF182B0F5858B034BEAC1B6F3089AA2D3188BB1E8929F4FA9B929 SWAP1 PUSH1 0xFF AND PUSH3 0x319 JUMPI DUP1 DUP4 MSTORE PUSH1 0x3 PUSH1 0x20 MSTORE PUSH1 0x40 DUP4 KECCAK256 DUP3 DUP5 MSTORE PUSH1 0x20 MSTORE PUSH1 0x40 DUP4 KECCAK256 PUSH1 0x1 PUSH1 0xFF NOT DUP3 SLOAD AND OR SWAP1 SSTORE PUSH1 0x0 DUP1 MLOAD PUSH1 0x20 PUSH3 0x336C DUP4 CODECOPY DUP2 MLOAD SWAP2 MSTORE CALLER SWAP4 DUP1 LOG4 PUSH1 0x1 SWAP1 JUMP JUMPDEST PUSH1 0x1 PUSH1 0x1 PUSH1 0xA0 SHL SUB AND PUSH1 0x0 DUP2 DUP2 MSTORE PUSH32 0x30ADEB818EF77F204F5A603C30FA5332397B6E28FB3B7F9D937AE6A6914716DE PUSH1 0x20 MSTORE PUSH1 0x40 DUP2 KECCAK256 SLOAD SWAP1 SWAP2 SWAP1 PUSH32 0x65D7A28E3265B37A6474929F336521B332C1681B933F6CB9F3376673440D862A SWAP1 PUSH1 0xFF AND PUSH3 0x319 JUMPI DUP1 DUP4 MSTORE PUSH1 0x3 PUSH1 0x20 MSTORE PUSH1 0x40 DUP4 KECCAK256 DUP3 DUP5 MSTORE PUSH1 0x20 MSTORE PUSH1 0x40 DUP4 KECCAK256 PUSH1 0x1 PUSH1 0xFF NOT DUP3 SLOAD AND OR SWAP1 SSTORE PUSH1 0x0 DUP1 MLOAD PUSH1 0x20 PUSH3 0x336C DUP4 CODECOPY DUP2 MLOAD SWAP2 MSTORE CALLER SWAP4 DUP1 LOG4 PUSH1 0x1 SWAP1 JUMP INVALID PUSH1 0x80 DUP1 PUSH1 0x40 MSTORE PUSH1 0x4 CALLDATASIZE LT ISZERO PUSH2 0x13 JUMPI PUSH1 0x0 DUP1 REVERT JUMPDEST PUSH1 0x0 CALLDATALOAD PUSH1 0xE0 SHR SWAP1 DUP2 PUSH4 0x1FFC9A7 EQ PUSH2 0x22FB JUMPI POP DUP1 PUSH4 0x7E2CEA5 EQ PUSH2 0x22C0 JUMPI DUP1 PUSH4 0x21DC0124 EQ PUSH2 0x229A JUMPI DUP1 PUSH4 0x248A9CA3 EQ PUSH2 0x226B JUMPI DUP1 PUSH4 0x2BFD5146 EQ PUSH2 0x21B8 JUMPI DUP1 PUSH4 0x2E04B8E7 EQ PUSH2 0x217E JUMPI DUP1 PUSH4 0x2F2FF15D EQ PUSH2 0x213F JUMPI DUP1 PUSH4 0x36568ABE EQ PUSH2 0x20F8 JUMPI DUP1 PUSH4 0x39B70D45 EQ PUSH2 0x1E52 JUMPI DUP1 PUSH4 0x3F4BA83A EQ PUSH2 0x1DE8 JUMPI DUP1 PUSH4 0x4EC6A9FA EQ PUSH2 0x1D9D JUMPI DUP1 PUSH4 0x558E44D3 EQ PUSH2 0x1D80 JUMPI DUP1 PUSH4 0x571951B9 EQ PUSH2 0x1D3E JUMPI DUP1 PUSH4 0x5C975ABB EQ PUSH2 0x1D1B JUMPI DUP1 PUSH4 0x60E74F56 EQ PUSH2 0x1C07 JUMPI DUP1 PUSH4 0x61D027B3 EQ PUSH2 0x1BDE JUMPI DUP1 PUSH4 0x6CAD3FB0 EQ PUSH2 0x1B6F JUMPI DUP1 PUSH4 0x6E841B3C EQ PUSH2 0x198B JUMPI DUP1 PUSH4 0x715018A6 EQ PUSH2 0x1932 JUMPI DUP1 PUSH4 0x74C95081 EQ PUSH2 0x18EA JUMPI DUP1 PUSH4 0x7C6F73EB EQ PUSH2 0x1822 JUMPI DUP1 PUSH4 0x8456CB59 EQ PUSH2 0x17C8 JUMPI DUP1 PUSH4 0x859A5AEE EQ PUSH2 0x11D6 JUMPI DUP1 PUSH4 0x8D8AAF9C EQ PUSH2 0xFAE JUMPI DUP1 PUSH4 0x8DA5CB5B EQ PUSH2 0xF85 JUMPI DUP1 PUSH4 0x91D14854 EQ PUSH2 0xF38 JUMPI DUP1 PUSH4 0x99A5D747 EQ PUSH2 0xF0B JUMPI DUP1 PUSH4 0xA001ECDD EQ PUSH2 0xEED JUMPI DUP1 PUSH4 0xA217FDDF EQ PUSH2 0xED1 JUMPI DUP1 PUSH4 0xA41D2DCF EQ PUSH2 0x8BC JUMPI DUP1 PUSH4 0xAE6D7154 EQ PUSH2 0x7E6 JUMPI DUP1 PUSH4 0xBB10BC33 EQ PUSH2 0x6C0 JUMPI DUP1 PUSH4 0xC1D11037 EQ PUSH2 0x5CB JUMPI DUP1 PUSH4 0xC415B95C EQ PUSH2 0x5A2 JUMPI DUP1 PUSH4 0xD28682EA EQ PUSH2 0x565 JUMPI DUP1 PUSH4 0xD547741F EQ PUSH2 0x524 JUMPI DUP1 PUSH4 0xD73792A9 EQ PUSH2 0x507 JUMPI DUP1 PUSH4 0xD876E982 EQ PUSH2 0x4D9 JUMPI DUP1 PUSH4 0xE63AB1E9 EQ PUSH2 0x49E JUMPI DUP1 PUSH4 0xF2FDE38B EQ PUSH2 0x410 JUMPI DUP1 PUSH4 0xF5B541A6 EQ PUSH2 0x3D5 JUMPI DUP1 PUSH4 0xFA847836 EQ PUSH2 0x349 JUMPI PUSH4 0xFAC95A9E EQ PUSH2 0x1F8 JUMPI PUSH1 0x0 DUP1 REVERT JUMPDEST CALLVALUE PUSH2 0x344 JUMPI PUSH1 0x60 CALLDATASIZE PUSH1 0x3 NOT ADD SLT PUSH2 0x344 JUMPI PUSH2 0x211 PUSH2 0x2364 JUMP JUMPDEST PUSH1 0x24 CALLDATALOAD SWAP1 PUSH2 0x21D PUSH2 0x237A JUMP JUMPDEST SWAP1 PUSH2 0x226 PUSH2 0x25F9 JUMP JUMPDEST PUSH1 0x1 DUP1 PUSH1 0xA0 SHL SUB DUP1 SWAP2 AND SWAP2 DUP3 PUSH1 0x0 MSTORE PUSH1 0x4 PUSH1 0x20 MSTORE PUSH2 0x24E PUSH1 0xFF PUSH1 0x40 PUSH1 0x0 KECCAK256 SLOAD PUSH1 0xA8 SHR AND PUSH2 0x293C JUMP JUMPDEST PUSH2 0x259 DUP5 ISZERO ISZERO PUSH2 0x2C18 JUMP JUMPDEST DUP2 DUP2 AND SWAP4 DUP5 ISZERO PUSH2 0x30B JUMPI DUP4 PUSH1 0x0 MSTORE PUSH1 0x4 PUSH1 0x20 MSTORE PUSH1 0x40 PUSH1 0x0 KECCAK256 SWAP3 PUSH1 0x4 DUP5 ADD SWAP1 DUP3 DUP3 SLOAD LT PUSH2 0x2C6 JUMPI DUP3 PUSH1 0x20 SWAP5 PUSH2 0x2B0 SWAP3 PUSH32 0xFF6847F88ECF9C1C2AB5DCE1DF3E75AFD82057917DAB181DB5715F337EF07784 SWAP8 SLOAD AND PUSH2 0x2B71 JUMP JUMPDEST PUSH2 0x2BB DUP3 DUP3 SLOAD PUSH2 0x2B37 JUMP JUMPDEST SWAP1 SSTORE PUSH1 0x40 MLOAD SWAP1 DUP2 MSTORE LOG3 STOP JUMPDEST PUSH1 0x40 MLOAD PUSH3 0x461BCD PUSH1 0xE5 SHL DUP2 MSTORE PUSH1 0x20 PUSH1 0x4 DUP3 ADD MSTORE PUSH1 0x19 PUSH1 0x24 DUP3 ADD MSTORE PUSH32 0x496E73756666696369656E7420706F6F6C2062616C616E636500000000000000 PUSH1 0x44 DUP3 ADD MSTORE PUSH1 0x64 SWAP1 REVERT JUMPDEST PUSH1 0x40 MLOAD PUSH3 0x461BCD PUSH1 0xE5 SHL DUP2 MSTORE PUSH1 0x20 PUSH1 0x4 DUP3 ADD MSTORE PUSH1 0x11 PUSH1 0x24 DUP3 ADD MSTORE PUSH17 0x125B9D985B1A59081C9958DA5C1A595B9D PUSH1 0x7A SHL PUSH1 0x44 DUP3 ADD MSTORE PUSH1 0x64 SWAP1 REVERT JUMPDEST PUSH1 0x0 DUP1 REVERT JUMPDEST CALLVALUE PUSH2 0x344 JUMPI PUSH1 0x20 CALLDATASIZE PUSH1 0x3 NOT ADD SLT PUSH2 0x344 JUMPI PUSH2 0x100 PUSH1 0x1 PUSH1 0x1 PUSH1 0xA0 SHL SUB DUP1 PUSH2 0x36E PUSH2 0x2364 JUMP JUMPDEST AND PUSH1 0x0 MSTORE PUSH1 0x4 PUSH1 0x20 MSTORE PUSH1 0x40 PUSH1 0x0 KECCAK256 DUP1 SLOAD SWAP1 PUSH1 0x1 DUP2 ADD SLOAD PUSH1 0x2 DUP3 ADD SLOAD PUSH1 0x3 DUP4 ADD SLOAD SWAP2 PUSH1 0xFF PUSH1 0x5 PUSH1 0x4 DUP7 ADD SLOAD SWAP6 ADD SLOAD SWAP6 PUSH1 0x40 MLOAD SWAP8 DUP2 AND DUP9 MSTORE DUP2 DUP2 PUSH1 0xA0 SHR AND PUSH1 0x20 DUP10 ADD MSTORE PUSH1 0xA8 SHR AND ISZERO ISZERO PUSH1 0x40 DUP8 ADD MSTORE PUSH1 0x60 DUP7 ADD MSTORE PUSH1 0x80 DUP6 ADD MSTORE PUSH1 0xA0 DUP5 ADD MSTORE PUSH1 0xC0 DUP4 ADD MSTORE PUSH1 0xE0 DUP3 ADD MSTORE RETURN JUMPDEST CALLVALUE PUSH2 0x344 JUMPI PUSH1 0x0 CALLDATASIZE PUSH1 0x3 NOT ADD SLT PUSH2 0x344 JUMPI PUSH1 0x20 PUSH1 0x40 MLOAD PUSH32 0x97667070C54EF182B0F5858B034BEAC1B6F3089AA2D3188BB1E8929F4FA9B929 DUP2 MSTORE RETURN JUMPDEST CALLVALUE PUSH2 0x344 JUMPI PUSH1 0x20 CALLDATASIZE PUSH1 0x3 NOT ADD SLT PUSH2 0x344 JUMPI PUSH2 0x429 PUSH2 0x2364 JUMP JUMPDEST PUSH2 0x431 PUSH2 0x2808 JUMP JUMPDEST PUSH1 0x1 PUSH1 0x1 PUSH1 0xA0 SHL SUB SWAP1 DUP2 AND SWAP1 DUP2 ISZERO PUSH2 0x485 JUMPI PUSH1 0x0 SLOAD DUP3 PUSH12 0xFFFFFFFFFFFFFFFFFFFFFFFF PUSH1 0xA0 SHL DUP3 AND OR PUSH1 0x0 SSTORE AND PUSH32 0x8BE0079C531659141344CD1FD0A4F28419497F9722A3DAAFE3B4186F6B6457E0 PUSH1 0x0 DUP1 LOG3 STOP JUMPDEST PUSH1 0x40 MLOAD PUSH4 0x1E4FBDF7 PUSH1 0xE0 SHL DUP2 MSTORE PUSH1 0x0 PUSH1 0x4 DUP3 ADD MSTORE PUSH1 0x24 SWAP1 REVERT JUMPDEST CALLVALUE PUSH2 0x344 JUMPI PUSH1 0x0 CALLDATASIZE PUSH1 0x3 NOT ADD SLT PUSH2 0x344 JUMPI PUSH1 0x20 PUSH1 0x40 MLOAD PUSH32 0x65D7A28E3265B37A6474929F336521B332C1681B933F6CB9F3376673440D862A DUP2 MSTORE RETURN JUMPDEST CALLVALUE PUSH2 0x344 JUMPI PUSH1 0x40 CALLDATASIZE PUSH1 0x3 NOT ADD SLT PUSH2 0x344 JUMPI PUSH1 0x20 PUSH2 0x4FF PUSH2 0x4F7 PUSH2 0x234E JUMP JUMPDEST PUSH1 0x4 CALLDATALOAD PUSH2 0x2CE0 JUMP JUMPDEST PUSH1 0x40 MLOAD SWAP1 DUP2 MSTORE RETURN JUMPDEST CALLVALUE PUSH2 0x344 JUMPI PUSH1 0x0 CALLDATASIZE PUSH1 0x3 NOT ADD SLT PUSH2 0x344 JUMPI PUSH1 0x20 PUSH1 0x40 MLOAD PUSH2 0x2710 DUP2 MSTORE RETURN JUMPDEST CALLVALUE PUSH2 0x344 JUMPI PUSH1 0x40 CALLDATASIZE PUSH1 0x3 NOT ADD SLT PUSH2 0x344 JUMPI PUSH2 0x563 PUSH1 0x4 CALLDATALOAD PUSH2 0x543 PUSH2 0x234E JUMP JUMPDEST SWAP1 DUP1 PUSH1 0x0 MSTORE PUSH1 0x3 PUSH1 0x20 MSTORE PUSH2 0x55E PUSH1 0x1 PUSH1 0x40 PUSH1 0x0 KECCAK256 ADD SLOAD PUSH2 0x26EB JUMP JUMPDEST PUSH2 0x2791 JUMP JUMPDEST STOP JUMPDEST CALLVALUE PUSH2 0x344 JUMPI PUSH1 0x20 CALLDATASIZE PUSH1 0x3 NOT ADD SLT PUSH2 0x344 JUMPI PUSH1 0x1 PUSH1 0x1 PUSH1 0xA0 SHL SUB PUSH2 0x586 PUSH2 0x2364 JUMP JUMPDEST AND PUSH1 0x0 MSTORE PUSH1 0x4 PUSH1 0x20 MSTORE PUSH1 0x20 PUSH1 0x4 PUSH1 0x40 PUSH1 0x0 KECCAK256 ADD SLOAD PUSH1 0x40 MLOAD SWAP1 DUP2 MSTORE RETURN JUMPDEST CALLVALUE PUSH2 0x344 JUMPI PUSH1 0x0 CALLDATASIZE PUSH1 0x3 NOT ADD SLT PUSH2 0x344 JUMPI PUSH1 0xB SLOAD PUSH1 0x40 MLOAD PUSH1 0x1 PUSH1 0x1 PUSH1 0xA0 SHL SUB SWAP1 SWAP2 AND DUP2 MSTORE PUSH1 0x20 SWAP1 RETURN JUMPDEST CALLVALUE PUSH2 0x344 JUMPI PUSH1 0x40 CALLDATASIZE PUSH1 0x3 NOT ADD SLT PUSH2 0x344 JUMPI PUSH2 0x5E4 PUSH2 0x2364 JUMP JUMPDEST PUSH2 0x5EC PUSH2 0x234E JUMP JUMPDEST SWAP1 PUSH2 0x5F5 PUSH2 0x26B1 JUMP JUMPDEST PUSH1 0x1 PUSH1 0x1 PUSH1 0xA0 SHL SUB SWAP1 DUP2 AND SWAP2 DUP3 ISZERO PUSH2 0x67B JUMPI AND SWAP1 DUP2 ISZERO PUSH2 0x636 JUMPI PUSH12 0xFFFFFFFFFFFFFFFFFFFFFFFF PUSH1 0xA0 SHL SWAP1 DUP2 PUSH1 0xA SLOAD AND OR PUSH1 0xA SSTORE PUSH1 0xB SLOAD AND OR PUSH1 0xB SSTORE PUSH1 0x0 DUP1 RETURN JUMPDEST PUSH1 0x40 MLOAD PUSH3 0x461BCD PUSH1 0xE5 SHL DUP2 MSTORE PUSH1 0x20 PUSH1 0x4 DUP3 ADD MSTORE PUSH1 0x1D PUSH1 0x24 DUP3 ADD MSTORE PUSH32 0x496E76616C69642066656520636F6C6C6563746F722061646472657373000000 PUSH1 0x44 DUP3 ADD MSTORE PUSH1 0x64 SWAP1 REVERT JUMPDEST PUSH1 0x40 MLOAD PUSH3 0x461BCD PUSH1 0xE5 SHL DUP2 MSTORE PUSH1 0x20 PUSH1 0x4 DUP3 ADD MSTORE PUSH1 0x18 PUSH1 0x24 DUP3 ADD MSTORE PUSH32 0x496E76616C696420747265617375727920616464726573730000000000000000 PUSH1 0x44 DUP3 ADD MSTORE PUSH1 0x64 SWAP1 REVERT JUMPDEST CALLVALUE PUSH2 0x344 JUMPI PUSH1 0x20 CALLDATASIZE PUSH1 0x3 NOT ADD SLT PUSH2 0x344 JUMPI PUSH1 0x4 CALLDATALOAD PUSH1 0x1 PUSH1 0x1 PUSH1 0x40 SHL SUB DUP2 GT PUSH2 0x344 JUMPI CALLDATASIZE PUSH1 0x23 DUP3 ADD SLT ISZERO PUSH2 0x344 JUMPI PUSH2 0x79F PUSH2 0x7E2 PUSH2 0x720 PUSH1 0x20 PUSH2 0x70D DUP2 SWAP6 CALLDATASIZE SWAP1 PUSH1 0x24 DUP2 PUSH1 0x4 ADD CALLDATALOAD SWAP2 ADD PUSH2 0x24D3 JUMP JUMPDEST DUP2 PUSH1 0x40 MLOAD SWAP4 DUP3 DUP6 DUP1 SWAP5 MLOAD SWAP4 DUP5 SWAP3 ADD PUSH2 0x240A JUMP JUMPDEST DUP2 ADD PUSH1 0x5 DUP2 MSTORE SUB ADD SWAP1 KECCAK256 PUSH2 0x7D3 PUSH2 0x736 DUP3 PUSH2 0x2553 JUMP JUMPDEST PUSH1 0x1 DUP1 PUSH1 0xA0 SHL SUB SWAP3 PUSH2 0x7C5 DUP5 PUSH1 0x1 DUP4 ADD SLOAD AND SWAP5 PUSH1 0x2 DUP4 ADD SLOAD SWAP1 PUSH1 0x3 DUP5 ADD SLOAD AND PUSH1 0x4 DUP5 ADD SLOAD PUSH1 0x5 DUP6 ADD SLOAD SWAP1 PUSH1 0x6 DUP7 ADD SLOAD SWAP3 PUSH1 0xFF PUSH1 0x7 DUP9 ADD SLOAD AND SWAP5 PUSH2 0x787 PUSH1 0x9 PUSH2 0x780 PUSH1 0x8 DUP12 ADD PUSH2 0x2553 JUMP JUMPDEST SWAP10 ADD PUSH2 0x2553 JUMP JUMPDEST SWAP11 PUSH1 0x40 MLOAD SWAP15 DUP16 SWAP15 DUP16 SWAP12 DUP13 PUSH2 0x140 DUP1 SWAP2 MSTORE DUP14 ADD SWAP1 PUSH2 0x242D JUMP JUMPDEST SWAP11 ADD MSTORE PUSH1 0x40 DUP14 ADD MSTORE PUSH1 0x60 DUP13 ADD MSTORE PUSH1 0x80 DUP12 ADD MSTORE PUSH1 0xA0 DUP11 ADD MSTORE PUSH1 0xC0 DUP10 ADD MSTORE PUSH1 0xE0 DUP9 ADD SWAP1 PUSH2 0x2452 JUMP JUMPDEST DUP6 DUP3 SUB PUSH2 0x100 DUP8 ADD MSTORE PUSH2 0x242D JUMP JUMPDEST SWAP1 DUP4 DUP3 SUB PUSH2 0x120 DUP6 ADD MSTORE PUSH2 0x242D JUMP JUMPDEST SUB SWAP1 RETURN JUMPDEST CALLVALUE PUSH2 0x344 JUMPI PUSH1 0xA0 CALLDATASIZE PUSH1 0x3 NOT ADD SLT PUSH2 0x344 JUMPI PUSH2 0x7FF PUSH2 0x2364 JUMP JUMPDEST PUSH32 0x7B85FEC0D325FAAA2A277CEF90302BBF159ED376FDC469C6AEC904635A48C818 PUSH1 0x80 PUSH1 0x24 CALLDATALOAD PUSH1 0x44 CALLDATALOAD SWAP4 PUSH1 0x64 CALLDATALOAD PUSH1 0x84 CALLDATALOAD SWAP2 PUSH2 0x838 PUSH2 0x26B1 JUMP JUMPDEST PUSH1 0x1 DUP1 PUSH1 0xA0 SHL SUB AND SWAP6 DUP7 PUSH1 0x0 MSTORE PUSH1 0x4 PUSH1 0x20 MSTORE PUSH2 0x85E PUSH1 0xFF PUSH1 0x40 PUSH1 0x0 KECCAK256 SLOAD PUSH1 0xA8 SHR AND PUSH2 0x293C JUMP JUMPDEST PUSH2 0x869 DUP5 DUP3 GT PUSH2 0x2834 JUMP JUMPDEST PUSH2 0x874 DUP2 DUP4 GT PUSH2 0x288C JUMP JUMPDEST PUSH2 0x87F DUP4 ISZERO ISZERO PUSH2 0x28E4 JUMP JUMPDEST DUP7 PUSH1 0x0 MSTORE PUSH1 0x4 PUSH1 0x20 MSTORE DUP3 PUSH1 0x5 PUSH1 0x40 PUSH1 0x0 KECCAK256 DUP7 PUSH1 0x1 DUP3 ADD SSTORE DUP4 PUSH1 0x2 DUP3 ADD SSTORE DUP5 PUSH1 0x3 DUP3 ADD SSTORE ADD SSTORE PUSH1 0x40 MLOAD SWAP4 DUP5 MSTORE PUSH1 0x20 DUP5 ADD MSTORE PUSH1 0x40 DUP4 ADD MSTORE PUSH1 0x60 DUP3 ADD MSTORE LOG2 STOP JUMPDEST CALLVALUE PUSH2 0x344 JUMPI PUSH1 0x60 CALLDATASIZE PUSH1 0x3 NOT ADD SLT PUSH2 0x344 JUMPI PUSH1 0x4 CALLDATALOAD PUSH1 0x1 PUSH1 0x1 PUSH1 0x40 SHL SUB DUP2 GT PUSH2 0x344 JUMPI PUSH2 0x8EC SWAP1 CALLDATASIZE SWAP1 PUSH1 0x4 ADD PUSH2 0x2390 JUMP JUMPDEST SWAP1 PUSH1 0x24 CALLDATALOAD PUSH1 0x1 PUSH1 0x1 PUSH1 0x40 SHL SUB DUP2 GT PUSH2 0x344 JUMPI PUSH2 0x90C SWAP1 CALLDATASIZE SWAP1 PUSH1 0x4 ADD PUSH2 0x2390 JUMP JUMPDEST SWAP3 SWAP1 PUSH1 0x44 CALLDATALOAD PUSH1 0x1 PUSH1 0x1 PUSH1 0x40 SHL SUB DUP2 GT PUSH2 0x344 JUMPI PUSH2 0x92D SWAP1 CALLDATASIZE SWAP1 PUSH1 0x4 ADD PUSH2 0x2390 JUMP JUMPDEST CALLER PUSH1 0x0 SWAP1 DUP2 MSTORE PUSH32 0xF89466C3AA8F23377C6AACE9F611FCEE97B80CBFCA673B5D358DB167957BD960 PUSH1 0x20 MSTORE PUSH1 0x40 SWAP1 KECCAK256 SLOAD SWAP2 SWAP3 SWAP2 PUSH32 0x68E79A7BF1E0BC45D0A330C573BC367F9CF464FD326078812F301165FBDA4EF1 SWAP1 PUSH1 0xFF AND ISZERO PUSH2 0xEB3 JUMPI POP PUSH2 0x992 PUSH2 0x2AF3 JUMP JUMPDEST PUSH1 0x40 MLOAD DUP5 DUP7 DUP3 CALLDATACOPY PUSH1 0x20 DUP2 DUP7 DUP2 ADD PUSH1 0x5 DUP2 MSTORE SUB ADD SWAP1 KECCAK256 SWAP3 PUSH1 0x1 DUP1 PUSH1 0xA0 SHL SUB PUSH1 0x1 DUP6 ADD SLOAD AND ISZERO PUSH2 0xE76 JUMPI PUSH1 0x7 DUP5 ADD SLOAD PUSH1 0xFF DUP2 AND PUSH1 0x5 DUP2 LT ISZERO PUSH2 0xCEC JUMPI PUSH2 0xE31 JUMPI PUSH1 0xFF NOT AND PUSH1 0x1 OR PUSH1 0x7 DUP6 ADD SSTORE PUSH1 0x1 PUSH1 0x1 PUSH1 0x40 SHL SUB DUP8 GT PUSH2 0xDA2 JUMPI PUSH2 0xA04 DUP8 PUSH2 0x9FB PUSH1 0x9 DUP8 ADD SLOAD PUSH2 0x2519 JUMP JUMPDEST PUSH1 0x9 DUP8 ADD PUSH2 0x2A5C JUMP JUMPDEST DUP7 PUSH1 0x0 PUSH1 0x1F DUP3 GT PUSH1 0x1 EQ PUSH2 0xDC3 JUMPI PUSH1 0x0 SWAP2 PUSH2 0xDB8 JUMPI JUMPDEST POP DUP8 PUSH1 0x1 SHL SWAP1 PUSH1 0x0 NOT DUP10 PUSH1 0x3 SHL SHR NOT AND OR PUSH1 0x9 DUP6 ADD SSTORE JUMPDEST PUSH1 0x1 PUSH1 0x1 PUSH1 0x40 SHL SUB DUP3 GT PUSH2 0xDA2 JUMPI PUSH2 0xA59 DUP3 PUSH2 0xA50 PUSH1 0x8 DUP8 ADD SLOAD PUSH2 0x2519 JUMP JUMPDEST PUSH1 0x8 DUP8 ADD PUSH2 0x2A5C JUMP JUMPDEST PUSH1 0x0 SWAP1 PUSH1 0x1F DUP4 GT PUSH1 0x1 EQ PUSH2 0xD0D JUMPI SWAP2 DUP1 PUSH2 0xAFB SWAP9 SWAP3 PUSH32 0x5514EF95C64D5DCA6A23FF02071062C0465DFE587332297E08661FA4A6165406 SWAP5 PUSH1 0x0 SWAP3 PUSH2 0xD02 JUMPI JUMPDEST POP POP DUP2 PUSH1 0x1 SHL SWAP2 PUSH1 0x0 NOT SWAP1 PUSH1 0x3 SHL SHR NOT AND OR PUSH1 0x8 DUP6 ADD SSTORE JUMPDEST PUSH1 0x2 PUSH1 0x1 DUP1 PUSH1 0xA0 SHL SUB PUSH1 0x1 DUP7 ADD SLOAD AND SWAP5 ADD SLOAD PUSH2 0xAF1 PUSH1 0x40 MLOAD DUP8 DUP10 DUP3 CALLDATACOPY DUP1 DUP9 DUP2 ADD PUSH1 0x0 DUP2 MSTORE SUB SWAP1 KECCAK256 SWAP5 PUSH1 0x40 MLOAD SWAP4 DUP5 SWAP4 DUP5 MSTORE PUSH1 0x40 PUSH1 0x20 DUP6 ADD MSTORE PUSH1 0x40 DUP5 ADD SWAP2 PUSH2 0x2B16 JUMP JUMPDEST SUB SWAP1 LOG3 CALLDATASIZE SWAP2 PUSH2 0x24D3 JUMP JUMPDEST PUSH1 0x40 MLOAD PUSH1 0x20 DUP2 DUP4 MLOAD PUSH2 0xB10 DUP2 DUP4 DUP6 DUP9 ADD PUSH2 0x240A JUMP JUMPDEST DUP2 ADD PUSH1 0x5 DUP2 MSTORE SUB ADD SWAP1 KECCAK256 PUSH1 0xFF PUSH1 0x7 DUP3 ADD SLOAD AND PUSH1 0x5 DUP2 LT ISZERO PUSH2 0xCEC JUMPI PUSH1 0x1 SUB PUSH2 0xCB3 JUMPI PUSH1 0x1 DUP1 PUSH1 0xA0 SHL SUB PUSH1 0x3 DUP3 ADD SLOAD AND PUSH1 0x0 MSTORE PUSH1 0x4 PUSH1 0x20 MSTORE PUSH1 0x40 PUSH1 0x0 KECCAK256 PUSH32 0x4EDA2D264E1D631F2DC69D156DDD1CB743D5FC8EF4942D54A794CF41D6E09815 PUSH1 0x40 PUSH1 0x5 DUP5 ADD SLOAD SWAP3 PUSH1 0x4 DUP6 ADD SLOAD SWAP1 PUSH2 0xB8B DUP3 PUSH1 0x4 DUP4 ADD SLOAD LT ISZERO PUSH2 0x2A10 JUMP JUMPDEST DUP1 SLOAD PUSH1 0x1 DUP8 ADD SLOAD PUSH2 0xBAA SWAP2 DUP5 SWAP2 PUSH1 0x1 PUSH1 0x1 PUSH1 0xA0 SHL SUB SWAP1 DUP2 AND SWAP2 AND PUSH2 0x2B71 JUMP JUMPDEST PUSH2 0xBB8 DUP3 PUSH1 0x4 DUP4 ADD SLOAD PUSH2 0x2B37 JUMP JUMPDEST DUP1 PUSH1 0x4 DUP4 ADD SSTORE DUP6 PUSH2 0xC5B JUMPI JUMPDEST POP POP PUSH1 0x2 DUP6 ADD SLOAD PUSH1 0x1 DUP1 PUSH1 0xA0 SHL SUB PUSH1 0x1 DUP8 ADD SLOAD AND PUSH1 0x0 MSTORE PUSH1 0x6 PUSH1 0x20 MSTORE DUP3 PUSH1 0x0 KECCAK256 PUSH3 0x15180 TIMESTAMP DIV PUSH1 0x0 MSTORE PUSH1 0x20 MSTORE PUSH2 0xBFF DUP4 PUSH1 0x0 KECCAK256 SWAP2 DUP3 SLOAD PUSH2 0x2B64 JUMP JUMPDEST SWAP1 SSTORE PUSH1 0x7 DUP6 ADD DUP1 SLOAD PUSH1 0xFF NOT AND PUSH1 0x2 OR SWAP1 SSTORE PUSH1 0x1 DUP6 ADD SLOAD PUSH1 0x3 SWAP1 SWAP6 ADD SLOAD DUP3 MLOAD DUP8 MLOAD PUSH1 0x1 PUSH1 0x1 PUSH1 0xA0 SHL SUB SWAP3 DUP4 AND SWAP9 SWAP8 SWAP1 SWAP3 AND SWAP7 SWAP1 SWAP2 DUP3 SWAP2 PUSH2 0xC44 SWAP1 DUP3 SWAP1 DUP5 SWAP1 PUSH1 0x20 ADD PUSH2 0x240A JUMP JUMPDEST DUP2 ADD SUB SWAP1 KECCAK256 SWAP4 DUP3 MLOAD SWAP2 DUP3 MSTORE PUSH1 0x20 DUP3 ADD MSTORE LOG4 PUSH1 0x1 DUP1 SSTORE STOP JUMPDEST PUSH1 0x3 DUP8 ADD SLOAD PUSH2 0xC73 SWAP1 PUSH1 0x1 PUSH1 0x1 PUSH1 0xA0 SHL SUB AND DUP8 PUSH2 0x2CE0 JUMP JUMPDEST DUP1 SWAP2 LT PUSH2 0xBC4 JUMPI DUP2 SLOAD PUSH1 0xB SLOAD PUSH1 0x4 SWAP3 PUSH2 0xCA9 SWAP3 SWAP1 SWAP2 PUSH2 0xCA0 SWAP2 DUP4 SWAP2 PUSH1 0x1 PUSH1 0x1 PUSH1 0xA0 SHL SUB SWAP1 DUP2 AND SWAP2 AND PUSH2 0x2B71 JUMP JUMPDEST DUP3 DUP5 ADD SLOAD PUSH2 0x2B37 JUMP JUMPDEST SWAP2 ADD SSTORE DUP7 DUP1 PUSH2 0xBC4 JUMP JUMPDEST PUSH1 0x40 MLOAD PUSH3 0x461BCD PUSH1 0xE5 SHL DUP2 MSTORE PUSH1 0x20 PUSH1 0x4 DUP3 ADD MSTORE PUSH1 0x11 PUSH1 0x24 DUP3 ADD MSTORE PUSH17 0x141256081B9BDD0818DBDB999A5C9B5959 PUSH1 0x7A SHL PUSH1 0x44 DUP3 ADD MSTORE PUSH1 0x64 SWAP1 REVERT JUMPDEST PUSH4 0x4E487B71 PUSH1 0xE0 SHL PUSH1 0x0 MSTORE PUSH1 0x21 PUSH1 0x4 MSTORE PUSH1 0x24 PUSH1 0x0 REVERT JUMPDEST ADD CALLDATALOAD SWAP1 POP DUP10 DUP1 PUSH2 0xA98 JUMP JUMPDEST PUSH1 0x8 DUP6 ADD PUSH1 0x0 MSTORE PUSH1 0x20 PUSH1 0x0 KECCAK256 SWAP2 PUSH1 0x0 JUMPDEST PUSH1 0x1F NOT DUP6 AND DUP2 LT PUSH2 0xD8A JUMPI POP SWAP3 PUSH2 0xAFB SWAP9 SWAP3 PUSH1 0x1 SWAP3 PUSH32 0x5514EF95C64D5DCA6A23FF02071062C0465DFE587332297E08661FA4A6165406 SWAP6 DUP4 PUSH1 0x1F NOT DUP2 AND LT PUSH2 0xD70 JUMPI JUMPDEST POP POP POP DUP2 SHL ADD PUSH1 0x8 DUP6 ADD SSTORE PUSH2 0xAB0 JUMP JUMPDEST ADD CALLDATALOAD PUSH1 0x0 NOT PUSH1 0x3 DUP5 SWAP1 SHL PUSH1 0xF8 AND SHR NOT AND SWAP1 SSTORE DUP10 DUP1 DUP1 PUSH2 0xD60 JUMP JUMPDEST SWAP1 SWAP3 PUSH1 0x20 PUSH1 0x1 DUP2 SWAP3 DUP7 DUP7 ADD CALLDATALOAD DUP2 SSTORE ADD SWAP5 ADD SWAP2 ADD PUSH2 0xD1D JUMP JUMPDEST PUSH4 0x4E487B71 PUSH1 0xE0 SHL PUSH1 0x0 MSTORE PUSH1 0x41 PUSH1 0x4 MSTORE PUSH1 0x24 PUSH1 0x0 REVERT JUMPDEST SWAP1 POP DUP4 ADD CALLDATALOAD DUP9 PUSH2 0xA1A JUMP JUMPDEST SWAP1 POP PUSH1 0x9 DUP6 ADD PUSH1 0x0 MSTORE PUSH1 0x20 PUSH1 0x0 KECCAK256 SWAP1 PUSH1 0x0 JUMPDEST PUSH1 0x1F NOT DUP11 AND DUP2 LT PUSH2 0xE19 JUMPI POP DUP9 PUSH1 0x1F NOT DUP2 AND LT PUSH2 0xDFF JUMPI JUMPDEST POP POP PUSH1 0x1 DUP8 DUP2 SHL ADD PUSH1 0x9 DUP6 ADD SSTORE PUSH2 0xA31 JUMP JUMPDEST DUP5 ADD CALLDATALOAD PUSH1 0x0 NOT PUSH1 0x3 DUP11 SWAP1 SHL PUSH1 0xF8 AND SHR NOT AND SWAP1 SSTORE DUP8 DUP1 PUSH2 0xDED JUMP JUMPDEST SWAP1 SWAP2 PUSH1 0x20 PUSH1 0x1 DUP2 SWAP3 DUP6 DUP10 ADD CALLDATALOAD DUP2 SSTORE ADD SWAP4 ADD SWAP2 ADD PUSH2 0xDD5 JUMP JUMPDEST PUSH1 0x40 MLOAD PUSH3 0x461BCD PUSH1 0xE5 SHL DUP2 MSTORE PUSH1 0x20 PUSH1 0x4 DUP3 ADD MSTORE PUSH1 0x1D PUSH1 0x24 DUP3 ADD MSTORE PUSH32 0x5472616E73616374696F6E20616C72656164792070726F636573736564000000 PUSH1 0x44 DUP3 ADD MSTORE PUSH1 0x64 SWAP1 REVERT JUMPDEST PUSH1 0x40 MLOAD PUSH3 0x461BCD PUSH1 0xE5 SHL DUP2 MSTORE PUSH1 0x20 PUSH1 0x4 DUP3 ADD MSTORE PUSH1 0x15 PUSH1 0x24 DUP3 ADD MSTORE PUSH21 0x151C985B9CD858DD1A5BDB881B9BDD08199BDD5B99 PUSH1 0x5A SHL PUSH1 0x44 DUP3 ADD MSTORE PUSH1 0x64 SWAP1 REVERT JUMPDEST PUSH1 0x44 SWAP1 PUSH1 0x40 MLOAD SWAP1 PUSH4 0xE2517D3F PUSH1 0xE0 SHL DUP3 MSTORE CALLER PUSH1 0x4 DUP4 ADD MSTORE PUSH1 0x24 DUP3 ADD MSTORE REVERT JUMPDEST CALLVALUE PUSH2 0x344 JUMPI PUSH1 0x0 CALLDATASIZE PUSH1 0x3 NOT ADD SLT PUSH2 0x344 JUMPI PUSH1 0x20 PUSH1 0x40 MLOAD PUSH1 0x0 DUP2 MSTORE RETURN JUMPDEST CALLVALUE PUSH2 0x344 JUMPI PUSH1 0x0 CALLDATASIZE PUSH1 0x3 NOT ADD SLT PUSH2 0x344 JUMPI PUSH1 0x20 PUSH1 0x9 SLOAD PUSH1 0x40 MLOAD SWAP1 DUP2 MSTORE RETURN JUMPDEST CALLVALUE PUSH2 0x344 JUMPI PUSH1 0x20 CALLDATASIZE PUSH1 0x3 NOT ADD SLT PUSH2 0x344 JUMPI PUSH1 0x20 PUSH2 0x2710 PUSH2 0xF2F PUSH1 0x9 SLOAD PUSH1 0x4 CALLDATALOAD PUSH2 0x2CBC JUMP JUMPDEST DIV PUSH1 0x40 MLOAD SWAP1 DUP2 MSTORE RETURN JUMPDEST CALLVALUE PUSH2 0x344 JUMPI PUSH1 0x40 CALLDATASIZE PUSH1 0x3 NOT ADD SLT PUSH2 0x344 JUMPI PUSH2 0xF51 PUSH2 0x234E JUMP JUMPDEST PUSH1 0x4 CALLDATALOAD PUSH1 0x0 MSTORE PUSH1 0x3 PUSH1 0x20 MSTORE PUSH1 0x40 PUSH1 0x0 KECCAK256 SWAP1 PUSH1 0x1 DUP1 PUSH1 0xA0 SHL SUB AND PUSH1 0x0 MSTORE PUSH1 0x20 MSTORE PUSH1 0x20 PUSH1 0xFF PUSH1 0x40 PUSH1 0x0 KECCAK256 SLOAD AND PUSH1 0x40 MLOAD SWAP1 ISZERO ISZERO DUP2 MSTORE RETURN JUMPDEST CALLVALUE PUSH2 0x344 JUMPI PUSH1 0x0 CALLDATASIZE PUSH1 0x3 NOT ADD SLT PUSH2 0x344 JUMPI PUSH1 0x0 SLOAD PUSH1 0x40 MLOAD PUSH1 0x1 PUSH1 0x1 PUSH1 0xA0 SHL SUB SWAP1 SWAP2 AND DUP2 MSTORE PUSH1 0x20 SWAP1 RETURN JUMPDEST CALLVALUE PUSH2 0x344 JUMPI PUSH1 0xC0 CALLDATASIZE PUSH1 0x3 NOT ADD SLT PUSH2 0x344 JUMPI PUSH2 0xFC7 PUSH2 0x2364 JUMP JUMPDEST PUSH1 0x24 CALLDATALOAD SWAP1 PUSH1 0xFF DUP3 AND DUP1 SWAP3 SUB PUSH2 0x344 JUMPI PUSH1 0x44 CALLDATALOAD PUSH1 0x64 CALLDATALOAD SWAP3 PUSH1 0x84 CALLDATALOAD PUSH1 0xA4 CALLDATALOAD SWAP5 PUSH2 0xFEC PUSH2 0x26B1 JUMP JUMPDEST PUSH1 0x1 PUSH1 0x1 PUSH1 0xA0 SHL SUB SWAP5 DUP6 AND SWAP6 DUP7 ISZERO PUSH2 0x1199 JUMPI PUSH2 0x1009 DUP6 DUP4 GT PUSH2 0x2834 JUMP JUMPDEST PUSH2 0x1014 DUP3 DUP5 GT PUSH2 0x288C JUMP JUMPDEST PUSH2 0x101F DUP2 ISZERO ISZERO PUSH2 0x28E4 JUMP JUMPDEST DUP7 PUSH1 0x0 MSTORE PUSH1 0x4 PUSH1 0x20 MSTORE PUSH1 0xFF PUSH1 0x40 PUSH1 0x0 KECCAK256 SLOAD PUSH1 0xA8 SHR AND PUSH2 0x1154 JUMPI PUSH1 0x5 PUSH1 0x40 MLOAD SWAP2 PUSH2 0x1047 DUP4 PUSH2 0x245F JUMP JUMPDEST DUP9 DUP4 MSTORE DUP9 PUSH1 0x20 DUP5 ADD DUP8 DUP2 MSTORE PUSH1 0x40 DUP6 ADD SWAP1 PUSH1 0x1 DUP3 MSTORE PUSH1 0x60 DUP7 ADD DUP11 DUP2 MSTORE PUSH1 0x80 DUP8 ADD SWAP2 DUP9 DUP4 MSTORE PUSH1 0xA0 DUP9 ADD SWAP4 DUP11 DUP6 MSTORE PUSH1 0xC0 DUP10 ADD SWAP6 PUSH1 0x0 DUP8 MSTORE PUSH1 0xE0 DUP11 ADD SWAP8 DUP9 MSTORE PUSH1 0x0 MSTORE PUSH1 0x4 PUSH1 0x20 MSTORE DUP14 PUSH1 0x40 PUSH1 0x0 KECCAK256 SWAP10 MLOAD AND DUP10 SLOAD SWAP3 PUSH1 0xFF PUSH1 0xA0 SHL SWAP1 MLOAD PUSH1 0xA0 SHL AND SWAP2 PUSH1 0xFF PUSH1 0xA8 SHL SWAP1 MLOAD ISZERO ISZERO PUSH1 0xA8 SHL AND SWAP3 PUSH10 0xFFFFFFFFFFFFFFFFFFFF PUSH1 0xB0 SHL AND OR OR OR DUP8 SSTORE MLOAD PUSH1 0x1 DUP8 ADD SSTORE MLOAD PUSH1 0x2 DUP7 ADD SSTORE MLOAD PUSH1 0x3 DUP6 ADD SSTORE MLOAD PUSH1 0x4 DUP5 ADD SSTORE MLOAD SWAP2 ADD SSTORE PUSH1 0x8 SLOAD SWAP4 PUSH9 0x10000000000000000 DUP6 LT ISZERO PUSH2 0xDA2 JUMPI PUSH32 0x44815923EBF215741A602CF13538482DB870148F418FED79E98195EC9B41D20A SWAP6 PUSH2 0x1129 DUP7 PUSH1 0x1 PUSH1 0x80 SWAP9 ADD PUSH1 0x8 SSTORE PUSH2 0x23BD JUMP JUMPDEST DUP2 SWAP3 SWAP2 SLOAD SWAP1 PUSH1 0x3 SHL SWAP2 DUP11 DUP4 SHL SWAP3 SHL NOT AND OR SWAP1 SSTORE PUSH1 0x40 MLOAD SWAP4 DUP5 MSTORE PUSH1 0x20 DUP5 ADD MSTORE PUSH1 0x40 DUP4 ADD MSTORE PUSH1 0x60 DUP3 ADD MSTORE LOG2 STOP JUMPDEST PUSH1 0x40 MLOAD PUSH3 0x461BCD PUSH1 0xE5 SHL DUP2 MSTORE PUSH1 0x20 PUSH1 0x4 DUP3 ADD MSTORE PUSH1 0x19 PUSH1 0x24 DUP3 ADD MSTORE PUSH32 0x537461626C65636F696E20616C72656164792065786973747300000000000000 PUSH1 0x44 DUP3 ADD MSTORE PUSH1 0x64 SWAP1 REVERT JUMPDEST PUSH1 0x40 MLOAD PUSH3 0x461BCD PUSH1 0xE5 SHL DUP2 MSTORE PUSH1 0x20 PUSH1 0x4 DUP3 ADD MSTORE PUSH1 0x15 PUSH1 0x24 DUP3 ADD MSTORE PUSH21 0x496E76616C696420746F6B656E2061646472657373 PUSH1 0x58 SHL PUSH1 0x44 DUP3 ADD MSTORE PUSH1 0x64 SWAP1 REVERT JUMPDEST CALLVALUE PUSH2 0x344 JUMPI PUSH1 0x60 CALLDATASIZE PUSH1 0x3 NOT ADD SLT PUSH2 0x344 JUMPI PUSH1 0x4 CALLDATALOAD PUSH1 0x1 PUSH1 0x1 PUSH1 0x40 SHL SUB DUP2 GT PUSH2 0x344 JUMPI PUSH2 0x1206 SWAP1 CALLDATASIZE SWAP1 PUSH1 0x4 ADD PUSH2 0x2390 JUMP JUMPDEST PUSH2 0x120E PUSH2 0x237A JUMP JUMPDEST PUSH2 0x1216 PUSH2 0x2AF3 JUMP JUMPDEST PUSH2 0x121E PUSH2 0x2AD5 JUMP JUMPDEST DUP2 ISZERO PUSH2 0x178A JUMPI PUSH1 0x24 CALLDATALOAD ISZERO PUSH2 0x173B JUMPI PUSH1 0x1 PUSH1 0x1 PUSH1 0xA0 SHL SUB DUP2 AND PUSH1 0x0 SWAP1 DUP2 MSTORE PUSH1 0x4 PUSH1 0x20 MSTORE PUSH1 0x40 SWAP1 KECCAK256 SLOAD PUSH2 0x1254 SWAP1 PUSH1 0xA8 SHR PUSH1 0xFF AND PUSH2 0x293C JUMP JUMPDEST PUSH1 0x40 MLOAD DUP3 DUP5 DUP3 CALLDATACOPY PUSH1 0x5 DUP2 DUP5 ADD SWAP1 DUP2 MSTORE DUP2 SWAP1 SUB PUSH1 0x20 ADD SWAP1 KECCAK256 PUSH1 0x1 ADD SLOAD PUSH1 0x1 PUSH1 0x1 PUSH1 0xA0 SHL SUB AND PUSH2 0x16FE JUMPI PUSH1 0x4 SWAP2 PUSH1 0x1 DUP1 PUSH1 0xA0 SHL SUB DUP3 AND PUSH1 0x0 MSTORE DUP3 PUSH1 0x20 MSTORE PUSH2 0x12DF PUSH1 0x40 PUSH1 0x0 KECCAK256 PUSH2 0x12A9 PUSH1 0x1 DUP3 ADD SLOAD PUSH1 0x24 CALLDATALOAD LT ISZERO PUSH2 0x2988 JUMP JUMPDEST PUSH2 0x12BB PUSH1 0x2 DUP3 ADD SLOAD PUSH1 0x24 CALLDATALOAD GT ISZERO PUSH2 0x29CB JUMP JUMPDEST PUSH2 0x12C7 PUSH1 0x24 CALLDATALOAD CALLER PUSH2 0x2DF7 JUMP JUMPDEST PUSH2 0x12D3 DUP5 PUSH1 0x24 CALLDATALOAD PUSH2 0x2CE0 JUMP JUMPDEST SWAP5 DUP6 SWAP2 ADD SLOAD LT ISZERO PUSH2 0x2A10 JUMP JUMPDEST PUSH2 0x2710 PUSH2 0x12F0 PUSH1 0x9 SLOAD PUSH1 0x24 CALLDATALOAD PUSH2 0x2CBC JUMP JUMPDEST DIV PUSH1 0x40 MLOAD SWAP1 PUSH2 0x12FE DUP3 PUSH2 0x247B JUMP JUMPDEST PUSH2 0x1309 CALLDATASIZE DUP5 DUP9 PUSH2 0x24D3 JUMP JUMPDEST DUP3 MSTORE CALLER PUSH1 0x20 DUP4 ADD MSTORE PUSH1 0x24 CALLDATALOAD PUSH1 0x40 DUP4 ADD MSTORE PUSH1 0x1 DUP1 PUSH1 0xA0 SHL SUB DUP5 AND PUSH1 0x60 DUP4 ADD MSTORE DUP5 PUSH1 0x80 DUP4 ADD MSTORE PUSH1 0xA0 DUP3 ADD MSTORE TIMESTAMP PUSH1 0xC0 DUP3 ADD MSTORE PUSH1 0x0 PUSH1 0xE0 DUP3 ADD MSTORE PUSH1 0x40 MLOAD PUSH2 0x134B DUP2 PUSH2 0x2497 JUMP JUMPDEST PUSH1 0x0 DUP2 MSTORE PUSH2 0x100 DUP3 ADD MSTORE PUSH1 0x40 MLOAD PUSH2 0x1361 DUP2 PUSH2 0x2497 JUMP JUMPDEST PUSH1 0x0 DUP2 MSTORE PUSH2 0x120 DUP3 ADD MSTORE PUSH1 0x40 MLOAD DUP3 DUP7 DUP3 CALLDATACOPY PUSH1 0x20 DUP2 DUP5 DUP2 ADD PUSH1 0x5 DUP2 MSTORE SUB ADD SWAP1 KECCAK256 DUP2 MLOAD DUP1 MLOAD SWAP1 PUSH1 0x1 PUSH1 0x1 PUSH1 0x40 SHL SUB DUP3 GT PUSH2 0xDA2 JUMPI DUP2 SWAP1 PUSH2 0x13A9 DUP3 PUSH2 0x13A3 DUP7 SLOAD PUSH2 0x2519 JUMP JUMPDEST DUP7 PUSH2 0x2A5C JUMP JUMPDEST PUSH1 0x20 SWAP1 PUSH1 0x1F DUP4 GT PUSH1 0x1 EQ PUSH2 0x1692 JUMPI PUSH1 0x0 SWAP3 PUSH2 0x1687 JUMPI JUMPDEST POP POP DUP2 PUSH1 0x1 SHL SWAP2 PUSH1 0x0 NOT SWAP1 PUSH1 0x3 SHL SHR NOT AND OR DUP2 SSTORE JUMPDEST PUSH1 0x20 DUP3 ADD MLOAD PUSH1 0x1 DUP3 ADD DUP1 SLOAD PUSH1 0x1 PUSH1 0x1 PUSH1 0xA0 SHL SUB SWAP3 DUP4 AND PUSH1 0x1 PUSH1 0x1 PUSH1 0xA0 SHL SUB NOT SWAP2 DUP3 AND OR SWAP1 SWAP2 SSTORE PUSH1 0x40 DUP5 ADD MLOAD PUSH1 0x2 DUP5 ADD SSTORE PUSH1 0x60 DUP5 ADD MLOAD PUSH1 0x3 DUP5 ADD DUP1 SLOAD SWAP2 SWAP1 SWAP4 AND SWAP2 AND OR SWAP1 SSTORE PUSH1 0x80 DUP3 ADD MLOAD PUSH1 0x4 DUP3 ADD SSTORE PUSH1 0xA0 DUP3 ADD MLOAD PUSH1 0x5 DUP1 DUP4 ADD SWAP2 SWAP1 SWAP2 SSTORE PUSH1 0xC0 DUP4 ADD MLOAD PUSH1 0x6 DUP4 ADD SSTORE PUSH1 0xE0 DUP4 ADD MLOAD PUSH1 0x7 DUP4 ADD SWAP2 DUP2 LT ISZERO PUSH2 0xCEC JUMPI PUSH1 0xFF DUP1 NOT DUP4 SLOAD AND SWAP2 AND OR SWAP1 SSTORE PUSH2 0x100 DUP3 ADD MLOAD DUP1 MLOAD SWAP1 PUSH1 0x1 PUSH1 0x1 PUSH1 0x40 SHL SUB DUP3 GT PUSH2 0xDA2 JUMPI PUSH2 0x1488 DUP3 PUSH2 0x147F PUSH1 0x8 DUP7 ADD SLOAD PUSH2 0x2519 JUMP JUMPDEST PUSH1 0x8 DUP7 ADD PUSH2 0x2A5C JUMP JUMPDEST PUSH1 0x20 SWAP1 PUSH1 0x1F DUP4 GT PUSH1 0x1 EQ PUSH2 0x1611 JUMPI SWAP2 DUP1 PUSH2 0x120 SWAP5 SWAP3 PUSH1 0x9 SWAP5 PUSH1 0x0 SWAP3 PUSH2 0x1606 JUMPI JUMPDEST POP POP DUP2 PUSH1 0x1 SHL SWAP2 PUSH1 0x0 NOT SWAP1 PUSH1 0x3 SHL SHR NOT AND OR PUSH1 0x8 DUP3 ADD SSTORE JUMPDEST ADD SWAP2 ADD MLOAD DUP1 MLOAD SWAP1 PUSH1 0x1 PUSH1 0x1 PUSH1 0x40 SHL SUB DUP3 GT PUSH2 0xDA2 JUMPI DUP2 SWAP1 PUSH2 0x14E5 DUP3 PUSH2 0x13A3 DUP7 SLOAD PUSH2 0x2519 JUMP JUMPDEST PUSH1 0x20 SWAP1 PUSH1 0x1F DUP4 GT PUSH1 0x1 EQ PUSH2 0x15A0 JUMPI PUSH1 0x0 SWAP3 PUSH2 0x1595 JUMPI JUMPDEST POP POP DUP2 PUSH1 0x1 SHL SWAP2 PUSH1 0x0 NOT SWAP1 PUSH1 0x3 SHL SHR NOT AND OR SWAP1 SSTORE JUMPDEST CALLER PUSH1 0x0 MSTORE PUSH1 0x7 PUSH1 0x20 MSTORE PUSH1 0x40 PUSH1 0x0 KECCAK256 PUSH2 0x1528 DUP2 SLOAD PUSH2 0x2AB0 JUMP JUMPDEST SWAP1 SSTORE CALLER PUSH1 0x0 MSTORE PUSH1 0x7 PUSH1 0x20 MSTORE PUSH1 0x40 PUSH1 0x0 KECCAK256 SLOAD SWAP4 DUP2 PUSH1 0x40 MLOAD SWAP3 DUP4 SWAP3 DUP4 CALLDATACOPY DUP2 ADD PUSH1 0x0 DUP2 MSTORE SUB SWAP1 KECCAK256 SWAP3 PUSH1 0x40 MLOAD SWAP3 PUSH1 0x24 CALLDATALOAD DUP5 MSTORE PUSH1 0x20 DUP5 ADD MSTORE PUSH1 0x40 DUP4 ADD MSTORE PUSH1 0x1 DUP1 PUSH1 0xA0 SHL SUB AND SWAP2 PUSH32 0x6D1276400B00E109932B481F66F784018424206F44125F600584817B73C82042 PUSH1 0x60 CALLER SWAP4 LOG4 PUSH1 0x1 DUP1 SSTORE STOP JUMPDEST ADD MLOAD SWAP1 POP DUP8 DUP1 PUSH2 0x14FB JUMP JUMPDEST PUSH1 0x0 DUP6 DUP2 MSTORE PUSH1 0x20 DUP2 KECCAK256 SWAP4 POP PUSH1 0x1F NOT DUP6 AND SWAP1 JUMPDEST DUP2 DUP2 LT PUSH2 0x15EE JUMPI POP SWAP1 DUP5 PUSH1 0x1 SWAP6 SWAP5 SWAP4 SWAP3 LT PUSH2 0x15D5 JUMPI JUMPDEST POP POP POP DUP2 SHL ADD SWAP1 SSTORE PUSH2 0x1510 JUMP JUMPDEST ADD MLOAD PUSH1 0x0 NOT PUSH1 0xF8 DUP5 PUSH1 0x3 SHL AND SHR NOT AND SWAP1 SSTORE DUP8 DUP1 DUP1 PUSH2 0x15C8 JUMP JUMPDEST SWAP3 SWAP4 PUSH1 0x20 PUSH1 0x1 DUP2 SWAP3 DUP8 DUP7 ADD MLOAD DUP2 SSTORE ADD SWAP6 ADD SWAP4 ADD PUSH2 0x15B2 JUMP JUMPDEST ADD MLOAD SWAP1 POP DUP11 DUP1 PUSH2 0x14A8 JUMP JUMPDEST SWAP1 PUSH1 0x8 DUP5 ADD PUSH1 0x0 MSTORE PUSH1 0x20 PUSH1 0x0 KECCAK256 SWAP2 PUSH1 0x0 JUMPDEST PUSH1 0x1F NOT DUP6 AND DUP2 LT PUSH2 0x166F JUMPI POP SWAP3 PUSH2 0x120 SWAP5 SWAP3 PUSH1 0x1 SWAP3 PUSH1 0x9 SWAP6 DUP4 PUSH1 0x1F NOT DUP2 AND LT PUSH2 0x1656 JUMPI JUMPDEST POP POP POP DUP2 SHL ADD PUSH1 0x8 DUP3 ADD SSTORE PUSH2 0x14C0 JUMP JUMPDEST ADD MLOAD PUSH1 0x0 NOT PUSH1 0xF8 DUP5 PUSH1 0x3 SHL AND SHR NOT AND SWAP1 SSTORE DUP11 DUP1 DUP1 PUSH2 0x1646 JUMP JUMPDEST SWAP2 SWAP3 PUSH1 0x20 PUSH1 0x1 DUP2 SWAP3 DUP7 DUP6 ADD MLOAD DUP2 SSTORE ADD SWAP5 ADD SWAP3 ADD PUSH2 0x1622 JUMP JUMPDEST ADD MLOAD SWAP1 POP DUP9 DUP1 PUSH2 0x13BF JUMP JUMPDEST SWAP3 POP DUP4 PUSH1 0x0 MSTORE PUSH1 0x20 PUSH1 0x0 KECCAK256 SWAP1 PUSH1 0x0 SWAP4 JUMPDEST PUSH1 0x1F NOT DUP5 AND DUP6 LT PUSH2 0x16E3 JUMPI PUSH1 0x1 SWAP5 POP DUP4 PUSH1 0x1F NOT DUP2 AND LT PUSH2 0x16CA JUMPI JUMPDEST POP POP POP DUP2 SHL ADD DUP2 SSTORE PUSH2 0x13D4 JUMP JUMPDEST ADD MLOAD PUSH1 0x0 NOT PUSH1 0xF8 DUP5 PUSH1 0x3 SHL AND SHR NOT AND SWAP1 SSTORE DUP9 DUP1 DUP1 PUSH2 0x16BD JUMP JUMPDEST DUP2 DUP2 ADD MLOAD DUP4 SSTORE PUSH1 0x20 SWAP5 DUP6 ADD SWAP5 PUSH1 0x1 SWAP1 SWAP4 ADD SWAP3 SWAP1 SWAP2 ADD SWAP1 PUSH2 0x16A2 JUMP JUMPDEST PUSH1 0x40 MLOAD PUSH3 0x461BCD PUSH1 0xE5 SHL DUP2 MSTORE PUSH1 0x20 PUSH1 0x4 DUP3 ADD MSTORE PUSH1 0x15 PUSH1 0x24 DUP3 ADD MSTORE PUSH21 0x50495820494420616C726561647920657869737473 PUSH1 0x58 SHL PUSH1 0x44 DUP3 ADD MSTORE PUSH1 0x64 SWAP1 REVERT JUMPDEST PUSH1 0x40 MLOAD PUSH3 0x461BCD PUSH1 0xE5 SHL DUP2 MSTORE PUSH1 0x20 PUSH1 0x4 DUP3 ADD MSTORE PUSH1 0x21 PUSH1 0x24 DUP3 ADD MSTORE PUSH32 0x50495820616D6F756E74206D7573742062652067726561746572207468616E20 PUSH1 0x44 DUP3 ADD MSTORE PUSH1 0x3 PUSH1 0xFC SHL PUSH1 0x64 DUP3 ADD MSTORE PUSH1 0x84 SWAP1 REVERT JUMPDEST PUSH1 0x40 MLOAD PUSH3 0x461BCD PUSH1 0xE5 SHL DUP2 MSTORE PUSH1 0x20 PUSH1 0x4 DUP3 ADD MSTORE PUSH1 0x16 PUSH1 0x24 DUP3 ADD MSTORE PUSH22 0x5049582049442063616E6E6F7420626520656D707479 PUSH1 0x50 SHL PUSH1 0x44 DUP3 ADD MSTORE PUSH1 0x64 SWAP1 REVERT JUMPDEST CALLVALUE PUSH2 0x344 JUMPI PUSH1 0x0 CALLDATASIZE PUSH1 0x3 NOT ADD SLT PUSH2 0x344 JUMPI PUSH2 0x17E1 PUSH2 0x2655 JUMP JUMPDEST PUSH2 0x17E9 PUSH2 0x2AD5 JUMP JUMPDEST PUSH1 0x1 PUSH1 0xFF NOT PUSH1 0x2 SLOAD AND OR PUSH1 0x2 SSTORE PUSH32 0x62E78CEA01BEE320CD4E420270B5EA74000D11B0C9F74754EBDBFC544B05A258 PUSH1 0x20 PUSH1 0x40 MLOAD CALLER DUP2 MSTORE LOG1 STOP JUMPDEST CALLVALUE PUSH2 0x344 JUMPI PUSH1 0x0 CALLDATASIZE PUSH1 0x3 NOT ADD SLT PUSH2 0x344 JUMPI PUSH1 0x40 MLOAD DUP1 PUSH1 0x8 SLOAD DUP1 DUP4 MSTORE PUSH1 0x20 DUP1 SWAP4 ADD DUP1 SWAP2 PUSH1 0x8 PUSH1 0x0 MSTORE PUSH32 0xF3F7A9FE364FAAB93B216DA50A3214154F22A0A2B415B23A84C8169E8B636EE3 SWAP1 PUSH1 0x0 JUMPDEST DUP7 DUP3 DUP3 LT PUSH2 0x18CD JUMPI DUP7 DUP7 PUSH2 0x1884 DUP3 DUP9 SUB DUP4 PUSH2 0x24B2 JUMP JUMPDEST PUSH1 0x40 MLOAD SWAP3 DUP4 SWAP3 DUP2 DUP5 ADD SWAP1 DUP3 DUP6 MSTORE MLOAD DUP1 SWAP2 MSTORE PUSH1 0x40 DUP5 ADD SWAP3 SWAP2 PUSH1 0x0 JUMPDEST DUP3 DUP2 LT PUSH2 0x18AD JUMPI POP POP POP POP SUB SWAP1 RETURN JUMPDEST DUP4 MLOAD PUSH1 0x1 PUSH1 0x1 PUSH1 0xA0 SHL SUB AND DUP6 MSTORE DUP7 SWAP6 POP SWAP4 DUP2 ADD SWAP4 SWAP3 DUP2 ADD SWAP3 PUSH1 0x1 ADD PUSH2 0x189E JUMP JUMPDEST DUP4 SLOAD PUSH1 0x1 PUSH1 0x1 PUSH1 0xA0 SHL SUB AND DUP6 MSTORE SWAP1 SWAP4 ADD SWAP3 PUSH1 0x1 SWAP3 DUP4 ADD SWAP3 ADD PUSH2 0x186E JUMP JUMPDEST CALLVALUE PUSH2 0x344 JUMPI PUSH1 0x40 CALLDATASIZE PUSH1 0x3 NOT ADD SLT PUSH2 0x344 JUMPI PUSH1 0x1 PUSH1 0x1 PUSH1 0xA0 SHL SUB PUSH2 0x190B PUSH2 0x2364 JUMP JUMPDEST AND PUSH1 0x0 MSTORE PUSH1 0x6 PUSH1 0x20 MSTORE PUSH1 0x40 PUSH1 0x0 KECCAK256 PUSH1 0x24 CALLDATALOAD PUSH1 0x0 MSTORE PUSH1 0x20 MSTORE PUSH1 0x20 PUSH1 0x40 PUSH1 0x0 KECCAK256 SLOAD PUSH1 0x40 MLOAD SWAP1 DUP2 MSTORE RETURN JUMPDEST CALLVALUE PUSH2 0x344 JUMPI PUSH1 0x0 CALLDATASIZE PUSH1 0x3 NOT ADD SLT PUSH2 0x344 JUMPI PUSH2 0x194B PUSH2 0x2808 JUMP JUMPDEST PUSH1 0x0 DUP1 SLOAD PUSH1 0x1 PUSH1 0x1 PUSH1 0xA0 SHL SUB NOT DUP2 AND DUP3 SSTORE PUSH1 0x1 PUSH1 0x1 PUSH1 0xA0 SHL SUB AND PUSH32 0x8BE0079C531659141344CD1FD0A4F28419497F9722A3DAAFE3B4186F6B6457E0 DUP3 DUP1 LOG3 STOP JUMPDEST CALLVALUE PUSH2 0x344 JUMPI PUSH1 0x20 CALLDATASIZE PUSH1 0x3 NOT ADD SLT PUSH2 0x344 JUMPI PUSH1 0x4 CALLDATALOAD PUSH1 0x1 PUSH1 0x1 PUSH1 0x40 SHL SUB DUP2 GT PUSH2 0x344 JUMPI PUSH2 0x19BD PUSH1 0x20 SWAP2 CALLDATASIZE SWAP1 PUSH1 0x4 ADD PUSH2 0x2390 JUMP JUMPDEST SWAP2 SWAP1 PUSH1 0x60 PUSH2 0x120 PUSH1 0x40 MLOAD PUSH2 0x19D0 DUP2 PUSH2 0x247B JUMP JUMPDEST DUP3 DUP2 MSTORE PUSH1 0x0 DUP6 DUP3 ADD MSTORE PUSH1 0x0 PUSH1 0x40 DUP3 ADD MSTORE PUSH1 0x0 DUP4 DUP3 ADD MSTORE PUSH1 0x0 PUSH1 0x80 DUP3 ADD MSTORE PUSH1 0x0 PUSH1 0xA0 DUP3 ADD MSTORE PUSH1 0x0 PUSH1 0xC0 DUP3 ADD MSTORE PUSH1 0x0 PUSH1 0xE0 DUP3 ADD MSTORE DUP3 PUSH2 0x100 DUP3 ADD MSTORE ADD MSTORE DUP3 PUSH1 0x40 MLOAD SWAP4 DUP5 SWAP3 DUP4 CALLDATACOPY DUP2 ADD PUSH1 0x5 DUP2 MSTORE SUB ADD SWAP1 KECCAK256 PUSH1 0x40 MLOAD PUSH2 0x1A2A DUP2 PUSH2 0x247B JUMP JUMPDEST PUSH2 0x1A33 DUP3 PUSH2 0x2553 JUMP JUMPDEST DUP2 MSTORE PUSH1 0x1 DUP3 ADD SLOAD PUSH1 0x1 PUSH1 0x1 PUSH1 0xA0 SHL SUB SWAP1 DUP2 AND PUSH1 0x20 DUP4 ADD MSTORE PUSH1 0x2 DUP4 ADD SLOAD PUSH1 0x40 DUP4 ADD MSTORE PUSH1 0x3 DUP4 ADD SLOAD AND PUSH1 0x60 DUP3 ADD MSTORE PUSH1 0x4 DUP3 ADD SLOAD PUSH1 0x80 DUP3 ADD MSTORE PUSH1 0x5 DUP1 DUP4 ADD SLOAD PUSH1 0xA0 DUP4 ADD MSTORE PUSH1 0x6 DUP4 ADD SLOAD PUSH1 0xC0 DUP4 ADD MSTORE PUSH1 0x7 DUP4 ADD SLOAD PUSH1 0xFF AND SWAP3 SWAP1 DUP4 LT ISZERO PUSH2 0xCEC JUMPI PUSH1 0x9 PUSH2 0x1AB6 SWAP2 PUSH2 0x7E2 SWAP5 PUSH1 0xE0 DUP6 ADD MSTORE PUSH2 0x1AAA PUSH1 0x8 DUP3 ADD PUSH2 0x2553 JUMP JUMPDEST PUSH2 0x100 DUP6 ADD MSTORE ADD PUSH2 0x2553 JUMP JUMPDEST PUSH2 0x120 DUP3 ADD MSTORE PUSH1 0x40 MLOAD SWAP2 DUP3 SWAP2 PUSH1 0x20 DUP4 MSTORE PUSH2 0x1ADE DUP2 MLOAD PUSH2 0x140 PUSH1 0x20 DUP7 ADD MSTORE PUSH2 0x160 DUP6 ADD SWAP1 PUSH2 0x242D JUMP JUMPDEST PUSH1 0x1 DUP1 PUSH1 0xA0 SHL SUB PUSH1 0x20 DUP4 ADD MLOAD AND PUSH1 0x40 DUP6 ADD MSTORE PUSH1 0x40 DUP3 ADD MLOAD PUSH1 0x60 DUP6 ADD MSTORE PUSH1 0x1 DUP1 PUSH1 0xA0 SHL SUB PUSH1 0x60 DUP4 ADD MLOAD AND PUSH1 0x80 DUP6 ADD MSTORE PUSH1 0x80 DUP3 ADD MLOAD PUSH1 0xA0 DUP6 ADD MSTORE PUSH1 0xA0 DUP3 ADD MLOAD PUSH1 0xC0 DUP6 ADD MSTORE PUSH1 0xC0 DUP3 ADD MLOAD PUSH1 0xE0 DUP6 ADD MSTORE PUSH2 0x1B3D PUSH1 0xE0 DUP4 ADD MLOAD PUSH2 0x100 DUP7 ADD SWAP1 PUSH2 0x2452 JUMP JUMPDEST PUSH2 0x120 PUSH2 0x1B5C PUSH2 0x100 DUP5 ADD MLOAD SWAP3 PUSH1 0x1F NOT SWAP4 DUP5 DUP9 DUP4 SUB ADD DUP5 DUP10 ADD MSTORE PUSH2 0x242D JUMP JUMPDEST SWAP3 ADD MLOAD SWAP1 DUP5 DUP4 SUB ADD PUSH2 0x140 DUP6 ADD MSTORE PUSH2 0x242D JUMP JUMPDEST CALLVALUE PUSH2 0x344 JUMPI PUSH1 0x20 CALLDATASIZE PUSH1 0x3 NOT ADD SLT PUSH2 0x344 JUMPI PUSH1 0x4 CALLDATALOAD PUSH2 0x1B8B PUSH2 0x26B1 JUMP JUMPDEST PUSH2 0x3E8 DUP2 GT PUSH2 0x1B99 JUMPI PUSH1 0x9 SSTORE STOP JUMPDEST PUSH1 0x40 MLOAD PUSH3 0x461BCD PUSH1 0xE5 SHL DUP2 MSTORE PUSH1 0x20 PUSH1 0x4 DUP3 ADD MSTORE PUSH1 0x17 PUSH1 0x24 DUP3 ADD MSTORE PUSH32 0x4665652070657263656E7461676520746F6F2068696768000000000000000000 PUSH1 0x44 DUP3 ADD MSTORE PUSH1 0x64 SWAP1 REVERT JUMPDEST CALLVALUE PUSH2 0x344 JUMPI PUSH1 0x0 CALLDATASIZE PUSH1 0x3 NOT ADD SLT PUSH2 0x344 JUMPI PUSH1 0xA SLOAD PUSH1 0x40 MLOAD PUSH1 0x1 PUSH1 0x1 PUSH1 0xA0 SHL SUB SWAP1 SWAP2 AND DUP2 MSTORE PUSH1 0x20 SWAP1 RETURN JUMPDEST CALLVALUE PUSH2 0x344 JUMPI PUSH1 0x20 CALLDATASIZE PUSH1 0x3 NOT ADD SLT PUSH2 0x344 JUMPI PUSH2 0x100 PUSH2 0x1C23 PUSH2 0x2364 JUMP JUMPDEST PUSH1 0x0 PUSH1 0xE0 PUSH1 0x40 MLOAD PUSH2 0x1C33 DUP2 PUSH2 0x245F JUMP JUMPDEST DUP3 DUP2 MSTORE DUP3 PUSH1 0x20 DUP3 ADD MSTORE DUP3 PUSH1 0x40 DUP3 ADD MSTORE DUP3 PUSH1 0x60 DUP3 ADD MSTORE DUP3 PUSH1 0x80 DUP3 ADD MSTORE DUP3 PUSH1 0xA0 DUP3 ADD MSTORE DUP3 PUSH1 0xC0 DUP3 ADD MSTORE ADD MSTORE PUSH1 0x1 DUP1 PUSH1 0xA0 SHL SUB DUP1 SWAP2 AND PUSH1 0x0 MSTORE PUSH1 0x4 PUSH1 0x20 MSTORE PUSH1 0x40 PUSH1 0x0 KECCAK256 PUSH1 0x40 MLOAD SWAP1 PUSH2 0x1C80 DUP3 PUSH2 0x245F JUMP JUMPDEST DUP1 SLOAD SWAP3 DUP4 AND SWAP3 DUP4 DUP4 MSTORE PUSH1 0x20 DUP4 ADD SWAP1 PUSH1 0xFF DUP2 PUSH1 0xA0 SHR AND DUP3 MSTORE PUSH1 0xFF PUSH1 0x40 DUP6 ADD SWAP2 PUSH1 0xA8 SHR AND ISZERO ISZERO DUP2 MSTORE PUSH1 0x1 DUP4 ADD SLOAD PUSH1 0x60 DUP6 ADD SWAP1 DUP2 MSTORE PUSH1 0x2 DUP5 ADD SLOAD SWAP2 PUSH1 0x80 DUP7 ADD SWAP3 DUP4 MSTORE PUSH1 0xFF PUSH1 0x3 DUP7 ADD SLOAD SWAP5 PUSH1 0xA0 DUP9 ADD SWAP6 DUP7 MSTORE PUSH1 0xE0 PUSH1 0x5 PUSH1 0x4 DUP10 ADD SLOAD SWAP9 PUSH1 0xC0 DUP12 ADD SWAP10 DUP11 MSTORE ADD SLOAD SWAP9 ADD SWAP8 DUP9 MSTORE PUSH1 0x40 MLOAD SWAP9 DUP10 MSTORE MLOAD AND PUSH1 0x20 DUP9 ADD MSTORE MLOAD ISZERO ISZERO PUSH1 0x40 DUP8 ADD MSTORE MLOAD PUSH1 0x60 DUP7 ADD MSTORE MLOAD PUSH1 0x80 DUP6 ADD MSTORE MLOAD PUSH1 0xA0 DUP5 ADD MSTORE MLOAD PUSH1 0xC0 DUP4 ADD MSTORE MLOAD PUSH1 0xE0 DUP3 ADD MSTORE RETURN JUMPDEST CALLVALUE PUSH2 0x344 JUMPI PUSH1 0x0 CALLDATASIZE PUSH1 0x3 NOT ADD SLT PUSH2 0x344 JUMPI PUSH1 0x20 PUSH1 0xFF PUSH1 0x2 SLOAD AND PUSH1 0x40 MLOAD SWAP1 ISZERO ISZERO DUP2 MSTORE RETURN JUMPDEST CALLVALUE PUSH2 0x344 JUMPI PUSH1 0x20 CALLDATASIZE PUSH1 0x3 NOT ADD SLT PUSH2 0x344 JUMPI PUSH1 0x4 CALLDATALOAD PUSH1 0x8 SLOAD DUP2 LT ISZERO PUSH2 0x344 JUMPI PUSH2 0x1D67 PUSH1 0x20 SWAP2 PUSH2 0x23BD JUMP JUMPDEST SWAP1 SLOAD PUSH1 0x40 MLOAD PUSH1 0x3 SWAP3 SWAP1 SWAP3 SHL SHR PUSH1 0x1 PUSH1 0x1 PUSH1 0xA0 SHL SUB AND DUP2 MSTORE RETURN JUMPDEST CALLVALUE PUSH2 0x344 JUMPI PUSH1 0x0 CALLDATASIZE PUSH1 0x3 NOT ADD SLT PUSH2 0x344 JUMPI PUSH1 0x20 PUSH1 0x40 MLOAD PUSH2 0x3E8 DUP2 MSTORE RETURN JUMPDEST CALLVALUE PUSH2 0x344 JUMPI PUSH1 0x20 CALLDATASIZE PUSH1 0x3 NOT ADD SLT PUSH2 0x344 JUMPI PUSH1 0x1 PUSH1 0x1 PUSH1 0xA0 SHL SUB PUSH2 0x1DBE PUSH2 0x2364 JUMP JUMPDEST AND PUSH1 0x0 MSTORE PUSH1 0x6 PUSH1 0x20 MSTORE PUSH1 0x40 PUSH1 0x0 KECCAK256 PUSH3 0x15180 TIMESTAMP DIV PUSH1 0x0 MSTORE PUSH1 0x20 MSTORE PUSH1 0x20 PUSH1 0x40 PUSH1 0x0 KECCAK256 SLOAD PUSH1 0x40 MLOAD SWAP1 DUP2 MSTORE RETURN JUMPDEST CALLVALUE PUSH2 0x344 JUMPI PUSH1 0x0 CALLDATASIZE PUSH1 0x3 NOT ADD SLT PUSH2 0x344 JUMPI PUSH2 0x1E01 PUSH2 0x2655 JUMP JUMPDEST PUSH1 0x2 SLOAD PUSH1 0xFF DUP2 AND ISZERO PUSH2 0x1E40 JUMPI PUSH1 0xFF NOT AND PUSH1 0x2 SSTORE PUSH32 0x5DB9EE0A495BF2E6FF9C91A7834C1BA4FDD244A5E8AA4E537BD38AEAE4B073AA PUSH1 0x20 PUSH1 0x40 MLOAD CALLER DUP2 MSTORE LOG1 STOP JUMPDEST PUSH1 0x40 MLOAD PUSH4 0x8DFC202B PUSH1 0xE0 SHL DUP2 MSTORE PUSH1 0x4 SWAP1 REVERT JUMPDEST CALLVALUE PUSH2 0x344 JUMPI PUSH1 0x60 CALLDATASIZE PUSH1 0x3 NOT ADD SLT PUSH2 0x344 JUMPI PUSH2 0x1E6B PUSH2 0x2364 JUMP JUMPDEST PUSH1 0x24 CALLDATALOAD PUSH1 0x44 CALLDATALOAD PUSH1 0x1 PUSH1 0x1 PUSH1 0x40 SHL SUB DUP2 GT PUSH2 0x344 JUMPI PUSH2 0x1E8D SWAP1 CALLDATASIZE SWAP1 PUSH1 0x4 ADD PUSH2 0x2390 JUMP JUMPDEST SWAP2 SWAP1 PUSH2 0x1E97 PUSH2 0x2AF3 JUMP JUMPDEST PUSH2 0x1E9F PUSH2 0x2AD5 JUMP JUMPDEST PUSH1 0x1 DUP1 PUSH1 0xA0 SHL SUB SWAP3 DUP4 DUP6 AND SWAP5 DUP6 PUSH1 0x0 MSTORE PUSH1 0x20 SWAP5 PUSH1 0x4 DUP7 MSTORE PUSH2 0x1ECA PUSH1 0xFF PUSH1 0x40 PUSH1 0x0 KECCAK256 SLOAD PUSH1 0xA8 SHR AND PUSH2 0x293C JUMP JUMPDEST PUSH2 0x1ED5 DUP6 ISZERO ISZERO PUSH2 0x2C18 JUMP JUMPDEST DUP3 ISZERO PUSH2 0x20B3 JUMPI DUP7 PUSH1 0x0 MSTORE PUSH1 0x4 DUP7 MSTORE PUSH1 0x40 PUSH1 0x0 KECCAK256 SWAP1 DUP2 SLOAD AND SWAP2 PUSH1 0x40 MLOAD PUSH4 0x70A08231 PUSH1 0xE0 SHL DUP2 MSTORE CALLER PUSH1 0x4 DUP3 ADD MSTORE DUP8 DUP2 PUSH1 0x24 DUP2 DUP8 GAS STATICCALL DUP1 ISZERO PUSH2 0x20A7 JUMPI DUP8 SWAP2 PUSH1 0x0 SWAP2 PUSH2 0x2076 JUMPI JUMPDEST POP LT PUSH2 0x2031 JUMPI SWAP2 PUSH1 0x4 PUSH2 0x201F SWAP5 SWAP3 PUSH2 0x1F8B DUP9 PUSH2 0x1F57 DUP2 SWAP10 SWAP8 PUSH32 0xA71C386F93F7CFA73E759A0F8F724BEF69BC809EF69AF8FC78014E03925B2CED SWAP12 PUSH2 0x2D3F JUMP JUMPDEST SWAP5 PUSH2 0x1F68 PUSH1 0x1 DUP6 ADD SLOAD DUP8 LT ISZERO PUSH2 0x2988 JUMP JUMPDEST PUSH2 0x1F78 PUSH1 0x2 DUP6 ADD SLOAD DUP8 GT ISZERO PUSH2 0x29CB JUMP JUMPDEST PUSH2 0x1F82 DUP7 CALLER PUSH2 0x2DF7 JUMP JUMPDEST ADDRESS SWAP1 CALLER SWAP1 PUSH2 0x2C64 JUMP JUMPDEST ADD PUSH2 0x1F97 DUP7 DUP3 SLOAD PUSH2 0x2B64 JUMP JUMPDEST SWAP1 SSTORE PUSH2 0x1FB2 PUSH2 0x2710 PUSH2 0x1FAB PUSH1 0x9 SLOAD DUP5 PUSH2 0x2CBC JUMP JUMPDEST DIV DUP3 PUSH2 0x2B37 JUMP JUMPDEST SWAP1 CALLER PUSH1 0x0 MSTORE PUSH1 0x7 DUP9 MSTORE PUSH1 0x40 PUSH1 0x0 KECCAK256 PUSH2 0x1FCA DUP2 SLOAD PUSH2 0x2AB0 JUMP JUMPDEST SWAP1 SSTORE CALLER PUSH1 0x0 MSTORE PUSH1 0x6 DUP9 MSTORE PUSH1 0x40 PUSH1 0x0 KECCAK256 PUSH3 0x15180 TIMESTAMP DIV PUSH1 0x0 MSTORE DUP9 MSTORE PUSH2 0x1FF4 PUSH1 0x40 PUSH1 0x0 KECCAK256 SWAP2 DUP3 SLOAD PUSH2 0x2B64 JUMP JUMPDEST SWAP1 SSTORE CALLER PUSH1 0x0 MSTORE PUSH1 0x7 DUP8 MSTORE PUSH1 0x40 PUSH1 0x0 KECCAK256 SLOAD SWAP7 PUSH1 0x40 MLOAD SWAP6 DUP7 MSTORE DUP6 ADD MSTORE PUSH1 0x80 PUSH1 0x40 DUP6 ADD MSTORE PUSH1 0x80 DUP5 ADD SWAP2 PUSH2 0x2B16 JUMP JUMPDEST SWAP3 PUSH1 0x60 DUP3 ADD MSTORE DUP1 CALLER SWAP4 SUB SWAP1 LOG3 PUSH1 0x1 DUP1 SSTORE STOP JUMPDEST PUSH1 0x40 MLOAD PUSH3 0x461BCD PUSH1 0xE5 SHL DUP2 MSTORE PUSH1 0x4 DUP2 ADD DUP9 SWAP1 MSTORE PUSH1 0x1F PUSH1 0x24 DUP3 ADD MSTORE PUSH32 0x496E73756666696369656E7420737461626C65636F696E2062616C616E636500 PUSH1 0x44 DUP3 ADD MSTORE PUSH1 0x64 SWAP1 REVERT JUMPDEST DUP1 SWAP3 POP DUP10 DUP1 SWAP3 POP RETURNDATASIZE DUP4 GT PUSH2 0x20A0 JUMPI JUMPDEST PUSH2 0x208F DUP2 DUP4 PUSH2 0x24B2 JUMP JUMPDEST DUP2 ADD SUB SLT PUSH2 0x344 JUMPI DUP7 SWAP1 MLOAD DUP11 PUSH2 0x1F18 JUMP JUMPDEST POP RETURNDATASIZE PUSH2 0x2085 JUMP JUMPDEST PUSH1 0x40 MLOAD RETURNDATASIZE PUSH1 0x0 DUP3 RETURNDATACOPY RETURNDATASIZE SWAP1 REVERT JUMPDEST PUSH1 0x40 MLOAD PUSH3 0x461BCD PUSH1 0xE5 SHL DUP2 MSTORE PUSH1 0x4 DUP2 ADD DUP8 SWAP1 MSTORE PUSH1 0x17 PUSH1 0x24 DUP3 ADD MSTORE PUSH32 0x504958206B65792063616E6E6F7420626520656D707479000000000000000000 PUSH1 0x44 DUP3 ADD MSTORE PUSH1 0x64 SWAP1 REVERT JUMPDEST CALLVALUE PUSH2 0x344 JUMPI PUSH1 0x40 CALLDATASIZE PUSH1 0x3 NOT ADD SLT PUSH2 0x344 JUMPI PUSH2 0x2111 PUSH2 0x234E JUMP JUMPDEST CALLER PUSH1 0x1 PUSH1 0x1 PUSH1 0xA0 SHL SUB DUP3 AND SUB PUSH2 0x212D JUMPI PUSH2 0x563 SWAP1 PUSH1 0x4 CALLDATALOAD PUSH2 0x2791 JUMP JUMPDEST PUSH1 0x40 MLOAD PUSH4 0x334BD919 PUSH1 0xE1 SHL DUP2 MSTORE PUSH1 0x4 SWAP1 REVERT JUMPDEST CALLVALUE PUSH2 0x344 JUMPI PUSH1 0x40 CALLDATASIZE PUSH1 0x3 NOT ADD SLT PUSH2 0x344 JUMPI PUSH2 0x563 PUSH1 0x4 CALLDATALOAD PUSH2 0x215E PUSH2 0x234E JUMP JUMPDEST SWAP1 DUP1 PUSH1 0x0 MSTORE PUSH1 0x3 PUSH1 0x20 MSTORE PUSH2 0x2179 PUSH1 0x1 PUSH1 0x40 PUSH1 0x0 KECCAK256 ADD SLOAD PUSH2 0x26EB JUMP JUMPDEST PUSH2 0x2711 JUMP JUMPDEST CALLVALUE PUSH2 0x344 JUMPI PUSH1 0x20 CALLDATASIZE PUSH1 0x3 NOT ADD SLT PUSH2 0x344 JUMPI PUSH1 0x1 PUSH1 0x1 PUSH1 0xA0 SHL SUB PUSH2 0x219F PUSH2 0x2364 JUMP JUMPDEST AND PUSH1 0x0 MSTORE PUSH1 0x7 PUSH1 0x20 MSTORE PUSH1 0x20 PUSH1 0x40 PUSH1 0x0 KECCAK256 SLOAD PUSH1 0x40 MLOAD SWAP1 DUP2 MSTORE RETURN JUMPDEST CALLVALUE PUSH2 0x344 JUMPI PUSH1 0x40 CALLDATASIZE PUSH1 0x3 NOT ADD SLT PUSH2 0x344 JUMPI PUSH2 0x21D1 PUSH2 0x2364 JUMP JUMPDEST PUSH1 0x24 CALLDATALOAD SWAP1 PUSH2 0x21DD PUSH2 0x25F9 JUMP JUMPDEST PUSH1 0x4 PUSH1 0x1 DUP1 PUSH1 0xA0 SHL SUB DUP1 SWAP3 AND SWAP2 DUP3 PUSH1 0x0 MSTORE DUP2 PUSH1 0x20 MSTORE PUSH2 0x2206 PUSH1 0xFF PUSH1 0x40 PUSH1 0x0 KECCAK256 SLOAD PUSH1 0xA8 SHR AND PUSH2 0x293C JUMP JUMPDEST PUSH2 0x2211 DUP5 ISZERO ISZERO PUSH2 0x2C18 JUMP JUMPDEST DUP3 PUSH1 0x0 MSTORE DUP2 PUSH1 0x20 MSTORE PUSH2 0x222F DUP5 PUSH1 0x40 PUSH1 0x0 KECCAK256 SWAP3 DUP4 SLOAD AND ADDRESS SWAP1 CALLER SWAP1 PUSH2 0x2C64 JUMP JUMPDEST ADD PUSH2 0x223B DUP4 DUP3 SLOAD PUSH2 0x2B64 JUMP JUMPDEST SWAP1 SSTORE PUSH1 0x40 MLOAD SWAP2 DUP3 MSTORE PUSH32 0x50E73928BE07B534E0BEEA032889BB051F54B4A046BB43C73625B53DB520AB26 PUSH1 0x20 CALLER SWAP4 LOG3 STOP JUMPDEST CALLVALUE PUSH2 0x344 JUMPI PUSH1 0x20 CALLDATASIZE PUSH1 0x3 NOT ADD SLT PUSH2 0x344 JUMPI PUSH1 0x4 CALLDATALOAD PUSH1 0x0 MSTORE PUSH1 0x3 PUSH1 0x20 MSTORE PUSH1 0x20 PUSH1 0x1 PUSH1 0x40 PUSH1 0x0 KECCAK256 ADD SLOAD PUSH1 0x40 MLOAD SWAP1 DUP2 MSTORE RETURN JUMPDEST CALLVALUE PUSH2 0x344 JUMPI PUSH1 0x40 CALLDATASIZE PUSH1 0x3 NOT ADD SLT PUSH2 0x344 JUMPI PUSH1 0x20 PUSH2 0x4FF PUSH2 0x22B8 PUSH2 0x234E JUMP JUMPDEST PUSH1 0x4 CALLDATALOAD PUSH2 0x2D3F JUMP JUMPDEST CALLVALUE PUSH2 0x344 JUMPI PUSH1 0x0 CALLDATASIZE PUSH1 0x3 NOT ADD SLT PUSH2 0x344 JUMPI PUSH1 0x20 PUSH1 0x40 MLOAD PUSH32 0x68E79A7BF1E0BC45D0A330C573BC367F9CF464FD326078812F301165FBDA4EF1 DUP2 MSTORE RETURN JUMPDEST CALLVALUE PUSH2 0x344 JUMPI PUSH1 0x20 CALLDATASIZE PUSH1 0x3 NOT ADD SLT PUSH2 0x344 JUMPI PUSH1 0x4 CALLDATALOAD SWAP1 PUSH4 0xFFFFFFFF PUSH1 0xE0 SHL DUP3 AND DUP1 SWAP3 SUB PUSH2 0x344 JUMPI PUSH1 0x20 SWAP2 PUSH4 0x7965DB0B PUSH1 0xE0 SHL DUP2 EQ SWAP1 DUP2 ISZERO PUSH2 0x233D JUMPI JUMPDEST POP ISZERO ISZERO DUP2 MSTORE RETURN JUMPDEST PUSH4 0x1FFC9A7 PUSH1 0xE0 SHL EQ SWAP1 POP DUP4 PUSH2 0x2336 JUMP JUMPDEST PUSH1 0x24 CALLDATALOAD SWAP1 PUSH1 0x1 PUSH1 0x1 PUSH1 0xA0 SHL SUB DUP3 AND DUP3 SUB PUSH2 0x344 JUMPI JUMP JUMPDEST PUSH1 0x4 CALLDATALOAD SWAP1 PUSH1 0x1 PUSH1 0x1 PUSH1 0xA0 SHL SUB DUP3 AND DUP3 SUB PUSH2 0x344 JUMPI JUMP JUMPDEST PUSH1 0x44 CALLDATALOAD SWAP1 PUSH1 0x1 PUSH1 0x1 PUSH1 0xA0 SHL SUB DUP3 AND DUP3 SUB PUSH2 0x344 JUMPI JUMP JUMPDEST SWAP2 DUP2 PUSH1 0x1F DUP5 ADD SLT ISZERO PUSH2 0x344 JUMPI DUP3 CALLDATALOAD SWAP2 PUSH1 0x1 PUSH1 0x1 PUSH1 0x40 SHL SUB DUP4 GT PUSH2 0x344 JUMPI PUSH1 0x20 DUP4 DUP2 DUP7 ADD SWAP6 ADD ADD GT PUSH2 0x344 JUMPI JUMP JUMPDEST PUSH1 0x8 SLOAD DUP2 LT ISZERO PUSH2 0x23F4 JUMPI PUSH1 0x8 PUSH1 0x0 MSTORE PUSH32 0xF3F7A9FE364FAAB93B216DA50A3214154F22A0A2B415B23A84C8169E8B636EE3 ADD SWAP1 PUSH1 0x0 SWAP1 JUMP JUMPDEST PUSH4 0x4E487B71 PUSH1 0xE0 SHL PUSH1 0x0 MSTORE PUSH1 0x32 PUSH1 0x4 MSTORE PUSH1 0x24 PUSH1 0x0 REVERT JUMPDEST PUSH1 0x0 JUMPDEST DUP4 DUP2 LT PUSH2 0x241D JUMPI POP POP PUSH1 0x0 SWAP2 ADD MSTORE JUMP JUMPDEST DUP2 DUP2 ADD MLOAD DUP4 DUP3 ADD MSTORE PUSH1 0x20 ADD PUSH2 0x240D JUMP JUMPDEST SWAP1 PUSH1 0x20 SWAP2 PUSH2 0x2446 DUP2 MLOAD DUP1 SWAP3 DUP2 DUP6 MSTORE DUP6 DUP1 DUP7 ADD SWAP2 ADD PUSH2 0x240A JUMP JUMPDEST PUSH1 0x1F ADD PUSH1 0x1F NOT AND ADD ADD SWAP1 JUMP JUMPDEST SWAP1 PUSH1 0x5 DUP3 LT ISZERO PUSH2 0xCEC JUMPI MSTORE JUMP JUMPDEST PUSH2 0x100 DUP2 ADD SWAP1 DUP2 LT PUSH1 0x1 PUSH1 0x1 PUSH1 0x40 SHL SUB DUP3 GT OR PUSH2 0xDA2 JUMPI PUSH1 0x40 MSTORE JUMP JUMPDEST PUSH2 0x140 DUP2 ADD SWAP1 DUP2 LT PUSH1 0x1 PUSH1 0x1 PUSH1 0x40 SHL SUB DUP3 GT OR PUSH2 0xDA2 JUMPI PUSH1 0x40 MSTORE JUMP JUMPDEST PUSH1 0x20 DUP2 ADD SWAP1 DUP2 LT PUSH1 0x1 PUSH1 0x1 PUSH1 0x40 SHL SUB DUP3 GT OR PUSH2 0xDA2 JUMPI PUSH1 0x40 MSTORE JUMP JUMPDEST SWAP1 PUSH1 0x1F DUP1 NOT SWAP2 ADD AND DUP2 ADD SWAP1 DUP2 LT PUSH1 0x1 PUSH1 0x1 PUSH1 0x40 SHL SUB DUP3 GT OR PUSH2 0xDA2 JUMPI PUSH1 0x40 MSTORE JUMP JUMPDEST SWAP3 SWAP2 SWAP3 PUSH1 0x1 PUSH1 0x1 PUSH1 0x40 SHL SUB DUP3 GT PUSH2 0xDA2 JUMPI PUSH1 0x40 MLOAD SWAP2 PUSH2 0x24FC PUSH1 0x1F DUP3 ADD PUSH1 0x1F NOT AND PUSH1 0x20 ADD DUP5 PUSH2 0x24B2 JUMP JUMPDEST DUP3 SWAP5 DUP2 DUP5 MSTORE DUP2 DUP4 ADD GT PUSH2 0x344 JUMPI DUP3 DUP2 PUSH1 0x20 SWAP4 DUP5 PUSH1 0x0 SWAP7 ADD CALLDATACOPY ADD ADD MSTORE JUMP JUMPDEST SWAP1 PUSH1 0x1 DUP3 DUP2 SHR SWAP3 AND DUP1 ISZERO PUSH2 0x2549 JUMPI JUMPDEST PUSH1 0x20 DUP4 LT EQ PUSH2 0x2533 JUMPI JUMP JUMPDEST PUSH4 0x4E487B71 PUSH1 0xE0 SHL PUSH1 0x0 MSTORE PUSH1 0x22 PUSH1 0x4 MSTORE PUSH1 0x24 PUSH1 0x0 REVERT JUMPDEST SWAP2 PUSH1 0x7F AND SWAP2 PUSH2 0x2528 JUMP JUMPDEST SWAP1 PUSH1 0x40 MLOAD SWAP2 DUP3 PUSH1 0x0 DUP3 SLOAD SWAP3 PUSH2 0x2567 DUP5 PUSH2 0x2519 JUMP JUMPDEST SWAP1 DUP2 DUP5 MSTORE PUSH1 0x1 SWAP5 DUP6 DUP2 AND SWAP1 DUP2 PUSH1 0x0 EQ PUSH2 0x25D6 JUMPI POP PUSH1 0x1 EQ PUSH2 0x2593 JUMPI JUMPDEST POP POP PUSH2 0x2591 SWAP3 POP SUB DUP4 PUSH2 0x24B2 JUMP JUMPDEST JUMP JUMPDEST SWAP1 SWAP4 SWAP2 POP PUSH1 0x0 MSTORE PUSH1 0x20 SWAP1 DUP2 PUSH1 0x0 KECCAK256 SWAP4 PUSH1 0x0 SWAP2 JUMPDEST DUP2 DUP4 LT PUSH2 0x25BE JUMPI POP POP PUSH2 0x2591 SWAP4 POP DUP3 ADD ADD CODESIZE DUP1 PUSH2 0x2583 JUMP JUMPDEST DUP6 SLOAD DUP9 DUP5 ADD DUP6 ADD MSTORE SWAP5 DUP6 ADD SWAP5 DUP8 SWAP5 POP SWAP2 DUP4 ADD SWAP2 PUSH2 0x25A6 JUMP JUMPDEST SWAP2 POP POP PUSH2 0x2591 SWAP5 POP PUSH1 0x20 SWAP3 POP PUSH1 0xFF NOT AND DUP3 DUP5 ADD MSTORE ISZERO ISZERO PUSH1 0x5 SHL DUP3 ADD ADD CODESIZE DUP1 PUSH2 0x2583 JUMP JUMPDEST CALLER PUSH1 0x0 SWAP1 DUP2 MSTORE PUSH32 0xC03103FC9C0AD7E4001EDE1C469953FC46455D111E3D6DA3B661469B87ECE8D5 PUSH1 0x20 MSTORE PUSH1 0x40 SWAP1 KECCAK256 SLOAD PUSH32 0x97667070C54EF182B0F5858B034BEAC1B6F3089AA2D3188BB1E8929F4FA9B929 SWAP1 PUSH1 0xFF AND ISZERO PUSH2 0xEB3 JUMPI POP JUMP JUMPDEST CALLER PUSH1 0x0 SWAP1 DUP2 MSTORE PUSH32 0x30ADEB818EF77F204F5A603C30FA5332397B6E28FB3B7F9D937AE6A6914716DE PUSH1 0x20 MSTORE PUSH1 0x40 SWAP1 KECCAK256 SLOAD PUSH32 0x65D7A28E3265B37A6474929F336521B332C1681B933F6CB9F3376673440D862A SWAP1 PUSH1 0xFF AND ISZERO PUSH2 0xEB3 JUMPI POP JUMP JUMPDEST CALLER PUSH1 0x0 SWAP1 DUP2 MSTORE PUSH32 0x3617319A054D772F909F7C479A2CEBE5066E836A939412E32403C99029B92EFF PUSH1 0x20 MSTORE PUSH1 0x40 DUP2 KECCAK256 SLOAD PUSH1 0xFF AND ISZERO PUSH2 0xEB3 JUMPI POP JUMP JUMPDEST DUP1 PUSH1 0x0 MSTORE PUSH1 0x3 PUSH1 0x20 MSTORE PUSH1 0x40 PUSH1 0x0 KECCAK256 CALLER PUSH1 0x0 MSTORE PUSH1 0x20 MSTORE PUSH1 0xFF PUSH1 0x40 PUSH1 0x0 KECCAK256 SLOAD AND ISZERO PUSH2 0xEB3 JUMPI POP JUMP JUMPDEST SWAP1 PUSH1 0x0 SWAP2 DUP1 DUP4 MSTORE PUSH1 0x3 PUSH1 0x20 MSTORE PUSH1 0x40 DUP4 KECCAK256 SWAP2 PUSH1 0x1 DUP1 PUSH1 0xA0 SHL SUB AND SWAP2 DUP3 DUP5 MSTORE PUSH1 0x20 MSTORE PUSH1 0xFF PUSH1 0x40 DUP5 KECCAK256 SLOAD AND ISZERO PUSH1 0x0 EQ PUSH2 0x278C JUMPI DUP1 DUP4 MSTORE PUSH1 0x3 PUSH1 0x20 MSTORE PUSH1 0x40 DUP4 KECCAK256 DUP3 DUP5 MSTORE PUSH1 0x20 MSTORE PUSH1 0x40 DUP4 KECCAK256 PUSH1 0x1 PUSH1 0xFF NOT DUP3 SLOAD AND OR SWAP1 SSTORE PUSH32 0x2F8788117E7EFF1D82E926EC794901D17C78024A50270940304540A733656F0D CALLER SWAP4 DUP1 LOG4 PUSH1 0x1 SWAP1 JUMP JUMPDEST POP POP SWAP1 JUMP JUMPDEST SWAP1 PUSH1 0x0 SWAP2 DUP1 DUP4 MSTORE PUSH1 0x3 PUSH1 0x20 MSTORE PUSH1 0x40 DUP4 KECCAK256 SWAP2 PUSH1 0x1 DUP1 PUSH1 0xA0 SHL SUB AND SWAP2 DUP3 DUP5 MSTORE PUSH1 0x20 MSTORE PUSH1 0xFF PUSH1 0x40 DUP5 KECCAK256 SLOAD AND PUSH1 0x0 EQ PUSH2 0x278C JUMPI DUP1 DUP4 MSTORE PUSH1 0x3 PUSH1 0x20 MSTORE PUSH1 0x40 DUP4 KECCAK256 DUP3 DUP5 MSTORE PUSH1 0x20 MSTORE PUSH1 0x40 DUP4 KECCAK256 PUSH1 0xFF NOT DUP2 SLOAD AND SWAP1 SSTORE PUSH32 0xF6391F5C32D9C69D2A47EA670B442974B53935D1EDC7FD64EB21E047A839171B CALLER SWAP4 DUP1 LOG4 PUSH1 0x1 SWAP1 JUMP JUMPDEST PUSH1 0x0 SLOAD PUSH1 0x1 PUSH1 0x1 PUSH1 0xA0 SHL SUB AND CALLER SUB PUSH2 0x281C JUMPI JUMP JUMPDEST PUSH1 0x40 MLOAD PUSH4 0x118CDAA7 PUSH1 0xE0 SHL DUP2 MSTORE CALLER PUSH1 0x4 DUP3 ADD MSTORE PUSH1 0x24 SWAP1 REVERT JUMPDEST ISZERO PUSH2 0x283B JUMPI JUMP JUMPDEST PUSH1 0x40 MLOAD PUSH3 0x461BCD PUSH1 0xE5 SHL DUP2 MSTORE PUSH1 0x20 PUSH1 0x4 DUP3 ADD MSTORE PUSH1 0x23 PUSH1 0x24 DUP3 ADD MSTORE PUSH32 0x4D617820616D6F756E74206D7573742062652067726561746572207468616E20 PUSH1 0x44 DUP3 ADD MSTORE PUSH3 0x36B4B7 PUSH1 0xE9 SHL PUSH1 0x64 DUP3 ADD MSTORE PUSH1 0x84 SWAP1 REVERT JUMPDEST ISZERO PUSH2 0x2893 JUMPI JUMP JUMPDEST PUSH1 0x40 MLOAD PUSH3 0x461BCD PUSH1 0xE5 SHL DUP2 MSTORE PUSH1 0x20 PUSH1 0x4 DUP3 ADD MSTORE PUSH1 0x24 DUP1 DUP3 ADD MSTORE PUSH32 0x4461696C79206C696D6974206D7573742062652067726561746572207468616E PUSH1 0x44 DUP3 ADD MSTORE PUSH4 0x40DAC2F PUSH1 0xE3 SHL PUSH1 0x64 DUP3 ADD MSTORE PUSH1 0x84 SWAP1 REVERT JUMPDEST ISZERO PUSH2 0x28EB JUMPI JUMP JUMPDEST PUSH1 0x40 MLOAD PUSH3 0x461BCD PUSH1 0xE5 SHL DUP2 MSTORE PUSH1 0x20 PUSH1 0x4 DUP3 ADD MSTORE PUSH1 0x24 DUP1 DUP3 ADD MSTORE PUSH32 0x45786368616E67652072617465206D7573742062652067726561746572207468 PUSH1 0x44 DUP3 ADD MSTORE PUSH4 0x616E203 PUSH1 0xE4 SHL PUSH1 0x64 DUP3 ADD MSTORE PUSH1 0x84 SWAP1 REVERT JUMPDEST ISZERO PUSH2 0x2943 JUMPI JUMP JUMPDEST PUSH1 0x40 MLOAD PUSH3 0x461BCD PUSH1 0xE5 SHL DUP2 MSTORE PUSH1 0x20 PUSH1 0x4 DUP3 ADD MSTORE PUSH1 0x18 PUSH1 0x24 DUP3 ADD MSTORE PUSH32 0x537461626C65636F696E206E6F7420737570706F727465640000000000000000 PUSH1 0x44 DUP3 ADD MSTORE PUSH1 0x64 SWAP1 REVERT JUMPDEST ISZERO PUSH2 0x298F JUMPI JUMP JUMPDEST PUSH1 0x40 MLOAD PUSH3 0x461BCD PUSH1 0xE5 SHL DUP2 MSTORE PUSH1 0x20 PUSH1 0x4 DUP3 ADD MSTORE PUSH1 0x14 PUSH1 0x24 DUP3 ADD MSTORE PUSH20 0x416D6F756E742062656C6F77206D696E696D756D PUSH1 0x60 SHL PUSH1 0x44 DUP3 ADD MSTORE PUSH1 0x64 SWAP1 REVERT JUMPDEST ISZERO PUSH2 0x29D2 JUMPI JUMP JUMPDEST PUSH1 0x40 MLOAD PUSH3 0x461BCD PUSH1 0xE5 SHL DUP2 MSTORE PUSH1 0x20 PUSH1 0x4 DUP3 ADD MSTORE PUSH1 0x16 PUSH1 0x24 DUP3 ADD MSTORE PUSH22 0x416D6F756E742065786365656473206D6178696D756D PUSH1 0x50 SHL PUSH1 0x44 DUP3 ADD MSTORE PUSH1 0x64 SWAP1 REVERT JUMPDEST ISZERO PUSH2 0x2A17 JUMPI JUMP JUMPDEST PUSH1 0x40 MLOAD PUSH3 0x461BCD PUSH1 0xE5 SHL DUP2 MSTORE PUSH1 0x20 PUSH1 0x4 DUP3 ADD MSTORE PUSH1 0x1B PUSH1 0x24 DUP3 ADD MSTORE PUSH32 0x496E73756666696369656E7420706F6F6C206C69717569646974790000000000 PUSH1 0x44 DUP3 ADD MSTORE PUSH1 0x64 SWAP1 REVERT JUMPDEST SWAP1 PUSH1 0x1F DUP2 GT PUSH2 0x2A6A JUMPI POP POP POP JUMP JUMPDEST PUSH1 0x0 SWAP2 DUP3 MSTORE PUSH1 0x20 DUP3 KECCAK256 SWAP1 PUSH1 0x20 PUSH1 0x1F DUP6 ADD PUSH1 0x5 SHR DUP4 ADD SWAP5 LT PUSH2 0x2AA6 JUMPI JUMPDEST PUSH1 0x1F ADD PUSH1 0x5 SHR ADD SWAP2 JUMPDEST DUP3 DUP2 LT PUSH2 0x2A9B JUMPI POP POP POP JUMP JUMPDEST DUP2 DUP2 SSTORE PUSH1 0x1 ADD PUSH2 0x2A8F JUMP JUMPDEST SWAP1 SWAP3 POP DUP3 SWAP1 PUSH2 0x2A86 JUMP JUMPDEST PUSH1 0x0 NOT DUP2 EQ PUSH2 0x2ABF JUMPI PUSH1 0x1 ADD SWAP1 JUMP JUMPDEST PUSH4 0x4E487B71 PUSH1 0xE0 SHL PUSH1 0x0 MSTORE PUSH1 0x11 PUSH1 0x4 MSTORE PUSH1 0x24 PUSH1 0x0 REVERT JUMPDEST PUSH1 0xFF PUSH1 0x2 SLOAD AND PUSH2 0x2AE1 JUMPI JUMP JUMPDEST PUSH1 0x40 MLOAD PUSH4 0xD93C0665 PUSH1 0xE0 SHL DUP2 MSTORE PUSH1 0x4 SWAP1 REVERT JUMPDEST PUSH1 0x2 PUSH1 0x1 SLOAD EQ PUSH2 0x2B04 JUMPI PUSH1 0x2 PUSH1 0x1 SSTORE JUMP JUMPDEST PUSH1 0x40 MLOAD PUSH4 0x3EE5AEB5 PUSH1 0xE0 SHL DUP2 MSTORE PUSH1 0x4 SWAP1 REVERT JUMPDEST SWAP1 DUP1 PUSH1 0x20 SWAP4 SWAP3 DUP2 DUP5 MSTORE DUP5 DUP5 ADD CALLDATACOPY PUSH1 0x0 DUP3 DUP3 ADD DUP5 ADD MSTORE PUSH1 0x1F ADD PUSH1 0x1F NOT AND ADD ADD SWAP1 JUMP JUMPDEST SWAP2 SWAP1 DUP3 SUB SWAP2 DUP3 GT PUSH2 0x2ABF JUMPI JUMP JUMPDEST DUP2 ISZERO PUSH2 0x2B4E JUMPI DIV SWAP1 JUMP JUMPDEST PUSH4 0x4E487B71 PUSH1 0xE0 SHL PUSH1 0x0 MSTORE PUSH1 0x12 PUSH1 0x4 MSTORE PUSH1 0x24 PUSH1 0x0 REVERT JUMPDEST SWAP2 SWAP1 DUP3 ADD DUP1 SWAP3 GT PUSH2 0x2ABF JUMPI JUMP JUMPDEST PUSH1 0x40 MLOAD PUSH4 0xA9059CBB PUSH1 0xE0 SHL PUSH1 0x20 DUP3 ADD MSTORE PUSH1 0x1 PUSH1 0x1 PUSH1 0xA0 SHL SUB SWAP1 SWAP3 AND PUSH1 0x24 DUP4 ADD MSTORE PUSH1 0x44 DUP1 DUP4 ADD SWAP4 SWAP1 SWAP4 MSTORE SWAP2 DUP2 MSTORE PUSH1 0x80 DUP2 ADD SWAP2 PUSH1 0x1 PUSH1 0x1 PUSH1 0x40 SHL SUB DUP4 GT DUP3 DUP5 LT OR PUSH2 0xDA2 JUMPI PUSH2 0x2591 SWAP3 PUSH1 0x40 MSTORE JUMPDEST SWAP1 PUSH1 0x0 PUSH1 0x20 SWAP2 DUP3 DUP2 MLOAD SWAP2 ADD DUP3 DUP6 GAS CALL ISZERO PUSH2 0x20A7 JUMPI PUSH1 0x0 MLOAD RETURNDATASIZE PUSH2 0x2C0F JUMPI POP PUSH1 0x1 PUSH1 0x1 PUSH1 0xA0 SHL SUB DUP2 AND EXTCODESIZE ISZERO JUMPDEST PUSH2 0x2BED JUMPI POP JUMP JUMPDEST PUSH1 0x40 MLOAD PUSH4 0x5274AFE7 PUSH1 0xE0 SHL DUP2 MSTORE PUSH1 0x1 PUSH1 0x1 PUSH1 0xA0 SHL SUB SWAP1 SWAP2 AND PUSH1 0x4 DUP3 ADD MSTORE PUSH1 0x24 SWAP1 REVERT JUMPDEST PUSH1 0x1 EQ ISZERO PUSH2 0x2BE6 JUMP JUMPDEST ISZERO PUSH2 0x2C1F JUMPI JUMP JUMPDEST PUSH1 0x40 MLOAD PUSH3 0x461BCD PUSH1 0xE5 SHL DUP2 MSTORE PUSH1 0x20 PUSH1 0x4 DUP3 ADD MSTORE PUSH1 0x1D PUSH1 0x24 DUP3 ADD MSTORE PUSH32 0x416D6F756E74206D7573742062652067726561746572207468616E2030000000 PUSH1 0x44 DUP3 ADD MSTORE PUSH1 0x64 SWAP1 REVERT JUMPDEST PUSH1 0x40 MLOAD PUSH4 0x23B872DD PUSH1 0xE0 SHL PUSH1 0x20 DUP3 ADD MSTORE PUSH1 0x1 PUSH1 0x1 PUSH1 0xA0 SHL SUB SWAP3 DUP4 AND PUSH1 0x24 DUP3 ADD MSTORE SWAP3 SWAP1 SWAP2 AND PUSH1 0x44 DUP4 ADD MSTORE PUSH1 0x64 DUP1 DUP4 ADD SWAP4 SWAP1 SWAP4 MSTORE SWAP2 DUP2 MSTORE PUSH1 0xA0 DUP2 ADD SWAP2 DUP2 DUP4 LT PUSH1 0x1 PUSH1 0x1 PUSH1 0x40 SHL SUB DUP5 GT OR PUSH2 0xDA2 JUMPI PUSH2 0x2591 SWAP3 PUSH1 0x40 MSTORE PUSH2 0x2BBC JUMP JUMPDEST DUP2 DUP2 MUL SWAP3 SWAP2 DUP2 ISZERO SWAP2 DUP5 DIV EQ OR ISZERO PUSH2 0x2ABF JUMPI JUMP JUMPDEST PUSH1 0xFF AND PUSH1 0x4D DUP2 GT PUSH2 0x2ABF JUMPI PUSH1 0xA EXP SWAP1 JUMP JUMPDEST SWAP1 PUSH1 0x1 DUP1 PUSH1 0xA0 SHL SUB AND PUSH1 0x0 MSTORE PUSH1 0x4 PUSH1 0x20 MSTORE PUSH2 0x2D13 PUSH1 0xFF PUSH1 0x40 PUSH1 0x0 KECCAK256 SWAP3 PUSH8 0xDE0B6B3A7640000 SWAP3 DUP4 SWAP2 PUSH1 0x5 DUP7 ADD SLOAD SWAP1 PUSH2 0x2CBC JUMP JUMPDEST DIV SWAP3 SLOAD PUSH1 0xA0 SHR AND PUSH1 0x12 DUP2 SUB PUSH2 0x2D27 JUMPI POP POP SWAP1 JUMP JUMPDEST SWAP2 PUSH2 0x2D35 PUSH2 0x2D3B SWAP3 SWAP4 PUSH2 0x2CCF JUMP JUMPDEST SWAP1 PUSH2 0x2CBC JUMP JUMPDEST DIV SWAP1 JUMP JUMPDEST SWAP1 PUSH1 0x0 SWAP1 PUSH1 0x1 DUP1 PUSH1 0xA0 SHL SUB AND DUP2 MSTORE PUSH1 0x4 PUSH1 0x20 MSTORE PUSH1 0x40 DUP2 KECCAK256 SWAP1 DUP3 PUSH1 0xFF DUP4 SLOAD PUSH1 0xA0 SHR AND PUSH1 0x12 DUP2 SUB PUSH2 0x2DAA JUMPI JUMPDEST POP POP PUSH8 0xDE0B6B3A7640000 SWAP3 DUP4 DUP2 MUL SWAP4 DUP2 DUP6 DIV EQ SWAP1 ISZERO OR ISZERO PUSH2 0x2D96 JUMPI POP PUSH1 0x5 ADD SLOAD PUSH2 0x2D93 SWAP2 PUSH2 0x2B44 JUMP JUMPDEST SWAP1 JUMP JUMPDEST PUSH4 0x4E487B71 PUSH1 0xE0 SHL DUP2 MSTORE PUSH1 0x11 PUSH1 0x4 MSTORE PUSH1 0x24 SWAP1 REVERT JUMPDEST SWAP1 SWAP2 SWAP4 POP PUSH8 0xDE0B6B3A7640000 SWAP2 DUP3 DUP2 MUL SWAP3 DUP2 DUP5 DIV EQ SWAP1 ISZERO OR ISZERO PUSH2 0x2DE3 JUMPI SWAP1 PUSH2 0x2DD5 PUSH2 0x2DDB SWAP3 PUSH2 0x2CCF JUMP JUMPDEST SWAP1 PUSH2 0x2B44 JUMP JUMPDEST SWAP2 CODESIZE DUP1 PUSH2 0x2D69 JUMP JUMPDEST PUSH4 0x4E487B71 PUSH1 0xE0 SHL DUP5 MSTORE PUSH1 0x11 PUSH1 0x4 MSTORE PUSH1 0x24 DUP5 REVERT JUMPDEST SWAP1 PUSH1 0x1 DUP1 PUSH1 0xA0 SHL SUB SWAP1 DUP2 PUSH1 0x0 SWAP4 AND DUP4 MSTORE PUSH1 0x20 SWAP1 PUSH1 0x6 DUP3 MSTORE PUSH1 0x40 SWAP1 DUP2 DUP6 KECCAK256 PUSH3 0x15180 TIMESTAMP DIV DUP7 MSTORE DUP4 MSTORE DUP2 DUP6 KECCAK256 SLOAD SWAP4 DUP6 PUSH1 0x8 SLOAD SWAP7 JUMPDEST DUP8 DUP2 LT PUSH2 0x2E3B JUMPI JUMPDEST POP POP POP POP POP POP POP POP JUMP JUMPDEST DUP3 PUSH2 0x2E45 DUP3 PUSH2 0x23BD JUMP JUMPDEST SWAP2 SWAP1 SLOAD PUSH1 0x3 SWAP3 DUP4 SHL SHR AND DUP1 DUP5 MSTORE PUSH1 0x4 SWAP2 DUP3 DUP10 MSTORE PUSH1 0xFF DUP9 DUP7 KECCAK256 SLOAD PUSH1 0xA8 SHR AND PUSH2 0x2E77 JUMPI POP POP POP PUSH2 0x2E72 SWAP1 PUSH2 0x2AB0 JUMP JUMPDEST PUSH2 0x2E29 JUMP JUMPDEST SWAP6 SWAP2 SWAP10 POP SWAP6 SWAP7 SWAP8 DUP8 SWAP5 POP PUSH2 0x2E8B SWAP3 POP PUSH2 0x2B64 JUMP JUMPDEST SWAP4 DUP2 MSTORE DUP7 DUP7 MSTORE KECCAK256 ADD SLOAD LT PUSH2 0x2EA3 JUMPI DUP1 DUP1 DUP1 DUP1 DUP1 PUSH2 0x2E31 JUMP JUMPDEST MLOAD PUSH3 0x461BCD PUSH1 0xE5 SHL DUP2 MSTORE SWAP2 DUP3 ADD MSTORE PUSH1 0x14 PUSH1 0x24 DUP3 ADD MSTORE PUSH20 0x11185A5B1E481B1A5B5A5D08195E18D959591959 PUSH1 0x62 SHL PUSH1 0x44 DUP3 ADD MSTORE PUSH1 0x64 SWAP2 POP REVERT INVALID LOG2 PUSH5 0x6970667358 0x22 SLT KECCAK256 0xA9 CALLER EXTCODESIZE EQ SWAP3 MSTORE 0x24 REVERT 0xA7 0xEE DUP10 0x5D 0xCA 0xB2 NOT 0x2C 0xAC 0xC3 0xB1 MSIZE PUSH32 0x2FA357EC517FF80B419B0C64736F6C634300081400332F8788117E7EFF1D82E9 0x26 0xEC PUSH26 0x4901D17C78024A50270940304540A733656F0D00000000000000 "},"methodIdentifiers":{"DEFAULT_ADMIN_ROLE()":"a217fddf","FEE_DENOMINATOR()":"d73792a9","MAX_FEE_PERCENTAGE()":"558e44d3","OPERATOR_ROLE()":"f5b541a6","ORACLE_ROLE()":"07e2cea5","PAUSER_ROLE()":"e63ab1e9","addStablecoin(address,uint8,uint256,uint256,uint256,uint256)":"8d8aaf9c","calculateFee(uint256)":"99a5d747","calculatePixAmount(uint256,address)":"21dc0124","calculateStablecoinAmount(uint256,address)":"d876e982","confirmPixPayment(string,string,string)":"a41d2dcf","dailyVolume(address,uint256)":"74c95081","feeCollector()":"c415b95c","feePercentage()":"a001ecdd","fundPool(address,uint256)":"2bfd5146","getPixTransaction(string)":"6e841b3c","getPoolBalance(address)":"d28682ea","getRoleAdmin(bytes32)":"248a9ca3","getStablecoinInfo(address)":"60e74f56","getSupportedStablecoins()":"7c6f73eb","getUserDailyVolume(address)":"4ec6a9fa","grantRole(bytes32,address)":"2f2ff15d","hasRole(bytes32,address)":"91d14854","initiatePixToStablecoin(string,uint256,address)":"859a5aee","initiateStablecoinToPix(address,uint256,string)":"39b70d45","owner()":"8da5cb5b","pause()":"8456cb59","paused()":"5c975abb","pixTransactions(string)":"bb10bc33","renounceOwnership()":"715018a6","renounceRole(bytes32,address)":"36568abe","revokeRole(bytes32,address)":"d547741f","stablecoins(address)":"fa847836","supportedStablecoins(uint256)":"571951b9","supportsInterface(bytes4)":"01ffc9a7","transferOwnership(address)":"f2fde38b","treasury()":"61d027b3","unpause()":"3f4ba83a","updateAddresses(address,address)":"c1d11037","updateFeePercentage(uint256)":"6cad3fb0","updateStablecoin(address,uint256,uint256,uint256,uint256)":"ae6d7154","userNonce(address)":"2e04b8e7","withdrawFromPool(address,uint256,address)":"fac95a9e"}},"storageLayout":{"storage":[{"astId":387,"contract":"contracts/PixStablecoinExchange.sol:PixStablecoinExchange","label":"_owner","offset":0,"slot":"0","type":"t_address"},{"astId":2083,"contract":"contracts/PixStablecoinExchange.sol:PixStablecoinExchange","label":"_status","offset":0,"slot":"1","type":"t_uint256"},{"astId":1973,"contract":"contracts/PixStablecoinExchange.sol:PixStablecoinExchange","label":"_paused","offset":0,"slot":"2","type":"t_bool"},{"astId":26,"contract":"contracts/PixStablecoinExchange.sol:PixStablecoinExchange","label":"_roles","offset":0,"slot":"3","type":"t_mapping(t_bytes32,t_struct(RoleData)21_storage)"},{"astId":5654,"contract":"contracts/PixStablecoinExchange.sol:PixStablecoinExchange","label":"stablecoins","offset":0,"slot":"4","type":"t_mapping(t_address,t_struct(StablecoinInfo)5621_storage)"},{"astId":5659,"contract":"contracts/PixStablecoinExchange.sol:PixStablecoinExchange","label":"pixTransactions","offset":0,"slot":"5","type":"t_mapping(t_string_memory_ptr,t_struct(PixTransaction)5643_storage)"},{"astId":5665,"contract":"contracts/PixStablecoinExchange.sol:PixStablecoinExchange","label":"dailyVolume","offset":0,"slot":"6","type":"t_mapping(t_address,t_mapping(t_uint256,t_uint256))"},{"astId":5669,"contract":"contracts/PixStablecoinExchange.sol:PixStablecoinExchange","label":"userNonce","offset":0,"slot":"7","type":"t_mapping(t_address,t_uint256)"},{"astId":5672,"contract":"contracts/PixStablecoinExchange.sol:PixStablecoinExchange","label":"supportedStablecoins","offset":0,"slot":"8","type":"t_array(t_address)dyn_storage"},{"astId":5675,"contract":"contracts/PixStablecoinExchange.sol:PixStablecoinExchange","label":"feePercentage","offset":0,"slot":"9","type":"t_uint256"},{"astId":5683,"contract":"contracts/PixStablecoinExchange.sol:PixStablecoinExchange","label":"treasury","offset":0,"slot":"10","type":"t_address"},{"astId":5685,"contract":"contracts/PixStablecoinExchange.sol:PixStablecoinExchange","label":"feeCollector","offset":0,"slot":"11","type":"t_address"}],"types":{"t_address":{"encoding":"inplace","label":"address","numberOfBytes":"20"},"t_array(t_address)dyn_storage":{"base":"t_address","encoding":"dynamic_array","label":"address[]","numberOfBytes":"32"},"t_bool":{"encoding":"inplace","label":"bool","numberOfBytes":"1"},"t_bytes32":{"encoding":"inplace","label":"bytes32","numberOfBytes":"32"},"t_contract(IERC20)1346":{"encoding":"inplace","label":"contract IERC20","numberOfBytes":"20"},"t_enum(TransactionStatus)5649":{"encoding":"inplace","label":"enum PixStablecoinExchange.TransactionStatus","numberOfBytes":"1"},"t_mapping(t_address,t_bool)":{"encoding":"mapping","key":"t_address","label":"mapping(address => bool)","numberOfBytes":"32","value":"t_bool"},"t_mapping(t_address,t_mapping(t_uint256,t_uint256))":{"encoding":"mapping","key":"t_address","label":"mapping(address => mapping(uint256 => uint256))","numberOfBytes":"32","value":"t_mapping(t_uint256,t_uint256)"},"t_mapping(t_address,t_struct(StablecoinInfo)5621_storage)":{"encoding":"mapping","key":"t_address","label":"mapping(address => struct PixStablecoinExchange.StablecoinInfo)","numberOfBytes":"32","value":"t_struct(StablecoinInfo)5621_storage"},"t_mapping(t_address,t_uint256)":{"encoding":"mapping","key":"t_address","label":"mapping(address => uint256)","numberOfBytes":"32","value":"t_uint256"},"t_mapping(t_bytes32,t_struct(RoleData)21_storage)":{"encoding":"mapping","key":"t_bytes32","label":"mapping(bytes32 => struct AccessControl.RoleData)","numberOfBytes":"32","value":"t_struct(RoleData)21_storage"},"t_mapping(t_string_memory_ptr,t_struct(PixTransaction)5643_storage)":{"encoding":"mapping","key":"t_string_memory_ptr","label":"mapping(string => struct PixStablecoinExchange.PixTransaction)","numberOfBytes":"32","value":"t_struct(PixTransaction)5643_storage"},"t_mapping(t_uint256,t_uint256)":{"encoding":"mapping","key":"t_uint256","label":"mapping(uint256 => uint256)","numberOfBytes":"32","value":"t_uint256"},"t_string_memory_ptr":{"encoding":"bytes","label":"string","numberOfBytes":"32"},"t_string_storage":{"encoding":"bytes","label":"string","numberOfBytes":"32"},"t_struct(PixTransaction)5643_storage":{"encoding":"inplace","label":"struct PixStablecoinExchange.PixTransaction","members":[{"astId":5623,"contract":"contracts/PixStablecoinExchange.sol:PixStablecoinExchange","label":"pixId","offset":0,"slot":"0","type":"t_string_storage"},{"astId":5625,"contract":"contracts/PixStablecoinExchange.sol:PixStablecoinExchange","label":"user","offset":0,"slot":"1","type":"t_address"},{"astId":5627,"contract":"contracts/PixStablecoinExchange.sol:PixStablecoinExchange","label":"pixAmount","offset":0,"slot":"2","type":"t_uint256"},{"astId":5629,"contract":"contracts/PixStablecoinExchange.sol:PixStablecoinExchange","label":"stablecoin","offset":0,"slot":"3","type":"t_address"},{"astId":5631,"contract":"contracts/PixStablecoinExchange.sol:PixStablecoinExchange","label":"stablecoinAmount","offset":0,"slot":"4","type":"t_uint256"},{"astId":5633,"contract":"contracts/PixStablecoinExchange.sol:PixStablecoinExchange","label":"fee","offset":0,"slot":"5","type":"t_uint256"},{"astId":5635,"contract":"contracts/PixStablecoinExchange.sol:PixStablecoinExchange","label":"timestamp","offset":0,"slot":"6","type":"t_uint256"},{"astId":5638,"contract":"contracts/PixStablecoinExchange.sol:PixStablecoinExchange","label":"status","offset":0,"slot":"7","type":"t_enum(TransactionStatus)5649"},{"astId":5640,"contract":"contracts/PixStablecoinExchange.sol:PixStablecoinExchange","label":"pixKey","offset":0,"slot":"8","type":"t_string_storage"},{"astId":5642,"contract":"contracts/PixStablecoinExchange.sol:PixStablecoinExchange","label":"bankTransactionId","offset":0,"slot":"9","type":"t_string_storage"}],"numberOfBytes":"320"},"t_struct(RoleData)21_storage":{"encoding":"inplace","label":"struct AccessControl.RoleData","members":[{"astId":18,"contract":"contracts/PixStablecoinExchange.sol:PixStablecoinExchange","label":"hasRole","offset":0,"slot":"0","type":"t_mapping(t_address,t_bool)"},{"astId":20,"contract":"contracts/PixStablecoinExchange.sol:PixStablecoinExchange","label":"adminRole","offset":0,"slot":"1","type":"t_bytes32"}],"numberOfBytes":"64"},"t_struct(StablecoinInfo)5621_storage":{"encoding":"inplace","label":"struct PixStablecoinExchange.StablecoinInfo","members":[{"astId":5606,"contract":"contracts/PixStablecoinExchange.sol:PixStablecoinExchange","label":"token","offset":0,"slot":"0","type":"t_contract(IERC20)1346"},{"astId":5608,"contract":"contracts/PixStablecoinExchange.sol:PixStablecoinExchange","label":"decimals","offset":20,"slot":"0","type":"t_uint8"},{"astId":5610,"contract":"contracts/PixStablecoinExchange.sol:PixStablecoinExchange","label":"isActive","offset":21,"slot":"0","type":"t_bool"},{"astId":5612,"contract":"contracts/PixStablecoinExchange.sol:PixStablecoinExchange","label":"minAmount","offset":0,"slot":"1","type":"t_uint256"},{"astId":5614,"contract":"contracts/PixStablecoinExchange.sol:PixStablecoinExchange","label":"maxAmount","offset":0,"slot":"2","type":"t_uint256"},{"astId":5616,"contract":"contracts/PixStablecoinExchange.sol:PixStablecoinExchange","label":"dailyLimit","offset":0,"slot":"3","type":"t_uint256"},{"astId":5618,"contract":"contracts/PixStablecoinExchange.sol:PixStablecoinExchange","label":"poolBalance","offset":0,"slot":"4","type":"t_uint256"},{"astId":5620,"contract":"contracts/PixStablecoinExchange.sol:PixStablecoinExchange","label":"exchangeRate","offset":0,"slot":"5","type":"t_uint256"}],"numberOfBytes":"192"},"t_uint256":{"encoding":"inplace","label":"uint256","numberOfBytes":"32"},"t_uint8":{"encoding":"inplace","label":"uint8","numberOfBytes":"1"}}}}}}