{
  "_format": "hh-sol-artifact-1",
  "contractName": "PixStablecoinExchange",
  "sourceName": "contracts/PixStablecoinExchange.sol",
  "abi": [
    {
      "inputs": [
        {
          "internalType": "address",
          "name": "_treasury",
          "type": "address"
        },
        {
          "internalType": "address",
          "name": "_feeCollector",
          "type": "address"
        },
        {
          "internalType": "address",
          "name": "_initialOwner",
          "type": "address"
        }
      ],
      "stateMutability": "nonpayable",
      "type": "constructor"
    },
    {
      "inputs": [],
      "name": "AccessControlBadConfirmation",
      "type": "error"
    },
    {
      "inputs": [
        {
          "internalType": "address",
          "name": "account",
          "type": "address"
        },
        {
          "internalType": "bytes32",
          "name": "neededRole",
          "type": "bytes32"
        }
      ],
      "name": "AccessControlUnauthorizedAccount",
      "type": "error"
    },
    {
      "inputs": [],
      "name": "EnforcedPause",
      "type": "error"
    },
    {
      "inputs": [],
      "name": "ExpectedPause",
      "type": "error"
    },
    {
      "inputs": [
        {
          "internalType": "address",
          "name": "owner",
          "type": "address"
        }
      ],
      "name": "OwnableInvalidOwner",
      "type": "error"
    },
    {
      "inputs": [
        {
          "internalType": "address",
          "name": "account",
          "type": "address"
        }
      ],
      "name": "OwnableUnauthorizedAccount",
      "type": "error"
    },
    {
      "inputs": [],
      "name": "ReentrancyGuardReentrantCall",
      "type": "error"
    },
    {
      "inputs": [
        {
          "internalType": "address",
          "name": "token",
          "type": "address"
        }
      ],
      "name": "SafeERC20FailedOperation",
      "type": "error"
    },
    {
      "anonymous": false,
      "inputs": [
        {
          "indexed": true,
          "internalType": "address",
          "name": "previousOwner",
          "type": "address"
        },
        {
          "indexed": true,
          "internalType": "address",
          "name": "newOwner",
          "type": "address"
        }
      ],
      "name": "OwnershipTransferred",
      "type": "event"
    },
    {
      "anonymous": false,
      "inputs": [
        {
          "indexed": false,
          "internalType": "address",
          "name": "account",
          "type": "address"
        }
      ],
      "name": "Paused",
      "type": "event"
    },
    {
      "anonymous": false,
      "inputs": [
        {
          "indexed": true,
          "internalType": "string",
          "name": "pixId",
          "type": "string"
        },
        {
          "indexed": true,
          "internalType": "address",
          "name": "user",
          "type": "address"
        },
        {
          "indexed": false,
          "internalType": "uint256",
          "name": "pixAmount",
          "type": "uint256"
        },
        {
          "indexed": false,
          "internalType": "string",
          "name": "bankTransactionId",
          "type": "string"
        }
      ],
      "name": "PixConfirmed",
      "type": "event"
    },
    {
      "anonymous": false,
      "inputs": [
        {
          "indexed": true,
          "internalType": "string",
          "name": "pixId",
          "type": "string"
        },
        {
          "indexed": true,
          "internalType": "address",
          "name": "user",
          "type": "address"
        },
        {
          "indexed": false,
          "internalType": "uint256",
          "name": "pixAmount",
          "type": "uint256"
        },
        {
          "indexed": true,
          "internalType": "address",
          "name": "stablecoin",
          "type": "address"
        },
        {
          "indexed": false,
          "internalType": "uint256",
          "name": "expectedStablecoinAmount",
          "type": "uint256"
        },
        {
          "indexed": false,
          "internalType": "uint256",
          "name": "nonce",
          "type": "uint256"
        }
      ],
      "name": "PixToStablecoinInitiated",
      "type": "event"
    },
    {
      "anonymous": false,
      "inputs": [
        {
          "indexed": true,
          "internalType": "address",
          "name": "stablecoin",
          "type": "address"
        },
        {
          "indexed": false,
          "internalType": "uint256",
          "name": "amount",
          "type": "uint256"
        },
        {
          "indexed": true,
          "internalType": "address",
          "name": "funder",
          "type": "address"
        }
      ],
      "name": "PoolFunded",
      "type": "event"
    },
    {
      "anonymous": false,
      "inputs": [
        {
          "indexed": true,
          "internalType": "address",
          "name": "stablecoin",
          "type": "address"
        },
        {
          "indexed": false,
          "internalType": "uint256",
          "name": "amount",
          "type": "uint256"
        },
        {
          "indexed": true,
          "internalType": "address",
          "name": "recipient",
          "type": "address"
        }
      ],
      "name": "PoolWithdrawn",
      "type": "event"
    },
    {
      "anonymous": false,
      "inputs": [
        {
          "indexed": true,
          "internalType": "bytes32",
          "name": "role",
          "type": "bytes32"
        },
        {
          "indexed": true,
          "internalType": "bytes32",
          "name": "previousAdminRole",
          "type": "bytes32"
        },
        {
          "indexed": true,
          "internalType": "bytes32",
          "name": "newAdminRole",
          "type": "bytes32"
        }
      ],
      "name": "RoleAdminChanged",
      "type": "event"
    },
    {
      "anonymous": false,
      "inputs": [
        {
          "indexed": true,
          "internalType": "bytes32",
          "name": "role",
          "type": "bytes32"
        },
        {
          "indexed": true,
          "internalType": "address",
          "name": "account",
          "type": "address"
        },
        {
          "indexed": true,
          "internalType": "address",
          "name": "sender",
          "type": "address"
        }
      ],
      "name": "RoleGranted",
      "type": "event"
    },
    {
      "anonymous": false,
      "inputs": [
        {
          "indexed": true,
          "internalType": "bytes32",
          "name": "role",
          "type": "bytes32"
        },
        {
          "indexed": true,
          "internalType": "address",
          "name": "account",
          "type": "address"
        },
        {
          "indexed": true,
          "internalType": "address",
          "name": "sender",
          "type": "address"
        }
      ],
      "name": "RoleRevoked",
      "type": "event"
    },
    {
      "anonymous": false,
      "inputs": [
        {
          "indexed": true,
          "internalType": "address",
          "name": "stablecoin",
          "type": "address"
        },
        {
          "indexed": false,
          "internalType": "uint8",
          "name": "decimals",
          "type": "uint8"
        },
        {
          "indexed": false,
          "internalType": "uint256",
          "name": "minAmount",
          "type": "uint256"
        },
        {
          "indexed": false,
          "internalType": "uint256",
          "name": "maxAmount",
          "type": "uint256"
        },
        {
          "indexed": false,
          "internalType": "uint256",
          "name": "dailyLimit",
          "type": "uint256"
        }
      ],
      "name": "StablecoinAdded",
      "type": "event"
    },
    {
      "anonymous": false,
      "inputs": [
        {
          "indexed": true,
          "internalType": "address",
          "name": "user",
          "type": "address"
        },
        {
          "indexed": true,
          "internalType": "address",
          "name": "stablecoin",
          "type": "address"
        },
        {
          "indexed": false,
          "internalType": "uint256",
          "name": "stablecoinAmount",
          "type": "uint256"
        },
        {
          "indexed": false,
          "internalType": "uint256",
          "name": "expectedPixAmount",
          "type": "uint256"
        },
        {
          "indexed": false,
          "internalType": "string",
          "name": "pixKey",
          "type": "string"
        },
        {
          "indexed": false,
          "internalType": "uint256",
          "name": "nonce",
          "type": "uint256"
        }
      ],
      "name": "StablecoinToPixInitiated",
      "type": "event"
    },
    {
      "anonymous": false,
      "inputs": [
        {
          "indexed": true,
          "internalType": "string",
          "name": "pixId",
          "type": "string"
        },
        {
          "indexed": true,
          "internalType": "address",
          "name": "user",
          "type": "address"
        },
        {
          "indexed": true,
          "internalType": "address",
          "name": "stablecoin",
          "type": "address"
        },
        {
          "indexed": false,
          "internalType": "uint256",
          "name": "stablecoinAmount",
          "type": "uint256"
        },
        {
          "indexed": false,
          "internalType": "uint256",
          "name": "fee",
          "type": "uint256"
        }
      ],
      "name": "StablecoinTransferred",
      "type": "event"
    },
    {
      "anonymous": false,
      "inputs": [
        {
          "indexed": true,
          "internalType": "address",
          "name": "stablecoin",
          "type": "address"
        },
        {
          "indexed": false,
          "internalType": "uint256",
          "name": "minAmount",
          "type": "uint256"
        },
        {
          "indexed": false,
          "internalType": "uint256",
          "name": "maxAmount",
          "type": "uint256"
        },
        {
          "indexed": false,
          "internalType": "uint256",
          "name": "dailyLimit",
          "type": "uint256"
        },
        {
          "indexed": false,
          "internalType": "uint256",
          "name": "exchangeRate",
          "type": "uint256"
        }
      ],
      "name": "StablecoinUpdated",
      "type": "event"
    },
    {
      "anonymous": false,
      "inputs": [
        {
          "indexed": false,
          "internalType": "address",
          "name": "account",
          "type": "address"
        }
      ],
      "name": "Unpaused",
      "type": "event"
    },
    {
      "inputs": [],
      "name": "DEFAULT_ADMIN_ROLE",
      "outputs": [
        {
          "internalType": "bytes32",
          "name": "",
          "type": "bytes32"
        }
      ],
      "stateMutability": "view",
      "type": "function"
    },
    {
      "inputs": [],
      "name": "FEE_DENOMINATOR",
      "outputs": [
        {
          "internalType": "uint256",
          "name": "",
          "type": "uint256"
        }
      ],
      "stateMutability": "view",
      "type": "function"
    },
    {
      "inputs": [],
      "name": "MAX_FEE_PERCENTAGE",
      "outputs": [
        {
          "internalType": "uint256",
          "name": "",
          "type": "uint256"
        }
      ],
      "stateMutability": "view",
      "type": "function"
    },
    {
      "inputs": [],
      "name": "OPERATOR_ROLE",
      "outputs": [
        {
          "internalType": "bytes32",
          "name": "",
          "type": "bytes32"
        }
      ],
      "stateMutability": "view",
      "type": "function"
    },
    {
      "inputs": [],
      "name": "ORACLE_ROLE",
      "outputs": [
        {
          "internalType": "bytes32",
          "name": "",
          "type": "bytes32"
        }
      ],
      "stateMutability": "view",
      "type": "function"
    },
    {
      "inputs": [],
      "name": "PAUSER_ROLE",
      "outputs": [
        {
          "internalType": "bytes32",
          "name": "",
          "type": "bytes32"
        }
      ],
      "stateMutability": "view",
      "type": "function"
    },
    {
      "inputs": [
        {
          "internalType": "address",
          "name": "_token",
          "type": "address"
        },
        {
          "internalType": "uint8",
          "name": "_decimals",
          "type": "uint8"
        },
        {
          "internalType": "uint256",
          "name": "_minAmount",
          "type": "uint256"
        },
        {
          "internalType": "uint256",
          "name": "_maxAmount",
          "type": "uint256"
        },
        {
          "internalType": "uint256",
          "name": "_dailyLimit",
          "type": "uint256"
        },
        {
          "internalType": "uint256",
          "name": "_exchangeRate",
          "type": "uint256"
        }
      ],
      "name": "addStablecoin",
      "outputs": [],
      "stateMutability": "nonpayable",
      "type": "function"
    },
    {
      "inputs": [
        {
          "internalType": "uint256",
          "name": "_amount",
          "type": "uint256"
        }
      ],
      "name": "calculateFee",
      "outputs": [
        {
          "internalType": "uint256",
          "name": "",
          "type": "uint256"
        }
      ],
      "stateMutability": "view",
      "type": "function"
    },
    {
      "inputs": [
        {
          "internalType": "uint256",
          "name": "_stablecoinAmount",
          "type": "uint256"
        },
        {
          "internalType": "address",
          "name": "_stablecoin",
          "type": "address"
        }
      ],
      "name": "calculatePixAmount",
      "outputs": [
        {
          "internalType": "uint256",
          "name": "",
          "type": "uint256"
        }
      ],
      "stateMutability": "view",
      "type": "function"
    },
    {
      "inputs": [
        {
          "internalType": "uint256",
          "name": "_pixAmount",
          "type": "uint256"
        },
        {
          "internalType": "address",
          "name": "_stablecoin",
          "type": "address"
        }
      ],
      "name": "calculateStablecoinAmount",
      "outputs": [
        {
          "internalType": "uint256",
          "name": "",
          "type": "uint256"
        }
      ],
      "stateMutability": "view",
      "type": "function"
    },
    {
      "inputs": [
        {
          "internalType": "string",
          "name": "_pixId",
          "type": "string"
        },
        {
          "internalType": "string",
          "name": "_bankTransactionId",
          "type": "string"
        },
        {
          "internalType": "string",
          "name": "_pixKey",
          "type": "string"
        }
      ],
      "name": "confirmPixPayment",
      "outputs": [],
      "stateMutability": "nonpayable",
      "type": "function"
    },
    {
      "inputs": [
        {
          "internalType": "address",
          "name": "",
          "type": "address"
        },
        {
          "internalType": "uint256",
          "name": "",
          "type": "uint256"
        }
      ],
      "name": "dailyVolume",
      "outputs": [
        {
          "internalType": "uint256",
          "name": "",
          "type": "uint256"
        }
      ],
      "stateMutability": "view",
      "type": "function"
    },
    {
      "inputs": [],
      "name": "feeCollector",
      "outputs": [
        {
          "internalType": "address",
          "name": "",
          "type": "address"
        }
      ],
      "stateMutability": "view",
      "type": "function"
    },
    {
      "inputs": [],
      "name": "feePercentage",
      "outputs": [
        {
          "internalType": "uint256",
          "name": "",
          "type": "uint256"
        }
      ],
      "stateMutability": "view",
      "type": "function"
    },
    {
      "inputs": [
        {
          "internalType": "address",
          "name": "_stablecoin",
          "type": "address"
        },
        {
          "internalType": "uint256",
          "name": "_amount",
          "type": "uint256"
        }
      ],
      "name": "fundPool",
      "outputs": [],
      "stateMutability": "nonpayable",
      "type": "function"
    },
    {
      "inputs": [
        {
          "internalType": "string",
          "name": "_pixId",
          "type": "string"
        }
      ],
      "name": "getPixTransaction",
      "outputs": [
        {
          "components": [
            {
              "internalType": "string",
              "name": "pixId",
              "type": "string"
            },
            {
              "internalType": "address",
              "name": "user",
              "type": "address"
            },
            {
              "internalType": "uint256",
              "name": "pixAmount",
              "type": "uint256"
            },
            {
              "internalType": "address",
              "name": "stablecoin",
              "type": "address"
            },
            {
              "internalType": "uint256",
              "name": "stablecoinAmount",
              "type": "uint256"
            },
            {
              "internalType": "uint256",
              "name": "fee",
              "type": "uint256"
            },
            {
              "internalType": "uint256",
              "name": "timestamp",
              "type": "uint256"
            },
            {
              "internalType": "enum PixStablecoinExchange.TransactionStatus",
              "name": "status",
              "type": "uint8"
            },
            {
              "internalType": "string",
              "name": "pixKey",
              "type": "string"
            },
            {
              "internalType": "string",
              "name": "bankTransactionId",
              "type": "string"
            }
          ],
          "internalType": "struct PixStablecoinExchange.PixTransaction",
          "name": "",
          "type": "tuple"
        }
      ],
      "stateMutability": "view",
      "type": "function"
    },
    {
      "inputs": [
        {
          "internalType": "address",
          "name": "_stablecoin",
          "type": "address"
        }
      ],
      "name": "getPoolBalance",
      "outputs": [
        {
          "internalType": "uint256",
          "name": "",
          "type": "uint256"
        }
      ],
      "stateMutability": "view",
      "type": "function"
    },
    {
      "inputs": [
        {
          "internalType": "bytes32",
          "name": "role",
          "type": "bytes32"
        }
      ],
      "name": "getRoleAdmin",
      "outputs": [
        {
          "internalType": "bytes32",
          "name": "",
          "type": "bytes32"
        }
      ],
      "stateMutability": "view",
      "type": "function"
    },
    {
      "inputs": [
        {
          "internalType": "address",
          "name": "_stablecoin",
          "type": "address"
        }
      ],
      "name": "getStablecoinInfo",
      "outputs": [
        {
          "components": [
            {
              "internalType": "contract IERC20",
              "name": "token",
              "type": "address"
            },
            {
              "internalType": "uint8",
              "name": "decimals",
              "type": "uint8"
            },
            {
              "internalType": "bool",
              "name": "isActive",
              "type": "bool"
            },
            {
              "internalType": "uint256",
              "name": "minAmount",
              "type": "uint256"
            },
            {
              "internalType": "uint256",
              "name": "maxAmount",
              "type": "uint256"
            },
            {
              "internalType": "uint256",
              "name": "dailyLimit",
              "type": "uint256"
            },
            {
              "internalType": "uint256",
              "name": "poolBalance",
              "type": "uint256"
            },
            {
              "internalType": "uint256",
              "name": "exchangeRate",
              "type": "uint256"
            }
          ],
          "internalType": "struct PixStablecoinExchange.StablecoinInfo",
          "name": "",
          "type": "tuple"
        }
      ],
      "stateMutability": "view",
      "type": "function"
    },
    {
      "inputs": [],
      "name": "getSupportedStablecoins",
      "outputs": [
        {
          "internalType": "address[]",
          "name": "",
          "type": "address[]"
        }
      ],
      "stateMutability": "view",
      "type": "function"
    },
    {
      "inputs": [
        {
          "internalType": "address",
          "name": "_user",
          "type": "address"
        }
      ],
      "name": "getUserDailyVolume",
      "outputs": [
        {
          "internalType": "uint256",
          "name": "",
          "type": "uint256"
        }
      ],
      "stateMutability": "view",
      "type": "function"
    },
    {
      "inputs": [
        {
          "internalType": "bytes32",
          "name": "role",
          "type": "bytes32"
        },
        {
          "internalType": "address",
          "name": "account",
          "type": "address"
        }
      ],
      "name": "grantRole",
      "outputs": [],
      "stateMutability": "nonpayable",
      "type": "function"
    },
    {
      "inputs": [
        {
          "internalType": "bytes32",
          "name": "role",
          "type": "bytes32"
        },
        {
          "internalType": "address",
          "name": "account",
          "type": "address"
        }
      ],
      "name": "hasRole",
      "outputs": [
        {
          "internalType": "bool",
          "name": "",
          "type": "bool"
        }
      ],
      "stateMutability": "view",
      "type": "function"
    },
    {
      "inputs": [
        {
          "internalType": "string",
          "name": "_pixId",
          "type": "string"
        },
        {
          "internalType": "uint256",
          "name": "_pixAmount",
          "type": "uint256"
        },
        {
          "internalType": "address",
          "name": "_stablecoin",
          "type": "address"
        }
      ],
      "name": "initiatePixToStablecoin",
      "outputs": [],
      "stateMutability": "nonpayable",
      "type": "function"
    },
    {
      "inputs": [
        {
          "internalType": "address",
          "name": "_stablecoin",
          "type": "address"
        },
        {
          "internalType": "uint256",
          "name": "_stablecoinAmount",
          "type": "uint256"
        },
        {
          "internalType": "string",
          "name": "_pixKey",
          "type": "string"
        }
      ],
      "name": "initiateStablecoinToPix",
      "outputs": [],
      "stateMutability": "nonpayable",
      "type": "function"
    },
    {
      "inputs": [],
      "name": "owner",
      "outputs": [
        {
          "internalType": "address",
          "name": "",
          "type": "address"
        }
      ],
      "stateMutability": "view",
      "type": "function"
    },
    {
      "inputs": [],
      "name": "pause",
      "outputs": [],
      "stateMutability": "nonpayable",
      "type": "function"
    },
    {
      "inputs": [],
      "name": "paused",
      "outputs": [
        {
          "internalType": "bool",
          "name": "",
          "type": "bool"
        }
      ],
      "stateMutability": "view",
      "type": "function"
    },
    {
      "inputs": [
        {
          "internalType": "string",
          "name": "",
          "type": "string"
        }
      ],
      "name": "pixTransactions",
      "outputs": [
        {
          "internalType": "string",
          "name": "pixId",
          "type": "string"
        },
        {
          "internalType": "address",
          "name": "user",
          "type": "address"
        },
        {
          "internalType": "uint256",
          "name": "pixAmount",
          "type": "uint256"
        },
        {
          "internalType": "address",
          "name": "stablecoin",
          "type": "address"
        },
        {
          "internalType": "uint256",
          "name": "stablecoinAmount",
          "type": "uint256"
        },
        {
          "internalType": "uint256",
          "name": "fee",
          "type": "uint256"
        },
        {
          "internalType": "uint256",
          "name": "timestamp",
          "type": "uint256"
        },
        {
          "internalType": "enum PixStablecoinExchange.TransactionStatus",
          "name": "status",
          "type": "uint8"
        },
        {
          "internalType": "string",
          "name": "pixKey",
          "type": "string"
        },
        {
          "internalType": "string",
          "name": "bankTransactionId",
          "type": "string"
        }
      ],
      "stateMutability": "view",
      "type": "function"
    },
    {
      "inputs": [],
      "name": "renounceOwnership",
      "outputs": [],
      "stateMutability": "nonpayable",
      "type": "function"
    },
    {
      "inputs": [
        {
          "internalType": "bytes32",
          "name": "role",
          "type": "bytes32"
        },
        {
          "internalType": "address",
          "name": "callerConfirmation",
          "type": "address"
        }
      ],
      "name": "renounceRole",
      "outputs": [],
      "stateMutability": "nonpayable",
      "type": "function"
    },
    {
      "inputs": [
        {
          "internalType": "bytes32",
          "name": "role",
          "type": "bytes32"
        },
        {
          "internalType": "address",
          "name": "account",
          "type": "address"
        }
      ],
      "name": "revokeRole",
      "outputs": [],
      "stateMutability": "nonpayable",
      "type": "function"
    },
    {
      "inputs": [
        {
          "internalType": "address",
          "name": "",
          "type": "address"
        }
      ],
      "name": "stablecoins",
      "outputs": [
        {
          "internalType": "contract IERC20",
          "name": "token",
          "type": "address"
        },
        {
          "internalType": "uint8",
          "name": "decimals",
          "type": "uint8"
        },
        {
          "internalType": "bool",
          "name": "isActive",
          "type": "bool"
        },
        {
          "internalType": "uint256",
          "name": "minAmount",
          "type": "uint256"
        },
        {
          "internalType": "uint256",
          "name": "maxAmount",
          "type": "uint256"
        },
        {
          "internalType": "uint256",
          "name": "dailyLimit",
          "type": "uint256"
        },
        {
          "internalType": "uint256",
          "name": "poolBalance",
          "type": "uint256"
        },
        {
          "internalType": "uint256",
          "name": "exchangeRate",
          "type": "uint256"
        }
      ],
      "stateMutability": "view",
      "type": "function"
    },
    {
      "inputs": [
        {
          "internalType": "uint256",
          "name": "",
          "type": "uint256"
        }
      ],
      "name": "supportedStablecoins",
      "outputs": [
        {
          "internalType": "address",
          "name": "",
          "type": "address"
        }
      ],
      "stateMutability": "view",
      "type": "function"
    },
    {
      "inputs": [
        {
          "internalType": "bytes4",
          "name": "interfaceId",
          "type": "bytes4"
        }
      ],
      "name": "supportsInterface",
      "outputs": [
        {
          "internalType": "bool",
          "name": "",
          "type": "bool"
        }
      ],
      "stateMutability": "view",
      "type": "function"
    },
    {
      "inputs": [
        {
          "internalType": "address",
          "name": "newOwner",
          "type": "address"
        }
      ],
      "name": "transferOwnership",
      "outputs": [],
      "stateMutability": "nonpayable",
      "type": "function"
    },
    {
      "inputs": [],
      "name": "treasury",
      "outputs": [
        {
          "internalType": "address",
          "name": "",
          "type": "address"
        }
      ],
      "stateMutability": "view",
      "type": "function"
    },
    {
      "inputs": [],
      "name": "unpause",
      "outputs": [],
      "stateMutability": "nonpayable",
      "type": "function"
    },
    {
      "inputs": [
        {
          "internalType": "address",
          "name": "_treasury",
          "type": "address"
        },
        {
          "internalType": "address",
          "name": "_feeCollector",
          "type": "address"
        }
      ],
      "name": "updateAddresses",
      "outputs": [],
      "stateMutability": "nonpayable",
      "type": "function"
    },
    {
      "inputs": [
        {
          "internalType": "uint256",
          "name": "_feePercentage",
          "type": "uint256"
        }
      ],
      "name": "updateFeePercentage",
      "outputs": [],
      "stateMutability": "nonpayable",
      "type": "function"
    },
    {
      "inputs": [
        {
          "internalType": "address",
          "name": "_stablecoin",
          "type": "address"
        },
        {
          "internalType": "uint256",
          "name": "_minAmount",
          "type": "uint256"
        },
        {
          "internalType": "uint256",
          "name": "_maxAmount",
          "type": "uint256"
        },
        {
          "internalType": "uint256",
          "name": "_dailyLimit",
          "type": "uint256"
        },
        {
          "internalType": "uint256",
          "name": "_exchangeRate",
          "type": "uint256"
        }
      ],
      "name": "updateStablecoin",
      "outputs": [],
      "stateMutability": "nonpayable",
      "type": "function"
    },
    {
      "inputs": [
        {
          "internalType": "address",
          "name": "",
          "type": "address"
        }
      ],
      "name": "userNonce",
      "outputs": [
        {
          "internalType": "uint256",
          "name": "",
          "type": "uint256"
        }
      ],
      "stateMutability": "view",
      "type": "function"
    },
    {
      "inputs": [
        {
          "internalType": "address",
          "name": "_stablecoin",
          "type": "address"
        },
        {
          "internalType": "uint256",
          "name": "_amount",
          "type": "uint256"
        },
        {
          "internalType": "address",
          "name": "_recipient",
          "type": "address"
        }
      ],
      "name": "withdrawFromPool",
      "outputs": [],
      "stateMutability": "nonpayable",
      "type": "function"
    }
  ],
  "bytecode": "0x608034620001ca57601f6200338c38819003918201601f1916830191906001600160401b03831184841017620001cf578160609285926040958652833981010312620001ca576200005082620001e5565b916200006c826200006460208401620001e5565b9201620001e5565b906001600160a01b03808316918215620001b257816000549660018060a01b03199480868a161760005582885199167f8be0079c531659141344cd1fd0a4f28419497f9722a3daafe3b4186f6b6457e0600080a360018055603260095516958615620001705750169081156200012c576200011d939481600a541617600a55600b541617600b55620000fe81620001fa565b506200010a816200027b565b5062000116816200031e565b50620003bc565b5051612f1190816200045b8239f35b835162461bcd60e51b815260206004820152601d60248201527f496e76616c69642066656520636f6c6c6563746f7220616464726573730000006044820152606490fd5b62461bcd60e51b815260206004820152601860248201527f496e76616c6964207472656173757279206164647265737300000000000000006044820152606490fd5b8451631e4fbdf760e01b815260006004820152602490fd5b600080fd5b634e487b7160e01b600052604160045260246000fd5b51906001600160a01b0382168203620001ca57565b6001600160a01b031660008181527f3617319a054d772f909f7c479a2cebe5066e836a939412e32403c99029b92eff602052604081205490919060ff16620002775781805260036020526040822081835260205260408220600160ff1982541617905533916000805160206200336c8339815191528180a4600190565b5090565b6001600160a01b031660008181527ff89466c3aa8f23377c6aace9f611fcee97b80cbfca673b5d358db167957bd96060205260408120549091907f68e79a7bf1e0bc45d0a330c573bc367f9cf464fd326078812f301165fbda4ef19060ff16620003195780835260036020526040832082845260205260408320600160ff198254161790556000805160206200336c833981519152339380a4600190565b505090565b6001600160a01b031660008181527fc03103fc9c0ad7e4001ede1c469953fc46455d111e3d6da3b661469b87ece8d560205260408120549091907f97667070c54ef182b0f5858b034beac1b6f3089aa2d3188bb1e8929f4fa9b9299060ff16620003195780835260036020526040832082845260205260408320600160ff198254161790556000805160206200336c833981519152339380a4600190565b6001600160a01b031660008181527f30adeb818ef77f204f5a603c30fa5332397b6e28fb3b7f9d937ae6a6914716de60205260408120549091907f65d7a28e3265b37a6474929f336521b332c1681b933f6cb9f3376673440d862a9060ff16620003195780835260036020526040832082845260205260408320600160ff198254161790556000805160206200336c833981519152339380a460019056fe608080604052600436101561001357600080fd5b60003560e01c90816301ffc9a7146122fb5750806307e2cea5146122c057806321dc01241461229a578063248a9ca31461226b5780632bfd5146146121b85780632e04b8e71461217e5780632f2ff15d1461213f57806336568abe146120f857806339b70d4514611e525780633f4ba83a14611de85780634ec6a9fa14611d9d578063558e44d314611d80578063571951b914611d3e5780635c975abb14611d1b57806360e74f5614611c0757806361d027b314611bde5780636cad3fb014611b6f5780636e841b3c1461198b578063715018a61461193257806374c95081146118ea5780637c6f73eb146118225780638456cb59146117c8578063859a5aee146111d65780638d8aaf9c14610fae5780638da5cb5b14610f8557806391d1485414610f3857806399a5d74714610f0b578063a001ecdd14610eed578063a217fddf14610ed1578063a41d2dcf146108bc578063ae6d7154146107e6578063bb10bc33146106c0578063c1d11037146105cb578063c415b95c146105a2578063d28682ea14610565578063d547741f14610524578063d73792a914610507578063d876e982146104d9578063e63ab1e91461049e578063f2fde38b14610410578063f5b541a6146103d5578063fa847836146103495763fac95a9e146101f857600080fd5b3461034457606036600319011261034457610211612364565b6024359061021d61237a565b906102266125f9565b60018060a01b038091169182600052600460205261024e60ff60406000205460a81c1661293c565b610259841515612c18565b81811693841561030b578360005260046020526040600020926004840190828254106102c657826020946102b0927fff6847f88ecf9c1c2ab5dce1df3e75afd82057917dab181db5715f337ef07784975416612b71565b6102bb828254612b37565b9055604051908152a3005b60405162461bcd60e51b815260206004820152601960248201527f496e73756666696369656e7420706f6f6c2062616c616e6365000000000000006044820152606490fd5b60405162461bcd60e51b8152602060048201526011602482015270125b9d985b1a59081c9958da5c1a595b9d607a1b6044820152606490fd5b600080fd5b34610344576020366003190112610344576101006001600160a01b038061036e612364565b16600052600460205260406000208054906001810154600282015460038301549160ff60056004860154950154956040519781168852818160a01c16602089015260a81c16151560408701526060860152608085015260a084015260c083015260e0820152f35b346103445760003660031901126103445760206040517f97667070c54ef182b0f5858b034beac1b6f3089aa2d3188bb1e8929f4fa9b9298152f35b3461034457602036600319011261034457610429612364565b610431612808565b6001600160a01b0390811690811561048557600054826bffffffffffffffffffffffff60a01b821617600055167f8be0079c531659141344cd1fd0a4f28419497f9722a3daafe3b4186f6b6457e0600080a3005b604051631e4fbdf760e01b815260006004820152602490fd5b346103445760003660031901126103445760206040517f65d7a28e3265b37a6474929f336521b332c1681b933f6cb9f3376673440d862a8152f35b346103445760403660031901126103445760206104ff6104f761234e565b600435612ce0565b604051908152f35b346103445760003660031901126103445760206040516127108152f35b346103445760403660031901126103445761056360043561054361234e565b9080600052600360205261055e6001604060002001546126eb565b612791565b005b34610344576020366003190112610344576001600160a01b03610586612364565b1660005260046020526020600460406000200154604051908152f35b3461034457600036600319011261034457600b546040516001600160a01b039091168152602090f35b34610344576040366003190112610344576105e4612364565b6105ec61234e565b906105f56126b1565b6001600160a01b0390811691821561067b5716908115610636576bffffffffffffffffffffffff60a01b9081600a541617600a55600b541617600b55600080f35b60405162461bcd60e51b815260206004820152601d60248201527f496e76616c69642066656520636f6c6c6563746f7220616464726573730000006044820152606490fd5b60405162461bcd60e51b815260206004820152601860248201527f496e76616c6964207472656173757279206164647265737300000000000000006044820152606490fd5b34610344576020366003190112610344576004356001600160401b03811161034457366023820112156103445761079f6107e2610720602061070d819536906024816004013591016124d3565b816040519382858094519384920161240a565b810160058152030190206107d361073682612553565b60018060a01b03926107c58460018301541694600283015490600384015416600484015460058501549060068601549260ff60078801541694610787600961078060088b01612553565b9901612553565b9a6040519e8f9e8f9b8c6101408091528d019061242d565b9a015260408d015260608c015260808b015260a08a015260c089015260e0880190612452565b85820361010087015261242d565b9083820361012085015261242d565b0390f35b346103445760a0366003190112610344576107ff612364565b7f7b85fec0d325faaa2a277cef90302bbf159ed376fdc469c6aec904635a48c818608060243560443593606435608435916108386126b1565b60018060a01b03169586600052600460205261085e60ff60406000205460a81c1661293c565b610869848211612834565b61087481831161288c565b61087f8315156128e4565b86600052600460205282600560406000208660018201558360028201558460038201550155604051938452602084015260408301526060820152a2005b34610344576060366003190112610344576004356001600160401b038111610344576108ec903690600401612390565b906024356001600160401b0381116103445761090c903690600401612390565b92906044356001600160401b0381116103445761092d903690600401612390565b3360009081527ff89466c3aa8f23377c6aace9f611fcee97b80cbfca673b5d358db167957bd96060205260409020549192917f68e79a7bf1e0bc45d0a330c573bc367f9cf464fd326078812f301165fbda4ef19060ff1615610eb35750610992612af3565b6040518486823760208186810160058152030190209260018060a01b0360018501541615610e7657600784015460ff81166005811015610cec57610e315760ff191660011760078501556001600160401b038711610da257610a04876109fb6009870154612519565b60098701612a5c565b866000601f8211600114610dc357600091610db8575b508760011b906000198960031b1c19161760098501555b6001600160401b038211610da257610a5982610a506008870154612519565b60088701612a5c565b600090601f8311600114610d0d579180610afb98927f5514ef95c64d5dca6a23ff02071062c0465dfe587332297e08661fa4a616540694600092610d02575b50508160011b916000199060031b1c19161760088501555b600260018060a01b03600186015416940154610af1604051878982378088810160008152039020946040519384938452604060208501526040840191612b16565b0390a336916124d3565b6040516020818351610b10818385880161240a565b8101600581520301902060ff6007820154166005811015610cec57600103610cb35760018060a01b03600382015416600052600460205260406000207f4eda2d264e1d631f2dc69d156ddd1cb743d5fc8ef4942d54a794cf41d6e098156040600584015492600485015490610b8b8260048301541015612a10565b80546001870154610baa9184916001600160a01b039081169116612b71565b610bb8826004830154612b37565b80600483015585610c5b575b5050600285015460018060a01b03600187015416600052600660205282600020620151804204600052602052610bff83600020918254612b64565b905560078501805460ff191660021790556001850154600390950154825187516001600160a01b0392831698979092169690918291610c44908290849060200161240a565b81010390209382519182526020820152a460018055005b6003870154610c73906001600160a01b031687612ce0565b809110610bc4578154600b54600492610ca9929091610ca09183916001600160a01b039081169116612b71565b82840154612b37565b9101558680610bc4565b60405162461bcd60e51b8152602060048201526011602482015270141256081b9bdd0818dbdb999a5c9b5959607a1b6044820152606490fd5b634e487b7160e01b600052602160045260246000fd5b013590508980610a98565b6008850160005260206000209160005b601f1985168110610d8a575092610afb98926001927f5514ef95c64d5dca6a23ff02071062c0465dfe587332297e08661fa4a61654069583601f19811610610d70575b505050811b016008850155610ab0565b0135600019600384901b60f8161c19169055898080610d60565b90926020600181928686013581550194019101610d1d565b634e487b7160e01b600052604160045260246000fd5b905083013588610a1a565b90506009850160005260206000209060005b601f198a168110610e19575088601f19811610610dff575b5050600187811b016009850155610a31565b84013560001960038a901b60f8161c191690558780610ded565b90916020600181928589013581550193019101610dd5565b60405162461bcd60e51b815260206004820152601d60248201527f5472616e73616374696f6e20616c72656164792070726f6365737365640000006044820152606490fd5b60405162461bcd60e51b8152602060048201526015602482015274151c985b9cd858dd1a5bdb881b9bdd08199bdd5b99605a1b6044820152606490fd5b6044906040519063e2517d3f60e01b82523360048301526024820152fd5b3461034457600036600319011261034457602060405160008152f35b34610344576000366003190112610344576020600954604051908152f35b34610344576020366003190112610344576020612710610f2f600954600435612cbc565b04604051908152f35b3461034457604036600319011261034457610f5161234e565b600435600052600360205260406000209060018060a01b0316600052602052602060ff604060002054166040519015158152f35b34610344576000366003190112610344576000546040516001600160a01b039091168152602090f35b346103445760c036600319011261034457610fc7612364565b6024359060ff8216809203610344576044356064359260843560a43594610fec6126b1565b6001600160a01b0394851695861561119957611009858311612834565b61101482841161288c565b61101f8115156128e4565b86600052600460205260ff60406000205460a81c16611154576005604051916110478361245f565b8883528860208401878152604085019060018252606086018a8152608087019188835260a08801938a855260c08901956000875260e08a0197885260005260046020528d604060002099511689549260ff60a01b905160a01b169160ff60a81b9051151560a81b169269ffffffffffffffffffff60b01b161717178755516001870155516002860155516003850155516004840155519101556008549368010000000000000000851015610da2577f44815923ebf215741a602cf13538482db870148f418fed79e98195ec9b41d20a95611129866001608098016008556123bd565b819291549060031b918a831b921b1916179055604051938452602084015260408301526060820152a2005b60405162461bcd60e51b815260206004820152601960248201527f537461626c65636f696e20616c726561647920657869737473000000000000006044820152606490fd5b60405162461bcd60e51b8152602060048201526015602482015274496e76616c696420746f6b656e206164647265737360581b6044820152606490fd5b34610344576060366003190112610344576004356001600160401b03811161034457611206903690600401612390565b61120e61237a565b611216612af3565b61121e612ad5565b811561178a576024351561173b576001600160a01b0381166000908152600460205260409020546112549060a81c60ff1661293c565b6040518284823760058184019081528190036020019020600101546001600160a01b03166116fe5760049160018060a01b038216600052826020526112df60406000206112a960018201546024351015612988565b6112bb600282015460243511156129cb565b6112c760243533612df7565b6112d384602435612ce0565b94859101541015612a10565b6127106112f0600954602435612cbc565b04604051906112fe8261247b565b6113093684886124d3565b8252336020830152602435604083015260018060a01b038416606083015284608083015260a08201524260c0820152600060e082015260405161134b81612497565b6000815261010082015260405161136181612497565b6000815261012082015260405182868237602081848101600581520301902081518051906001600160401b038211610da25781906113a9826113a38654612519565b86612a5c565b602090601f831160011461169257600092611687575b50508160011b916000199060031b1c19161781555b60208201516001820180546001600160a01b039283166001600160a01b0319918216179091556040840151600284015560608401516003840180549190931691161790556080820151600482015560a082015160058083019190915560c0830151600683015560e08301516007830191811015610cec5760ff801983541691161790556101008201518051906001600160401b038211610da2576114888261147f6008860154612519565b60088601612a5c565b602090601f83116001146116115791806101209492600994600092611606575b50508160011b916000199060031b1c19161760088201555b019101518051906001600160401b038211610da25781906114e5826113a38654612519565b602090601f83116001146115a057600092611595575b50508160011b916000199060031b1c19161790555b33600052600760205260406000206115288154612ab0565b905533600052600760205260406000205493816040519283928337810160008152039020926040519260243584526020840152604083015260018060a01b0316917f6d1276400b00e109932b481f66f784018424206f44125f600584817b73c8204260603393a460018055005b0151905087806114fb565b6000858152602081209350601f198516905b8181106115ee57509084600195949392106115d5575b505050811b019055611510565b015160001960f88460031b161c191690558780806115c8565b929360206001819287860151815501950193016115b2565b015190508a806114a8565b906008840160005260206000209160005b601f198516811061166f575092610120949260019260099583601f19811610611656575b505050811b0160088201556114c0565b015160001960f88460031b161c191690558a8080611646565b91926020600181928685015181550194019201611622565b0151905088806113bf565b9250836000526020600020906000935b601f19841685106116e3576001945083601f198116106116ca575b505050811b0181556113d4565b015160001960f88460031b161c191690558880806116bd565b818101518355602094850194600190930192909101906116a2565b60405162461bcd60e51b815260206004820152601560248201527450495820494420616c72656164792065786973747360581b6044820152606490fd5b60405162461bcd60e51b815260206004820152602160248201527f50495820616d6f756e74206d7573742062652067726561746572207468616e206044820152600360fc1b6064820152608490fd5b60405162461bcd60e51b81526020600482015260166024820152755049582049442063616e6e6f7420626520656d70747960501b6044820152606490fd5b34610344576000366003190112610344576117e1612655565b6117e9612ad5565b600160ff1960025416176002557f62e78cea01bee320cd4e420270b5ea74000d11b0c9f74754ebdbfc544b05a2586020604051338152a1005b3461034457600036600319011261034457604051806008548083526020809301809160086000527ff3f7a9fe364faab93b216da50a3214154f22a0a2b415b23a84c8169e8b636ee39060005b868282106118cd578686611884828803836124b2565b604051928392818401908285525180915260408401929160005b8281106118ad57505050500390f35b83516001600160a01b03168552869550938101939281019260010161189e565b83546001600160a01b03168552909301926001928301920161186e565b34610344576040366003190112610344576001600160a01b0361190b612364565b16600052600660205260406000206024356000526020526020604060002054604051908152f35b346103445760003660031901126103445761194b612808565b600080546001600160a01b0319811682556001600160a01b03167f8be0079c531659141344cd1fd0a4f28419497f9722a3daafe3b4186f6b6457e08280a3005b34610344576020366003190112610344576004356001600160401b038111610344576119bd6020913690600401612390565b919060606101206040516119d08161247b565b8281526000858201526000604082015260008382015260006080820152600060a0820152600060c0820152600060e082015282610100820152015282604051938492833781016005815203019020604051611a2a8161247b565b611a3382612553565b815260018201546001600160a01b0390811660208301526002830154604083015260038301541660608201526004820154608082015260058083015460a0830152600683015460c0830152600783015460ff169290831015610cec576009611ab6916107e29460e0850152611aaa60088201612553565b61010085015201612553565b61012082015260405191829160208352611ade8151610140602086015261016085019061242d565b60018060a01b0360208301511660408501526040820151606085015260018060a01b036060830151166080850152608082015160a085015260a082015160c085015260c082015160e0850152611b3d60e0830151610100860190612452565b610120611b5c61010084015192601f199384888303018489015261242d565b920151908483030161014085015261242d565b3461034457602036600319011261034457600435611b8b6126b1565b6103e88111611b9957600955005b60405162461bcd60e51b815260206004820152601760248201527f4665652070657263656e7461676520746f6f20686967680000000000000000006044820152606490fd5b3461034457600036600319011261034457600a546040516001600160a01b039091168152602090f35b3461034457602036600319011261034457610100611c23612364565b600060e0604051611c338161245f565b8281528260208201528260408201528260608201528260808201528260a08201528260c0820152015260018060a01b038091166000526004602052604060002060405190611c808261245f565b805492831692838352602083019060ff8160a01c16825260ff604085019160a81c16151581526001830154606085019081526002840154916080860192835260ff60038601549460a0880195865260e0600560048901549860c08b01998a52015498019788526040519889525116602088015251151560408701525160608601525160808501525160a08401525160c08301525160e0820152f35b3461034457600036600319011261034457602060ff600254166040519015158152f35b346103445760203660031901126103445760043560085481101561034457611d676020916123bd565b905460405160039290921b1c6001600160a01b03168152f35b346103445760003660031901126103445760206040516103e88152f35b34610344576020366003190112610344576001600160a01b03611dbe612364565b16600052600660205260406000206201518042046000526020526020604060002054604051908152f35b3461034457600036600319011261034457611e01612655565b60025460ff811615611e405760ff19166002557f5db9ee0a495bf2e6ff9c91a7834c1ba4fdd244a5e8aa4e537bd38aeae4b073aa6020604051338152a1005b604051638dfc202b60e01b8152600490fd5b3461034457606036600319011261034457611e6b612364565b6024356044356001600160401b03811161034457611e8d903690600401612390565b9190611e97612af3565b611e9f612ad5565b60018060a01b0392838516948560005260209460048652611eca60ff60406000205460a81c1661293c565b611ed5851515612c18565b82156120b3578660005260048652604060002090815416916040516370a0823160e01b81523360048201528781602481875afa80156120a7578791600091612076575b50106120315791600461201f9492611f8b88611f578199977fa71c386f93f7cfa73e759a0f8f724bef69bc809ef69af8fc78014e03925b2ced9b612d3f565b94611f686001850154871015612988565b611f7860028501548711156129cb565b611f828633612df7565b30903390612c64565b01611f97868254612b64565b9055611fb2612710611fab60095484612cbc565b0482612b37565b9033600052600788526040600020611fca8154612ab0565b9055336000526006885260406000206201518042046000528852611ff46040600020918254612b64565b9055336000526007875260406000205496604051958652850152608060408501526080840191612b16565b9260608201528033930390a360018055005b60405162461bcd60e51b815260048101889052601f60248201527f496e73756666696369656e7420737461626c65636f696e2062616c616e6365006044820152606490fd5b809250898092503d83116120a0575b61208f81836124b2565b81010312610344578690518a611f18565b503d612085565b6040513d6000823e3d90fd5b60405162461bcd60e51b815260048101879052601760248201527f504958206b65792063616e6e6f7420626520656d7074790000000000000000006044820152606490fd5b346103445760403660031901126103445761211161234e565b336001600160a01b0382160361212d5761056390600435612791565b60405163334bd91960e11b8152600490fd5b346103445760403660031901126103445761056360043561215e61234e565b908060005260036020526121796001604060002001546126eb565b612711565b34610344576020366003190112610344576001600160a01b0361219f612364565b1660005260076020526020604060002054604051908152f35b34610344576040366003190112610344576121d1612364565b602435906121dd6125f9565b600460018060a01b0380921691826000528160205261220660ff60406000205460a81c1661293c565b612211841515612c18565b826000528160205261222f8460406000209283541630903390612c64565b0161223b838254612b64565b90556040519182527f50e73928be07b534e0beea032889bb051f54b4a046bb43c73625b53db520ab2660203393a3005b346103445760203660031901126103445760043560005260036020526020600160406000200154604051908152f35b346103445760403660031901126103445760206104ff6122b861234e565b600435612d3f565b346103445760003660031901126103445760206040517f68e79a7bf1e0bc45d0a330c573bc367f9cf464fd326078812f301165fbda4ef18152f35b34610344576020366003190112610344576004359063ffffffff60e01b821680920361034457602091637965db0b60e01b811490811561233d575b5015158152f35b6301ffc9a760e01b14905083612336565b602435906001600160a01b038216820361034457565b600435906001600160a01b038216820361034457565b604435906001600160a01b038216820361034457565b9181601f84011215610344578235916001600160401b038311610344576020838186019501011161034457565b6008548110156123f45760086000527ff3f7a9fe364faab93b216da50a3214154f22a0a2b415b23a84c8169e8b636ee30190600090565b634e487b7160e01b600052603260045260246000fd5b60005b83811061241d5750506000910152565b818101518382015260200161240d565b906020916124468151809281855285808601910161240a565b601f01601f1916010190565b906005821015610cec5752565b61010081019081106001600160401b03821117610da257604052565b61014081019081106001600160401b03821117610da257604052565b602081019081106001600160401b03821117610da257604052565b90601f801991011681019081106001600160401b03821117610da257604052565b9291926001600160401b038211610da257604051916124fc601f8201601f1916602001846124b2565b829481845281830111610344578281602093846000960137010152565b90600182811c92168015612549575b602083101461253357565b634e487b7160e01b600052602260045260246000fd5b91607f1691612528565b906040519182600082549261256784612519565b9081845260019485811690816000146125d65750600114612593575b5050612591925003836124b2565b565b9093915060005260209081600020936000915b8183106125be57505061259193508201013880612583565b855488840185015294850194879450918301916125a6565b91505061259194506020925060ff191682840152151560051b8201013880612583565b3360009081527fc03103fc9c0ad7e4001ede1c469953fc46455d111e3d6da3b661469b87ece8d560205260409020547f97667070c54ef182b0f5858b034beac1b6f3089aa2d3188bb1e8929f4fa9b9299060ff1615610eb35750565b3360009081527f30adeb818ef77f204f5a603c30fa5332397b6e28fb3b7f9d937ae6a6914716de60205260409020547f65d7a28e3265b37a6474929f336521b332c1681b933f6cb9f3376673440d862a9060ff1615610eb35750565b3360009081527f3617319a054d772f909f7c479a2cebe5066e836a939412e32403c99029b92eff602052604081205460ff1615610eb35750565b80600052600360205260406000203360005260205260ff6040600020541615610eb35750565b906000918083526003602052604083209160018060a01b03169182845260205260ff6040842054161560001461278c5780835260036020526040832082845260205260408320600160ff198254161790557f2f8788117e7eff1d82e926ec794901d17c78024a50270940304540a733656f0d339380a4600190565b505090565b906000918083526003602052604083209160018060a01b03169182845260205260ff60408420541660001461278c578083526003602052604083208284526020526040832060ff1981541690557ff6391f5c32d9c69d2a47ea670b442974b53935d1edc7fd64eb21e047a839171b339380a4600190565b6000546001600160a01b0316330361281c57565b60405163118cdaa760e01b8152336004820152602490fd5b1561283b57565b60405162461bcd60e51b815260206004820152602360248201527f4d617820616d6f756e74206d7573742062652067726561746572207468616e2060448201526236b4b760e91b6064820152608490fd5b1561289357565b60405162461bcd60e51b8152602060048201526024808201527f4461696c79206c696d6974206d7573742062652067726561746572207468616e604482015263040dac2f60e31b6064820152608490fd5b156128eb57565b60405162461bcd60e51b8152602060048201526024808201527f45786368616e67652072617465206d75737420626520677265617465722074686044820152630616e20360e41b6064820152608490fd5b1561294357565b60405162461bcd60e51b815260206004820152601860248201527f537461626c65636f696e206e6f7420737570706f7274656400000000000000006044820152606490fd5b1561298f57565b60405162461bcd60e51b8152602060048201526014602482015273416d6f756e742062656c6f77206d696e696d756d60601b6044820152606490fd5b156129d257565b60405162461bcd60e51b8152602060048201526016602482015275416d6f756e742065786365656473206d6178696d756d60501b6044820152606490fd5b15612a1757565b60405162461bcd60e51b815260206004820152601b60248201527f496e73756666696369656e7420706f6f6c206c697175696469747900000000006044820152606490fd5b90601f8111612a6a57505050565b600091825260208220906020601f850160051c83019410612aa6575b601f0160051c01915b828110612a9b57505050565b818155600101612a8f565b9092508290612a86565b6000198114612abf5760010190565b634e487b7160e01b600052601160045260246000fd5b60ff60025416612ae157565b60405163d93c066560e01b8152600490fd5b600260015414612b04576002600155565b604051633ee5aeb560e01b8152600490fd5b908060209392818452848401376000828201840152601f01601f1916010190565b91908203918211612abf57565b8115612b4e570490565b634e487b7160e01b600052601260045260246000fd5b91908201809211612abf57565b60405163a9059cbb60e01b60208201526001600160a01b03909216602483015260448083019390935291815260808101916001600160401b03831182841017610da257612591926040525b906000602091828151910182855af1156120a7576000513d612c0f57506001600160a01b0381163b155b612bed5750565b604051635274afe760e01b81526001600160a01b039091166004820152602490fd5b60011415612be6565b15612c1f57565b60405162461bcd60e51b815260206004820152601d60248201527f416d6f756e74206d7573742062652067726561746572207468616e20300000006044820152606490fd5b6040516323b872dd60e01b60208201526001600160a01b03928316602482015292909116604483015260648083019390935291815260a08101918183106001600160401b03841117610da25761259192604052612bbc565b81810292918115918404141715612abf57565b60ff16604d8111612abf57600a0a90565b9060018060a01b03166000526004602052612d1360ff604060002092670de0b6b3a7640000928391600586015490612cbc565b04925460a01c1660128103612d2757505090565b91612d35612d3b9293612ccf565b90612cbc565b0490565b9060009060018060a01b03168152600460205260408120908260ff835460a01c1660128103612daa575b5050670de0b6b3a764000092838102938185041490151715612d96575060050154612d9391612b44565b90565b634e487b7160e01b81526011600452602490fd5b90919350670de0b6b3a764000091828102928184041490151715612de35790612dd5612ddb92612ccf565b90612b44565b913880612d69565b634e487b7160e01b84526011600452602484fd5b9060018060a01b0390816000931683526020906006825260409081852062015180420486528352818520549385600854965b878110612e3b575b5050505050505050565b82612e45826123bd565b919054600392831b1c1680845260049182895260ff8886205460a81c16612e7757505050612e7290612ab0565b612e29565b95919950959697879450612e8b9250612b64565b93815286865220015410612ea3578080808080612e31565b5162461bcd60e51b815291820152601460248201527311185a5b1e481b1a5b5a5d08195e18d95959195960621b604482015260649150fdfea2646970667358221220a9333b14925224fda7ee895dcab2192cacc3b1597f2fa357ec517ff80b419b0c64736f6c634300081400332f8788117e7eff1d82e926ec794901d17c78024a50270940304540a733656f0d",
  "linkReferences": {},
  "deployedLinkReferences": {}
}