{
  "_format": "hh-sol-artifact-1",
  "contractName": "PixBrlaExchange",
  "sourceName": "contracts/core/PixBrlaExchange.sol",
  "abi": [
    {
      "inputs": [
        {
          "internalType": "address",
          "name": "_brlaToken",
          "type": "address"
        },
        {
          "internalType": "address",
          "name": "_pixOracle",
          "type": "address"
        },
        {
          "internalType": "address",
          "name": "_treasury",
          "type": "address"
        },
        {
          "internalType": "address",
          "name": "_feeCollector",
          "type": "address"
        },
        {
          "internalType": "address",
          "name": "initialOwner",
          "type": "address"
        }
      ],
      "stateMutability": "nonpayable",
      "type": "constructor"
    },
    {
      "inputs": [],
      "name": "EnforcedPause",
      "type": "error"
    },
    {
      "inputs": [],
      "name": "ExpectedPause",
      "type": "error"
    },
    {
      "inputs": [
        {
          "internalType": "address",
          "name": "owner",
          "type": "address"
        }
      ],
      "name": "OwnableInvalidOwner",
      "type": "error"
    },
    {
      "inputs": [
        {
          "internalType": "address",
          "name": "account",
          "type": "address"
        }
      ],
      "name": "OwnableUnauthorizedAccount",
      "type": "error"
    },
    {
      "inputs": [],
      "name": "ReentrancyGuardReentrantCall",
      "type": "error"
    },
    {
      "anonymous": false,
      "inputs": [
        {
          "indexed": false,
          "internalType": "address",
          "name": "treasury",
          "type": "address"
        },
        {
          "indexed": false,
          "internalType": "address",
          "name": "feeCollector",
          "type": "address"
        },
        {
          "indexed": false,
          "internalType": "address",
          "name": "pixOracle",
          "type": "address"
        }
      ],
      "name": "AddressesUpdated",
      "type": "event"
    },
    {
      "anonymous": false,
      "inputs": [
        {
          "indexed": true,
          "internalType": "address",
          "name": "user",
          "type": "address"
        },
        {
          "indexed": false,
          "internalType": "uint256",
          "name": "brlaAmount",
          "type": "uint256"
        },
        {
          "indexed": false,
          "internalType": "uint256",
          "name": "pixAmount",
          "type": "uint256"
        },
        {
          "indexed": false,
          "internalType": "uint256",
          "name": "fee",
          "type": "uint256"
        },
        {
          "indexed": false,
          "internalType": "string",
          "name": "pixKey",
          "type": "string"
        }
      ],
      "name": "BrlaToPixCompleted",
      "type": "event"
    },
    {
      "anonymous": false,
      "inputs": [
        {
          "indexed": true,
          "internalType": "address",
          "name": "user",
          "type": "address"
        },
        {
          "indexed": false,
          "internalType": "uint256",
          "name": "brlaAmount",
          "type": "uint256"
        },
        {
          "indexed": false,
          "internalType": "uint256",
          "name": "expectedPixAmount",
          "type": "uint256"
        },
        {
          "indexed": false,
          "internalType": "string",
          "name": "pixKey",
          "type": "string"
        },
        {
          "indexed": false,
          "internalType": "uint256",
          "name": "nonce",
          "type": "uint256"
        }
      ],
      "name": "BrlaToPixInitiated",
      "type": "event"
    },
    {
      "anonymous": false,
      "inputs": [
        {
          "indexed": false,
          "internalType": "uint256",
          "name": "feePercentage",
          "type": "uint256"
        },
        {
          "indexed": false,
          "internalType": "uint256",
          "name": "minPixAmount",
          "type": "uint256"
        },
        {
          "indexed": false,
          "internalType": "uint256",
          "name": "maxPixAmount",
          "type": "uint256"
        },
        {
          "indexed": false,
          "internalType": "uint256",
          "name": "dailyLimit",
          "type": "uint256"
        }
      ],
      "name": "ConfigurationUpdated",
      "type": "event"
    },
    {
      "anonymous": false,
      "inputs": [
        {
          "indexed": true,
          "internalType": "address",
          "name": "previousOwner",
          "type": "address"
        },
        {
          "indexed": true,
          "internalType": "address",
          "name": "newOwner",
          "type": "address"
        }
      ],
      "name": "OwnershipTransferred",
      "type": "event"
    },
    {
      "anonymous": false,
      "inputs": [
        {
          "indexed": false,
          "internalType": "address",
          "name": "account",
          "type": "address"
        }
      ],
      "name": "Paused",
      "type": "event"
    },
    {
      "anonymous": false,
      "inputs": [
        {
          "indexed": true,
          "internalType": "string",
          "name": "pixId",
          "type": "string"
        },
        {
          "indexed": true,
          "internalType": "address",
          "name": "user",
          "type": "address"
        },
        {
          "indexed": false,
          "internalType": "uint256",
          "name": "pixAmount",
          "type": "uint256"
        },
        {
          "indexed": false,
          "internalType": "uint256",
          "name": "brlaAmount",
          "type": "uint256"
        },
        {
          "indexed": false,
          "internalType": "uint256",
          "name": "fee",
          "type": "uint256"
        }
      ],
      "name": "PixToBrlaCompleted",
      "type": "event"
    },
    {
      "anonymous": false,
      "inputs": [
        {
          "indexed": true,
          "internalType": "string",
          "name": "pixId",
          "type": "string"
        },
        {
          "indexed": true,
          "internalType": "address",
          "name": "user",
          "type": "address"
        },
        {
          "indexed": false,
          "internalType": "uint256",
          "name": "pixAmount",
          "type": "uint256"
        },
        {
          "indexed": false,
          "internalType": "uint256",
          "name": "expectedBrlaAmount",
          "type": "uint256"
        },
        {
          "indexed": false,
          "internalType": "uint256",
          "name": "nonce",
          "type": "uint256"
        }
      ],
      "name": "PixToBrlaInitiated",
      "type": "event"
    },
    {
      "anonymous": false,
      "inputs": [
        {
          "indexed": false,
          "internalType": "address",
          "name": "account",
          "type": "address"
        }
      ],
      "name": "Unpaused",
      "type": "event"
    },
    {
      "inputs": [],
      "name": "CONVERSION_RATE",
      "outputs": [
        {
          "internalType": "uint256",
          "name": "",
          "type": "uint256"
        }
      ],
      "stateMutability": "view",
      "type": "function"
    },
    {
      "inputs": [],
      "name": "FEE_DENOMINATOR",
      "outputs": [
        {
          "internalType": "uint256",
          "name": "",
          "type": "uint256"
        }
      ],
      "stateMutability": "view",
      "type": "function"
    },
    {
      "inputs": [],
      "name": "brlaToken",
      "outputs": [
        {
          "internalType": "contract BRLAToken",
          "name": "",
          "type": "address"
        }
      ],
      "stateMutability": "view",
      "type": "function"
    },
    {
      "inputs": [
        {
          "internalType": "uint256",
          "name": "amount",
          "type": "uint256"
        }
      ],
      "name": "calculateFee",
      "outputs": [
        {
          "internalType": "uint256",
          "name": "",
          "type": "uint256"
        }
      ],
      "stateMutability": "view",
      "type": "function"
    },
    {
      "inputs": [
        {
          "internalType": "string",
          "name": "pixId",
          "type": "string"
        }
      ],
      "name": "completePixToBrla",
      "outputs": [],
      "stateMutability": "nonpayable",
      "type": "function"
    },
    {
      "inputs": [
        {
          "internalType": "address",
          "name": "",
          "type": "address"
        }
      ],
      "name": "dailyBrlaToPixVolume",
      "outputs": [
        {
          "internalType": "uint256",
          "name": "",
          "type": "uint256"
        }
      ],
      "stateMutability": "view",
      "type": "function"
    },
    {
      "inputs": [],
      "name": "dailyLimit",
      "outputs": [
        {
          "internalType": "uint256",
          "name": "",
          "type": "uint256"
        }
      ],
      "stateMutability": "view",
      "type": "function"
    },
    {
      "inputs": [
        {
          "internalType": "address",
          "name": "",
          "type": "address"
        }
      ],
      "name": "dailyPixTobrlaVolume",
      "outputs": [
        {
          "internalType": "uint256",
          "name": "",
          "type": "uint256"
        }
      ],
      "stateMutability": "view",
      "type": "function"
    },
    {
      "inputs": [],
      "name": "feeCollector",
      "outputs": [
        {
          "internalType": "address",
          "name": "",
          "type": "address"
        }
      ],
      "stateMutability": "view",
      "type": "function"
    },
    {
      "inputs": [],
      "name": "feePercentage",
      "outputs": [
        {
          "internalType": "uint256",
          "name": "",
          "type": "uint256"
        }
      ],
      "stateMutability": "view",
      "type": "function"
    },
    {
      "inputs": [],
      "name": "getConversionRate",
      "outputs": [
        {
          "internalType": "uint256",
          "name": "",
          "type": "uint256"
        }
      ],
      "stateMutability": "pure",
      "type": "function"
    },
    {
      "inputs": [
        {
          "internalType": "address",
          "name": "user",
          "type": "address"
        }
      ],
      "name": "getUserDailyLimits",
      "outputs": [
        {
          "internalType": "uint256",
          "name": "pixToBrlaUsed",
          "type": "uint256"
        },
        {
          "internalType": "uint256",
          "name": "brlaToPixUsed",
          "type": "uint256"
        },
        {
          "internalType": "uint256",
          "name": "remainingLimit",
          "type": "uint256"
        }
      ],
      "stateMutability": "view",
      "type": "function"
    },
    {
      "inputs": [
        {
          "internalType": "address",
          "name": "user",
          "type": "address"
        }
      ],
      "name": "getUserNonce",
      "outputs": [
        {
          "internalType": "uint256",
          "name": "",
          "type": "uint256"
        }
      ],
      "stateMutability": "view",
      "type": "function"
    },
    {
      "inputs": [
        {
          "internalType": "uint256",
          "name": "brlaAmount",
          "type": "uint256"
        },
        {
          "internalType": "string",
          "name": "pixKey",
          "type": "string"
        }
      ],
      "name": "initiateBrlaToPixConversion",
      "outputs": [],
      "stateMutability": "nonpayable",
      "type": "function"
    },
    {
      "inputs": [
        {
          "internalType": "string",
          "name": "pixId",
          "type": "string"
        },
        {
          "internalType": "uint256",
          "name": "expectedAmount",
          "type": "uint256"
        }
      ],
      "name": "initiatePixToBrla",
      "outputs": [],
      "stateMutability": "nonpayable",
      "type": "function"
    },
    {
      "inputs": [
        {
          "internalType": "address",
          "name": "",
          "type": "address"
        }
      ],
      "name": "lastTransactionDay",
      "outputs": [
        {
          "internalType": "uint256",
          "name": "",
          "type": "uint256"
        }
      ],
      "stateMutability": "view",
      "type": "function"
    },
    {
      "inputs": [],
      "name": "maxPixAmount",
      "outputs": [
        {
          "internalType": "uint256",
          "name": "",
          "type": "uint256"
        }
      ],
      "stateMutability": "view",
      "type": "function"
    },
    {
      "inputs": [],
      "name": "minPixAmount",
      "outputs": [
        {
          "internalType": "uint256",
          "name": "",
          "type": "uint256"
        }
      ],
      "stateMutability": "view",
      "type": "function"
    },
    {
      "inputs": [],
      "name": "owner",
      "outputs": [
        {
          "internalType": "address",
          "name": "",
          "type": "address"
        }
      ],
      "stateMutability": "view",
      "type": "function"
    },
    {
      "inputs": [],
      "name": "pause",
      "outputs": [],
      "stateMutability": "nonpayable",
      "type": "function"
    },
    {
      "inputs": [],
      "name": "paused",
      "outputs": [
        {
          "internalType": "bool",
          "name": "",
          "type": "bool"
        }
      ],
      "stateMutability": "view",
      "type": "function"
    },
    {
      "inputs": [],
      "name": "pixOracle",
      "outputs": [
        {
          "internalType": "contract PixOracle",
          "name": "",
          "type": "address"
        }
      ],
      "stateMutability": "view",
      "type": "function"
    },
    {
      "inputs": [
        {
          "internalType": "string",
          "name": "",
          "type": "string"
        }
      ],
      "name": "processedPixIds",
      "outputs": [
        {
          "internalType": "bool",
          "name": "",
          "type": "bool"
        }
      ],
      "stateMutability": "view",
      "type": "function"
    },
    {
      "inputs": [],
      "name": "renounceOwnership",
      "outputs": [],
      "stateMutability": "nonpayable",
      "type": "function"
    },
    {
      "inputs": [
        {
          "internalType": "address",
          "name": "newOwner",
          "type": "address"
        }
      ],
      "name": "transferOwnership",
      "outputs": [],
      "stateMutability": "nonpayable",
      "type": "function"
    },
    {
      "inputs": [],
      "name": "treasury",
      "outputs": [
        {
          "internalType": "address",
          "name": "",
          "type": "address"
        }
      ],
      "stateMutability": "view",
      "type": "function"
    },
    {
      "inputs": [],
      "name": "unpause",
      "outputs": [],
      "stateMutability": "nonpayable",
      "type": "function"
    },
    {
      "inputs": [
        {
          "internalType": "address",
          "name": "_treasury",
          "type": "address"
        },
        {
          "internalType": "address",
          "name": "_feeCollector",
          "type": "address"
        },
        {
          "internalType": "address",
          "name": "_pixOracle",
          "type": "address"
        }
      ],
      "name": "updateAddresses",
      "outputs": [],
      "stateMutability": "nonpayable",
      "type": "function"
    },
    {
      "inputs": [
        {
          "internalType": "uint256",
          "name": "_feePercentage",
          "type": "uint256"
        },
        {
          "internalType": "uint256",
          "name": "_minPixAmount",
          "type": "uint256"
        },
        {
          "internalType": "uint256",
          "name": "_maxPixAmount",
          "type": "uint256"
        },
        {
          "internalType": "uint256",
          "name": "_dailyLimit",
          "type": "uint256"
        }
      ],
      "name": "updateConfiguration",
      "outputs": [],
      "stateMutability": "nonpayable",
      "type": "function"
    },
    {
      "inputs": [
        {
          "internalType": "address",
          "name": "",
          "type": "address"
        }
      ],
      "name": "userNonce",
      "outputs": [
        {
          "internalType": "uint256",
          "name": "",
          "type": "uint256"
        }
      ],
      "stateMutability": "view",
      "type": "function"
    }
  ],
  "bytecode": "0x60a034620002b857601f62001c8238819003918201601f191683019291906001600160401b03841183851017620002bd578160a09284926040968752833981010312620002b8576200005181620002d3565b906200006060208201620002d3565b906200006e848201620002d3565b9160806200007f60608401620002d3565b926001600160a01b03918291620000979101620002d3565b16938415620002a057816000549660018060a01b03199680888a1617600055828a5199167f8be0079c531659141344cd1fd0a4f28419497f9722a3daafe3b4186f6b6457e0600080a3600180556032600355670de0b6b3a764000060045569021e19e0c9bab2400000600555690a968163f0a57b400000600655169586156200025e5750818316156200021a578116928315620001d65716938415620001925760805260025490610100600160a81b039060081b1690610100600160a81b031916176002558160075416176007556008541617600855516119999081620002e9823960805181818161040e01528181610e9801526112ce0152f35b855162461bcd60e51b815260206004820152601d60248201527f496e76616c69642066656520636f6c6c6563746f7220616464726573730000006044820152606490fd5b865162461bcd60e51b815260206004820152601860248201527f496e76616c6964207472656173757279206164647265737300000000000000006044820152606490fd5b865162461bcd60e51b815260206004820152601a60248201527f496e76616c696420504958206f7261636c6520616464726573730000000000006044820152606490fd5b62461bcd60e51b815260206004820152601a60248201527f496e76616c69642042524c4120746f6b656e20616464726573730000000000006044820152606490fd5b8651631e4fbdf760e01b815260006004820152602490fd5b600080fd5b634e487b7160e01b600052604160045260246000fd5b51906001600160a01b0382168203620002b85756fe6040608081526004908136101561001557600080fd5b600091823560e01c80632b89a6561461125d5780632c8bff311461020f5780632e04b8e714610d3a5780632f1416bc14611230578063334c14391461108b5780633718e10414610ec75780633939bfac14610e835780633f4ba83a14610e1a578063563dcbd314610dfd5780635a14fcbe14610dde5780635c975abb14610dba57806361d027b314610d9157806367eeba0c14610d725780636834e3a814610d3a5780636f3a8ef914610d025780636f5082e014610a82578063715018a614610a285780638456cb59146109cd5780638da5cb5b146109a5578063996467001461096d57806399a5d7471461093e578063a001ecdd1461091f578063af59c95f146108e7578063bc76920014610843578063c415b95c1461081a578063d73792a9146107fd578063f00e7121146102c6578063f2fde38b14610236578063f36089ec1461020f5763f95acca31461016b57600080fd5b3461020b57602036600319011261020b5780359067ffffffffffffffff82116102075736602383011215610207578101356101a58161176a565b906101b284519283611748565b8082526020820192366024838301011161020357926101ee9260209687848195602460ff99018637830101528551938492839251928391611786565b8101600c815203019020541690519015158152f35b8580fd5b8380fd5b8280fd5b50503461023257816003193601126102325760209051670de0b6b3a76400008152f35b5080fd5b503461020b57602036600319011261020b57610250611708565b906102596117a9565b6001600160a01b039182169283156102b0575050600054826bffffffffffffffffffffffff60a01b821617600055167f8be0079c531659141344cd1fd0a4f28419497f9722a3daafe3b4186f6b6457e0600080a380f35b51631e4fbdf760e01b8152908101849052602490fd5b50903461020b57602091826003193601126102075767ffffffffffffffff8135818111610203576102fa90369084016116da565b92906103046118b3565b60018060a01b03908160025460081c16928651946302256bdf60e11b8652338287015260249589818881895afa90811561076d578b916107c8575b50156107775787516347de8ec760e11b81528281018a90528981806103678a82018c896118e3565b0381895afa90811561076d578b91610738575b50156106f657898851809663f7679ae960e01b82528b8583015281806103a38b82018d8a6118e3565b03915afa80156106ec578a958b928c92610669575b50501561062f5784156105f8578381169889156105c357506127106103df60035487611882565b04936103eb8587611949565b90670de0b6b3a764000091828102908082048414901517156105b15782900497817f000000000000000000000000000000000000000000000000000000000000000016918d833b156105ae578c516340c10f1960e01b8082526001600160a01b03909716888201908152602081018d9052829082908190604001038183895af180156105a45761058c575b505087159182156104e7575b5050505050505090846104dd927fa5976d810d1ea83f34cc3eb6dbbbbb12af641221347e0bb4b71ca764149c302f96885192839283378101600081520390209551938493846040919493926060820195825260208201520152565b0390a36001805580f35b848902928984048614171561057b5750908d95949392916008541694823b15610577578c519485526001600160a01b0390951694840194855291909104602084015290918391839182908490829060400103925af1801561056d57610551575b8080808080610482565b61055d9093929361171e565b61056957908738610547565b8780fd5b88513d84823e3d90fd5b8680fd5b634e487b7160e01b8f52601187528efd5b6105959061171e565b6105a0578d38610476565b8d80fd5b8e513d84823e3d90fd5b80fd5b634e487b7160e01b8d5260118552888dfd5b826011886064938c519362461bcd60e51b855284015282015270125b9d985b1a59081c9958da5c1a595b9d607a1b6044820152fd5b875162461bcd60e51b81528083018a905260128188015271125b9d985b1a590814125608185b5bdd5b9d60721b6044820152606490fd5b875162461bcd60e51b81528083018a90526015818801527414185e5b595b9d081b9bdd0818dbdb999a5c9b5959605a1b6044820152606490fd5b92509550503d808b873e61067d8187611748565b85019460c0818703126106e8578051908a8101519686881688036106e4576106a68b83016118d6565b9360808301518181116106e057826106bf918501611904565b5060a08301519081116105a0576106d69201611904565b50949038806103b8565b8e80fd5b8c80fd5b8a80fd5b88513d8c823e3d90fd5b875162461bcd60e51b81528083018a90526019818801527f504958207061796d656e74206e6f7420636f6e6669726d6564000000000000006044820152606490fd5b90508981813d8311610766575b61074f8183611748565b810103126106e857610760906118d6565b3861037a565b503d610745565b89513d8d823e3d90fd5b875162461bcd60e51b81528083018a90526026818801527f4f6e6c7920617574686f72697a6564207265706f72746572732063616e20636f6044820152656d706c65746560d01b6064820152608490fd5b90508981813d83116107f6575b6107df8183611748565b810103126106e8576107f0906118d6565b3861033f565b503d6107d5565b505034610232578160031936011261023257602090516127108152f35b50503461023257816003193601126102325760085490516001600160a01b039091168152602090f35b5050346102325760203660031901126102325761085e611708565b6001600160a01b03168252600b60205280822054620151804204036108dc5760096020526108c88183205491600a60205280842054935b61089f8585611956565b6006548082106108cc575050905b51938493846040919493926060820195825260208201520152565b0390f35b6108d69250611949565b906108ad565b6108c8829183610895565b5050346102325760203660031901126102325760209181906001600160a01b0361090f611708565b168152600b845220549051908152f35b5050346102325781600319360112610232576020906003549051908152f35b5091346105ae5760203660031901126105ae57506127106109656020936003549035611882565b049051908152f35b5050346102325760203660031901126102325760209181906001600160a01b03610995611708565b1681526009845220549051908152f35b505034610232578160031936011261023257905490516001600160a01b039091168152602090f35b50503461023257816003193601126102325760207f62e78cea01bee320cd4e420270b5ea74000d11b0c9f74754ebdbfc544b05a25891610a0b6117a9565b610a13611895565b600160ff19600254161760025551338152a180f35b83346105ae57806003193601126105ae57610a416117a9565b600080546001600160a01b0319811682556001600160a01b03167f8be0079c531659141344cd1fd0a4f28419497f9722a3daafe3b4186f6b6457e08280a380f35b50919034610232578060031936011261023257823567ffffffffffffffff811161020b57610ab390369085016116da565b60249291923590610ac26118b3565b610aca611895565b8015610cc6578251938181863760ff85838101600c81526020978891030190205416610c8357610afd87548410156117d5565b610b0b600554841115611818565b62015180420433600052600b865280856000205403610c60575b5060098552610b38838560002054611956565b60065410610c1f57336000526009855283600020610b57848254611956565b90558351828282378581848101600c815203019020600160ff19825416179055338652600d8552838620610b8b815461185d565b9055670de0b6b3a76400009182840295848704841485151715610c0c57338852600d90528487205485517fb9b8354f21df9b98f03e2f0ac5e08179a0e3c7df6ef3522635af47479d859d259594936104dd93829181908337810160008152039020955193849333980490846040919493926060820195825260208201520152565b634e487b7160e01b885260118952602488fd5b606487868087519262461bcd60e51b845283015260248201527f4461696c792050495820746f2042524c41206c696d69742065786365656465646044820152fd5b60098652600085812055600a8652600085812055600b8652846000205538610b25565b835162461bcd60e51b8152808801869052601860248201527f50495820494420616c72656164792070726f63657373656400000000000000006044820152606490fd5b825162461bcd60e51b815260208188015260166024820152755049582049442063616e6e6f7420626520656d70747960501b6044820152606490fd5b5050346102325760203660031901126102325760209181906001600160a01b03610d2a611708565b168152600a845220549051908152f35b5050346102325760203660031901126102325760209181906001600160a01b03610d62611708565b168152600d845220549051908152f35b5050346102325781600319360112610232576020906006549051908152f35b50503461023257816003193601126102325760075490516001600160a01b039091168152602090f35b50503461023257816003193601126102325760209060ff6002541690519015158152f35b5050346102325781600319360112610232576020906005549051908152f35b503461020b578260031936011261020b5760209250549051908152f35b503461020b578260031936011261020b57610e336117a9565b6002549060ff821615610e75575060ff1916600255513381527f5db9ee0a495bf2e6ff9c91a7834c1ba4fdd244a5e8aa4e537bd38aeae4b073aa90602090a180f35b8251638dfc202b60e01b8152fd5b505034610232578160031936011261023257517f00000000000000000000000000000000000000000000000000000000000000006001600160a01b03168152602090f35b50829034610232576080366003190112610232578035906024356044359060643592610ef16117a9565b6103e885116110505781156110035781831115610fb45782841115610f5d579186826080959387957fb332ff846a7f7e49c967d592cb8ecccd56f3693ab85af2f484aa5bfabcd2a57a98600355558260055583600655815194855260208501528301526060820152a180f35b608490602088519162461bcd60e51b8352820152602b60248201527f4461696c79206c696d6974206d7573742062652067726561746572207468616e60448201526a081b585e08185b5bdd5b9d60aa1b6064820152fd5b608490602088519162461bcd60e51b8352820152602360248201527f4d617820616d6f756e74206d7573742062652067726561746572207468616e2060448201526236b4b760e91b6064820152fd5b608490602088519162461bcd60e51b8352820152602160248201527f4d696e20616d6f756e74206d7573742062652067726561746572207468616e206044820152600360fc1b6064820152fd5b606490602088519162461bcd60e51b835282015260156024820152744665652063616e6e6f74206578636565642031302560581b6044820152fd5b50903461020b57606036600319011261020b576110a6611708565b906024356001600160a01b038181169182900361122b57604435908082169485830361122b576110d46117a9565b169485156111e85782156111a55784156111625750600780546001600160a01b03199081168717909155600880549091168317815560028054610100600160a81b0319169290911b610100600160a81b0316919091179055815193845260208401528201527f97a48c4be738bdf3e84e8f3927df6d4e52ccc94c58e96a666faca603e456d49090606090a180f35b606490602085519162461bcd60e51b8352820152601a60248201527f496e76616c696420504958206f7261636c6520616464726573730000000000006044820152fd5b606490602085519162461bcd60e51b8352820152601d60248201527f496e76616c69642066656520636f6c6c6563746f7220616464726573730000006044820152fd5b606490602085519162461bcd60e51b8352820152601860248201527f496e76616c6964207472656173757279206164647265737300000000000000006044820152fd5b600080fd5b505034610232578160031936011261023257600254905160089190911c6001600160a01b03168152602090f35b50903461020b578060031936011261020b5760248235813567ffffffffffffffff81116102035761129190369086016116da565b9461129a6118b3565b6112a2611895565b82156116985785156116565784516370a0823160e01b815233818301526020946001600160a01b0392917f000000000000000000000000000000000000000000000000000000000000000084169087818481855afa90811561076d579087918c91611625575b50106115e357670de0b6b3a76400009081870287810483036115d157906113758c848c98979695940497889161134188548410156117d5565b61134f600554841115611818565b8c600b62015180420491338452528d8184842054036115b0575b600a9150522054611956565b6006541061157057338c52600a8952898c20611392878254611956565b90556113ae6127106113a660035489611882565b048097611949565b94813b156106e4578a5163079cc67960e41b815233868201908152602081018b90528e9082908190604001038183875af1801561156457611551575b5086159384156114b9575b505050505050907f95d5bfd23732ba553aaaedb83177aa6ad3cc7e125ea9e898b684ad3c5ae69856956114af9392338a52600d8752818a20611437815461185d565b9055338a52600d8752818a20547f02ab06b404dfd7911fa7df1e5d7410e68bd409b453e8bc4aefd22bfed78dfb658351888152838a820152608085820152611483608082018d896118e3565b9260608201528033930390a28151968796875286015284015260806060840152339560808401916118e3565b0390a26001805580f35b83880294888604851417156115405750908c949392916008541691813b15610203578b516340c10f1960e01b81526001600160a01b039093169483019485529092046020840152918391839182908490829060400103925af1801561056d57611526575b808080806113f5565b611533909493929461171e565b610569579091873861151d565b634e487b7160e01b8e52601186528dfd5b61155d909d919d61171e565b9b386113ea565b8e8d51903d90823e3d90fd5b6064848a85818e519362461bcd60e51b85528401528201527f4461696c792042524c4120746f20504958206c696d69742065786365656465646044820152fd5b806009600b92528385812055600a815283858120555282822055388d611369565b634e487b7160e01b8c5260118552838cfd5b875162461bcd60e51b81528084018890526019818401527f496e73756666696369656e742042524c412062616c616e6365000000000000006044820152606490fd5b809250898092503d831161164f575b61163e8183611748565b810103126106e85786905138611308565b503d611634565b606490601785602088519362461bcd60e51b85528401528201527f504958206b65792063616e6e6f7420626520656d7074790000000000000000006044820152fd5b606490601d85602088519362461bcd60e51b85528401528201527f416d6f756e74206d7573742062652067726561746572207468616e20300000006044820152fd5b9181601f8401121561122b5782359167ffffffffffffffff831161122b576020838186019501011161122b57565b600435906001600160a01b038216820361122b57565b67ffffffffffffffff811161173257604052565b634e487b7160e01b600052604160045260246000fd5b90601f8019910116810190811067ffffffffffffffff82111761173257604052565b67ffffffffffffffff811161173257601f01601f191660200190565b60005b8381106117995750506000910152565b8181015183820152602001611789565b6000546001600160a01b031633036117bd57565b60405163118cdaa760e01b8152336004820152602490fd5b156117dc57565b60405162461bcd60e51b8152602060048201526014602482015273416d6f756e742062656c6f77206d696e696d756d60601b6044820152606490fd5b1561181f57565b60405162461bcd60e51b8152602060048201526016602482015275416d6f756e742065786365656473206d6178696d756d60501b6044820152606490fd5b600019811461186c5760010190565b634e487b7160e01b600052601160045260246000fd5b8181029291811591840414171561186c57565b60ff600254166118a157565b60405163d93c066560e01b8152600490fd5b6002600154146118c4576002600155565b604051633ee5aeb560e01b8152600490fd5b5190811515820361122b57565b908060209392818452848401376000828201840152601f01601f1916010190565b81601f8201121561122b57805161191a8161176a565b926119286040519485611748565b8184526020828401011161122b576119469160208085019101611786565b90565b9190820391821161186c57565b9190820180921161186c5756fea2646970667358221220dc870baadfe928c249cf43b44a7bbf227107390bce34f4869e9b316cd90a765964736f6c63430008140033",
  "linkReferences": {},
  "deployedLinkReferences": {}
}