{
  "_format": "hh-sol-artifact-1",
  "contractName": "PixOracle",
  "sourceName": "contracts/oracles/PixOracle.sol",
  "abi": [
    {
      "inputs": [
        {
          "internalType": "address",
          "name": "initialOwner",
          "type": "address"
        }
      ],
      "stateMutability": "nonpayable",
      "type": "constructor"
    },
    {
      "inputs": [],
      "name": "AccessControlBadConfirmation",
      "type": "error"
    },
    {
      "inputs": [
        {
          "internalType": "address",
          "name": "account",
          "type": "address"
        },
        {
          "internalType": "bytes32",
          "name": "neededRole",
          "type": "bytes32"
        }
      ],
      "name": "AccessControlUnauthorizedAccount",
      "type": "error"
    },
    {
      "inputs": [
        {
          "internalType": "address",
          "name": "owner",
          "type": "address"
        }
      ],
      "name": "OwnableInvalidOwner",
      "type": "error"
    },
    {
      "inputs": [
        {
          "internalType": "address",
          "name": "account",
          "type": "address"
        }
      ],
      "name": "OwnableUnauthorizedAccount",
      "type": "error"
    },
    {
      "inputs": [],
      "name": "ReentrancyGuardReentrantCall",
      "type": "error"
    },
    {
      "anonymous": false,
      "inputs": [
        {
          "indexed": true,
          "internalType": "address",
          "name": "previousOwner",
          "type": "address"
        },
        {
          "indexed": true,
          "internalType": "address",
          "name": "newOwner",
          "type": "address"
        }
      ],
      "name": "OwnershipTransferred",
      "type": "event"
    },
    {
      "anonymous": false,
      "inputs": [
        {
          "indexed": true,
          "internalType": "string",
          "name": "pixId",
          "type": "string"
        },
        {
          "indexed": false,
          "internalType": "uint256",
          "name": "amount",
          "type": "uint256"
        },
        {
          "indexed": true,
          "internalType": "address",
          "name": "recipient",
          "type": "address"
        }
      ],
      "name": "PixPaymentConfirmed",
      "type": "event"
    },
    {
      "anonymous": false,
      "inputs": [
        {
          "indexed": true,
          "internalType": "string",
          "name": "pixId",
          "type": "string"
        },
        {
          "indexed": false,
          "internalType": "uint256",
          "name": "amount",
          "type": "uint256"
        },
        {
          "indexed": true,
          "internalType": "address",
          "name": "recipient",
          "type": "address"
        },
        {
          "indexed": false,
          "internalType": "string",
          "name": "pixKey",
          "type": "string"
        },
        {
          "indexed": false,
          "internalType": "string",
          "name": "bankTransactionId",
          "type": "string"
        }
      ],
      "name": "PixPaymentReported",
      "type": "event"
    },
    {
      "anonymous": false,
      "inputs": [
        {
          "indexed": true,
          "internalType": "address",
          "name": "reporter",
          "type": "address"
        }
      ],
      "name": "ReporterAdded",
      "type": "event"
    },
    {
      "anonymous": false,
      "inputs": [
        {
          "indexed": true,
          "internalType": "address",
          "name": "reporter",
          "type": "address"
        }
      ],
      "name": "ReporterRemoved",
      "type": "event"
    },
    {
      "anonymous": false,
      "inputs": [
        {
          "indexed": true,
          "internalType": "bytes32",
          "name": "role",
          "type": "bytes32"
        },
        {
          "indexed": true,
          "internalType": "bytes32",
          "name": "previousAdminRole",
          "type": "bytes32"
        },
        {
          "indexed": true,
          "internalType": "bytes32",
          "name": "newAdminRole",
          "type": "bytes32"
        }
      ],
      "name": "RoleAdminChanged",
      "type": "event"
    },
    {
      "anonymous": false,
      "inputs": [
        {
          "indexed": true,
          "internalType": "bytes32",
          "name": "role",
          "type": "bytes32"
        },
        {
          "indexed": true,
          "internalType": "address",
          "name": "account",
          "type": "address"
        },
        {
          "indexed": true,
          "internalType": "address",
          "name": "sender",
          "type": "address"
        }
      ],
      "name": "RoleGranted",
      "type": "event"
    },
    {
      "anonymous": false,
      "inputs": [
        {
          "indexed": true,
          "internalType": "bytes32",
          "name": "role",
          "type": "bytes32"
        },
        {
          "indexed": true,
          "internalType": "address",
          "name": "account",
          "type": "address"
        },
        {
          "indexed": true,
          "internalType": "address",
          "name": "sender",
          "type": "address"
        }
      ],
      "name": "RoleRevoked",
      "type": "event"
    },
    {
      "inputs": [],
      "name": "DEFAULT_ADMIN_ROLE",
      "outputs": [
        {
          "internalType": "bytes32",
          "name": "",
          "type": "bytes32"
        }
      ],
      "stateMutability": "view",
      "type": "function"
    },
    {
      "inputs": [],
      "name": "REPORTER_ROLE",
      "outputs": [
        {
          "internalType": "bytes32",
          "name": "",
          "type": "bytes32"
        }
      ],
      "stateMutability": "view",
      "type": "function"
    },
    {
      "inputs": [
        {
          "internalType": "address",
          "name": "reporter",
          "type": "address"
        }
      ],
      "name": "addReporter",
      "outputs": [],
      "stateMutability": "nonpayable",
      "type": "function"
    },
    {
      "inputs": [
        {
          "internalType": "string",
          "name": "pixId",
          "type": "string"
        }
      ],
      "name": "confirmPixPayment",
      "outputs": [
        {
          "internalType": "bool",
          "name": "",
          "type": "bool"
        }
      ],
      "stateMutability": "nonpayable",
      "type": "function"
    },
    {
      "inputs": [
        {
          "internalType": "string",
          "name": "pixId",
          "type": "string"
        }
      ],
      "name": "getPixPaymentInfo",
      "outputs": [
        {
          "internalType": "uint256",
          "name": "amount",
          "type": "uint256"
        },
        {
          "internalType": "address",
          "name": "recipient",
          "type": "address"
        },
        {
          "internalType": "bool",
          "name": "confirmed",
          "type": "bool"
        },
        {
          "internalType": "uint256",
          "name": "timestamp",
          "type": "uint256"
        },
        {
          "internalType": "string",
          "name": "pixKey",
          "type": "string"
        },
        {
          "internalType": "string",
          "name": "bankTransactionId",
          "type": "string"
        }
      ],
      "stateMutability": "view",
      "type": "function"
    },
    {
      "inputs": [
        {
          "internalType": "bytes32",
          "name": "role",
          "type": "bytes32"
        }
      ],
      "name": "getRoleAdmin",
      "outputs": [
        {
          "internalType": "bytes32",
          "name": "",
          "type": "bytes32"
        }
      ],
      "stateMutability": "view",
      "type": "function"
    },
    {
      "inputs": [
        {
          "internalType": "bytes32",
          "name": "role",
          "type": "bytes32"
        },
        {
          "internalType": "address",
          "name": "account",
          "type": "address"
        }
      ],
      "name": "grantRole",
      "outputs": [],
      "stateMutability": "nonpayable",
      "type": "function"
    },
    {
      "inputs": [
        {
          "internalType": "bytes32",
          "name": "role",
          "type": "bytes32"
        },
        {
          "internalType": "address",
          "name": "account",
          "type": "address"
        }
      ],
      "name": "hasRole",
      "outputs": [
        {
          "internalType": "bool",
          "name": "",
          "type": "bool"
        }
      ],
      "stateMutability": "view",
      "type": "function"
    },
    {
      "inputs": [
        {
          "internalType": "string",
          "name": "pixId",
          "type": "string"
        }
      ],
      "name": "isPixPaymentConfirmed",
      "outputs": [
        {
          "internalType": "bool",
          "name": "",
          "type": "bool"
        }
      ],
      "stateMutability": "view",
      "type": "function"
    },
    {
      "inputs": [
        {
          "internalType": "address",
          "name": "account",
          "type": "address"
        }
      ],
      "name": "isReporter",
      "outputs": [
        {
          "internalType": "bool",
          "name": "",
          "type": "bool"
        }
      ],
      "stateMutability": "view",
      "type": "function"
    },
    {
      "inputs": [],
      "name": "owner",
      "outputs": [
        {
          "internalType": "address",
          "name": "",
          "type": "address"
        }
      ],
      "stateMutability": "view",
      "type": "function"
    },
    {
      "inputs": [
        {
          "internalType": "string",
          "name": "",
          "type": "string"
        }
      ],
      "name": "pixPayments",
      "outputs": [
        {
          "internalType": "uint256",
          "name": "amount",
          "type": "uint256"
        },
        {
          "internalType": "address",
          "name": "recipient",
          "type": "address"
        },
        {
          "internalType": "bool",
          "name": "confirmed",
          "type": "bool"
        },
        {
          "internalType": "uint256",
          "name": "timestamp",
          "type": "uint256"
        },
        {
          "internalType": "string",
          "name": "pixKey",
          "type": "string"
        },
        {
          "internalType": "string",
          "name": "bankTransactionId",
          "type": "string"
        }
      ],
      "stateMutability": "view",
      "type": "function"
    },
    {
      "inputs": [
        {
          "internalType": "string",
          "name": "",
          "type": "string"
        }
      ],
      "name": "processedTransactions",
      "outputs": [
        {
          "internalType": "bool",
          "name": "",
          "type": "bool"
        }
      ],
      "stateMutability": "view",
      "type": "function"
    },
    {
      "inputs": [
        {
          "internalType": "address",
          "name": "reporter",
          "type": "address"
        }
      ],
      "name": "removeReporter",
      "outputs": [],
      "stateMutability": "nonpayable",
      "type": "function"
    },
    {
      "inputs": [],
      "name": "renounceOwnership",
      "outputs": [],
      "stateMutability": "nonpayable",
      "type": "function"
    },
    {
      "inputs": [
        {
          "internalType": "bytes32",
          "name": "role",
          "type": "bytes32"
        },
        {
          "internalType": "address",
          "name": "callerConfirmation",
          "type": "address"
        }
      ],
      "name": "renounceRole",
      "outputs": [],
      "stateMutability": "nonpayable",
      "type": "function"
    },
    {
      "inputs": [
        {
          "internalType": "string",
          "name": "pixId",
          "type": "string"
        },
        {
          "internalType": "uint256",
          "name": "amount",
          "type": "uint256"
        },
        {
          "internalType": "address",
          "name": "recipient",
          "type": "address"
        },
        {
          "internalType": "string",
          "name": "pixKey",
          "type": "string"
        },
        {
          "internalType": "string",
          "name": "bankTransactionId",
          "type": "string"
        }
      ],
      "name": "reportPixPayment",
      "outputs": [],
      "stateMutability": "nonpayable",
      "type": "function"
    },
    {
      "inputs": [
        {
          "internalType": "bytes32",
          "name": "role",
          "type": "bytes32"
        },
        {
          "internalType": "address",
          "name": "account",
          "type": "address"
        }
      ],
      "name": "revokeRole",
      "outputs": [],
      "stateMutability": "nonpayable",
      "type": "function"
    },
    {
      "inputs": [
        {
          "internalType": "bytes4",
          "name": "interfaceId",
          "type": "bytes4"
        }
      ],
      "name": "supportsInterface",
      "outputs": [
        {
          "internalType": "bool",
          "name": "",
          "type": "bool"
        }
      ],
      "stateMutability": "view",
      "type": "function"
    },
    {
      "inputs": [
        {
          "internalType": "address",
          "name": "newOwner",
          "type": "address"
        }
      ],
      "name": "transferOwnership",
      "outputs": [],
      "stateMutability": "nonpayable",
      "type": "function"
    }
  ],
  "bytecode": "0x608034620000dc57601f6200173d38819003918201601f19168301916001600160401b03831184841017620000e157808492602094604052833981010312620000dc57516001600160a01b0390818116808203620000dc578015620000c357600080546001600160a01b0319811683178255620000b29416907f8be0079c531659141344cd1fd0a4f28419497f9722a3daafe3b4186f6b6457e09080a360018055620000ab81620000f7565b5062000178565b5060405161150190816200021c8239f35b604051631e4fbdf760e01b815260006004820152602490fd5b600080fd5b634e487b7160e01b600052604160045260246000fd5b6001600160a01b031660008181527fac33ff75c19e70fe83507db0d683fd3465c996598dc972688b7ace676c89077b602052604081205490919060ff16620001745781805260026020526040822081835260205260408220600160ff1982541617905533916000805160206200171d8339815191528180a4600190565b5090565b6001600160a01b031660008181527f49a2a326875358081ceba6b74a5b6498b680a1a94d2cf53a85c3b48b58e0391c60205260408120549091907f3204c940063673962b481a0395619b3dbbd137589c419e993978c1c71bcf68ec9060ff16620002165780835260026020526040832082845260205260408320600160ff198254161790556000805160206200171d833981519152339380a4600190565b50509056fe608080604052600436101561001357600080fd5b60003560e01c90816301ffc9a714610e7657508063044ad7be14610e26578063220e99f2146108b9578063248a9ca31461088a5780632f2ff15d1461084b57806335dd46ca1461068757806336568abe146106405780633f60d79914610617578063455893ce146105af5780635de5c21214610512578063715018a6146104b95780638da5cb5b146104905780638fbd1d8e1461043457806391d14854146103e75780639ea32844146103a8578063a217fddf1461038c578063d547741f1461034b578063dd8755f214610260578063f2fde38b146101d25763f7679ae9146100fb57600080fd5b346101cd5760203660031901126101cd576004356001600160401b0381116101cd5761012d6020913690600401610ef5565b9190826040519384928337810160038152030190206040519061014f82610f22565b805482526101c9600182015492602081019260018060a01b0390818616855260ff604084019660a01c1615158652600281015491606084019283526101a9600461019b6003850161103f565b93608087019485520161103f565b938460a0820152519551169551151591519051916040519687968761110a565b0390f35b600080fd5b346101cd5760203660031901126101cd576101eb610ec9565b6101f36113d6565b6001600160a01b0390811690811561024757600054826bffffffffffffffffffffffff60a01b821617600055167f8be0079c531659141344cd1fd0a4f28419497f9722a3daafe3b4186f6b6457e0600080a3005b604051631e4fbdf760e01b815260006004820152602490fd5b346101cd5760203660031901126101cd57610279610ec9565b6102816113d6565b6001600160a01b0381169081156103065760008051602061148c83398151915260005260026020527f49a2a326875358081ceba6b74a5b6498b680a1a94d2cf53a85c3b48b58e0391d546102de91906102d9906111a7565b6111cd565b507f52824c4a4d431c73d6d24a91f775d722860111c6d30da30b0b21e062fb4c7365600080a2005b60405162461bcd60e51b815260206004820152601860248201527f496e76616c6964207265706f72746572206164647265737300000000000000006044820152606490fd5b346101cd5760403660031901126101cd5761038a60043561036a610edf565b908060005260026020526103856001604060002001546111a7565b61135f565b005b346101cd5760003660031901126101cd57602060405160008152f35b346101cd57602060ff6103d1826103be36610fa4565b8160405193828580945193849201610fe2565b8101600481520301902054166040519015158152f35b346101cd5760403660031901126101cd57610400610edf565b600435600052600260205260406000209060018060a01b0316600052602052602060ff604060002054166040519015158152f35b346101cd5760203660031901126101cd576004356001600160401b0381116101cd5760ff6001602061046b81943690600401610ef5565b919082604051938492833781016003815203019020015460a01c166040519015158152f35b346101cd5760003660031901126101cd576000546040516001600160a01b039091168152602090f35b346101cd5760003660031901126101cd576104d26113d6565b600080546001600160a01b0319811682556001600160a01b03167f8be0079c531659141344cd1fd0a4f28419497f9722a3daafe3b4186f6b6457e08280a3005b346101cd5760203660031901126101cd5761052b610ec9565b6105336113d6565b60008051602061148c83398151915260005260026020527f49a2a326875358081ceba6b74a5b6498b680a1a94d2cf53a85c3b48b58e0391d54610575906111a7565b61057e816112d7565b506001600160a01b03167ff125aa5e6cb22c17ea0de4e1f86d2ff289ddd6a37e791b9ad29d0091cba06ac8600080a2005b346101cd576105c260206103be36610fa4565b8101600381520301902080546101c96001830154926002810154906105f560046105ee6003840161103f565b920161103f565b60405195869591939160a082901c60ff16916001600160a01b0316908761110a565b346101cd5760003660031901126101cd57602060405160008051602061148c8339815191528152f35b346101cd5760403660031901126101cd57610659610edf565b336001600160a01b038216036106755761038a9060043561135f565b60405163334bd91960e11b8152600490fd5b346101cd576020806003193601126101cd576004356001600160401b0381116101cd576106b8903690600401610ef5565b906106c1611151565b6106c9611468565b6106d4821515611402565b60ff604051838382378481858101600481520301902054161561080657604051918082843760ff818401600381528486600196879303019020015460a01c166107c157826040518284823760038382019081528190038601902001805460ff60a01b1916600160a01b1790556040517fafdc294884dbbf0a1d9b4bcd762639fba7306aa04b0ac0b23c26b3f47efffd559085908385823781818581016003815203019020549260405181868237868282019160038352848160018060a01b0394030190200154169481604051928392833781016000815203902092604051908152a3808055604051908152f35b60405162461bcd60e51b815260048101859052601960248201527f5061796d656e7420616c726561647920636f6e6669726d6564000000000000006044820152606490fd5b60405162461bcd60e51b815260048101849052601860248201527f5472616e73616374696f6e206e6f74207265706f7274656400000000000000006044820152606490fd5b346101cd5760403660031901126101cd5761038a60043561086a610edf565b908060005260026020526108856001604060002001546111a7565b61125c565b346101cd5760203660031901126101cd5760043560005260026020526020600160406000200154604051908152f35b346101cd5760a03660031901126101cd576004356001600160401b0381116101cd576108e9903690600401610ef5565b6044356001600160a01b03811681036101cd576064356001600160401b0381116101cd5761091b903690600401610ef5565b6084356001600160401b0381116101cd5761093a903690600401610ef5565b939094610945611151565b61094d611468565b610958811515611402565b60243515610de1576001600160a01b03821615610d9c5760ff6040518289823760208184810160048152030190205416610d57576040519661099988610f22565b60243588526001600160a01b0383166020890152600060408901524260608901526109c5368587610f5e565b60808901526109d5368789610f5e565b60a089015260405182828237602081848101600381520301902097805189556001890160018060a01b0360208301511681549060ff60a01b6040850151151560a01b16916affffffffffffffffffffff60a81b1617179055606081015160028a015560808101518051906001600160401b038211610c7c57610a5a60038c0154611005565b601f8111610d10575b50602090601f8311600114610c9d5760a093929160009183610c92575b50508160011b916000199060031b1c19161760038b01555b01519788516001600160401b038111610c7c57610ab86004830154611005565b601f8111610c35575b506020601f8211600114610b9c5781610b8896959493926004927f43fa1555f24cd7a15b3ff5cc41d5c7155868585c1765735a85122a641d4f36b69b9c9d600092610b91575b50508160011b916000199060031b1c1916179101555b604051828282376020818481016004815203019020600160ff1982541617905581604051928392833781016000815203902095610b6f6040519586956024358752606060208801526060870191611447565b84810360408601526001600160a01b0390921697611447565b0390a360018055005b015190508d80610b07565b6004830160005260206000209a60005b601f1984168110610c1d5750827f43fa1555f24cd7a15b3ff5cc41d5c7155868585c1765735a85122a641d4f36b69a9b9c600493600193610b889a99989796601f19811610610c04575b505050811b01910155610b1d565b015160001960f88460031b161c191690558d8080610bf6565b828201518d556001909c019b60209283019201610bac565b600483016000526020600020601f830160051c810160208410610c75575b601f830160051c82018110610c69575050610ac1565b60008155600101610c53565b5080610c53565b634e487b7160e01b600052604160045260246000fd5b015190508c80610a80565b9060038c0160005260206000209160005b601f1985168110610cf8575091839160019360a09695601f19811610610cdf575b505050811b0160038b0155610a98565b015160001960f88460031b161c191690558c8080610ccf565b91926020600181928685015181550194019201610cae565b60038c016000526020600020601f840160051c810160208510610d50575b601f830160051c82018110610d44575050610a63565b60008155600101610d2e565b5080610d2e565b60405162461bcd60e51b815260206004820152601d60248201527f5472616e73616374696f6e20616c72656164792070726f6365737365640000006044820152606490fd5b60405162461bcd60e51b815260206004820152601960248201527f496e76616c696420726563697069656e742061646472657373000000000000006044820152606490fd5b60405162461bcd60e51b815260206004820152601d60248201527f416d6f756e74206d7573742062652067726561746572207468616e20300000006044820152606490fd5b346101cd5760203660031901126101cd57610e3f610ec9565b6001600160a01b031660009081526000805160206114ac833981519152602090815260409182902054915160ff9092161515825290f35b346101cd5760203660031901126101cd576004359063ffffffff60e01b82168092036101cd57602091637965db0b60e01b8114908115610eb8575b5015158152f35b6301ffc9a760e01b14905083610eb1565b600435906001600160a01b03821682036101cd57565b602435906001600160a01b03821682036101cd57565b9181601f840112156101cd578235916001600160401b0383116101cd57602083818601950101116101cd57565b60c081019081106001600160401b03821117610c7c57604052565b90601f801991011681019081106001600160401b03821117610c7c57604052565b9291926001600160401b038211610c7c5760405191610f87601f8201601f191660200184610f3d565b8294818452818301116101cd578281602093846000960137010152565b60206003198201126101cd57600435906001600160401b0382116101cd57806023830112156101cd57816024610fdf93600401359101610f5e565b90565b60005b838110610ff55750506000910152565b8181015183820152602001610fe5565b90600182811c92168015611035575b602083101461101f57565b634e487b7160e01b600052602260045260246000fd5b91607f1691611014565b906040519182600082549261105384611005565b9081845260019485811690816000146110c2575060011461107f575b505061107d92500383610f3d565b565b9093915060005260209081600020936000915b8183106110aa57505061107d9350820101388061106f565b85548884018501529485019487945091830191611092565b91505061107d94506020925060ff191682840152151560051b820101388061106f565b906020916110fe81518092818552858086019101610fe2565b601f01601f1916010190565b94919261114393610fdf979592875260018060a01b0316602087015215156040860152606085015260c0608085015260c08401906110e5565b9160a08184039101526110e5565b3360009081526000805160206114ac833981519152602052604090205460008051602061148c8339815191529060ff16156111895750565b6044906040519063e2517d3f60e01b82523360048301526024820152fd5b80600052600260205260406000203360005260205260ff60406000205416156111895750565b6001600160a01b031660008181526000805160206114ac833981519152602052604081205490919060008051602061148c8339815191529060ff166112575780835260026020526040832082845260205260408320600160ff198254161790557f2f8788117e7eff1d82e926ec794901d17c78024a50270940304540a733656f0d339380a4600190565b505090565b906000918083526002602052604083209160018060a01b03169182845260205260ff604084205416156000146112575780835260026020526040832082845260205260408320600160ff198254161790557f2f8788117e7eff1d82e926ec794901d17c78024a50270940304540a733656f0d339380a4600190565b6001600160a01b031660008181526000805160206114ac833981519152602052604081205490919060008051602061148c8339815191529060ff1615611257578083526002602052604083208284526020526040832060ff1981541690557ff6391f5c32d9c69d2a47ea670b442974b53935d1edc7fd64eb21e047a839171b339380a4600190565b906000918083526002602052604083209160018060a01b03169182845260205260ff604084205416600014611257578083526002602052604083208284526020526040832060ff1981541690557ff6391f5c32d9c69d2a47ea670b442974b53935d1edc7fd64eb21e047a839171b339380a4600190565b6000546001600160a01b031633036113ea57565b60405163118cdaa760e01b8152336004820152602490fd5b1561140957565b60405162461bcd60e51b81526020600482015260166024820152755049582049442063616e6e6f7420626520656d70747960501b6044820152606490fd5b908060209392818452848401376000828201840152601f01601f1916010190565b600260015414611479576002600155565b604051633ee5aeb560e01b8152600490fdfe3204c940063673962b481a0395619b3dbbd137589c419e993978c1c71bcf68ec49a2a326875358081ceba6b74a5b6498b680a1a94d2cf53a85c3b48b58e0391ca2646970667358221220d8a65b6f8b0a43a3d9ea4b493731ab41c0290fcc026655cd28c0bbbc38ec998764736f6c634300081400332f8788117e7eff1d82e926ec794901d17c78024a50270940304540a733656f0d",
  "linkReferences": {},
  "deployedLinkReferences": {}
}